{"address":"0x67B3D04619974a4CcE38Aa6423A05552C8c72f9f","abi":[{"inputs":[{"internalType":"uint8","name":"feePercentage","type":"uint8"},{"internalType":"address","name":"key","type":"address"}],"stateMutability":"nonpayable","type":"constructor"},{"anonymous":false,"inputs":[{"indexed":true,"internalType":"address","name":"owner","type":"address"},{"indexed":true,"internalType":"address","name":"approved","type":"address"},{"indexed":true,"internalType":"uint256","name":"tokenId","type":"uint256"}],"name":"Approval","type":"event"},{"anonymous":false,"inputs":[{"indexed":true,"internalType":"address","name":"owner","type":"address"},{"indexed":true,"internalType":"address","name":"operator","type":"address"},{"indexed":false,"internalType":"bool","name":"approved","type":"bool"}],"name":"ApprovalForAll","type":"event"},{"anonymous":false,"inputs":[{"indexed":false,"internalType":"address","name":"author","type":"address"},{"indexed":false,"internalType":"string","name":"cid","type":"string"},{"indexed":true,"internalType":"uint256","name":"bookId","type":"uint256"}],"name":"BookCreated","type":"event"},{"anonymous":false,"inputs":[{"indexed":true,"internalType":"uint256","name":"bookId","type":"uint256"},{"indexed":false,"internalType":"uint256","name":"purchasePrice","type":"uint256"},{"indexed":false,"internalType":"uint256","name":"rentPrice","type":"uint256"}],"name":"BookPublished","type":"event"},{"anonymous":false,"inputs":[{"indexed":true,"internalType":"address","name":"from","type":"address"},{"indexed":true,"internalType":"address","name":"to","type":"address"},{"indexed":true,"internalType":"uint256","name":"tokenId","type":"uint256"}],"name":"Transfer","type":"event"},{"inputs":[],"name":"_feePercentage","outputs":[{"internalType":"uint8","name":"","type":"uint8"}],"stateMutability":"view","type":"function"},{"inputs":[],"name":"_key","outputs":[{"internalType":"contract Key","name":"","type":"address"}],"stateMutability":"view","type":"function"},{"inputs":[{"internalType":"address","name":"to","type":"address"},{"internalType":"uint256","name":"tokenId","type":"uint256"}],"name":"approve","outputs":[],"stateMutability":"nonpayable","type":"function"},{"inputs":[{"internalType":"address","name":"owner","type":"address"}],"name":"balanceOf","outputs":[{"internalType":"uint256","name":"","type":"uint256"}],"stateMutability":"view","type":"function"},{"inputs":[{"internalType":"uint256","name":"","type":"uint256"}],"name":"bookIdToBookStruct","outputs":[{"internalType":"string","name":"cid","type":"string"},{"internalType":"uint256","name":"purchasePrice","type":"uint256"},{"internalType":"uint256","name":"rentPrice","type":"uint256"},{"internalType":"uint256","name":"totalRevenue","type":"uint256"}],"stateMutability":"view","type":"function"},{"inputs":[{"internalType":"uint256","name":"bookId","type":"uint256"}],"name":"buyAccess","outputs":[],"stateMutability":"payable","type":"function"},{"inputs":[{"internalType":"uint256","name":"keyId","type":"uint256"}],"name":"buyBookOwnership","outputs":[],"stateMutability":"nonpayable","type":"function"},{"inputs":[{"internalType":"uint256","name":"bookId","type":"uint256"},{"internalType":"address","name":"caller","type":"address"}],"name":"canAccessBook","outputs":[{"internalType":"bool","name":"","type":"bool"}],"stateMutability":"view","type":"function"},{"inputs":[{"internalType":"string","name":"cid","type":"string"}],"name":"createBook","outputs":[],"stateMutability":"nonpayable","type":"function"},{"inputs":[{"internalType":"uint256","name":"tokenId","type":"uint256"}],"name":"getApproved","outputs":[{"internalType":"address","name":"","type":"address"}],"stateMutability":"view","type":"function"},{"inputs":[{"internalType":"address","name":"owner","type":"address"},{"internalType":"address","name":"operator","type":"address"}],"name":"isApprovedForAll","outputs":[{"internalType":"bool","name":"","type":"bool"}],"stateMutability":"view","type":"function"},{"inputs":[],"name":"name","outputs":[{"internalType":"string","name":"","type":"string"}],"stateMutability":"view","type":"function"},{"inputs":[{"internalType":"uint256","name":"tokenId","type":"uint256"}],"name":"ownerOf","outputs":[{"internalType":"address","name":"","type":"address"}],"stateMutability":"view","type":"function"},{"inputs":[{"internalType":"uint256","name":"keyId","type":"uint256"}],"name":"rentAccessToBook","outputs":[],"stateMutability":"nonpayable","type":"function"},{"inputs":[{"internalType":"address","name":"from","type":"address"},{"internalType":"address","name":"to","type":"address"},{"internalType":"uint256","name":"tokenId","type":"uint256"}],"name":"safeTransferFrom","outputs":[],"stateMutability":"nonpayable","type":"function"},{"inputs":[{"internalType":"address","name":"from","type":"address"},{"internalType":"address","name":"to","type":"address"},{"internalType":"uint256","name":"tokenId","type":"uint256"},{"internalType":"bytes","name":"data","type":"bytes"}],"name":"safeTransferFrom","outputs":[],"stateMutability":"nonpayable","type":"function"},{"inputs":[{"internalType":"uint256","name":"keyId","type":"uint256"}],"name":"sellBookOwnership","outputs":[],"stateMutability":"nonpayable","type":"function"},{"inputs":[{"internalType":"address","name":"operator","type":"address"},{"internalType":"bool","name":"approved","type":"bool"}],"name":"setApprovalForAll","outputs":[],"stateMutability":"nonpayable","type":"function"},{"inputs":[{"internalType":"bytes4","name":"interfaceId","type":"bytes4"}],"name":"supportsInterface","outputs":[{"internalType":"bool","name":"","type":"bool"}],"stateMutability":"view","type":"function"},{"inputs":[],"name":"symbol","outputs":[{"internalType":"string","name":"","type":"string"}],"stateMutability":"view","type":"function"},{"inputs":[{"internalType":"uint256","name":"tokenId","type":"uint256"}],"name":"tokenURI","outputs":[{"internalType":"string","name":"","type":"string"}],"stateMutability":"view","type":"function"},{"inputs":[{"internalType":"address","name":"from","type":"address"},{"internalType":"address","name":"to","type":"address"},{"internalType":"uint256","name":"tokenId","type":"uint256"}],"name":"transferFrom","outputs":[],"stateMutability":"nonpayable","type":"function"},{"inputs":[{"internalType":"uint256","name":"bookId","type":"uint256"},{"internalType":"uint256","name":"purchasePrice","type":"uint256"},{"internalType":"uint256","name":"rentPrice","type":"uint256"}],"name":"uploadBook","outputs":[],"stateMutability":"nonpayable","type":"function"},{"inputs":[{"internalType":"uint256","name":"bookId","type":"uint256"}],"name":"withdrawProfit","outputs":[],"stateMutability":"payable","type":"function"},{"stateMutability":"payable","type":"receive"}],"bytecode":"0x60a06040523480156200001157600080fd5b506040516200418f3803806200418f8339818101604052810190620000379190620001c8565b6040518060400160405280600481526020017f426f6f6b000000000000000000000000000000000000000000000000000000008152506040518060400160405280600281526020017f426b0000000000000000000000000000000000000000000000000000000000008152508160009081620000b4919062000489565b508060019081620000c6919062000489565b50505081600860006101000a81548160ff021916908360ff1602179055508073ffffffffffffffffffffffffffffffffffffffff1660808173ffffffffffffffffffffffffffffffffffffffff1681525050505062000570565b600080fd5b600060ff82169050919050565b6200013d8162000125565b81146200014957600080fd5b50565b6000815190506200015d8162000132565b92915050565b600073ffffffffffffffffffffffffffffffffffffffff82169050919050565b6000620001908262000163565b9050919050565b620001a28162000183565b8114620001ae57600080fd5b50565b600081519050620001c28162000197565b92915050565b60008060408385031215620001e257620001e162000120565b5b6000620001f2858286016200014c565b92505060206200020585828601620001b1565b9150509250929050565b600081519050919050565b7f4e487b7100000000000000000000000000000000000000000000000000000000600052604160045260246000fd5b7f4e487b7100000000000000000000000000000000000000000000000000000000600052602260045260246000fd5b600060028204905060018216806200029157607f821691505b602082108103620002a757620002a662000249565b5b50919050565b60008190508160005260206000209050919050565b60006020601f8301049050919050565b600082821b905092915050565b600060088302620003117fffffffffffffffffffffffffffffffffffffffffffffffffffffffffffffffff82620002d2565b6200031d8683620002d2565b95508019841693508086168417925050509392505050565b6000819050919050565b6000819050919050565b60006200036a620003646200035e8462000335565b6200033f565b62000335565b9050919050565b6000819050919050565b620003868362000349565b6200039e620003958262000371565b848454620002df565b825550505050565b600090565b620003b5620003a6565b620003c28184846200037b565b505050565b5b81811015620003ea57620003de600082620003ab565b600181019050620003c8565b5050565b601f82111562000439576200040381620002ad565b6200040e84620002c2565b810160208510156200041e578190505b620004366200042d85620002c2565b830182620003c7565b50505b505050565b600082821c905092915050565b60006200045e600019846008026200043e565b1980831691505092915050565b60006200047983836200044b565b9150826002028217905092915050565b62000494826200020f565b67ffffffffffffffff811115620004b057620004af6200021a565b5b620004bc825462000278565b620004c9828285620003ee565b600060209050601f831160018114620005015760008415620004ec578287015190505b620004f885826200046b565b86555062000568565b601f1984166200051186620002ad565b60005b828110156200053b5784890151825560018201915060208501945060208101905062000514565b868310156200055b578489015162000557601f8916826200044b565b8355505b6001600288020188555050505b505050505050565b608051613be0620005af6000396000818161093f01528181610abc01528181610b6001528181610bfd01528181610d0b0152610eda0152613be06000f3fe60806040526004361061014f5760003560e01c8063815092d7116100b6578063b9f72b7d1161006f578063b9f72b7d146104b1578063c87b56dd146104da578063d82a2bea14610517578063e985e9c514610533578063f699343e14610570578063f9c9c8781461059b57610156565b8063815092d7146103a25780639072df6b146103cb57806395d89b41146103f4578063a22cb4651461041f578063b75174f014610448578063b88d4fde1461048857610156565b806342842e0e1161010857806342842e0e1461028f5780634ba8b733146102b857806350a1a264146102e15780636352211e146102fd57806370a082311461033a57806374ad7ac41461037757610156565b806301ffc9a71461015b57806306fdde0314610198578063081812fc146101c3578063095ea7b31461020057806323b872dd1461022957806336d964121461025257610156565b3661015657005b600080fd5b34801561016757600080fd5b50610182600480360381019061017d91906125d2565b6105c4565b60405161018f919061261a565b60405180910390f35b3480156101a457600080fd5b506101ad6106a6565b6040516101ba91906126c5565b60405180910390f35b3480156101cf57600080fd5b506101ea60048036038101906101e5919061271d565b610738565b6040516101f7919061278b565b60405180910390f35b34801561020c57600080fd5b50610227600480360381019061022291906127d2565b61077e565b005b34801561023557600080fd5b50610250600480360381019061024b9190612812565b610895565b005b34801561025e57600080fd5b5061027960048036038101906102749190612865565b6108f5565b604051610286919061261a565b60405180910390f35b34801561029b57600080fd5b506102b660048036038101906102b19190612812565b610a37565b005b3480156102c457600080fd5b506102df60048036038101906102da919061271d565b610a57565b005b6102fb60048036038101906102f6919061271d565b610a5a565b005b34801561030957600080fd5b50610324600480360381019061031f919061271d565b610d9b565b604051610331919061278b565b60405180910390f35b34801561034657600080fd5b50610361600480360381019061035c91906128a5565b610e21565b60405161036e91906128e1565b60405180910390f35b34801561038357600080fd5b5061038c610ed8565b604051610399919061295b565b60405180910390f35b3480156103ae57600080fd5b506103c960048036038101906103c49190612976565b610efc565b005b3480156103d757600080fd5b506103f260048036038101906103ed919061271d565b61103f565b005b34801561040057600080fd5b50610409611042565b60405161041691906126c5565b60405180910390f35b34801561042b57600080fd5b50610446600480360381019061044191906129f5565b6110d4565b005b34801561045457600080fd5b5061046f600480360381019061046a919061271d565b6110ea565b60405161047f9493929190612a35565b60405180910390f35b34801561049457600080fd5b506104af60048036038101906104aa9190612bb6565b6111a2565b005b3480156104bd57600080fd5b506104d860048036038101906104d39190612cda565b611204565b005b3480156104e657600080fd5b5061050160048036038101906104fc919061271d565b611298565b60405161050e91906126c5565b60405180910390f35b610531600480360381019061052c919061271d565b6113aa565b005b34801561053f57600080fd5b5061055a60048036038101906105559190612d23565b6114a4565b604051610567919061261a565b60405180910390f35b34801561057c57600080fd5b50610585611538565b6040516105929190612d7f565b60405180910390f35b3480156105a757600080fd5b506105c260048036038101906105bd919061271d565b61154b565b005b60007f80ac58cd000000000000000000000000000000000000000000000000000000007bffffffffffffffffffffffffffffffffffffffffffffffffffffffff1916827bffffffffffffffffffffffffffffffffffffffffffffffffffffffff1916148061068f57507f5b5e139f000000000000000000000000000000000000000000000000000000007bffffffffffffffffffffffffffffffffffffffffffffffffffffffff1916827bffffffffffffffffffffffffffffffffffffffffffffffffffffffff1916145b8061069f575061069e8261154e565b5b9050919050565b6060600080546106b590612dc9565b80601f01602080910402602001604051908101604052809291908181526020018280546106e190612dc9565b801561072e5780601f106107035761010080835404028352916020019161072e565b820191906000526020600020905b81548152906001019060200180831161071157829003601f168201915b5050505050905090565b6000610743826115b8565b6004600083815260200190815260200160002060009054906101000a900473ffffffffffffffffffffffffffffffffffffffff169050919050565b600061078982610d9b565b90508073ffffffffffffffffffffffffffffffffffffffff168373ffffffffffffffffffffffffffffffffffffffff16036107f9576040517f08c379a00000000000000000000000000000000000000000000000000000000081526004016107f090612e6c565b60405180910390fd5b8073ffffffffffffffffffffffffffffffffffffffff16610818611603565b73ffffffffffffffffffffffffffffffffffffffff161480610847575061084681610841611603565b6114a4565b5b610886576040517f08c379a000000000000000000000000000000000000000000000000000000000815260040161087d90612efe565b60405180910390fd5b610890838361160b565b505050565b6108a66108a0611603565b826116c4565b6108e5576040517f08c379a00000000000000000000000000000000000000000000000000000000081526004016108dc90612f90565b60405180910390fd5b6108f0838383611759565b505050565b60008173ffffffffffffffffffffffffffffffffffffffff1661091784610d9b565b73ffffffffffffffffffffffffffffffffffffffff160361093b5760019050610a31565b60007f000000000000000000000000000000000000000000000000000000000000000073ffffffffffffffffffffffffffffffffffffffff1663745c84ca846040518263ffffffff1660e01b8152600401610996919061278b565b602060405180830381865afa1580156109b3573d6000803e3d6000fd5b505050506040513d601f19601f820116820180604052508101906109d79190612fc5565b9050600081036109eb576000915050610a31565b600060096000868152602001908152602001600020905042816004016000848152602001908152602001600020541115610a2a57600192505050610a31565b6000925050505b92915050565b610a52838383604051806020016040528060008152506111a2565b505050565b50565b60006009600083815260200190815260200160002090508060010154341015610ab8576040517f08c379a0000000000000000000000000000000000000000000000000000000008152600401610aaf9061303e565b60405180910390fd5b60007f000000000000000000000000000000000000000000000000000000000000000073ffffffffffffffffffffffffffffffffffffffff1663745c84ca336040518263ffffffff1660e01b8152600401610b13919061278b565b602060405180830381865afa158015610b30573d6000803e3d6000fd5b505050506040513d601f19601f82011682018060405250810190610b549190612fc5565b905060008103610c98577f000000000000000000000000000000000000000000000000000000000000000073ffffffffffffffffffffffffffffffffffffffff166356ddf67b336040518263ffffffff1660e01b8152600401610bb7919061278b565b6020604051808303816000875af1158015610bd6573d6000803e3d6000fd5b505050506040513d601f19601f82011682018060405250810190610bfa9190612fc5565b507f000000000000000000000000000000000000000000000000000000000000000073ffffffffffffffffffffffffffffffffffffffff1663745c84ca336040518263ffffffff1660e01b8152600401610c54919061278b565b602060405180830381865afa158015610c71573d6000803e3d6000fd5b505050506040513d601f19601f82011682018060405250810190610c959190612fc5565b90505b7fffffffffffffffffffffffffffffffffffffffffffffffffffffffffffffffff82600401600083815260200190815260200160002081905550610cef600860009054906101000a900460ff168360010154611a52565b826003016000828254610d02919061308d565b925050819055507f000000000000000000000000000000000000000000000000000000000000000073ffffffffffffffffffffffffffffffffffffffff16632597e04782856040518363ffffffff1660e01b8152600401610d649291906130c1565b600060405180830381600087803b158015610d7e57600080fd5b505af1158015610d92573d6000803e3d6000fd5b50505050505050565b600080610da783611a83565b9050600073ffffffffffffffffffffffffffffffffffffffff168173ffffffffffffffffffffffffffffffffffffffff1603610e18576040517f08c379a0000000000000000000000000000000000000000000000000000000008152600401610e0f90613136565b60405180910390fd5b80915050919050565b60008073ffffffffffffffffffffffffffffffffffffffff168273ffffffffffffffffffffffffffffffffffffffff1603610e91576040517f08c379a0000000000000000000000000000000000000000000000000000000008152600401610e88906131c8565b60405180910390fd5b600360008373ffffffffffffffffffffffffffffffffffffffff1673ffffffffffffffffffffffffffffffffffffffff168152602001908152602001600020549050919050565b7f000000000000000000000000000000000000000000000000000000000000000081565b600083118015610f155750610f116007611ac0565b8311155b610f54576040517f08c379a0000000000000000000000000000000000000000000000000000000008152600401610f4b90613234565b60405180910390fd5b3373ffffffffffffffffffffffffffffffffffffffff16610f7484610d9b565b73ffffffffffffffffffffffffffffffffffffffff1614610fca576040517f08c379a0000000000000000000000000000000000000000000000000000000008152600401610fc1906132a0565b60405180910390fd5b816009600085815260200190815260200160002060010181905550806009600085815260200190815260200160002060020181905550827f204930f3db2bb7f6984c024cf2a93710045c72024ec59bff7d4e63b2409c841e83836040516110329291906130c1565b60405180910390a2505050565b50565b60606001805461105190612dc9565b80601f016020809104026020016040519081016040528092919081815260200182805461107d90612dc9565b80156110ca5780601f1061109f576101008083540402835291602001916110ca565b820191906000526020600020905b8154815290600101906020018083116110ad57829003601f168201915b5050505050905090565b6110e66110df611603565b8383611ace565b5050565b600960205280600052604060002060009150905080600001805461110d90612dc9565b80601f016020809104026020016040519081016040528092919081815260200182805461113990612dc9565b80156111865780601f1061115b57610100808354040283529160200191611186565b820191906000526020600020905b81548152906001019060200180831161116957829003601f168201915b5050505050908060010154908060020154908060030154905084565b6111b36111ad611603565b836116c4565b6111f2576040517f08c379a00000000000000000000000000000000000000000000000000000000081526004016111e990612f90565b60405180910390fd5b6111fe84848484611c3a565b50505050565b61120e6007611c96565b600061121a6007611ac0565b90506112263382611cac565b6112308183611cca565b6000600960008381526020019081526020016000209050828160000190816112589190613462565b50817f6f10a189e74c40865dbc37544147d0a3d57b2a5e5100daf4cd09cff5a9033c72338560405161128b929190613534565b60405180910390a2505050565b60606112a3826115b8565b60006006600084815260200190815260200160002080546112c390612dc9565b80601f01602080910402602001604051908101604052809291908181526020018280546112ef90612dc9565b801561133c5780601f106113115761010080835404028352916020019161133c565b820191906000526020600020905b81548152906001019060200180831161131f57829003601f168201915b50505050509050600061134d611d37565b905060008151036113625781925050506113a5565b60008251111561139757808260405160200161137f9291906135a0565b604051602081830303815290604052925050506113a5565b6113a084611d4e565b925050505b919050565b3373ffffffffffffffffffffffffffffffffffffffff166113ca82610d9b565b73ffffffffffffffffffffffffffffffffffffffff1614611420576040517f08c379a000000000000000000000000000000000000000000000000000000000815260040161141790613610565b60405180910390fd5b6000600960008381526020019081526020016000206003018190555061144581610d9b565b73ffffffffffffffffffffffffffffffffffffffff166108fc60096000848152602001908152602001600020600301549081150290604051600060405180830381858888f193505050501580156114a0573d6000803e3d6000fd5b5050565b6000600560008473ffffffffffffffffffffffffffffffffffffffff1673ffffffffffffffffffffffffffffffffffffffff16815260200190815260200160002060008373ffffffffffffffffffffffffffffffffffffffff1673ffffffffffffffffffffffffffffffffffffffff16815260200190815260200160002060009054906101000a900460ff16905092915050565b600860009054906101000a900460ff1681565b50565b60007f01ffc9a7000000000000000000000000000000000000000000000000000000007bffffffffffffffffffffffffffffffffffffffffffffffffffffffff1916827bffffffffffffffffffffffffffffffffffffffffffffffffffffffff1916149050919050565b6115c181611db6565b611600576040517f08c379a00000000000000000000000000000000000000000000000000000000081526004016115f790613136565b60405180910390fd5b50565b600033905090565b816004600083815260200190815260200160002060006101000a81548173ffffffffffffffffffffffffffffffffffffffff021916908373ffffffffffffffffffffffffffffffffffffffff160217905550808273ffffffffffffffffffffffffffffffffffffffff1661167e83610d9b565b73ffffffffffffffffffffffffffffffffffffffff167f8c5be1e5ebec7d5bd14f71427d1e84f3dd0314c0f7b2291e5b200ac8c7c3b92560405160405180910390a45050565b6000806116d083610d9b565b90508073ffffffffffffffffffffffffffffffffffffffff168473ffffffffffffffffffffffffffffffffffffffff161480611712575061171181856114a4565b5b8061175057508373ffffffffffffffffffffffffffffffffffffffff1661173884610738565b73ffffffffffffffffffffffffffffffffffffffff16145b91505092915050565b8273ffffffffffffffffffffffffffffffffffffffff1661177982610d9b565b73ffffffffffffffffffffffffffffffffffffffff16146117cf576040517f08c379a00000000000000000000000000000000000000000000000000000000081526004016117c6906136a2565b60405180910390fd5b600073ffffffffffffffffffffffffffffffffffffffff168273ffffffffffffffffffffffffffffffffffffffff160361183e576040517f08c379a000000000000000000000000000000000000000000000000000000000815260040161183590613734565b60405180910390fd5b61184b8383836001611df7565b8273ffffffffffffffffffffffffffffffffffffffff1661186b82610d9b565b73ffffffffffffffffffffffffffffffffffffffff16146118c1576040517f08c379a00000000000000000000000000000000000000000000000000000000081526004016118b8906136a2565b60405180910390fd5b6004600082815260200190815260200160002060006101000a81549073ffffffffffffffffffffffffffffffffffffffff02191690556001600360008573ffffffffffffffffffffffffffffffffffffffff1673ffffffffffffffffffffffffffffffffffffffff168152602001908152602001600020600082825403925050819055506001600360008473ffffffffffffffffffffffffffffffffffffffff1673ffffffffffffffffffffffffffffffffffffffff16815260200190815260200160002060008282540192505081905550816002600083815260200190815260200160002060006101000a81548173ffffffffffffffffffffffffffffffffffffffff021916908373ffffffffffffffffffffffffffffffffffffffff160217905550808273ffffffffffffffffffffffffffffffffffffffff168473ffffffffffffffffffffffffffffffffffffffff167fddf252ad1be2c89b69c2b068fc378daa952ba7f163c4a11628f55a4df523b3ef60405160405180910390a4611a4d8383836001611f1d565b505050565b6000606482846064611a649190613754565b60ff16611a719190613789565b611a7b91906137fa565b905092915050565b60006002600083815260200190815260200160002060009054906101000a900473ffffffffffffffffffffffffffffffffffffffff169050919050565b600081600001549050919050565b8173ffffffffffffffffffffffffffffffffffffffff168373ffffffffffffffffffffffffffffffffffffffff1603611b3c576040517f08c379a0000000000000000000000000000000000000000000000000000000008152600401611b3390613877565b60405180910390fd5b80600560008573ffffffffffffffffffffffffffffffffffffffff1673ffffffffffffffffffffffffffffffffffffffff16815260200190815260200160002060008473ffffffffffffffffffffffffffffffffffffffff1673ffffffffffffffffffffffffffffffffffffffff16815260200190815260200160002060006101000a81548160ff0219169083151502179055508173ffffffffffffffffffffffffffffffffffffffff168373ffffffffffffffffffffffffffffffffffffffff167f17307eab39ab6107e8899845ad3d59bd9653f200f220920489ca2b5937696c3183604051611c2d919061261a565b60405180910390a3505050565b611c45848484611759565b611c5184848484611f23565b611c90576040517f08c379a0000000000000000000000000000000000000000000000000000000008152600401611c8790613909565b60405180910390fd5b50505050565b6001816000016000828254019250508190555050565b611cc68282604051806020016040528060008152506120aa565b5050565b611cd382611db6565b611d12576040517f08c379a0000000000000000000000000000000000000000000000000000000008152600401611d099061399b565b60405180910390fd5b80600660008481526020019081526020016000209081611d329190613462565b505050565b606060405180602001604052806000815250905090565b6060611d59826115b8565b6000611d63611d37565b90506000815111611d835760405180602001604052806000815250611dae565b80611d8d84612105565b604051602001611d9e9291906135a0565b6040516020818303038152906040525b915050919050565b60008073ffffffffffffffffffffffffffffffffffffffff16611dd883611a83565b73ffffffffffffffffffffffffffffffffffffffff1614159050919050565b6001811115611f1757600073ffffffffffffffffffffffffffffffffffffffff168473ffffffffffffffffffffffffffffffffffffffff1614611e8b5780600360008673ffffffffffffffffffffffffffffffffffffffff1673ffffffffffffffffffffffffffffffffffffffff1681526020019081526020016000206000828254611e8391906139bb565b925050819055505b600073ffffffffffffffffffffffffffffffffffffffff168373ffffffffffffffffffffffffffffffffffffffff1614611f165780600360008573ffffffffffffffffffffffffffffffffffffffff1673ffffffffffffffffffffffffffffffffffffffff1681526020019081526020016000206000828254611f0e919061308d565b925050819055505b5b50505050565b50505050565b6000611f448473ffffffffffffffffffffffffffffffffffffffff166121d3565b1561209d578373ffffffffffffffffffffffffffffffffffffffff1663150b7a02611f6d611603565b8786866040518563ffffffff1660e01b8152600401611f8f9493929190613a44565b6020604051808303816000875af1925050508015611fcb57506040513d601f19601f82011682018060405250810190611fc89190613aa5565b60015b61204d573d8060008114611ffb576040519150601f19603f3d011682016040523d82523d6000602084013e612000565b606091505b506000815103612045576040517f08c379a000000000000000000000000000000000000000000000000000000000815260040161203c90613909565b60405180910390fd5b805181602001fd5b63150b7a0260e01b7bffffffffffffffffffffffffffffffffffffffffffffffffffffffff1916817bffffffffffffffffffffffffffffffffffffffffffffffffffffffff1916149150506120a2565b600190505b949350505050565b6120b483836121f6565b6120c16000848484611f23565b612100576040517f08c379a00000000000000000000000000000000000000000000000000000000081526004016120f790613909565b60405180910390fd5b505050565b60606000600161211484612413565b01905060008167ffffffffffffffff81111561213357612132612a8b565b5b6040519080825280601f01601f1916602001820160405280156121655781602001600182028036833780820191505090505b509050600082602001820190505b6001156121c8578080600190039150507f3031323334353637383961626364656600000000000000000000000000000000600a86061a8153600a85816121bc576121bb6137cb565b5b04945060008503612173575b819350505050919050565b6000808273ffffffffffffffffffffffffffffffffffffffff163b119050919050565b600073ffffffffffffffffffffffffffffffffffffffff168273ffffffffffffffffffffffffffffffffffffffff1603612265576040517f08c379a000000000000000000000000000000000000000000000000000000000815260040161225c90613b1e565b60405180910390fd5b61226e81611db6565b156122ae576040517f08c379a00000000000000000000000000000000000000000000000000000000081526004016122a590613b8a565b60405180910390fd5b6122bc600083836001611df7565b6122c581611db6565b15612305576040517f08c379a00000000000000000000000000000000000000000000000000000000081526004016122fc90613b8a565b60405180910390fd5b6001600360008473ffffffffffffffffffffffffffffffffffffffff1673ffffffffffffffffffffffffffffffffffffffff16815260200190815260200160002060008282540192505081905550816002600083815260200190815260200160002060006101000a81548173ffffffffffffffffffffffffffffffffffffffff021916908373ffffffffffffffffffffffffffffffffffffffff160217905550808273ffffffffffffffffffffffffffffffffffffffff16600073ffffffffffffffffffffffffffffffffffffffff167fddf252ad1be2c89b69c2b068fc378daa952ba7f163c4a11628f55a4df523b3ef60405160405180910390a461240f600083836001611f1d565b5050565b600080600090507a184f03e93ff9f4daa797ed6e38ed64bf6a1f0100000000000000008310612471577a184f03e93ff9f4daa797ed6e38ed64bf6a1f0100000000000000008381612467576124666137cb565b5b0492506040810190505b6d04ee2d6d415b85acef810000000083106124ae576d04ee2d6d415b85acef810000000083816124a4576124a36137cb565b5b0492506020810190505b662386f26fc1000083106124dd57662386f26fc1000083816124d3576124d26137cb565b5b0492506010810190505b6305f5e1008310612506576305f5e10083816124fc576124fb6137cb565b5b0492506008810190505b612710831061252b576127108381612521576125206137cb565b5b0492506004810190505b6064831061254e5760648381612544576125436137cb565b5b0492506002810190505b600a831061255d576001810190505b80915050919050565b6000604051905090565b600080fd5b600080fd5b60007fffffffff0000000000000000000000000000000000000000000000000000000082169050919050565b6125af8161257a565b81146125ba57600080fd5b50565b6000813590506125cc816125a6565b92915050565b6000602082840312156125e8576125e7612570565b5b60006125f6848285016125bd565b91505092915050565b60008115159050919050565b612614816125ff565b82525050565b600060208201905061262f600083018461260b565b92915050565b600081519050919050565b600082825260208201905092915050565b60005b8381101561266f578082015181840152602081019050612654565b60008484015250505050565b6000601f19601f8301169050919050565b600061269782612635565b6126a18185612640565b93506126b1818560208601612651565b6126ba8161267b565b840191505092915050565b600060208201905081810360008301526126df818461268c565b905092915050565b6000819050919050565b6126fa816126e7565b811461270557600080fd5b50565b600081359050612717816126f1565b92915050565b60006020828403121561273357612732612570565b5b600061274184828501612708565b91505092915050565b600073ffffffffffffffffffffffffffffffffffffffff82169050919050565b60006127758261274a565b9050919050565b6127858161276a565b82525050565b60006020820190506127a0600083018461277c565b92915050565b6127af8161276a565b81146127ba57600080fd5b50565b6000813590506127cc816127a6565b92915050565b600080604083850312156127e9576127e8612570565b5b60006127f7858286016127bd565b925050602061280885828601612708565b9150509250929050565b60008060006060848603121561282b5761282a612570565b5b6000612839868287016127bd565b935050602061284a868287016127bd565b925050604061285b86828701612708565b9150509250925092565b6000806040838503121561287c5761287b612570565b5b600061288a85828601612708565b925050602061289b858286016127bd565b9150509250929050565b6000602082840312156128bb576128ba612570565b5b60006128c9848285016127bd565b91505092915050565b6128db816126e7565b82525050565b60006020820190506128f660008301846128d2565b92915050565b6000819050919050565b600061292161291c6129178461274a565b6128fc565b61274a565b9050919050565b600061293382612906565b9050919050565b600061294582612928565b9050919050565b6129558161293a565b82525050565b6000602082019050612970600083018461294c565b92915050565b60008060006060848603121561298f5761298e612570565b5b600061299d86828701612708565b93505060206129ae86828701612708565b92505060406129bf86828701612708565b9150509250925092565b6129d2816125ff565b81146129dd57600080fd5b50565b6000813590506129ef816129c9565b92915050565b60008060408385031215612a0c57612a0b612570565b5b6000612a1a858286016127bd565b9250506020612a2b858286016129e0565b9150509250929050565b60006080820190508181036000830152612a4f818761268c565b9050612a5e60208301866128d2565b612a6b60408301856128d2565b612a7860608301846128d2565b95945050505050565b600080fd5b600080fd5b7f4e487b7100000000000000000000000000000000000000000000000000000000600052604160045260246000fd5b612ac38261267b565b810181811067ffffffffffffffff82111715612ae257612ae1612a8b565b5b80604052505050565b6000612af5612566565b9050612b018282612aba565b919050565b600067ffffffffffffffff821115612b2157612b20612a8b565b5b612b2a8261267b565b9050602081019050919050565b82818337600083830152505050565b6000612b59612b5484612b06565b612aeb565b905082815260208101848484011115612b7557612b74612a86565b5b612b80848285612b37565b509392505050565b600082601f830112612b9d57612b9c612a81565b5b8135612bad848260208601612b46565b91505092915050565b60008060008060808587031215612bd057612bcf612570565b5b6000612bde878288016127bd565b9450506020612bef878288016127bd565b9350506040612c0087828801612708565b925050606085013567ffffffffffffffff811115612c2157612c20612575565b5b612c2d87828801612b88565b91505092959194509250565b600067ffffffffffffffff821115612c5457612c53612a8b565b5b612c5d8261267b565b9050602081019050919050565b6000612c7d612c7884612c39565b612aeb565b905082815260208101848484011115612c9957612c98612a86565b5b612ca4848285612b37565b509392505050565b600082601f830112612cc157612cc0612a81565b5b8135612cd1848260208601612c6a565b91505092915050565b600060208284031215612cf057612cef612570565b5b600082013567ffffffffffffffff811115612d0e57612d0d612575565b5b612d1a84828501612cac565b91505092915050565b60008060408385031215612d3a57612d39612570565b5b6000612d48858286016127bd565b9250506020612d59858286016127bd565b9150509250929050565b600060ff82169050919050565b612d7981612d63565b82525050565b6000602082019050612d946000830184612d70565b92915050565b7f4e487b7100000000000000000000000000000000000000000000000000000000600052602260045260246000fd5b60006002820490506001821680612de157607f821691505b602082108103612df457612df3612d9a565b5b50919050565b7f4552433732313a20617070726f76616c20746f2063757272656e74206f776e6560008201527f7200000000000000000000000000000000000000000000000000000000000000602082015250565b6000612e56602183612640565b9150612e6182612dfa565b604082019050919050565b60006020820190508181036000830152612e8581612e49565b9050919050565b7f4552433732313a20617070726f76652063616c6c6572206973206e6f7420746f60008201527f6b656e206f776e6572206f7220617070726f76656420666f7220616c6c000000602082015250565b6000612ee8603d83612640565b9150612ef382612e8c565b604082019050919050565b60006020820190508181036000830152612f1781612edb565b9050919050565b7f4552433732313a2063616c6c6572206973206e6f7420746f6b656e206f776e6560008201527f72206f7220617070726f76656400000000000000000000000000000000000000602082015250565b6000612f7a602d83612640565b9150612f8582612f1e565b604082019050919050565b60006020820190508181036000830152612fa981612f6d565b9050919050565b600081519050612fbf816126f1565b92915050565b600060208284031215612fdb57612fda612570565b5b6000612fe984828501612fb0565b91505092915050565b7f6e6f7420656e6f7567682046494c2073656e7400000000000000000000000000600082015250565b6000613028601383612640565b915061303382612ff2565b602082019050919050565b600060208201905081810360008301526130578161301b565b9050919050565b7f4e487b7100000000000000000000000000000000000000000000000000000000600052601160045260246000fd5b6000613098826126e7565b91506130a3836126e7565b92508282019050808211156130bb576130ba61305e565b5b92915050565b60006040820190506130d660008301856128d2565b6130e360208301846128d2565b9392505050565b7f4552433732313a20696e76616c696420746f6b656e2049440000000000000000600082015250565b6000613120601883612640565b915061312b826130ea565b602082019050919050565b6000602082019050818103600083015261314f81613113565b9050919050565b7f4552433732313a2061646472657373207a65726f206973206e6f74206120766160008201527f6c6964206f776e65720000000000000000000000000000000000000000000000602082015250565b60006131b2602983612640565b91506131bd82613156565b604082019050919050565b600060208201905081810360008301526131e1816131a5565b9050919050565b7f4e6f6e2d6578697374656e7420626f6f6b000000000000000000000000000000600082015250565b600061321e601183612640565b9150613229826131e8565b602082019050919050565b6000602082019050818103600083015261324d81613211565b9050919050565b7f6e6f7420626f6f6b206f776e6572000000000000000000000000000000000000600082015250565b600061328a600e83612640565b915061329582613254565b602082019050919050565b600060208201905081810360008301526132b98161327d565b9050919050565b60008190508160005260206000209050919050565b60006020601f8301049050919050565b600082821b905092915050565b6000600883026133227fffffffffffffffffffffffffffffffffffffffffffffffffffffffffffffffff826132e5565b61332c86836132e5565b95508019841693508086168417925050509392505050565b600061335f61335a613355846126e7565b6128fc565b6126e7565b9050919050565b6000819050919050565b61337983613344565b61338d61338582613366565b8484546132f2565b825550505050565b600090565b6133a2613395565b6133ad818484613370565b505050565b5b818110156133d1576133c660008261339a565b6001810190506133b3565b5050565b601f821115613416576133e7816132c0565b6133f0846132d5565b810160208510156133ff578190505b61341361340b856132d5565b8301826133b2565b50505b505050565b600082821c905092915050565b60006134396000198460080261341b565b1980831691505092915050565b60006134528383613428565b9150826002028217905092915050565b61346b82612635565b67ffffffffffffffff81111561348457613483612a8b565b5b61348e8254612dc9565b6134998282856133d5565b600060209050601f8311600181146134cc57600084156134ba578287015190505b6134c48582613446565b86555061352c565b601f1984166134da866132c0565b60005b82811015613502578489015182556001820191506020850194506020810190506134dd565b8683101561351f578489015161351b601f891682613428565b8355505b6001600288020188555050505b505050505050565b6000604082019050613549600083018561277c565b818103602083015261355b818461268c565b90509392505050565b600081905092915050565b600061357a82612635565b6135848185613564565b9350613594818560208601612651565b80840191505092915050565b60006135ac828561356f565b91506135b8828461356f565b91508190509392505050565b7f4e6f7420746865206f776e6572206f662074686520626f6f6b00000000000000600082015250565b60006135fa601983612640565b9150613605826135c4565b602082019050919050565b60006020820190508181036000830152613629816135ed565b9050919050565b7f4552433732313a207472616e736665722066726f6d20696e636f72726563742060008201527f6f776e6572000000000000000000000000000000000000000000000000000000602082015250565b600061368c602583612640565b915061369782613630565b604082019050919050565b600060208201905081810360008301526136bb8161367f565b9050919050565b7f4552433732313a207472616e7366657220746f20746865207a65726f2061646460008201527f7265737300000000000000000000000000000000000000000000000000000000602082015250565b600061371e602483612640565b9150613729826136c2565b604082019050919050565b6000602082019050818103600083015261374d81613711565b9050919050565b600061375f82612d63565b915061376a83612d63565b9250828203905060ff8111156137835761378261305e565b5b92915050565b6000613794826126e7565b915061379f836126e7565b92508282026137ad816126e7565b915082820484148315176137c4576137c361305e565b5b5092915050565b7f4e487b7100000000000000000000000000000000000000000000000000000000600052601260045260246000fd5b6000613805826126e7565b9150613810836126e7565b9250826138205761381f6137cb565b5b828204905092915050565b7f4552433732313a20617070726f766520746f2063616c6c657200000000000000600082015250565b6000613861601983612640565b915061386c8261382b565b602082019050919050565b6000602082019050818103600083015261389081613854565b9050919050565b7f4552433732313a207472616e7366657220746f206e6f6e20455243373231526560008201527f63656976657220696d706c656d656e7465720000000000000000000000000000602082015250565b60006138f3603283612640565b91506138fe82613897565b604082019050919050565b60006020820190508181036000830152613922816138e6565b9050919050565b7f45524337323155524953746f726167653a2055524920736574206f66206e6f6e60008201527f6578697374656e7420746f6b656e000000000000000000000000000000000000602082015250565b6000613985602e83612640565b915061399082613929565b604082019050919050565b600060208201905081810360008301526139b481613978565b9050919050565b60006139c6826126e7565b91506139d1836126e7565b92508282039050818111156139e9576139e861305e565b5b92915050565b600081519050919050565b600082825260208201905092915050565b6000613a16826139ef565b613a2081856139fa565b9350613a30818560208601612651565b613a398161267b565b840191505092915050565b6000608082019050613a59600083018761277c565b613a66602083018661277c565b613a7360408301856128d2565b8181036060830152613a858184613a0b565b905095945050505050565b600081519050613a9f816125a6565b92915050565b600060208284031215613abb57613aba612570565b5b6000613ac984828501613a90565b91505092915050565b7f4552433732313a206d696e7420746f20746865207a65726f2061646472657373600082015250565b6000613b08602083612640565b9150613b1382613ad2565b602082019050919050565b60006020820190508181036000830152613b3781613afb565b9050919050565b7f4552433732313a20746f6b656e20616c7265616479206d696e74656400000000600082015250565b6000613b74601c83612640565b9150613b7f82613b3e565b602082019050919050565b60006020820190508181036000830152613ba381613b67565b905091905056fea26469706673582212207423e8f2be63dafadeb1d19b11969595a57a73e17c4d1d28dbf35a7a1adad0bf64736f6c63430008110033"}