{
  "address": "0x406F718DDC4be597156cEe3dEE30fbF454cCFa20",
  "abi": [
    {
      "inputs": [
        {
          "internalType": "uint8",
          "name": "feePercentage",
          "type": "uint8"
        },
        {
          "internalType": "address",
          "name": "key",
          "type": "address"
        }
      ],
      "stateMutability": "nonpayable",
      "type": "constructor"
    },
    {
      "anonymous": false,
      "inputs": [
        {
          "indexed": true,
          "internalType": "address",
          "name": "owner",
          "type": "address"
        },
        {
          "indexed": true,
          "internalType": "address",
          "name": "approved",
          "type": "address"
        },
        {
          "indexed": true,
          "internalType": "uint256",
          "name": "tokenId",
          "type": "uint256"
        }
      ],
      "name": "Approval",
      "type": "event"
    },
    {
      "anonymous": false,
      "inputs": [
        {
          "indexed": true,
          "internalType": "address",
          "name": "owner",
          "type": "address"
        },
        {
          "indexed": true,
          "internalType": "address",
          "name": "operator",
          "type": "address"
        },
        {
          "indexed": false,
          "internalType": "bool",
          "name": "approved",
          "type": "bool"
        }
      ],
      "name": "ApprovalForAll",
      "type": "event"
    },
    {
      "anonymous": false,
      "inputs": [
        {
          "indexed": false,
          "internalType": "address",
          "name": "author",
          "type": "address"
        },
        {
          "indexed": false,
          "internalType": "string",
          "name": "cid",
          "type": "string"
        },
        {
          "indexed": true,
          "internalType": "uint256",
          "name": "bookId",
          "type": "uint256"
        }
      ],
      "name": "BookCreated",
      "type": "event"
    },
    {
      "anonymous": false,
      "inputs": [
        {
          "indexed": true,
          "internalType": "address",
          "name": "from",
          "type": "address"
        },
        {
          "indexed": true,
          "internalType": "address",
          "name": "to",
          "type": "address"
        },
        {
          "indexed": true,
          "internalType": "uint256",
          "name": "tokenId",
          "type": "uint256"
        }
      ],
      "name": "Transfer",
      "type": "event"
    },
    {
      "inputs": [],
      "name": "_feePercentage",
      "outputs": [
        {
          "internalType": "uint8",
          "name": "",
          "type": "uint8"
        }
      ],
      "stateMutability": "view",
      "type": "function"
    },
    {
      "inputs": [],
      "name": "_key",
      "outputs": [
        {
          "internalType": "contract Key",
          "name": "",
          "type": "address"
        }
      ],
      "stateMutability": "view",
      "type": "function"
    },
    {
      "inputs": [
        {
          "internalType": "address",
          "name": "to",
          "type": "address"
        },
        {
          "internalType": "uint256",
          "name": "tokenId",
          "type": "uint256"
        }
      ],
      "name": "approve",
      "outputs": [],
      "stateMutability": "nonpayable",
      "type": "function"
    },
    {
      "inputs": [
        {
          "internalType": "address",
          "name": "owner",
          "type": "address"
        }
      ],
      "name": "balanceOf",
      "outputs": [
        {
          "internalType": "uint256",
          "name": "",
          "type": "uint256"
        }
      ],
      "stateMutability": "view",
      "type": "function"
    },
    {
      "inputs": [
        {
          "internalType": "uint256",
          "name": "",
          "type": "uint256"
        }
      ],
      "name": "bookIdToBookStruct",
      "outputs": [
        {
          "internalType": "string",
          "name": "cid",
          "type": "string"
        },
        {
          "internalType": "uint256",
          "name": "purchasePrice",
          "type": "uint256"
        },
        {
          "internalType": "uint256",
          "name": "totalRevenue",
          "type": "uint256"
        },
        {
          "internalType": "uint256",
          "name": "pricePerEpoch",
          "type": "uint256"
        }
      ],
      "stateMutability": "view",
      "type": "function"
    },
    {
      "inputs": [
        {
          "internalType": "uint256",
          "name": "bookId",
          "type": "uint256"
        }
      ],
      "name": "buyAccess",
      "outputs": [],
      "stateMutability": "payable",
      "type": "function"
    },
    {
      "inputs": [
        {
          "internalType": "uint256",
          "name": "keyId",
          "type": "uint256"
        }
      ],
      "name": "buyBookOwnership",
      "outputs": [],
      "stateMutability": "nonpayable",
      "type": "function"
    },
    {
      "inputs": [
        {
          "internalType": "uint256",
          "name": "bookId",
          "type": "uint256"
        }
      ],
      "name": "canAccessBook",
      "outputs": [
        {
          "internalType": "bool",
          "name": "",
          "type": "bool"
        }
      ],
      "stateMutability": "view",
      "type": "function"
    },
    {
      "inputs": [
        {
          "internalType": "string",
          "name": "cid",
          "type": "string"
        }
      ],
      "name": "createBook",
      "outputs": [],
      "stateMutability": "nonpayable",
      "type": "function"
    },
    {
      "inputs": [
        {
          "internalType": "uint256",
          "name": "keyId",
          "type": "uint256"
        }
      ],
      "name": "createCollection",
      "outputs": [],
      "stateMutability": "nonpayable",
      "type": "function"
    },
    {
      "inputs": [
        {
          "internalType": "uint256",
          "name": "tokenId",
          "type": "uint256"
        }
      ],
      "name": "getApproved",
      "outputs": [
        {
          "internalType": "address",
          "name": "",
          "type": "address"
        }
      ],
      "stateMutability": "view",
      "type": "function"
    },
    {
      "inputs": [
        {
          "internalType": "uint256",
          "name": "bookId",
          "type": "uint256"
        }
      ],
      "name": "getPurchasePrice",
      "outputs": [
        {
          "internalType": "uint256",
          "name": "",
          "type": "uint256"
        }
      ],
      "stateMutability": "view",
      "type": "function"
    },
    {
      "inputs": [
        {
          "internalType": "address",
          "name": "owner",
          "type": "address"
        },
        {
          "internalType": "address",
          "name": "operator",
          "type": "address"
        }
      ],
      "name": "isApprovedForAll",
      "outputs": [
        {
          "internalType": "bool",
          "name": "",
          "type": "bool"
        }
      ],
      "stateMutability": "view",
      "type": "function"
    },
    {
      "inputs": [],
      "name": "name",
      "outputs": [
        {
          "internalType": "string",
          "name": "",
          "type": "string"
        }
      ],
      "stateMutability": "view",
      "type": "function"
    },
    {
      "inputs": [
        {
          "internalType": "uint256",
          "name": "tokenId",
          "type": "uint256"
        }
      ],
      "name": "ownerOf",
      "outputs": [
        {
          "internalType": "address",
          "name": "",
          "type": "address"
        }
      ],
      "stateMutability": "view",
      "type": "function"
    },
    {
      "inputs": [
        {
          "internalType": "uint256",
          "name": "keyId",
          "type": "uint256"
        }
      ],
      "name": "rentAccessToBook",
      "outputs": [],
      "stateMutability": "nonpayable",
      "type": "function"
    },
    {
      "inputs": [
        {
          "internalType": "address",
          "name": "from",
          "type": "address"
        },
        {
          "internalType": "address",
          "name": "to",
          "type": "address"
        },
        {
          "internalType": "uint256",
          "name": "tokenId",
          "type": "uint256"
        }
      ],
      "name": "safeTransferFrom",
      "outputs": [],
      "stateMutability": "nonpayable",
      "type": "function"
    },
    {
      "inputs": [
        {
          "internalType": "address",
          "name": "from",
          "type": "address"
        },
        {
          "internalType": "address",
          "name": "to",
          "type": "address"
        },
        {
          "internalType": "uint256",
          "name": "tokenId",
          "type": "uint256"
        },
        {
          "internalType": "bytes",
          "name": "data",
          "type": "bytes"
        }
      ],
      "name": "safeTransferFrom",
      "outputs": [],
      "stateMutability": "nonpayable",
      "type": "function"
    },
    {
      "inputs": [
        {
          "internalType": "uint256",
          "name": "keyId",
          "type": "uint256"
        }
      ],
      "name": "sellBookOwnership",
      "outputs": [],
      "stateMutability": "nonpayable",
      "type": "function"
    },
    {
      "inputs": [
        {
          "internalType": "address",
          "name": "operator",
          "type": "address"
        },
        {
          "internalType": "bool",
          "name": "approved",
          "type": "bool"
        }
      ],
      "name": "setApprovalForAll",
      "outputs": [],
      "stateMutability": "nonpayable",
      "type": "function"
    },
    {
      "inputs": [
        {
          "internalType": "uint256",
          "name": "bookId",
          "type": "uint256"
        },
        {
          "internalType": "uint256",
          "name": "purchasePrice",
          "type": "uint256"
        },
        {
          "internalType": "uint256",
          "name": "rentPrice",
          "type": "uint256"
        }
      ],
      "name": "setBookPrice",
      "outputs": [],
      "stateMutability": "nonpayable",
      "type": "function"
    },
    {
      "inputs": [
        {
          "internalType": "uint8",
          "name": "feePercentage",
          "type": "uint8"
        }
      ],
      "name": "setFeePercentage",
      "outputs": [],
      "stateMutability": "nonpayable",
      "type": "function"
    },
    {
      "inputs": [
        {
          "internalType": "bytes4",
          "name": "interfaceId",
          "type": "bytes4"
        }
      ],
      "name": "supportsInterface",
      "outputs": [
        {
          "internalType": "bool",
          "name": "",
          "type": "bool"
        }
      ],
      "stateMutability": "view",
      "type": "function"
    },
    {
      "inputs": [],
      "name": "symbol",
      "outputs": [
        {
          "internalType": "string",
          "name": "",
          "type": "string"
        }
      ],
      "stateMutability": "view",
      "type": "function"
    },
    {
      "inputs": [
        {
          "internalType": "uint256",
          "name": "tokenId",
          "type": "uint256"
        }
      ],
      "name": "tokenURI",
      "outputs": [
        {
          "internalType": "string",
          "name": "",
          "type": "string"
        }
      ],
      "stateMutability": "view",
      "type": "function"
    },
    {
      "inputs": [
        {
          "internalType": "address",
          "name": "from",
          "type": "address"
        },
        {
          "internalType": "address",
          "name": "to",
          "type": "address"
        },
        {
          "internalType": "uint256",
          "name": "tokenId",
          "type": "uint256"
        }
      ],
      "name": "transferFrom",
      "outputs": [],
      "stateMutability": "nonpayable",
      "type": "function"
    },
    {
      "inputs": [
        {
          "internalType": "uint256",
          "name": "bookId",
          "type": "uint256"
        }
      ],
      "name": "withdrawProfit",
      "outputs": [],
      "stateMutability": "payable",
      "type": "function"
    }
  ],
  "bytecode": "0x60a06040523480156200001157600080fd5b5060405162003f3638038062003f368339818101604052810190620000379190620001c8565b6040518060400160405280600481526020017f426f6f6b000000000000000000000000000000000000000000000000000000008152506040518060400160405280600281526020017f426b0000000000000000000000000000000000000000000000000000000000008152508160009081620000b4919062000489565b508060019081620000c6919062000489565b50505081600860006101000a81548160ff021916908360ff1602179055508073ffffffffffffffffffffffffffffffffffffffff1660808173ffffffffffffffffffffffffffffffffffffffff1681525050505062000570565b600080fd5b600060ff82169050919050565b6200013d8162000125565b81146200014957600080fd5b50565b6000815190506200015d8162000132565b92915050565b600073ffffffffffffffffffffffffffffffffffffffff82169050919050565b6000620001908262000163565b9050919050565b620001a28162000183565b8114620001ae57600080fd5b50565b600081519050620001c28162000197565b92915050565b60008060408385031215620001e257620001e162000120565b5b6000620001f2858286016200014c565b92505060206200020585828601620001b1565b9150509250929050565b600081519050919050565b7f4e487b7100000000000000000000000000000000000000000000000000000000600052604160045260246000fd5b7f4e487b7100000000000000000000000000000000000000000000000000000000600052602260045260246000fd5b600060028204905060018216806200029157607f821691505b602082108103620002a757620002a662000249565b5b50919050565b60008190508160005260206000209050919050565b60006020601f8301049050919050565b600082821b905092915050565b600060088302620003117fffffffffffffffffffffffffffffffffffffffffffffffffffffffffffffffff82620002d2565b6200031d8683620002d2565b95508019841693508086168417925050509392505050565b6000819050919050565b6000819050919050565b60006200036a620003646200035e8462000335565b6200033f565b62000335565b9050919050565b6000819050919050565b620003868362000349565b6200039e620003958262000371565b848454620002df565b825550505050565b600090565b620003b5620003a6565b620003c28184846200037b565b505050565b5b81811015620003ea57620003de600082620003ab565b600181019050620003c8565b5050565b601f82111562000439576200040381620002ad565b6200040e84620002c2565b810160208510156200041e578190505b620004366200042d85620002c2565b830182620003c7565b50505b505050565b600082821c905092915050565b60006200045e600019846008026200043e565b1980831691505092915050565b60006200047983836200044b565b9150826002028217905092915050565b62000494826200020f565b67ffffffffffffffff811115620004b057620004af6200021a565b5b620004bc825462000278565b620004c9828285620003ee565b600060209050601f831160018114620005015760008415620004ec578287015190505b620004f885826200046b565b86555062000568565b601f1984166200051186620002ad565b60005b828110156200053b5784890151825560018201915060208501945060208101905062000514565b868310156200055b578489015162000557601f8916826200044b565b8355505b6001600288020188555050505b505050505050565b608051613995620005a160003960008181610a0a01528181610b1601528181610c810152610e5001526139956000f3fe60806040526004361061019c5760003560e01c80639072df6b116100ec578063c59d56331161008a578063d82a2bea11610064578063d82a2bea146105ec578063e985e9c514610608578063f699343e14610645578063f9c9c878146106705761019c565b8063c59d563314610549578063c87b56dd14610586578063d0011d9d146105c35761019c565b8063a5766aa6116100c6578063a5766aa61461048e578063b75174f0146104b7578063b88d4fde146104f7578063b9f72b7d146105205761019c565b80639072df6b1461041157806395d89b411461043a578063a22cb465146104655761019c565b80632d89c10f1161015957806350a1a2641161013357806350a1a264146103505780636352211e1461036c57806370a08231146103a957806374ad7ac4146103e65761019c565b80632d89c10f146102c157806342842e0e146102fe5780634ba8b733146103275761019c565b806301ffc9a7146101a157806304ed5917146101de57806306fdde0314610207578063081812fc14610232578063095ea7b31461026f57806323b872dd14610298575b600080fd5b3480156101ad57600080fd5b506101c860048036038101906101c39190612446565b610699565b6040516101d5919061248e565b60405180910390f35b3480156101ea57600080fd5b50610205600480360381019061020091906124df565b61077b565b005b34801561021357600080fd5b5061021c6107b6565b60405161022991906125c2565b60405180910390f35b34801561023e57600080fd5b50610259600480360381019061025491906125e4565b610848565b6040516102669190612652565b60405180910390f35b34801561027b57600080fd5b5061029660048036038101906102919190612699565b61088e565b005b3480156102a457600080fd5b506102bf60048036038101906102ba91906126d9565b6109a5565b005b3480156102cd57600080fd5b506102e860048036038101906102e391906125e4565b610a05565b6040516102f5919061248e565b60405180910390f35b34801561030a57600080fd5b50610325600480360381019061032091906126d9565b610aef565b005b34801561033357600080fd5b5061034e600480360381019061034991906125e4565b610b0f565b005b61036a600480360381019061036591906125e4565b610b12565b005b34801561037857600080fd5b50610393600480360381019061038e91906125e4565b610d11565b6040516103a09190612652565b60405180910390f35b3480156103b557600080fd5b506103d060048036038101906103cb919061272c565b610d97565b6040516103dd9190612768565b60405180910390f35b3480156103f257600080fd5b506103fb610e4e565b60405161040891906127e2565b60405180910390f35b34801561041d57600080fd5b50610438600480360381019061043391906125e4565b610e72565b005b34801561044657600080fd5b5061044f610e75565b60405161045c91906125c2565b60405180910390f35b34801561047157600080fd5b5061048c60048036038101906104879190612829565b610f07565b005b34801561049a57600080fd5b506104b560048036038101906104b091906128a2565b610f1d565b005b3480156104c357600080fd5b506104de60048036038101906104d991906125e4565b610f3b565b6040516104ee94939291906128cf565b60405180910390f35b34801561050357600080fd5b5061051e60048036038101906105199190612a50565b610ff3565b005b34801561052c57600080fd5b5061054760048036038101906105429190612b74565b611055565b005b34801561055557600080fd5b50610570600480360381019061056b91906125e4565b6110e9565b60405161057d9190612768565b60405180910390f35b34801561059257600080fd5b506105ad60048036038101906105a891906125e4565b611109565b6040516105ba91906125c2565b60405180910390f35b3480156105cf57600080fd5b506105ea60048036038101906105e591906125e4565b61121b565b005b610606600480360381019061060191906125e4565b61121e565b005b34801561061457600080fd5b5061062f600480360381019061062a9190612bbd565b611318565b60405161063c919061248e565b60405180910390f35b34801561065157600080fd5b5061065a6113ac565b6040516106679190612c0c565b60405180910390f35b34801561067c57600080fd5b50610697600480360381019061069291906125e4565b6113bf565b005b60007f80ac58cd000000000000000000000000000000000000000000000000000000007bffffffffffffffffffffffffffffffffffffffffffffffffffffffff1916827bffffffffffffffffffffffffffffffffffffffffffffffffffffffff1916148061076457507f5b5e139f000000000000000000000000000000000000000000000000000000007bffffffffffffffffffffffffffffffffffffffffffffffffffffffff1916827bffffffffffffffffffffffffffffffffffffffffffffffffffffffff1916145b806107745750610773826113c2565b5b9050919050565b816009600085815260200190815260200160002060010181905550806009600085815260200190815260200160002060030181905550505050565b6060600080546107c590612c56565b80601f01602080910402602001604051908101604052809291908181526020018280546107f190612c56565b801561083e5780601f106108135761010080835404028352916020019161083e565b820191906000526020600020905b81548152906001019060200180831161082157829003601f168201915b5050505050905090565b60006108538261142c565b6004600083815260200190815260200160002060009054906101000a900473ffffffffffffffffffffffffffffffffffffffff169050919050565b600061089982610d11565b90508073ffffffffffffffffffffffffffffffffffffffff168373ffffffffffffffffffffffffffffffffffffffff1603610909576040517f08c379a000000000000000000000000000000000000000000000000000000000815260040161090090612cf9565b60405180910390fd5b8073ffffffffffffffffffffffffffffffffffffffff16610928611477565b73ffffffffffffffffffffffffffffffffffffffff161480610957575061095681610951611477565b611318565b5b610996576040517f08c379a000000000000000000000000000000000000000000000000000000000815260040161098d90612d8b565b60405180910390fd5b6109a0838361147f565b505050565b6109b66109b0611477565b82611538565b6109f5576040517f08c379a00000000000000000000000000000000000000000000000000000000081526004016109ec90612e1d565b60405180910390fd5b610a008383836115cd565b505050565b6000807f000000000000000000000000000000000000000000000000000000000000000073ffffffffffffffffffffffffffffffffffffffff1663745c84ca336040518263ffffffff1660e01b8152600401610a619190612652565b602060405180830381865afa158015610a7e573d6000803e3d6000fd5b505050506040513d601f19601f82011682018060405250810190610aa29190612e52565b9050600060096000858152602001908152602001600020905042816004016000848152602001908152602001600020541115610ae357600192505050610aea565b6000925050505b919050565b610b0a83838360405180602001604052806000815250610ff3565b505050565b50565b60007f000000000000000000000000000000000000000000000000000000000000000073ffffffffffffffffffffffffffffffffffffffff1663745c84ca336040518263ffffffff1660e01b8152600401610b6d9190612652565b602060405180830381865afa158015610b8a573d6000803e3d6000fd5b505050506040513d601f19601f82011682018060405250810190610bae9190612e52565b905060006009600084815260200190815260200160002090508060010154341015610c0e576040517f08c379a0000000000000000000000000000000000000000000000000000000008152600401610c0590612ecb565b60405180910390fd5b7fffffffffffffffffffffffffffffffffffffffffffffffffffffffffffffffff81600401600084815260200190815260200160002081905550610c65600860009054906101000a900460ff1682600101546118c6565b816002016000828254610c789190612f1a565b925050819055507f000000000000000000000000000000000000000000000000000000000000000073ffffffffffffffffffffffffffffffffffffffff16632597e04783856040518363ffffffff1660e01b8152600401610cda929190612f4e565b600060405180830381600087803b158015610cf457600080fd5b505af1158015610d08573d6000803e3d6000fd5b50505050505050565b600080610d1d836118f7565b9050600073ffffffffffffffffffffffffffffffffffffffff168173ffffffffffffffffffffffffffffffffffffffff1603610d8e576040517f08c379a0000000000000000000000000000000000000000000000000000000008152600401610d8590612fc3565b60405180910390fd5b80915050919050565b60008073ffffffffffffffffffffffffffffffffffffffff168273ffffffffffffffffffffffffffffffffffffffff1603610e07576040517f08c379a0000000000000000000000000000000000000000000000000000000008152600401610dfe90613055565b60405180910390fd5b600360008373ffffffffffffffffffffffffffffffffffffffff1673ffffffffffffffffffffffffffffffffffffffff168152602001908152602001600020549050919050565b7f000000000000000000000000000000000000000000000000000000000000000081565b50565b606060018054610e8490612c56565b80601f0160208091040260200160405190810160405280929190818152602001828054610eb090612c56565b8015610efd5780601f10610ed257610100808354040283529160200191610efd565b820191906000526020600020905b815481529060010190602001808311610ee057829003601f168201915b5050505050905090565b610f19610f12611477565b8383611934565b5050565b80600860006101000a81548160ff021916908360ff16021790555050565b6009602052806000526040600020600091509050806000018054610f5e90612c56565b80601f0160208091040260200160405190810160405280929190818152602001828054610f8a90612c56565b8015610fd75780601f10610fac57610100808354040283529160200191610fd7565b820191906000526020600020905b815481529060010190602001808311610fba57829003601f168201915b5050505050908060010154908060020154908060030154905084565b611004610ffe611477565b83611538565b611043576040517f08c379a000000000000000000000000000000000000000000000000000000000815260040161103a90612e1d565b60405180910390fd5b61104f84848484611aa0565b50505050565b61105f6007611afc565b600061106b6007611b12565b90506110773382611b20565b6110818183611b3e565b6000600960008381526020019081526020016000209050828160000190816110a99190613217565b50817f6f10a189e74c40865dbc37544147d0a3d57b2a5e5100daf4cd09cff5a9033c7233856040516110dc9291906132e9565b60405180910390a2505050565b600060096000838152602001908152602001600020600101549050919050565b60606111148261142c565b600060066000848152602001908152602001600020805461113490612c56565b80601f016020809104026020016040519081016040528092919081815260200182805461116090612c56565b80156111ad5780601f10611182576101008083540402835291602001916111ad565b820191906000526020600020905b81548152906001019060200180831161119057829003601f168201915b5050505050905060006111be611bab565b905060008151036111d3578192505050611216565b6000825111156112085780826040516020016111f0929190613355565b60405160208183030381529060405292505050611216565b61121184611bc2565b925050505b919050565b50565b3373ffffffffffffffffffffffffffffffffffffffff1661123e82610d11565b73ffffffffffffffffffffffffffffffffffffffff1614611294576040517f08c379a000000000000000000000000000000000000000000000000000000000815260040161128b906133c5565b60405180910390fd5b600060096000838152602001908152602001600020600201819055506112b981610d11565b73ffffffffffffffffffffffffffffffffffffffff166108fc60096000848152602001908152602001600020600201549081150290604051600060405180830381858888f19350505050158015611314573d6000803e3d6000fd5b5050565b6000600560008473ffffffffffffffffffffffffffffffffffffffff1673ffffffffffffffffffffffffffffffffffffffff16815260200190815260200160002060008373ffffffffffffffffffffffffffffffffffffffff1673ffffffffffffffffffffffffffffffffffffffff16815260200190815260200160002060009054906101000a900460ff16905092915050565b600860009054906101000a900460ff1681565b50565b60007f01ffc9a7000000000000000000000000000000000000000000000000000000007bffffffffffffffffffffffffffffffffffffffffffffffffffffffff1916827bffffffffffffffffffffffffffffffffffffffffffffffffffffffff1916149050919050565b61143581611c2a565b611474576040517f08c379a000000000000000000000000000000000000000000000000000000000815260040161146b90612fc3565b60405180910390fd5b50565b600033905090565b816004600083815260200190815260200160002060006101000a81548173ffffffffffffffffffffffffffffffffffffffff021916908373ffffffffffffffffffffffffffffffffffffffff160217905550808273ffffffffffffffffffffffffffffffffffffffff166114f283610d11565b73ffffffffffffffffffffffffffffffffffffffff167f8c5be1e5ebec7d5bd14f71427d1e84f3dd0314c0f7b2291e5b200ac8c7c3b92560405160405180910390a45050565b60008061154483610d11565b90508073ffffffffffffffffffffffffffffffffffffffff168473ffffffffffffffffffffffffffffffffffffffff16148061158657506115858185611318565b5b806115c457508373ffffffffffffffffffffffffffffffffffffffff166115ac84610848565b73ffffffffffffffffffffffffffffffffffffffff16145b91505092915050565b8273ffffffffffffffffffffffffffffffffffffffff166115ed82610d11565b73ffffffffffffffffffffffffffffffffffffffff1614611643576040517f08c379a000000000000000000000000000000000000000000000000000000000815260040161163a90613457565b60405180910390fd5b600073ffffffffffffffffffffffffffffffffffffffff168273ffffffffffffffffffffffffffffffffffffffff16036116b2576040517f08c379a00000000000000000000000000000000000000000000000000000000081526004016116a9906134e9565b60405180910390fd5b6116bf8383836001611c6b565b8273ffffffffffffffffffffffffffffffffffffffff166116df82610d11565b73ffffffffffffffffffffffffffffffffffffffff1614611735576040517f08c379a000000000000000000000000000000000000000000000000000000000815260040161172c90613457565b60405180910390fd5b6004600082815260200190815260200160002060006101000a81549073ffffffffffffffffffffffffffffffffffffffff02191690556001600360008573ffffffffffffffffffffffffffffffffffffffff1673ffffffffffffffffffffffffffffffffffffffff168152602001908152602001600020600082825403925050819055506001600360008473ffffffffffffffffffffffffffffffffffffffff1673ffffffffffffffffffffffffffffffffffffffff16815260200190815260200160002060008282540192505081905550816002600083815260200190815260200160002060006101000a81548173ffffffffffffffffffffffffffffffffffffffff021916908373ffffffffffffffffffffffffffffffffffffffff160217905550808273ffffffffffffffffffffffffffffffffffffffff168473ffffffffffffffffffffffffffffffffffffffff167fddf252ad1be2c89b69c2b068fc378daa952ba7f163c4a11628f55a4df523b3ef60405160405180910390a46118c18383836001611d91565b505050565b60006064828460646118d89190613509565b60ff166118e5919061353e565b6118ef91906135af565b905092915050565b60006002600083815260200190815260200160002060009054906101000a900473ffffffffffffffffffffffffffffffffffffffff169050919050565b8173ffffffffffffffffffffffffffffffffffffffff168373ffffffffffffffffffffffffffffffffffffffff16036119a2576040517f08c379a00000000000000000000000000000000000000000000000000000000081526004016119999061362c565b60405180910390fd5b80600560008573ffffffffffffffffffffffffffffffffffffffff1673ffffffffffffffffffffffffffffffffffffffff16815260200190815260200160002060008473ffffffffffffffffffffffffffffffffffffffff1673ffffffffffffffffffffffffffffffffffffffff16815260200190815260200160002060006101000a81548160ff0219169083151502179055508173ffffffffffffffffffffffffffffffffffffffff168373ffffffffffffffffffffffffffffffffffffffff167f17307eab39ab6107e8899845ad3d59bd9653f200f220920489ca2b5937696c3183604051611a93919061248e565b60405180910390a3505050565b611aab8484846115cd565b611ab784848484611d97565b611af6576040517f08c379a0000000000000000000000000000000000000000000000000000000008152600401611aed906136be565b60405180910390fd5b50505050565b6001816000016000828254019250508190555050565b600081600001549050919050565b611b3a828260405180602001604052806000815250611f1e565b5050565b611b4782611c2a565b611b86576040517f08c379a0000000000000000000000000000000000000000000000000000000008152600401611b7d90613750565b60405180910390fd5b80600660008481526020019081526020016000209081611ba69190613217565b505050565b606060405180602001604052806000815250905090565b6060611bcd8261142c565b6000611bd7611bab565b90506000815111611bf75760405180602001604052806000815250611c22565b80611c0184611f79565b604051602001611c12929190613355565b6040516020818303038152906040525b915050919050565b60008073ffffffffffffffffffffffffffffffffffffffff16611c4c836118f7565b73ffffffffffffffffffffffffffffffffffffffff1614159050919050565b6001811115611d8b57600073ffffffffffffffffffffffffffffffffffffffff168473ffffffffffffffffffffffffffffffffffffffff1614611cff5780600360008673ffffffffffffffffffffffffffffffffffffffff1673ffffffffffffffffffffffffffffffffffffffff1681526020019081526020016000206000828254611cf79190613770565b925050819055505b600073ffffffffffffffffffffffffffffffffffffffff168373ffffffffffffffffffffffffffffffffffffffff1614611d8a5780600360008573ffffffffffffffffffffffffffffffffffffffff1673ffffffffffffffffffffffffffffffffffffffff1681526020019081526020016000206000828254611d829190612f1a565b925050819055505b5b50505050565b50505050565b6000611db88473ffffffffffffffffffffffffffffffffffffffff16612047565b15611f11578373ffffffffffffffffffffffffffffffffffffffff1663150b7a02611de1611477565b8786866040518563ffffffff1660e01b8152600401611e0394939291906137f9565b6020604051808303816000875af1925050508015611e3f57506040513d601f19601f82011682018060405250810190611e3c919061385a565b60015b611ec1573d8060008114611e6f576040519150601f19603f3d011682016040523d82523d6000602084013e611e74565b606091505b506000815103611eb9576040517f08c379a0000000000000000000000000000000000000000000000000000000008152600401611eb0906136be565b60405180910390fd5b805181602001fd5b63150b7a0260e01b7bffffffffffffffffffffffffffffffffffffffffffffffffffffffff1916817bffffffffffffffffffffffffffffffffffffffffffffffffffffffff191614915050611f16565b600190505b949350505050565b611f28838361206a565b611f356000848484611d97565b611f74576040517f08c379a0000000000000000000000000000000000000000000000000000000008152600401611f6b906136be565b60405180910390fd5b505050565b606060006001611f8884612287565b01905060008167ffffffffffffffff811115611fa757611fa6612925565b5b6040519080825280601f01601f191660200182016040528015611fd95781602001600182028036833780820191505090505b509050600082602001820190505b60011561203c578080600190039150507f3031323334353637383961626364656600000000000000000000000000000000600a86061a8153600a85816120305761202f613580565b5b04945060008503611fe7575b819350505050919050565b6000808273ffffffffffffffffffffffffffffffffffffffff163b119050919050565b600073ffffffffffffffffffffffffffffffffffffffff168273ffffffffffffffffffffffffffffffffffffffff16036120d9576040517f08c379a00000000000000000000000000000000000000000000000000000000081526004016120d0906138d3565b60405180910390fd5b6120e281611c2a565b15612122576040517f08c379a00000000000000000000000000000000000000000000000000000000081526004016121199061393f565b60405180910390fd5b612130600083836001611c6b565b61213981611c2a565b15612179576040517f08c379a00000000000000000000000000000000000000000000000000000000081526004016121709061393f565b60405180910390fd5b6001600360008473ffffffffffffffffffffffffffffffffffffffff1673ffffffffffffffffffffffffffffffffffffffff16815260200190815260200160002060008282540192505081905550816002600083815260200190815260200160002060006101000a81548173ffffffffffffffffffffffffffffffffffffffff021916908373ffffffffffffffffffffffffffffffffffffffff160217905550808273ffffffffffffffffffffffffffffffffffffffff16600073ffffffffffffffffffffffffffffffffffffffff167fddf252ad1be2c89b69c2b068fc378daa952ba7f163c4a11628f55a4df523b3ef60405160405180910390a4612283600083836001611d91565b5050565b600080600090507a184f03e93ff9f4daa797ed6e38ed64bf6a1f01000000000000000083106122e5577a184f03e93ff9f4daa797ed6e38ed64bf6a1f01000000000000000083816122db576122da613580565b5b0492506040810190505b6d04ee2d6d415b85acef81000000008310612322576d04ee2d6d415b85acef8100000000838161231857612317613580565b5b0492506020810190505b662386f26fc10000831061235157662386f26fc10000838161234757612346613580565b5b0492506010810190505b6305f5e100831061237a576305f5e10083816123705761236f613580565b5b0492506008810190505b612710831061239f57612710838161239557612394613580565b5b0492506004810190505b606483106123c257606483816123b8576123b7613580565b5b0492506002810190505b600a83106123d1576001810190505b80915050919050565b6000604051905090565b600080fd5b600080fd5b60007fffffffff0000000000000000000000000000000000000000000000000000000082169050919050565b612423816123ee565b811461242e57600080fd5b50565b6000813590506124408161241a565b92915050565b60006020828403121561245c5761245b6123e4565b5b600061246a84828501612431565b91505092915050565b60008115159050919050565b61248881612473565b82525050565b60006020820190506124a3600083018461247f565b92915050565b6000819050919050565b6124bc816124a9565b81146124c757600080fd5b50565b6000813590506124d9816124b3565b92915050565b6000806000606084860312156124f8576124f76123e4565b5b6000612506868287016124ca565b9350506020612517868287016124ca565b9250506040612528868287016124ca565b9150509250925092565b600081519050919050565b600082825260208201905092915050565b60005b8381101561256c578082015181840152602081019050612551565b60008484015250505050565b6000601f19601f8301169050919050565b600061259482612532565b61259e818561253d565b93506125ae81856020860161254e565b6125b781612578565b840191505092915050565b600060208201905081810360008301526125dc8184612589565b905092915050565b6000602082840312156125fa576125f96123e4565b5b6000612608848285016124ca565b91505092915050565b600073ffffffffffffffffffffffffffffffffffffffff82169050919050565b600061263c82612611565b9050919050565b61264c81612631565b82525050565b60006020820190506126676000830184612643565b92915050565b61267681612631565b811461268157600080fd5b50565b6000813590506126938161266d565b92915050565b600080604083850312156126b0576126af6123e4565b5b60006126be85828601612684565b92505060206126cf858286016124ca565b9150509250929050565b6000806000606084860312156126f2576126f16123e4565b5b600061270086828701612684565b935050602061271186828701612684565b9250506040612722868287016124ca565b9150509250925092565b600060208284031215612742576127416123e4565b5b600061275084828501612684565b91505092915050565b612762816124a9565b82525050565b600060208201905061277d6000830184612759565b92915050565b6000819050919050565b60006127a86127a361279e84612611565b612783565b612611565b9050919050565b60006127ba8261278d565b9050919050565b60006127cc826127af565b9050919050565b6127dc816127c1565b82525050565b60006020820190506127f760008301846127d3565b92915050565b61280681612473565b811461281157600080fd5b50565b600081359050612823816127fd565b92915050565b600080604083850312156128405761283f6123e4565b5b600061284e85828601612684565b925050602061285f85828601612814565b9150509250929050565b600060ff82169050919050565b61287f81612869565b811461288a57600080fd5b50565b60008135905061289c81612876565b92915050565b6000602082840312156128b8576128b76123e4565b5b60006128c68482850161288d565b91505092915050565b600060808201905081810360008301526128e98187612589565b90506128f86020830186612759565b6129056040830185612759565b6129126060830184612759565b95945050505050565b600080fd5b600080fd5b7f4e487b7100000000000000000000000000000000000000000000000000000000600052604160045260246000fd5b61295d82612578565b810181811067ffffffffffffffff8211171561297c5761297b612925565b5b80604052505050565b600061298f6123da565b905061299b8282612954565b919050565b600067ffffffffffffffff8211156129bb576129ba612925565b5b6129c482612578565b9050602081019050919050565b82818337600083830152505050565b60006129f36129ee846129a0565b612985565b905082815260208101848484011115612a0f57612a0e612920565b5b612a1a8482856129d1565b509392505050565b600082601f830112612a3757612a3661291b565b5b8135612a478482602086016129e0565b91505092915050565b60008060008060808587031215612a6a57612a696123e4565b5b6000612a7887828801612684565b9450506020612a8987828801612684565b9350506040612a9a878288016124ca565b925050606085013567ffffffffffffffff811115612abb57612aba6123e9565b5b612ac787828801612a22565b91505092959194509250565b600067ffffffffffffffff821115612aee57612aed612925565b5b612af782612578565b9050602081019050919050565b6000612b17612b1284612ad3565b612985565b905082815260208101848484011115612b3357612b32612920565b5b612b3e8482856129d1565b509392505050565b600082601f830112612b5b57612b5a61291b565b5b8135612b6b848260208601612b04565b91505092915050565b600060208284031215612b8a57612b896123e4565b5b600082013567ffffffffffffffff811115612ba857612ba76123e9565b5b612bb484828501612b46565b91505092915050565b60008060408385031215612bd457612bd36123e4565b5b6000612be285828601612684565b9250506020612bf385828601612684565b9150509250929050565b612c0681612869565b82525050565b6000602082019050612c216000830184612bfd565b92915050565b7f4e487b7100000000000000000000000000000000000000000000000000000000600052602260045260246000fd5b60006002820490506001821680612c6e57607f821691505b602082108103612c8157612c80612c27565b5b50919050565b7f4552433732313a20617070726f76616c20746f2063757272656e74206f776e6560008201527f7200000000000000000000000000000000000000000000000000000000000000602082015250565b6000612ce360218361253d565b9150612cee82612c87565b604082019050919050565b60006020820190508181036000830152612d1281612cd6565b9050919050565b7f4552433732313a20617070726f76652063616c6c6572206973206e6f7420746f60008201527f6b656e206f776e6572206f7220617070726f76656420666f7220616c6c000000602082015250565b6000612d75603d8361253d565b9150612d8082612d19565b604082019050919050565b60006020820190508181036000830152612da481612d68565b9050919050565b7f4552433732313a2063616c6c6572206973206e6f7420746f6b656e206f776e6560008201527f72206f7220617070726f76656400000000000000000000000000000000000000602082015250565b6000612e07602d8361253d565b9150612e1282612dab565b604082019050919050565b60006020820190508181036000830152612e3681612dfa565b9050919050565b600081519050612e4c816124b3565b92915050565b600060208284031215612e6857612e676123e4565b5b6000612e7684828501612e3d565b91505092915050565b7f6e6f7420656e6f7567682046494c2073656e7400000000000000000000000000600082015250565b6000612eb560138361253d565b9150612ec082612e7f565b602082019050919050565b60006020820190508181036000830152612ee481612ea8565b9050919050565b7f4e487b7100000000000000000000000000000000000000000000000000000000600052601160045260246000fd5b6000612f25826124a9565b9150612f30836124a9565b9250828201905080821115612f4857612f47612eeb565b5b92915050565b6000604082019050612f636000830185612759565b612f706020830184612759565b9392505050565b7f4552433732313a20696e76616c696420746f6b656e2049440000000000000000600082015250565b6000612fad60188361253d565b9150612fb882612f77565b602082019050919050565b60006020820190508181036000830152612fdc81612fa0565b9050919050565b7f4552433732313a2061646472657373207a65726f206973206e6f74206120766160008201527f6c6964206f776e65720000000000000000000000000000000000000000000000602082015250565b600061303f60298361253d565b915061304a82612fe3565b604082019050919050565b6000602082019050818103600083015261306e81613032565b9050919050565b60008190508160005260206000209050919050565b60006020601f8301049050919050565b600082821b905092915050565b6000600883026130d77fffffffffffffffffffffffffffffffffffffffffffffffffffffffffffffffff8261309a565b6130e1868361309a565b95508019841693508086168417925050509392505050565b600061311461310f61310a846124a9565b612783565b6124a9565b9050919050565b6000819050919050565b61312e836130f9565b61314261313a8261311b565b8484546130a7565b825550505050565b600090565b61315761314a565b613162818484613125565b505050565b5b818110156131865761317b60008261314f565b600181019050613168565b5050565b601f8211156131cb5761319c81613075565b6131a58461308a565b810160208510156131b4578190505b6131c86131c08561308a565b830182613167565b50505b505050565b600082821c905092915050565b60006131ee600019846008026131d0565b1980831691505092915050565b600061320783836131dd565b9150826002028217905092915050565b61322082612532565b67ffffffffffffffff81111561323957613238612925565b5b6132438254612c56565b61324e82828561318a565b600060209050601f831160018114613281576000841561326f578287015190505b61327985826131fb565b8655506132e1565b601f19841661328f86613075565b60005b828110156132b757848901518255600182019150602085019450602081019050613292565b868310156132d457848901516132d0601f8916826131dd565b8355505b6001600288020188555050505b505050505050565b60006040820190506132fe6000830185612643565b81810360208301526133108184612589565b90509392505050565b600081905092915050565b600061332f82612532565b6133398185613319565b935061334981856020860161254e565b80840191505092915050565b60006133618285613324565b915061336d8284613324565b91508190509392505050565b7f4e6f7420746865206f776e6572206f662074686520626f6f6b00000000000000600082015250565b60006133af60198361253d565b91506133ba82613379565b602082019050919050565b600060208201905081810360008301526133de816133a2565b9050919050565b7f4552433732313a207472616e736665722066726f6d20696e636f72726563742060008201527f6f776e6572000000000000000000000000000000000000000000000000000000602082015250565b600061344160258361253d565b915061344c826133e5565b604082019050919050565b6000602082019050818103600083015261347081613434565b9050919050565b7f4552433732313a207472616e7366657220746f20746865207a65726f2061646460008201527f7265737300000000000000000000000000000000000000000000000000000000602082015250565b60006134d360248361253d565b91506134de82613477565b604082019050919050565b60006020820190508181036000830152613502816134c6565b9050919050565b600061351482612869565b915061351f83612869565b9250828203905060ff81111561353857613537612eeb565b5b92915050565b6000613549826124a9565b9150613554836124a9565b9250828202613562816124a9565b9150828204841483151761357957613578612eeb565b5b5092915050565b7f4e487b7100000000000000000000000000000000000000000000000000000000600052601260045260246000fd5b60006135ba826124a9565b91506135c5836124a9565b9250826135d5576135d4613580565b5b828204905092915050565b7f4552433732313a20617070726f766520746f2063616c6c657200000000000000600082015250565b600061361660198361253d565b9150613621826135e0565b602082019050919050565b6000602082019050818103600083015261364581613609565b9050919050565b7f4552433732313a207472616e7366657220746f206e6f6e20455243373231526560008201527f63656976657220696d706c656d656e7465720000000000000000000000000000602082015250565b60006136a860328361253d565b91506136b38261364c565b604082019050919050565b600060208201905081810360008301526136d78161369b565b9050919050565b7f45524337323155524953746f726167653a2055524920736574206f66206e6f6e60008201527f6578697374656e7420746f6b656e000000000000000000000000000000000000602082015250565b600061373a602e8361253d565b9150613745826136de565b604082019050919050565b600060208201905081810360008301526137698161372d565b9050919050565b600061377b826124a9565b9150613786836124a9565b925082820390508181111561379e5761379d612eeb565b5b92915050565b600081519050919050565b600082825260208201905092915050565b60006137cb826137a4565b6137d581856137af565b93506137e581856020860161254e565b6137ee81612578565b840191505092915050565b600060808201905061380e6000830187612643565b61381b6020830186612643565b6138286040830185612759565b818103606083015261383a81846137c0565b905095945050505050565b6000815190506138548161241a565b92915050565b6000602082840312156138705761386f6123e4565b5b600061387e84828501613845565b91505092915050565b7f4552433732313a206d696e7420746f20746865207a65726f2061646472657373600082015250565b60006138bd60208361253d565b91506138c882613887565b602082019050919050565b600060208201905081810360008301526138ec816138b0565b9050919050565b7f4552433732313a20746f6b656e20616c7265616479206d696e74656400000000600082015250565b6000613929601c8361253d565b9150613934826138f3565b602082019050919050565b600060208201905081810360008301526139588161391c565b905091905056fea26469706673582212206c3d9f3d5ac5b820d2632ae5005e39e5f1a5a3b62c347c639f08eaac56c0d64864736f6c63430008110033"
}