{"address":"0xe4370b11e5721BE765715f413e77541f06e05f2f","abi":[{"inputs":[{"internalType":"uint8","name":"feePercentage","type":"uint8"},{"internalType":"address","name":"key","type":"address"}],"stateMutability":"nonpayable","type":"constructor"},{"anonymous":false,"inputs":[{"indexed":true,"internalType":"address","name":"owner","type":"address"},{"indexed":true,"internalType":"address","name":"approved","type":"address"},{"indexed":true,"internalType":"uint256","name":"tokenId","type":"uint256"}],"name":"Approval","type":"event"},{"anonymous":false,"inputs":[{"indexed":true,"internalType":"address","name":"owner","type":"address"},{"indexed":true,"internalType":"address","name":"operator","type":"address"},{"indexed":false,"internalType":"bool","name":"approved","type":"bool"}],"name":"ApprovalForAll","type":"event"},{"anonymous":false,"inputs":[{"indexed":false,"internalType":"address","name":"author","type":"address"},{"indexed":false,"internalType":"string","name":"cid","type":"string"},{"indexed":true,"internalType":"uint256","name":"bookId","type":"uint256"}],"name":"BookCreated","type":"event"},{"anonymous":false,"inputs":[{"indexed":true,"internalType":"uint256","name":"bookId","type":"uint256"},{"indexed":false,"internalType":"uint256","name":"purchasePrice","type":"uint256"},{"indexed":false,"internalType":"uint256","name":"rentPrice","type":"uint256"}],"name":"BookPublished","type":"event"},{"anonymous":false,"inputs":[{"indexed":false,"internalType":"uint256","name":"period","type":"uint256"}],"name":"Expires","type":"event"},{"anonymous":false,"inputs":[{"indexed":true,"internalType":"address","name":"from","type":"address"},{"indexed":true,"internalType":"address","name":"to","type":"address"},{"indexed":true,"internalType":"uint256","name":"tokenId","type":"uint256"}],"name":"Transfer","type":"event"},{"inputs":[],"name":"_feePercentage","outputs":[{"internalType":"uint8","name":"","type":"uint8"}],"stateMutability":"view","type":"function"},{"inputs":[],"name":"_key","outputs":[{"internalType":"contract Key","name":"","type":"address"}],"stateMutability":"view","type":"function"},{"inputs":[{"internalType":"address","name":"to","type":"address"},{"internalType":"uint256","name":"tokenId","type":"uint256"}],"name":"approve","outputs":[],"stateMutability":"nonpayable","type":"function"},{"inputs":[{"internalType":"address","name":"owner","type":"address"}],"name":"balanceOf","outputs":[{"internalType":"uint256","name":"","type":"uint256"}],"stateMutability":"view","type":"function"},{"inputs":[{"internalType":"uint256","name":"","type":"uint256"}],"name":"bookIdToBookStruct","outputs":[{"internalType":"string","name":"cid","type":"string"},{"internalType":"uint256","name":"purchasePrice","type":"uint256"},{"internalType":"uint256","name":"rentPrice","type":"uint256"},{"internalType":"uint256","name":"totalRevenue","type":"uint256"}],"stateMutability":"view","type":"function"},{"inputs":[{"internalType":"uint256","name":"bookId","type":"uint256"}],"name":"buyAccess","outputs":[],"stateMutability":"payable","type":"function"},{"inputs":[{"internalType":"uint256","name":"keyId","type":"uint256"}],"name":"buyBookOwnership","outputs":[],"stateMutability":"nonpayable","type":"function"},{"inputs":[{"internalType":"uint256","name":"bookId","type":"uint256"},{"internalType":"address","name":"caller","type":"address"}],"name":"canAccessBook","outputs":[{"internalType":"bool","name":"","type":"bool"}],"stateMutability":"view","type":"function"},{"inputs":[{"internalType":"string","name":"cid","type":"string"}],"name":"createBook","outputs":[],"stateMutability":"nonpayable","type":"function"},{"inputs":[{"internalType":"uint256","name":"tokenId","type":"uint256"}],"name":"getApproved","outputs":[{"internalType":"address","name":"","type":"address"}],"stateMutability":"view","type":"function"},{"inputs":[{"internalType":"address","name":"owner","type":"address"},{"internalType":"address","name":"operator","type":"address"}],"name":"isApprovedForAll","outputs":[{"internalType":"bool","name":"","type":"bool"}],"stateMutability":"view","type":"function"},{"inputs":[],"name":"name","outputs":[{"internalType":"string","name":"","type":"string"}],"stateMutability":"view","type":"function"},{"inputs":[{"internalType":"uint256","name":"tokenId","type":"uint256"}],"name":"ownerOf","outputs":[{"internalType":"address","name":"","type":"address"}],"stateMutability":"view","type":"function"},{"inputs":[{"internalType":"uint256","name":"bookId","type":"uint256"}],"name":"rentAccess","outputs":[],"stateMutability":"payable","type":"function"},{"inputs":[{"internalType":"address","name":"from","type":"address"},{"internalType":"address","name":"to","type":"address"},{"internalType":"uint256","name":"tokenId","type":"uint256"}],"name":"safeTransferFrom","outputs":[],"stateMutability":"nonpayable","type":"function"},{"inputs":[{"internalType":"address","name":"from","type":"address"},{"internalType":"address","name":"to","type":"address"},{"internalType":"uint256","name":"tokenId","type":"uint256"},{"internalType":"bytes","name":"data","type":"bytes"}],"name":"safeTransferFrom","outputs":[],"stateMutability":"nonpayable","type":"function"},{"inputs":[{"internalType":"uint256","name":"keyId","type":"uint256"}],"name":"sellBookOwnership","outputs":[],"stateMutability":"nonpayable","type":"function"},{"inputs":[{"internalType":"address","name":"operator","type":"address"},{"internalType":"bool","name":"approved","type":"bool"}],"name":"setApprovalForAll","outputs":[],"stateMutability":"nonpayable","type":"function"},{"inputs":[{"internalType":"bytes4","name":"interfaceId","type":"bytes4"}],"name":"supportsInterface","outputs":[{"internalType":"bool","name":"","type":"bool"}],"stateMutability":"view","type":"function"},{"inputs":[],"name":"symbol","outputs":[{"internalType":"string","name":"","type":"string"}],"stateMutability":"view","type":"function"},{"inputs":[{"internalType":"uint256","name":"tokenId","type":"uint256"}],"name":"tokenURI","outputs":[{"internalType":"string","name":"","type":"string"}],"stateMutability":"view","type":"function"},{"inputs":[{"internalType":"address","name":"from","type":"address"},{"internalType":"address","name":"to","type":"address"},{"internalType":"uint256","name":"tokenId","type":"uint256"}],"name":"transferFrom","outputs":[],"stateMutability":"nonpayable","type":"function"},{"inputs":[{"internalType":"uint256","name":"bookId","type":"uint256"},{"internalType":"uint256","name":"purchasePrice","type":"uint256"},{"internalType":"uint256","name":"rentPrice","type":"uint256"}],"name":"uploadBook","outputs":[],"stateMutability":"nonpayable","type":"function"},{"inputs":[{"internalType":"uint256","name":"bookId","type":"uint256"}],"name":"withdrawProfit","outputs":[],"stateMutability":"payable","type":"function"},{"stateMutability":"payable","type":"receive"}],"bytecode":"0x60a06040523480156200001157600080fd5b50604051620044d2380380620044d28339818101604052810190620000379190620001c8565b6040518060400160405280600481526020017f426f6f6b000000000000000000000000000000000000000000000000000000008152506040518060400160405280600281526020017f426b0000000000000000000000000000000000000000000000000000000000008152508160009081620000b4919062000489565b508060019081620000c6919062000489565b50505081600860006101000a81548160ff021916908360ff1602179055508073ffffffffffffffffffffffffffffffffffffffff1660808173ffffffffffffffffffffffffffffffffffffffff1681525050505062000570565b600080fd5b600060ff82169050919050565b6200013d8162000125565b81146200014957600080fd5b50565b6000815190506200015d8162000132565b92915050565b600073ffffffffffffffffffffffffffffffffffffffff82169050919050565b6000620001908262000163565b9050919050565b620001a28162000183565b8114620001ae57600080fd5b50565b600081519050620001c28162000197565b92915050565b60008060408385031215620001e257620001e162000120565b5b6000620001f2858286016200014c565b92505060206200020585828601620001b1565b9150509250929050565b600081519050919050565b7f4e487b7100000000000000000000000000000000000000000000000000000000600052604160045260246000fd5b7f4e487b7100000000000000000000000000000000000000000000000000000000600052602260045260246000fd5b600060028204905060018216806200029157607f821691505b602082108103620002a757620002a662000249565b5b50919050565b60008190508160005260206000209050919050565b60006020601f8301049050919050565b600082821b905092915050565b600060088302620003117fffffffffffffffffffffffffffffffffffffffffffffffffffffffffffffffff82620002d2565b6200031d8683620002d2565b95508019841693508086168417925050509392505050565b6000819050919050565b6000819050919050565b60006200036a620003646200035e8462000335565b6200033f565b62000335565b9050919050565b6000819050919050565b620003868362000349565b6200039e620003958262000371565b848454620002df565b825550505050565b600090565b620003b5620003a6565b620003c28184846200037b565b505050565b5b81811015620003ea57620003de600082620003ab565b600181019050620003c8565b5050565b601f82111562000439576200040381620002ad565b6200040e84620002c2565b810160208510156200041e578190505b620004366200042d85620002c2565b830182620003c7565b50505b505050565b600082821c905092915050565b60006200045e600019846008026200043e565b1980831691505092915050565b60006200047983836200044b565b9150826002028217905092915050565b62000494826200020f565b67ffffffffffffffff811115620004b057620004af6200021a565b5b620004bc825462000278565b620004c9828285620003ee565b600060209050601f831160018114620005015760008415620004ec578287015190505b620004f885826200046b565b86555062000568565b601f1984166200051186620002ad565b60005b828110156200053b5784890151825560018201915060208501945060208101905062000514565b868310156200055b578489015162000557601f8916826200044b565b8355505b6001600288020188555050505b505050505050565b608051613f07620005cb6000396000818161093201528181610aac01528181610b5001528181610bed01528181610cfb01528181610eca015281816114f60152818161159a0152818161163701526117520152613f076000f3fe60806040526004361061014f5760003560e01c80639072df6b116100b6578063c87b56dd1161006f578063c87b56dd146104b1578063d82a2bea146104ee578063dc4e35e81461050a578063e985e9c514610526578063f699343e14610563578063f9c9c8781461058e57610156565b80639072df6b146103a257806395d89b41146103cb578063a22cb465146103f6578063b75174f01461041f578063b88d4fde1461045f578063b9f72b7d1461048857610156565b806342842e0e1161010857806342842e0e1461028f57806350a1a264146102b85780636352211e146102d457806370a082311461031157806374ad7ac41461034e578063815092d71461037957610156565b806301ffc9a71461015b57806306fdde0314610198578063081812fc146101c3578063095ea7b31461020057806323b872dd1461022957806336d964121461025257610156565b3661015657005b600080fd5b34801561016757600080fd5b50610182600480360381019061017d9190612965565b6105b7565b60405161018f91906129ad565b60405180910390f35b3480156101a457600080fd5b506101ad610699565b6040516101ba9190612a58565b60405180910390f35b3480156101cf57600080fd5b506101ea60048036038101906101e59190612ab0565b61072b565b6040516101f79190612b1e565b60405180910390f35b34801561020c57600080fd5b5061022760048036038101906102229190612b65565b610771565b005b34801561023557600080fd5b50610250600480360381019061024b9190612ba5565b610888565b005b34801561025e57600080fd5b5061027960048036038101906102749190612bf8565b6108e8565b60405161028691906129ad565b60405180910390f35b34801561029b57600080fd5b506102b660048036038101906102b19190612ba5565b610a2a565b005b6102d260048036038101906102cd9190612ab0565b610a4a565b005b3480156102e057600080fd5b506102fb60048036038101906102f69190612ab0565b610d8b565b6040516103089190612b1e565b60405180910390f35b34801561031d57600080fd5b5061033860048036038101906103339190612c38565b610e11565b6040516103459190612c74565b60405180910390f35b34801561035a57600080fd5b50610363610ec8565b6040516103709190612cee565b60405180910390f35b34801561038557600080fd5b506103a0600480360381019061039b9190612d09565b610eec565b005b3480156103ae57600080fd5b506103c960048036038101906103c49190612ab0565b61102f565b005b3480156103d757600080fd5b506103e0611032565b6040516103ed9190612a58565b60405180910390f35b34801561040257600080fd5b5061041d60048036038101906104189190612d88565b6110c4565b005b34801561042b57600080fd5b5061044660048036038101906104419190612ab0565b6110da565b6040516104569493929190612dc8565b60405180910390f35b34801561046b57600080fd5b5061048660048036038101906104819190612f49565b611192565b005b34801561049457600080fd5b506104af60048036038101906104aa919061306d565b6111f4565b005b3480156104bd57600080fd5b506104d860048036038101906104d39190612ab0565b611288565b6040516104e59190612a58565b60405180910390f35b61050860048036038101906105039190612ab0565b61139a565b005b610524600480360381019061051f9190612ab0565b611494565b005b34801561053257600080fd5b5061054d600480360381019061054891906130b6565b611837565b60405161055a91906129ad565b60405180910390f35b34801561056f57600080fd5b506105786118cb565b6040516105859190613112565b60405180910390f35b34801561059a57600080fd5b506105b560048036038101906105b09190612ab0565b6118de565b005b60007f80ac58cd000000000000000000000000000000000000000000000000000000007bffffffffffffffffffffffffffffffffffffffffffffffffffffffff1916827bffffffffffffffffffffffffffffffffffffffffffffffffffffffff1916148061068257507f5b5e139f000000000000000000000000000000000000000000000000000000007bffffffffffffffffffffffffffffffffffffffffffffffffffffffff1916827bffffffffffffffffffffffffffffffffffffffffffffffffffffffff1916145b806106925750610691826118e1565b5b9050919050565b6060600080546106a89061315c565b80601f01602080910402602001604051908101604052809291908181526020018280546106d49061315c565b80156107215780601f106106f657610100808354040283529160200191610721565b820191906000526020600020905b81548152906001019060200180831161070457829003601f168201915b5050505050905090565b60006107368261194b565b6004600083815260200190815260200160002060009054906101000a900473ffffffffffffffffffffffffffffffffffffffff169050919050565b600061077c82610d8b565b90508073ffffffffffffffffffffffffffffffffffffffff168373ffffffffffffffffffffffffffffffffffffffff16036107ec576040517f08c379a00000000000000000000000000000000000000000000000000000000081526004016107e3906131ff565b60405180910390fd5b8073ffffffffffffffffffffffffffffffffffffffff1661080b611996565b73ffffffffffffffffffffffffffffffffffffffff16148061083a575061083981610834611996565b611837565b5b610879576040517f08c379a000000000000000000000000000000000000000000000000000000000815260040161087090613291565b60405180910390fd5b610883838361199e565b505050565b610899610893611996565b82611a57565b6108d8576040517f08c379a00000000000000000000000000000000000000000000000000000000081526004016108cf90613323565b60405180910390fd5b6108e3838383611aec565b505050565b60008173ffffffffffffffffffffffffffffffffffffffff1661090a84610d8b565b73ffffffffffffffffffffffffffffffffffffffff160361092e5760019050610a24565b60007f000000000000000000000000000000000000000000000000000000000000000073ffffffffffffffffffffffffffffffffffffffff1663745c84ca846040518263ffffffff1660e01b81526004016109899190612b1e565b602060405180830381865afa1580156109a6573d6000803e3d6000fd5b505050506040513d601f19601f820116820180604052508101906109ca9190613358565b9050600081036109de576000915050610a24565b600060096000868152602001908152602001600020905042816004016000848152602001908152602001600020541115610a1d57600192505050610a24565b6000925050505b92915050565b610a4583838360405180602001604052806000815250611192565b505050565b60006009600083815260200190815260200160002090508060010154341015610aa8576040517f08c379a0000000000000000000000000000000000000000000000000000000008152600401610a9f906133d1565b60405180910390fd5b60007f000000000000000000000000000000000000000000000000000000000000000073ffffffffffffffffffffffffffffffffffffffff1663745c84ca336040518263ffffffff1660e01b8152600401610b039190612b1e565b602060405180830381865afa158015610b20573d6000803e3d6000fd5b505050506040513d601f19601f82011682018060405250810190610b449190613358565b905060008103610c88577f000000000000000000000000000000000000000000000000000000000000000073ffffffffffffffffffffffffffffffffffffffff166356ddf67b336040518263ffffffff1660e01b8152600401610ba79190612b1e565b6020604051808303816000875af1158015610bc6573d6000803e3d6000fd5b505050506040513d601f19601f82011682018060405250810190610bea9190613358565b507f000000000000000000000000000000000000000000000000000000000000000073ffffffffffffffffffffffffffffffffffffffff1663745c84ca336040518263ffffffff1660e01b8152600401610c449190612b1e565b602060405180830381865afa158015610c61573d6000803e3d6000fd5b505050506040513d601f19601f82011682018060405250810190610c859190613358565b90505b7fffffffffffffffffffffffffffffffffffffffffffffffffffffffffffffffff82600401600083815260200190815260200160002081905550610cdf600860009054906101000a900460ff168360010154611de5565b826003016000828254610cf29190613420565b925050819055507f000000000000000000000000000000000000000000000000000000000000000073ffffffffffffffffffffffffffffffffffffffff16632597e04782856040518363ffffffff1660e01b8152600401610d54929190613454565b600060405180830381600087803b158015610d6e57600080fd5b505af1158015610d82573d6000803e3d6000fd5b50505050505050565b600080610d9783611e16565b9050600073ffffffffffffffffffffffffffffffffffffffff168173ffffffffffffffffffffffffffffffffffffffff1603610e08576040517f08c379a0000000000000000000000000000000000000000000000000000000008152600401610dff906134c9565b60405180910390fd5b80915050919050565b60008073ffffffffffffffffffffffffffffffffffffffff168273ffffffffffffffffffffffffffffffffffffffff1603610e81576040517f08c379a0000000000000000000000000000000000000000000000000000000008152600401610e789061355b565b60405180910390fd5b600360008373ffffffffffffffffffffffffffffffffffffffff1673ffffffffffffffffffffffffffffffffffffffff168152602001908152602001600020549050919050565b7f000000000000000000000000000000000000000000000000000000000000000081565b600083118015610f055750610f016007611e53565b8311155b610f44576040517f08c379a0000000000000000000000000000000000000000000000000000000008152600401610f3b906135c7565b60405180910390fd5b3373ffffffffffffffffffffffffffffffffffffffff16610f6484610d8b565b73ffffffffffffffffffffffffffffffffffffffff1614610fba576040517f08c379a0000000000000000000000000000000000000000000000000000000008152600401610fb190613633565b60405180910390fd5b816009600085815260200190815260200160002060010181905550806009600085815260200190815260200160002060020181905550827f204930f3db2bb7f6984c024cf2a93710045c72024ec59bff7d4e63b2409c841e8383604051611022929190613454565b60405180910390a2505050565b50565b6060600180546110419061315c565b80601f016020809104026020016040519081016040528092919081815260200182805461106d9061315c565b80156110ba5780601f1061108f576101008083540402835291602001916110ba565b820191906000526020600020905b81548152906001019060200180831161109d57829003601f168201915b5050505050905090565b6110d66110cf611996565b8383611e61565b5050565b60096020528060005260406000206000915090508060000180546110fd9061315c565b80601f01602080910402602001604051908101604052809291908181526020018280546111299061315c565b80156111765780601f1061114b57610100808354040283529160200191611176565b820191906000526020600020905b81548152906001019060200180831161115957829003601f168201915b5050505050908060010154908060020154908060030154905084565b6111a361119d611996565b83611a57565b6111e2576040517f08c379a00000000000000000000000000000000000000000000000000000000081526004016111d990613323565b60405180910390fd5b6111ee84848484611fcd565b50505050565b6111fe6007612029565b600061120a6007611e53565b9050611216338261203f565b611220818361205d565b60006009600083815260200190815260200160002090508281600001908161124891906137f5565b50817f6f10a189e74c40865dbc37544147d0a3d57b2a5e5100daf4cd09cff5a9033c72338560405161127b9291906138c7565b60405180910390a2505050565b60606112938261194b565b60006006600084815260200190815260200160002080546112b39061315c565b80601f01602080910402602001604051908101604052809291908181526020018280546112df9061315c565b801561132c5780601f106113015761010080835404028352916020019161132c565b820191906000526020600020905b81548152906001019060200180831161130f57829003601f168201915b50505050509050600061133d6120ca565b90506000815103611352578192505050611395565b60008251111561138757808260405160200161136f929190613933565b60405160208183030381529060405292505050611395565b611390846120e1565b925050505b919050565b3373ffffffffffffffffffffffffffffffffffffffff166113ba82610d8b565b73ffffffffffffffffffffffffffffffffffffffff1614611410576040517f08c379a000000000000000000000000000000000000000000000000000000000815260040161140790613633565b60405180910390fd5b6000600960008381526020019081526020016000206003018190555061143581610d8b565b73ffffffffffffffffffffffffffffffffffffffff166108fc60096000848152602001908152602001600020600301549081150290604051600060405180830381858888f19350505050158015611490573d6000803e3d6000fd5b5050565b600060096000838152602001908152602001600020905080600201543410156114f2576040517f08c379a00000000000000000000000000000000000000000000000000000000081526004016114e9906133d1565b60405180910390fd5b60007f000000000000000000000000000000000000000000000000000000000000000073ffffffffffffffffffffffffffffffffffffffff1663745c84ca336040518263ffffffff1660e01b815260040161154d9190612b1e565b602060405180830381865afa15801561156a573d6000803e3d6000fd5b505050506040513d601f19601f8201168201806040525081019061158e9190613358565b9050600081036116d2577f000000000000000000000000000000000000000000000000000000000000000073ffffffffffffffffffffffffffffffffffffffff166356ddf67b336040518263ffffffff1660e01b81526004016115f19190612b1e565b6020604051808303816000875af1158015611610573d6000803e3d6000fd5b505050506040513d601f19601f820116820180604052508101906116349190613358565b507f000000000000000000000000000000000000000000000000000000000000000073ffffffffffffffffffffffffffffffffffffffff1663745c84ca336040518263ffffffff1660e01b815260040161168e9190612b1e565b602060405180830381865afa1580156116ab573d6000803e3d6000fd5b505050506040513d601f19601f820116820180604052508101906116cf9190613358565b90505b6000826002015462015180346116e89190613957565b6116f291906139c8565b426116fd9190613420565b90508083600401600084815260200190815260200160002081905550611736600860009054906101000a900460ff168460020154611de5565b8360030160008282546117499190613420565b925050819055507f000000000000000000000000000000000000000000000000000000000000000073ffffffffffffffffffffffffffffffffffffffff16632597e04783866040518363ffffffff1660e01b81526004016117ab929190613454565b600060405180830381600087803b1580156117c557600080fd5b505af11580156117d9573d6000803e3d6000fd5b505050507ffb882a53492d19735e4736247541befcac221922df2603a7b9edef5989fe0c6e836002015462015180346118129190613957565b61181c91906139c8565b6040516118299190612c74565b60405180910390a150505050565b6000600560008473ffffffffffffffffffffffffffffffffffffffff1673ffffffffffffffffffffffffffffffffffffffff16815260200190815260200160002060008373ffffffffffffffffffffffffffffffffffffffff1673ffffffffffffffffffffffffffffffffffffffff16815260200190815260200160002060009054906101000a900460ff16905092915050565b600860009054906101000a900460ff1681565b50565b60007f01ffc9a7000000000000000000000000000000000000000000000000000000007bffffffffffffffffffffffffffffffffffffffffffffffffffffffff1916827bffffffffffffffffffffffffffffffffffffffffffffffffffffffff1916149050919050565b61195481612149565b611993576040517f08c379a000000000000000000000000000000000000000000000000000000000815260040161198a906134c9565b60405180910390fd5b50565b600033905090565b816004600083815260200190815260200160002060006101000a81548173ffffffffffffffffffffffffffffffffffffffff021916908373ffffffffffffffffffffffffffffffffffffffff160217905550808273ffffffffffffffffffffffffffffffffffffffff16611a1183610d8b565b73ffffffffffffffffffffffffffffffffffffffff167f8c5be1e5ebec7d5bd14f71427d1e84f3dd0314c0f7b2291e5b200ac8c7c3b92560405160405180910390a45050565b600080611a6383610d8b565b90508073ffffffffffffffffffffffffffffffffffffffff168473ffffffffffffffffffffffffffffffffffffffff161480611aa55750611aa48185611837565b5b80611ae357508373ffffffffffffffffffffffffffffffffffffffff16611acb8461072b565b73ffffffffffffffffffffffffffffffffffffffff16145b91505092915050565b8273ffffffffffffffffffffffffffffffffffffffff16611b0c82610d8b565b73ffffffffffffffffffffffffffffffffffffffff1614611b62576040517f08c379a0000000000000000000000000000000000000000000000000000000008152600401611b5990613a6b565b60405180910390fd5b600073ffffffffffffffffffffffffffffffffffffffff168273ffffffffffffffffffffffffffffffffffffffff1603611bd1576040517f08c379a0000000000000000000000000000000000000000000000000000000008152600401611bc890613afd565b60405180910390fd5b611bde838383600161218a565b8273ffffffffffffffffffffffffffffffffffffffff16611bfe82610d8b565b73ffffffffffffffffffffffffffffffffffffffff1614611c54576040517f08c379a0000000000000000000000000000000000000000000000000000000008152600401611c4b90613a6b565b60405180910390fd5b6004600082815260200190815260200160002060006101000a81549073ffffffffffffffffffffffffffffffffffffffff02191690556001600360008573ffffffffffffffffffffffffffffffffffffffff1673ffffffffffffffffffffffffffffffffffffffff168152602001908152602001600020600082825403925050819055506001600360008473ffffffffffffffffffffffffffffffffffffffff1673ffffffffffffffffffffffffffffffffffffffff16815260200190815260200160002060008282540192505081905550816002600083815260200190815260200160002060006101000a81548173ffffffffffffffffffffffffffffffffffffffff021916908373ffffffffffffffffffffffffffffffffffffffff160217905550808273ffffffffffffffffffffffffffffffffffffffff168473ffffffffffffffffffffffffffffffffffffffff167fddf252ad1be2c89b69c2b068fc378daa952ba7f163c4a11628f55a4df523b3ef60405160405180910390a4611de083838360016122b0565b505050565b6000606482846064611df79190613b1d565b60ff16611e049190613957565b611e0e91906139c8565b905092915050565b60006002600083815260200190815260200160002060009054906101000a900473ffffffffffffffffffffffffffffffffffffffff169050919050565b600081600001549050919050565b8173ffffffffffffffffffffffffffffffffffffffff168373ffffffffffffffffffffffffffffffffffffffff1603611ecf576040517f08c379a0000000000000000000000000000000000000000000000000000000008152600401611ec690613b9e565b60405180910390fd5b80600560008573ffffffffffffffffffffffffffffffffffffffff1673ffffffffffffffffffffffffffffffffffffffff16815260200190815260200160002060008473ffffffffffffffffffffffffffffffffffffffff1673ffffffffffffffffffffffffffffffffffffffff16815260200190815260200160002060006101000a81548160ff0219169083151502179055508173ffffffffffffffffffffffffffffffffffffffff168373ffffffffffffffffffffffffffffffffffffffff167f17307eab39ab6107e8899845ad3d59bd9653f200f220920489ca2b5937696c3183604051611fc091906129ad565b60405180910390a3505050565b611fd8848484611aec565b611fe4848484846122b6565b612023576040517f08c379a000000000000000000000000000000000000000000000000000000000815260040161201a90613c30565b60405180910390fd5b50505050565b6001816000016000828254019250508190555050565b61205982826040518060200160405280600081525061243d565b5050565b61206682612149565b6120a5576040517f08c379a000000000000000000000000000000000000000000000000000000000815260040161209c90613cc2565b60405180910390fd5b806006600084815260200190815260200160002090816120c591906137f5565b505050565b606060405180602001604052806000815250905090565b60606120ec8261194b565b60006120f66120ca565b905060008151116121165760405180602001604052806000815250612141565b8061212084612498565b604051602001612131929190613933565b6040516020818303038152906040525b915050919050565b60008073ffffffffffffffffffffffffffffffffffffffff1661216b83611e16565b73ffffffffffffffffffffffffffffffffffffffff1614159050919050565b60018111156122aa57600073ffffffffffffffffffffffffffffffffffffffff168473ffffffffffffffffffffffffffffffffffffffff161461221e5780600360008673ffffffffffffffffffffffffffffffffffffffff1673ffffffffffffffffffffffffffffffffffffffff16815260200190815260200160002060008282546122169190613ce2565b925050819055505b600073ffffffffffffffffffffffffffffffffffffffff168373ffffffffffffffffffffffffffffffffffffffff16146122a95780600360008573ffffffffffffffffffffffffffffffffffffffff1673ffffffffffffffffffffffffffffffffffffffff16815260200190815260200160002060008282546122a19190613420565b925050819055505b5b50505050565b50505050565b60006122d78473ffffffffffffffffffffffffffffffffffffffff16612566565b15612430578373ffffffffffffffffffffffffffffffffffffffff1663150b7a02612300611996565b8786866040518563ffffffff1660e01b81526004016123229493929190613d6b565b6020604051808303816000875af192505050801561235e57506040513d601f19601f8201168201806040525081019061235b9190613dcc565b60015b6123e0573d806000811461238e576040519150601f19603f3d011682016040523d82523d6000602084013e612393565b606091505b5060008151036123d8576040517f08c379a00000000000000000000000000000000000000000000000000000000081526004016123cf90613c30565b60405180910390fd5b805181602001fd5b63150b7a0260e01b7bffffffffffffffffffffffffffffffffffffffffffffffffffffffff1916817bffffffffffffffffffffffffffffffffffffffffffffffffffffffff191614915050612435565b600190505b949350505050565b6124478383612589565b61245460008484846122b6565b612493576040517f08c379a000000000000000000000000000000000000000000000000000000000815260040161248a90613c30565b60405180910390fd5b505050565b6060600060016124a7846127a6565b01905060008167ffffffffffffffff8111156124c6576124c5612e1e565b5b6040519080825280601f01601f1916602001820160405280156124f85781602001600182028036833780820191505090505b509050600082602001820190505b60011561255b578080600190039150507f3031323334353637383961626364656600000000000000000000000000000000600a86061a8153600a858161254f5761254e613999565b5b04945060008503612506575b819350505050919050565b6000808273ffffffffffffffffffffffffffffffffffffffff163b119050919050565b600073ffffffffffffffffffffffffffffffffffffffff168273ffffffffffffffffffffffffffffffffffffffff16036125f8576040517f08c379a00000000000000000000000000000000000000000000000000000000081526004016125ef90613e45565b60405180910390fd5b61260181612149565b15612641576040517f08c379a000000000000000000000000000000000000000000000000000000000815260040161263890613eb1565b60405180910390fd5b61264f60008383600161218a565b61265881612149565b15612698576040517f08c379a000000000000000000000000000000000000000000000000000000000815260040161268f90613eb1565b60405180910390fd5b6001600360008473ffffffffffffffffffffffffffffffffffffffff1673ffffffffffffffffffffffffffffffffffffffff16815260200190815260200160002060008282540192505081905550816002600083815260200190815260200160002060006101000a81548173ffffffffffffffffffffffffffffffffffffffff021916908373ffffffffffffffffffffffffffffffffffffffff160217905550808273ffffffffffffffffffffffffffffffffffffffff16600073ffffffffffffffffffffffffffffffffffffffff167fddf252ad1be2c89b69c2b068fc378daa952ba7f163c4a11628f55a4df523b3ef60405160405180910390a46127a26000838360016122b0565b5050565b600080600090507a184f03e93ff9f4daa797ed6e38ed64bf6a1f0100000000000000008310612804577a184f03e93ff9f4daa797ed6e38ed64bf6a1f01000000000000000083816127fa576127f9613999565b5b0492506040810190505b6d04ee2d6d415b85acef81000000008310612841576d04ee2d6d415b85acef8100000000838161283757612836613999565b5b0492506020810190505b662386f26fc10000831061287057662386f26fc10000838161286657612865613999565b5b0492506010810190505b6305f5e1008310612899576305f5e100838161288f5761288e613999565b5b0492506008810190505b61271083106128be5761271083816128b4576128b3613999565b5b0492506004810190505b606483106128e157606483816128d7576128d6613999565b5b0492506002810190505b600a83106128f0576001810190505b80915050919050565b6000604051905090565b600080fd5b600080fd5b60007fffffffff0000000000000000000000000000000000000000000000000000000082169050919050565b6129428161290d565b811461294d57600080fd5b50565b60008135905061295f81612939565b92915050565b60006020828403121561297b5761297a612903565b5b600061298984828501612950565b91505092915050565b60008115159050919050565b6129a781612992565b82525050565b60006020820190506129c2600083018461299e565b92915050565b600081519050919050565b600082825260208201905092915050565b60005b83811015612a025780820151818401526020810190506129e7565b60008484015250505050565b6000601f19601f8301169050919050565b6000612a2a826129c8565b612a3481856129d3565b9350612a448185602086016129e4565b612a4d81612a0e565b840191505092915050565b60006020820190508181036000830152612a728184612a1f565b905092915050565b6000819050919050565b612a8d81612a7a565b8114612a9857600080fd5b50565b600081359050612aaa81612a84565b92915050565b600060208284031215612ac657612ac5612903565b5b6000612ad484828501612a9b565b91505092915050565b600073ffffffffffffffffffffffffffffffffffffffff82169050919050565b6000612b0882612add565b9050919050565b612b1881612afd565b82525050565b6000602082019050612b336000830184612b0f565b92915050565b612b4281612afd565b8114612b4d57600080fd5b50565b600081359050612b5f81612b39565b92915050565b60008060408385031215612b7c57612b7b612903565b5b6000612b8a85828601612b50565b9250506020612b9b85828601612a9b565b9150509250929050565b600080600060608486031215612bbe57612bbd612903565b5b6000612bcc86828701612b50565b9350506020612bdd86828701612b50565b9250506040612bee86828701612a9b565b9150509250925092565b60008060408385031215612c0f57612c0e612903565b5b6000612c1d85828601612a9b565b9250506020612c2e85828601612b50565b9150509250929050565b600060208284031215612c4e57612c4d612903565b5b6000612c5c84828501612b50565b91505092915050565b612c6e81612a7a565b82525050565b6000602082019050612c896000830184612c65565b92915050565b6000819050919050565b6000612cb4612caf612caa84612add565b612c8f565b612add565b9050919050565b6000612cc682612c99565b9050919050565b6000612cd882612cbb565b9050919050565b612ce881612ccd565b82525050565b6000602082019050612d036000830184612cdf565b92915050565b600080600060608486031215612d2257612d21612903565b5b6000612d3086828701612a9b565b9350506020612d4186828701612a9b565b9250506040612d5286828701612a9b565b9150509250925092565b612d6581612992565b8114612d7057600080fd5b50565b600081359050612d8281612d5c565b92915050565b60008060408385031215612d9f57612d9e612903565b5b6000612dad85828601612b50565b9250506020612dbe85828601612d73565b9150509250929050565b60006080820190508181036000830152612de28187612a1f565b9050612df16020830186612c65565b612dfe6040830185612c65565b612e0b6060830184612c65565b95945050505050565b600080fd5b600080fd5b7f4e487b7100000000000000000000000000000000000000000000000000000000600052604160045260246000fd5b612e5682612a0e565b810181811067ffffffffffffffff82111715612e7557612e74612e1e565b5b80604052505050565b6000612e886128f9565b9050612e948282612e4d565b919050565b600067ffffffffffffffff821115612eb457612eb3612e1e565b5b612ebd82612a0e565b9050602081019050919050565b82818337600083830152505050565b6000612eec612ee784612e99565b612e7e565b905082815260208101848484011115612f0857612f07612e19565b5b612f13848285612eca565b509392505050565b600082601f830112612f3057612f2f612e14565b5b8135612f40848260208601612ed9565b91505092915050565b60008060008060808587031215612f6357612f62612903565b5b6000612f7187828801612b50565b9450506020612f8287828801612b50565b9350506040612f9387828801612a9b565b925050606085013567ffffffffffffffff811115612fb457612fb3612908565b5b612fc087828801612f1b565b91505092959194509250565b600067ffffffffffffffff821115612fe757612fe6612e1e565b5b612ff082612a0e565b9050602081019050919050565b600061301061300b84612fcc565b612e7e565b90508281526020810184848401111561302c5761302b612e19565b5b613037848285612eca565b509392505050565b600082601f83011261305457613053612e14565b5b8135613064848260208601612ffd565b91505092915050565b60006020828403121561308357613082612903565b5b600082013567ffffffffffffffff8111156130a1576130a0612908565b5b6130ad8482850161303f565b91505092915050565b600080604083850312156130cd576130cc612903565b5b60006130db85828601612b50565b92505060206130ec85828601612b50565b9150509250929050565b600060ff82169050919050565b61310c816130f6565b82525050565b60006020820190506131276000830184613103565b92915050565b7f4e487b7100000000000000000000000000000000000000000000000000000000600052602260045260246000fd5b6000600282049050600182168061317457607f821691505b6020821081036131875761318661312d565b5b50919050565b7f4552433732313a20617070726f76616c20746f2063757272656e74206f776e6560008201527f7200000000000000000000000000000000000000000000000000000000000000602082015250565b60006131e96021836129d3565b91506131f48261318d565b604082019050919050565b60006020820190508181036000830152613218816131dc565b9050919050565b7f4552433732313a20617070726f76652063616c6c6572206973206e6f7420746f60008201527f6b656e206f776e6572206f7220617070726f76656420666f7220616c6c000000602082015250565b600061327b603d836129d3565b91506132868261321f565b604082019050919050565b600060208201905081810360008301526132aa8161326e565b9050919050565b7f4552433732313a2063616c6c6572206973206e6f7420746f6b656e206f776e6560008201527f72206f7220617070726f76656400000000000000000000000000000000000000602082015250565b600061330d602d836129d3565b9150613318826132b1565b604082019050919050565b6000602082019050818103600083015261333c81613300565b9050919050565b60008151905061335281612a84565b92915050565b60006020828403121561336e5761336d612903565b5b600061337c84828501613343565b91505092915050565b7f6e6f7420656e6f7567682046494c2073656e7400000000000000000000000000600082015250565b60006133bb6013836129d3565b91506133c682613385565b602082019050919050565b600060208201905081810360008301526133ea816133ae565b9050919050565b7f4e487b7100000000000000000000000000000000000000000000000000000000600052601160045260246000fd5b600061342b82612a7a565b915061343683612a7a565b925082820190508082111561344e5761344d6133f1565b5b92915050565b60006040820190506134696000830185612c65565b6134766020830184612c65565b9392505050565b7f4552433732313a20696e76616c696420746f6b656e2049440000000000000000600082015250565b60006134b36018836129d3565b91506134be8261347d565b602082019050919050565b600060208201905081810360008301526134e2816134a6565b9050919050565b7f4552433732313a2061646472657373207a65726f206973206e6f74206120766160008201527f6c6964206f776e65720000000000000000000000000000000000000000000000602082015250565b60006135456029836129d3565b9150613550826134e9565b604082019050919050565b6000602082019050818103600083015261357481613538565b9050919050565b7f4e6f6e2d6578697374656e7420626f6f6b000000000000000000000000000000600082015250565b60006135b16011836129d3565b91506135bc8261357b565b602082019050919050565b600060208201905081810360008301526135e0816135a4565b9050919050565b7f6e6f7420626f6f6b206f776e6572000000000000000000000000000000000000600082015250565b600061361d600e836129d3565b9150613628826135e7565b602082019050919050565b6000602082019050818103600083015261364c81613610565b9050919050565b60008190508160005260206000209050919050565b60006020601f8301049050919050565b600082821b905092915050565b6000600883026136b57fffffffffffffffffffffffffffffffffffffffffffffffffffffffffffffffff82613678565b6136bf8683613678565b95508019841693508086168417925050509392505050565b60006136f26136ed6136e884612a7a565b612c8f565b612a7a565b9050919050565b6000819050919050565b61370c836136d7565b613720613718826136f9565b848454613685565b825550505050565b600090565b613735613728565b613740818484613703565b505050565b5b818110156137645761375960008261372d565b600181019050613746565b5050565b601f8211156137a95761377a81613653565b61378384613668565b81016020851015613792578190505b6137a661379e85613668565b830182613745565b50505b505050565b600082821c905092915050565b60006137cc600019846008026137ae565b1980831691505092915050565b60006137e583836137bb565b9150826002028217905092915050565b6137fe826129c8565b67ffffffffffffffff81111561381757613816612e1e565b5b613821825461315c565b61382c828285613768565b600060209050601f83116001811461385f576000841561384d578287015190505b61385785826137d9565b8655506138bf565b601f19841661386d86613653565b60005b8281101561389557848901518255600182019150602085019450602081019050613870565b868310156138b257848901516138ae601f8916826137bb565b8355505b6001600288020188555050505b505050505050565b60006040820190506138dc6000830185612b0f565b81810360208301526138ee8184612a1f565b90509392505050565b600081905092915050565b600061390d826129c8565b61391781856138f7565b93506139278185602086016129e4565b80840191505092915050565b600061393f8285613902565b915061394b8284613902565b91508190509392505050565b600061396282612a7a565b915061396d83612a7a565b925082820261397b81612a7a565b91508282048414831517613992576139916133f1565b5b5092915050565b7f4e487b7100000000000000000000000000000000000000000000000000000000600052601260045260246000fd5b60006139d382612a7a565b91506139de83612a7a565b9250826139ee576139ed613999565b5b828204905092915050565b7f4552433732313a207472616e736665722066726f6d20696e636f72726563742060008201527f6f776e6572000000000000000000000000000000000000000000000000000000602082015250565b6000613a556025836129d3565b9150613a60826139f9565b604082019050919050565b60006020820190508181036000830152613a8481613a48565b9050919050565b7f4552433732313a207472616e7366657220746f20746865207a65726f2061646460008201527f7265737300000000000000000000000000000000000000000000000000000000602082015250565b6000613ae76024836129d3565b9150613af282613a8b565b604082019050919050565b60006020820190508181036000830152613b1681613ada565b9050919050565b6000613b28826130f6565b9150613b33836130f6565b9250828203905060ff811115613b4c57613b4b6133f1565b5b92915050565b7f4552433732313a20617070726f766520746f2063616c6c657200000000000000600082015250565b6000613b886019836129d3565b9150613b9382613b52565b602082019050919050565b60006020820190508181036000830152613bb781613b7b565b9050919050565b7f4552433732313a207472616e7366657220746f206e6f6e20455243373231526560008201527f63656976657220696d706c656d656e7465720000000000000000000000000000602082015250565b6000613c1a6032836129d3565b9150613c2582613bbe565b604082019050919050565b60006020820190508181036000830152613c4981613c0d565b9050919050565b7f45524337323155524953746f726167653a2055524920736574206f66206e6f6e60008201527f6578697374656e7420746f6b656e000000000000000000000000000000000000602082015250565b6000613cac602e836129d3565b9150613cb782613c50565b604082019050919050565b60006020820190508181036000830152613cdb81613c9f565b9050919050565b6000613ced82612a7a565b9150613cf883612a7a565b9250828203905081811115613d1057613d0f6133f1565b5b92915050565b600081519050919050565b600082825260208201905092915050565b6000613d3d82613d16565b613d478185613d21565b9350613d578185602086016129e4565b613d6081612a0e565b840191505092915050565b6000608082019050613d806000830187612b0f565b613d8d6020830186612b0f565b613d9a6040830185612c65565b8181036060830152613dac8184613d32565b905095945050505050565b600081519050613dc681612939565b92915050565b600060208284031215613de257613de1612903565b5b6000613df084828501613db7565b91505092915050565b7f4552433732313a206d696e7420746f20746865207a65726f2061646472657373600082015250565b6000613e2f6020836129d3565b9150613e3a82613df9565b602082019050919050565b60006020820190508181036000830152613e5e81613e22565b9050919050565b7f4552433732313a20746f6b656e20616c7265616479206d696e74656400000000600082015250565b6000613e9b601c836129d3565b9150613ea682613e65565b602082019050919050565b60006020820190508181036000830152613eca81613e8e565b905091905056fea26469706673582212206819bd64a990f460b6acca086b88df9dbf48de210d43ab6cc9eda6bc8a299d4064736f6c63430008110033"}