{"address":"0xcf2F0677bB543bf8A2738ae3B250BC30797eC37D","abi":[{"inputs":[],"stateMutability":"nonpayable","type":"constructor"},{"anonymous":false,"inputs":[{"indexed":true,"internalType":"address","name":"owner","type":"address"},{"indexed":true,"internalType":"address","name":"approved","type":"address"},{"indexed":true,"internalType":"uint256","name":"tokenId","type":"uint256"}],"name":"Approval","type":"event"},{"anonymous":false,"inputs":[{"indexed":true,"internalType":"address","name":"owner","type":"address"},{"indexed":true,"internalType":"address","name":"operator","type":"address"},{"indexed":false,"internalType":"bool","name":"approved","type":"bool"}],"name":"ApprovalForAll","type":"event"},{"anonymous":false,"inputs":[{"indexed":true,"internalType":"address","name":"from","type":"address"},{"indexed":true,"internalType":"address","name":"to","type":"address"},{"indexed":true,"internalType":"uint256","name":"tokenId","type":"uint256"}],"name":"Transfer","type":"event"},{"inputs":[{"internalType":"uint256","name":"","type":"uint256"},{"internalType":"uint256","name":"","type":"uint256"}],"name":"accessibleBooks","outputs":[{"internalType":"uint256","name":"","type":"uint256"}],"stateMutability":"view","type":"function"},{"inputs":[{"internalType":"uint256","name":"keyId","type":"uint256"},{"internalType":"uint256","name":"bookId","type":"uint256"}],"name":"addBook","outputs":[],"stateMutability":"nonpayable","type":"function"},{"inputs":[{"internalType":"address","name":"to","type":"address"},{"internalType":"uint256","name":"tokenId","type":"uint256"}],"name":"approve","outputs":[],"stateMutability":"nonpayable","type":"function"},{"inputs":[{"internalType":"address","name":"owner","type":"address"}],"name":"balanceOf","outputs":[{"internalType":"uint256","name":"","type":"uint256"}],"stateMutability":"view","type":"function"},{"inputs":[{"internalType":"address","name":"caller","type":"address"}],"name":"generateKey","outputs":[{"internalType":"uint256","name":"","type":"uint256"}],"stateMutability":"nonpayable","type":"function"},{"inputs":[{"internalType":"uint256","name":"tokenId","type":"uint256"}],"name":"getApproved","outputs":[{"internalType":"address","name":"","type":"address"}],"stateMutability":"view","type":"function"},{"inputs":[{"internalType":"address","name":"user","type":"address"}],"name":"getUserBooks","outputs":[{"internalType":"uint256[]","name":"","type":"uint256[]"}],"stateMutability":"view","type":"function"},{"inputs":[{"internalType":"address","name":"user","type":"address"}],"name":"getUserKey","outputs":[{"internalType":"uint256","name":"","type":"uint256"}],"stateMutability":"view","type":"function"},{"inputs":[{"internalType":"address","name":"owner","type":"address"},{"internalType":"address","name":"operator","type":"address"}],"name":"isApprovedForAll","outputs":[{"internalType":"bool","name":"","type":"bool"}],"stateMutability":"view","type":"function"},{"inputs":[],"name":"name","outputs":[{"internalType":"string","name":"","type":"string"}],"stateMutability":"view","type":"function"},{"inputs":[{"internalType":"uint256","name":"tokenId","type":"uint256"}],"name":"ownerOf","outputs":[{"internalType":"address","name":"","type":"address"}],"stateMutability":"view","type":"function"},{"inputs":[{"internalType":"address","name":"","type":"address"}],"name":"ownerToKey","outputs":[{"internalType":"uint256","name":"","type":"uint256"}],"stateMutability":"view","type":"function"},{"inputs":[{"internalType":"address","name":"from","type":"address"},{"internalType":"address","name":"to","type":"address"},{"internalType":"uint256","name":"tokenId","type":"uint256"}],"name":"safeTransferFrom","outputs":[],"stateMutability":"nonpayable","type":"function"},{"inputs":[{"internalType":"address","name":"from","type":"address"},{"internalType":"address","name":"to","type":"address"},{"internalType":"uint256","name":"tokenId","type":"uint256"},{"internalType":"bytes","name":"data","type":"bytes"}],"name":"safeTransferFrom","outputs":[],"stateMutability":"nonpayable","type":"function"},{"inputs":[{"internalType":"address","name":"operator","type":"address"},{"internalType":"bool","name":"approved","type":"bool"}],"name":"setApprovalForAll","outputs":[],"stateMutability":"nonpayable","type":"function"},{"inputs":[{"internalType":"address","name":"user","type":"address"},{"internalType":"uint256","name":"keyId","type":"uint256"}],"name":"setUserKey","outputs":[],"stateMutability":"nonpayable","type":"function"},{"inputs":[{"internalType":"bytes4","name":"interfaceId","type":"bytes4"}],"name":"supportsInterface","outputs":[{"internalType":"bool","name":"","type":"bool"}],"stateMutability":"view","type":"function"},{"inputs":[{"internalType":"address","name":"user1","type":"address"},{"internalType":"address","name":"user2","type":"address"}],"name":"swapKeys","outputs":[],"stateMutability":"nonpayable","type":"function"},{"inputs":[],"name":"symbol","outputs":[{"internalType":"string","name":"","type":"string"}],"stateMutability":"view","type":"function"},{"inputs":[{"internalType":"uint256","name":"tokenId","type":"uint256"}],"name":"tokenURI","outputs":[{"internalType":"string","name":"","type":"string"}],"stateMutability":"view","type":"function"},{"inputs":[{"internalType":"address","name":"from","type":"address"},{"internalType":"address","name":"to","type":"address"},{"internalType":"uint256","name":"tokenId","type":"uint256"}],"name":"transferFrom","outputs":[],"stateMutability":"nonpayable","type":"function"}],"bytecode":"0x60806040523480156200001157600080fd5b506040518060400160405280600381526020017f4b657900000000000000000000000000000000000000000000000000000000008152506040518060400160405280600281526020017f4b7900000000000000000000000000000000000000000000000000000000000081525081600090816200008f919062000324565b508060019081620000a1919062000324565b5050506200040b565b600081519050919050565b7f4e487b7100000000000000000000000000000000000000000000000000000000600052604160045260246000fd5b7f4e487b7100000000000000000000000000000000000000000000000000000000600052602260045260246000fd5b600060028204905060018216806200012c57607f821691505b602082108103620001425762000141620000e4565b5b50919050565b60008190508160005260206000209050919050565b60006020601f8301049050919050565b600082821b905092915050565b600060088302620001ac7fffffffffffffffffffffffffffffffffffffffffffffffffffffffffffffffff826200016d565b620001b886836200016d565b95508019841693508086168417925050509392505050565b6000819050919050565b6000819050919050565b600062000205620001ff620001f984620001d0565b620001da565b620001d0565b9050919050565b6000819050919050565b6200022183620001e4565b6200023962000230826200020c565b8484546200017a565b825550505050565b600090565b6200025062000241565b6200025d81848462000216565b505050565b5b8181101562000285576200027960008262000246565b60018101905062000263565b5050565b601f821115620002d4576200029e8162000148565b620002a9846200015d565b81016020851015620002b9578190505b620002d1620002c8856200015d565b83018262000262565b50505b505050565b600082821c905092915050565b6000620002f960001984600802620002d9565b1980831691505092915050565b6000620003148383620002e6565b9150826002028217905092915050565b6200032f82620000aa565b67ffffffffffffffff8111156200034b576200034a620000b5565b5b62000357825462000113565b6200036482828562000289565b600060209050601f8311600181146200039c576000841562000387578287015190505b62000393858262000306565b86555062000403565b601f198416620003ac8662000148565b60005b82811015620003d657848901518255600182019150602085019450602081019050620003af565b86831015620003f65784890151620003f2601f891682620002e6565b8355505b6001600288020188555050505b505050505050565b612cc1806200041b6000396000f3fe608060405234801561001057600080fd5b50600436106101375760003560e01c806363cb1534116100b857806395d89b411161007c57806395d89b4114610382578063a22cb465146103a0578063b88d4fde146103bc578063c87b56dd146103d8578063e789af4814610408578063e985e9c51461043857610137565b806363cb1534146102a657806368fb42db146102c25780636ee82ee1146102f257806370a0823114610322578063745c84ca1461035257610137565b80632597e047116100ff5780632597e047146101f257806342842e0e1461020e5780635290a0761461022a57806356ddf67b146102465780636352211e1461027657610137565b806301ffc9a71461013c57806306fdde031461016c578063081812fc1461018a578063095ea7b3146101ba57806323b872dd146101d6575b600080fd5b61015660048036038101906101519190611d9a565b610468565b6040516101639190611de2565b60405180910390f35b61017461054a565b6040516101819190611e8d565b60405180910390f35b6101a4600480360381019061019f9190611ee5565b6105dc565b6040516101b19190611f53565b60405180910390f35b6101d460048036038101906101cf9190611f9a565b610622565b005b6101f060048036038101906101eb9190611fda565b610739565b005b61020c6004803603810190610207919061202d565b610799565b005b61022860048036038101906102239190611fda565b610800565b005b610244600480360381019061023f9190611f9a565b610820565b005b610260600480360381019061025b919061206d565b6108de565b60405161026d91906120a9565b60405180910390f35b610290600480360381019061028b9190611ee5565b610915565b60405161029d9190611f53565b60405180910390f35b6102c060048036038101906102bb91906120c4565b61099b565b005b6102dc60048036038101906102d7919061206d565b6109e5565b6040516102e991906121c2565b60405180910390f35b61030c6004803603810190610307919061202d565b610a5e565b60405161031991906120a9565b60405180910390f35b61033c6004803603810190610337919061206d565b610a8f565b60405161034991906120a9565b60405180910390f35b61036c6004803603810190610367919061206d565b610b46565b60405161037991906120a9565b60405180910390f35b61038a610b8f565b6040516103979190611e8d565b60405180910390f35b6103ba60048036038101906103b59190612210565b610c21565b005b6103d660048036038101906103d19190612385565b610c37565b005b6103f260048036038101906103ed9190611ee5565b610c99565b6040516103ff9190611e8d565b60405180910390f35b610422600480360381019061041d919061206d565b610d01565b60405161042f91906120a9565b60405180910390f35b610452600480360381019061044d91906120c4565b610d19565b60405161045f9190611de2565b60405180910390f35b60007f80ac58cd000000000000000000000000000000000000000000000000000000007bffffffffffffffffffffffffffffffffffffffffffffffffffffffff1916827bffffffffffffffffffffffffffffffffffffffffffffffffffffffff1916148061053357507f5b5e139f000000000000000000000000000000000000000000000000000000007bffffffffffffffffffffffffffffffffffffffffffffffffffffffff1916827bffffffffffffffffffffffffffffffffffffffffffffffffffffffff1916145b80610543575061054282610dad565b5b9050919050565b60606000805461055990612437565b80601f016020809104026020016040519081016040528092919081815260200182805461058590612437565b80156105d25780601f106105a7576101008083540402835291602001916105d2565b820191906000526020600020905b8154815290600101906020018083116105b557829003601f168201915b5050505050905090565b60006105e782610e17565b6004600083815260200190815260200160002060009054906101000a900473ffffffffffffffffffffffffffffffffffffffff169050919050565b600061062d82610915565b90508073ffffffffffffffffffffffffffffffffffffffff168373ffffffffffffffffffffffffffffffffffffffff160361069d576040517f08c379a0000000000000000000000000000000000000000000000000000000008152600401610694906124da565b60405180910390fd5b8073ffffffffffffffffffffffffffffffffffffffff166106bc610e62565b73ffffffffffffffffffffffffffffffffffffffff1614806106eb57506106ea816106e5610e62565b610d19565b5b61072a576040517f08c379a00000000000000000000000000000000000000000000000000000000081526004016107219061256c565b60405180910390fd5b6107348383610e6a565b505050565b61074a610744610e62565b82610f23565b610789576040517f08c379a0000000000000000000000000000000000000000000000000000000008152600401610780906125fe565b60405180910390fd5b610794838383610fb8565b505050565b60006007600084815260200190815260200160002090508082908060018154018082558091505060019003906000526020600020016000909190919091505580600760008581526020019081526020016000209080546107fa929190611cbf565b50505050565b61081b83838360405180602001604052806000815250610c37565b505050565b8173ffffffffffffffffffffffffffffffffffffffff1661084082610915565b73ffffffffffffffffffffffffffffffffffffffff1614610896576040517f08c379a000000000000000000000000000000000000000000000000000000000815260040161088d9061266a565b60405180910390fd5b80600860008473ffffffffffffffffffffffffffffffffffffffff1673ffffffffffffffffffffffffffffffffffffffff168152602001908152602001600020819055505050565b60006108ea60066112b1565b60006108f660066112c7565b905061090283826112d5565b61090c8382610820565b80915050919050565b600080610921836112f3565b9050600073ffffffffffffffffffffffffffffffffffffffff168173ffffffffffffffffffffffffffffffffffffffff1603610992576040517f08c379a0000000000000000000000000000000000000000000000000000000008152600401610989906126d6565b60405180910390fd5b80915050919050565b60006109a683610b46565b905060006109b383610b46565b90506109c0848484610800565b6109cb838583610800565b6109d58482610820565b6109df8383610820565b50505050565b606060006109f283610b46565b905060076000828152602001908152602001600020805480602002602001604051908101604052809291908181526020018280548015610a5157602002820191906000526020600020905b815481526020019060010190808311610a3d575b5050505050915050919050565b60076020528160005260406000208181548110610a7a57600080fd5b90600052602060002001600091509150505481565b60008073ffffffffffffffffffffffffffffffffffffffff168273ffffffffffffffffffffffffffffffffffffffff1603610aff576040517f08c379a0000000000000000000000000000000000000000000000000000000008152600401610af690612768565b60405180910390fd5b600360008373ffffffffffffffffffffffffffffffffffffffff1673ffffffffffffffffffffffffffffffffffffffff168152602001908152602001600020549050919050565b6000600860008373ffffffffffffffffffffffffffffffffffffffff1673ffffffffffffffffffffffffffffffffffffffff168152602001908152602001600020549050919050565b606060018054610b9e90612437565b80601f0160208091040260200160405190810160405280929190818152602001828054610bca90612437565b8015610c175780601f10610bec57610100808354040283529160200191610c17565b820191906000526020600020905b815481529060010190602001808311610bfa57829003601f168201915b5050505050905090565b610c33610c2c610e62565b8383611330565b5050565b610c48610c42610e62565b83610f23565b610c87576040517f08c379a0000000000000000000000000000000000000000000000000000000008152600401610c7e906125fe565b60405180910390fd5b610c938484848461149c565b50505050565b6060610ca482610e17565b6000610cae6114f8565b90506000815111610cce5760405180602001604052806000815250610cf9565b80610cd88461150f565b604051602001610ce99291906127c4565b6040516020818303038152906040525b915050919050565b60086020528060005260406000206000915090505481565b6000600560008473ffffffffffffffffffffffffffffffffffffffff1673ffffffffffffffffffffffffffffffffffffffff16815260200190815260200160002060008373ffffffffffffffffffffffffffffffffffffffff1673ffffffffffffffffffffffffffffffffffffffff16815260200190815260200160002060009054906101000a900460ff16905092915050565b60007f01ffc9a7000000000000000000000000000000000000000000000000000000007bffffffffffffffffffffffffffffffffffffffffffffffffffffffff1916827bffffffffffffffffffffffffffffffffffffffffffffffffffffffff1916149050919050565b610e20816115dd565b610e5f576040517f08c379a0000000000000000000000000000000000000000000000000000000008152600401610e56906126d6565b60405180910390fd5b50565b600033905090565b816004600083815260200190815260200160002060006101000a81548173ffffffffffffffffffffffffffffffffffffffff021916908373ffffffffffffffffffffffffffffffffffffffff160217905550808273ffffffffffffffffffffffffffffffffffffffff16610edd83610915565b73ffffffffffffffffffffffffffffffffffffffff167f8c5be1e5ebec7d5bd14f71427d1e84f3dd0314c0f7b2291e5b200ac8c7c3b92560405160405180910390a45050565b600080610f2f83610915565b90508073ffffffffffffffffffffffffffffffffffffffff168473ffffffffffffffffffffffffffffffffffffffff161480610f715750610f708185610d19565b5b80610faf57508373ffffffffffffffffffffffffffffffffffffffff16610f97846105dc565b73ffffffffffffffffffffffffffffffffffffffff16145b91505092915050565b8273ffffffffffffffffffffffffffffffffffffffff16610fd882610915565b73ffffffffffffffffffffffffffffffffffffffff161461102e576040517f08c379a00000000000000000000000000000000000000000000000000000000081526004016110259061285a565b60405180910390fd5b600073ffffffffffffffffffffffffffffffffffffffff168273ffffffffffffffffffffffffffffffffffffffff160361109d576040517f08c379a0000000000000000000000000000000000000000000000000000000008152600401611094906128ec565b60405180910390fd5b6110aa838383600161161e565b8273ffffffffffffffffffffffffffffffffffffffff166110ca82610915565b73ffffffffffffffffffffffffffffffffffffffff1614611120576040517f08c379a00000000000000000000000000000000000000000000000000000000081526004016111179061285a565b60405180910390fd5b6004600082815260200190815260200160002060006101000a81549073ffffffffffffffffffffffffffffffffffffffff02191690556001600360008573ffffffffffffffffffffffffffffffffffffffff1673ffffffffffffffffffffffffffffffffffffffff168152602001908152602001600020600082825403925050819055506001600360008473ffffffffffffffffffffffffffffffffffffffff1673ffffffffffffffffffffffffffffffffffffffff16815260200190815260200160002060008282540192505081905550816002600083815260200190815260200160002060006101000a81548173ffffffffffffffffffffffffffffffffffffffff021916908373ffffffffffffffffffffffffffffffffffffffff160217905550808273ffffffffffffffffffffffffffffffffffffffff168473ffffffffffffffffffffffffffffffffffffffff167fddf252ad1be2c89b69c2b068fc378daa952ba7f163c4a11628f55a4df523b3ef60405160405180910390a46112ac8383836001611744565b505050565b6001816000016000828254019250508190555050565b600081600001549050919050565b6112ef82826040518060200160405280600081525061174a565b5050565b60006002600083815260200190815260200160002060009054906101000a900473ffffffffffffffffffffffffffffffffffffffff169050919050565b8173ffffffffffffffffffffffffffffffffffffffff168373ffffffffffffffffffffffffffffffffffffffff160361139e576040517f08c379a000000000000000000000000000000000000000000000000000000000815260040161139590612958565b60405180910390fd5b80600560008573ffffffffffffffffffffffffffffffffffffffff1673ffffffffffffffffffffffffffffffffffffffff16815260200190815260200160002060008473ffffffffffffffffffffffffffffffffffffffff1673ffffffffffffffffffffffffffffffffffffffff16815260200190815260200160002060006101000a81548160ff0219169083151502179055508173ffffffffffffffffffffffffffffffffffffffff168373ffffffffffffffffffffffffffffffffffffffff167f17307eab39ab6107e8899845ad3d59bd9653f200f220920489ca2b5937696c318360405161148f9190611de2565b60405180910390a3505050565b6114a7848484610fb8565b6114b3848484846117a5565b6114f2576040517f08c379a00000000000000000000000000000000000000000000000000000000081526004016114e9906129ea565b60405180910390fd5b50505050565b606060405180602001604052806000815250905090565b60606000600161151e8461192c565b01905060008167ffffffffffffffff81111561153d5761153c61225a565b5b6040519080825280601f01601f19166020018201604052801561156f5781602001600182028036833780820191505090505b509050600082602001820190505b6001156115d2578080600190039150507f3031323334353637383961626364656600000000000000000000000000000000600a86061a8153600a85816115c6576115c5612a0a565b5b0494506000850361157d575b819350505050919050565b60008073ffffffffffffffffffffffffffffffffffffffff166115ff836112f3565b73ffffffffffffffffffffffffffffffffffffffff1614159050919050565b600181111561173e57600073ffffffffffffffffffffffffffffffffffffffff168473ffffffffffffffffffffffffffffffffffffffff16146116b25780600360008673ffffffffffffffffffffffffffffffffffffffff1673ffffffffffffffffffffffffffffffffffffffff16815260200190815260200160002060008282546116aa9190612a68565b925050819055505b600073ffffffffffffffffffffffffffffffffffffffff168373ffffffffffffffffffffffffffffffffffffffff161461173d5780600360008573ffffffffffffffffffffffffffffffffffffffff1673ffffffffffffffffffffffffffffffffffffffff16815260200190815260200160002060008282546117359190612a9c565b925050819055505b5b50505050565b50505050565b6117548383611a7f565b61176160008484846117a5565b6117a0576040517f08c379a0000000000000000000000000000000000000000000000000000000008152600401611797906129ea565b60405180910390fd5b505050565b60006117c68473ffffffffffffffffffffffffffffffffffffffff16611c9c565b1561191f578373ffffffffffffffffffffffffffffffffffffffff1663150b7a026117ef610e62565b8786866040518563ffffffff1660e01b81526004016118119493929190612b25565b6020604051808303816000875af192505050801561184d57506040513d601f19601f8201168201806040525081019061184a9190612b86565b60015b6118cf573d806000811461187d576040519150601f19603f3d011682016040523d82523d6000602084013e611882565b606091505b5060008151036118c7576040517f08c379a00000000000000000000000000000000000000000000000000000000081526004016118be906129ea565b60405180910390fd5b805181602001fd5b63150b7a0260e01b7bffffffffffffffffffffffffffffffffffffffffffffffffffffffff1916817bffffffffffffffffffffffffffffffffffffffffffffffffffffffff191614915050611924565b600190505b949350505050565b600080600090507a184f03e93ff9f4daa797ed6e38ed64bf6a1f010000000000000000831061198a577a184f03e93ff9f4daa797ed6e38ed64bf6a1f01000000000000000083816119805761197f612a0a565b5b0492506040810190505b6d04ee2d6d415b85acef810000000083106119c7576d04ee2d6d415b85acef810000000083816119bd576119bc612a0a565b5b0492506020810190505b662386f26fc1000083106119f657662386f26fc1000083816119ec576119eb612a0a565b5b0492506010810190505b6305f5e1008310611a1f576305f5e1008381611a1557611a14612a0a565b5b0492506008810190505b6127108310611a44576127108381611a3a57611a39612a0a565b5b0492506004810190505b60648310611a675760648381611a5d57611a5c612a0a565b5b0492506002810190505b600a8310611a76576001810190505b80915050919050565b600073ffffffffffffffffffffffffffffffffffffffff168273ffffffffffffffffffffffffffffffffffffffff1603611aee576040517f08c379a0000000000000000000000000000000000000000000000000000000008152600401611ae590612bff565b60405180910390fd5b611af7816115dd565b15611b37576040517f08c379a0000000000000000000000000000000000000000000000000000000008152600401611b2e90612c6b565b60405180910390fd5b611b4560008383600161161e565b611b4e816115dd565b15611b8e576040517f08c379a0000000000000000000000000000000000000000000000000000000008152600401611b8590612c6b565b60405180910390fd5b6001600360008473ffffffffffffffffffffffffffffffffffffffff1673ffffffffffffffffffffffffffffffffffffffff16815260200190815260200160002060008282540192505081905550816002600083815260200190815260200160002060006101000a81548173ffffffffffffffffffffffffffffffffffffffff021916908373ffffffffffffffffffffffffffffffffffffffff160217905550808273ffffffffffffffffffffffffffffffffffffffff16600073ffffffffffffffffffffffffffffffffffffffff167fddf252ad1be2c89b69c2b068fc378daa952ba7f163c4a11628f55a4df523b3ef60405160405180910390a4611c98600083836001611744565b5050565b6000808273ffffffffffffffffffffffffffffffffffffffff163b119050919050565b828054828255906000526020600020908101928215611d005760005260206000209182015b82811115611cff578254825591600101919060010190611ce4565b5b509050611d0d9190611d11565b5090565b5b80821115611d2a576000816000905550600101611d12565b5090565b6000604051905090565b600080fd5b600080fd5b60007fffffffff0000000000000000000000000000000000000000000000000000000082169050919050565b611d7781611d42565b8114611d8257600080fd5b50565b600081359050611d9481611d6e565b92915050565b600060208284031215611db057611daf611d38565b5b6000611dbe84828501611d85565b91505092915050565b60008115159050919050565b611ddc81611dc7565b82525050565b6000602082019050611df76000830184611dd3565b92915050565b600081519050919050565b600082825260208201905092915050565b60005b83811015611e37578082015181840152602081019050611e1c565b60008484015250505050565b6000601f19601f8301169050919050565b6000611e5f82611dfd565b611e698185611e08565b9350611e79818560208601611e19565b611e8281611e43565b840191505092915050565b60006020820190508181036000830152611ea78184611e54565b905092915050565b6000819050919050565b611ec281611eaf565b8114611ecd57600080fd5b50565b600081359050611edf81611eb9565b92915050565b600060208284031215611efb57611efa611d38565b5b6000611f0984828501611ed0565b91505092915050565b600073ffffffffffffffffffffffffffffffffffffffff82169050919050565b6000611f3d82611f12565b9050919050565b611f4d81611f32565b82525050565b6000602082019050611f686000830184611f44565b92915050565b611f7781611f32565b8114611f8257600080fd5b50565b600081359050611f9481611f6e565b92915050565b60008060408385031215611fb157611fb0611d38565b5b6000611fbf85828601611f85565b9250506020611fd085828601611ed0565b9150509250929050565b600080600060608486031215611ff357611ff2611d38565b5b600061200186828701611f85565b935050602061201286828701611f85565b925050604061202386828701611ed0565b9150509250925092565b6000806040838503121561204457612043611d38565b5b600061205285828601611ed0565b925050602061206385828601611ed0565b9150509250929050565b60006020828403121561208357612082611d38565b5b600061209184828501611f85565b91505092915050565b6120a381611eaf565b82525050565b60006020820190506120be600083018461209a565b92915050565b600080604083850312156120db576120da611d38565b5b60006120e985828601611f85565b92505060206120fa85828601611f85565b9150509250929050565b600081519050919050565b600082825260208201905092915050565b6000819050602082019050919050565b61213981611eaf565b82525050565b600061214b8383612130565b60208301905092915050565b6000602082019050919050565b600061216f82612104565b612179818561210f565b935061218483612120565b8060005b838110156121b557815161219c888261213f565b97506121a783612157565b925050600181019050612188565b5085935050505092915050565b600060208201905081810360008301526121dc8184612164565b905092915050565b6121ed81611dc7565b81146121f857600080fd5b50565b60008135905061220a816121e4565b92915050565b6000806040838503121561222757612226611d38565b5b600061223585828601611f85565b9250506020612246858286016121fb565b9150509250929050565b600080fd5b600080fd5b7f4e487b7100000000000000000000000000000000000000000000000000000000600052604160045260246000fd5b61229282611e43565b810181811067ffffffffffffffff821117156122b1576122b061225a565b5b80604052505050565b60006122c4611d2e565b90506122d08282612289565b919050565b600067ffffffffffffffff8211156122f0576122ef61225a565b5b6122f982611e43565b9050602081019050919050565b82818337600083830152505050565b6000612328612323846122d5565b6122ba565b90508281526020810184848401111561234457612343612255565b5b61234f848285612306565b509392505050565b600082601f83011261236c5761236b612250565b5b813561237c848260208601612315565b91505092915050565b6000806000806080858703121561239f5761239e611d38565b5b60006123ad87828801611f85565b94505060206123be87828801611f85565b93505060406123cf87828801611ed0565b925050606085013567ffffffffffffffff8111156123f0576123ef611d3d565b5b6123fc87828801612357565b91505092959194509250565b7f4e487b7100000000000000000000000000000000000000000000000000000000600052602260045260246000fd5b6000600282049050600182168061244f57607f821691505b60208210810361246257612461612408565b5b50919050565b7f4552433732313a20617070726f76616c20746f2063757272656e74206f776e6560008201527f7200000000000000000000000000000000000000000000000000000000000000602082015250565b60006124c4602183611e08565b91506124cf82612468565b604082019050919050565b600060208201905081810360008301526124f3816124b7565b9050919050565b7f4552433732313a20617070726f76652063616c6c6572206973206e6f7420746f60008201527f6b656e206f776e6572206f7220617070726f76656420666f7220616c6c000000602082015250565b6000612556603d83611e08565b9150612561826124fa565b604082019050919050565b6000602082019050818103600083015261258581612549565b9050919050565b7f4552433732313a2063616c6c6572206973206e6f7420746f6b656e206f776e6560008201527f72206f7220617070726f76656400000000000000000000000000000000000000602082015250565b60006125e8602d83611e08565b91506125f38261258c565b604082019050919050565b60006020820190508181036000830152612617816125db565b9050919050565b7f4e6f74206f776e6572206f66206b657900000000000000000000000000000000600082015250565b6000612654601083611e08565b915061265f8261261e565b602082019050919050565b6000602082019050818103600083015261268381612647565b9050919050565b7f4552433732313a20696e76616c696420746f6b656e2049440000000000000000600082015250565b60006126c0601883611e08565b91506126cb8261268a565b602082019050919050565b600060208201905081810360008301526126ef816126b3565b9050919050565b7f4552433732313a2061646472657373207a65726f206973206e6f74206120766160008201527f6c6964206f776e65720000000000000000000000000000000000000000000000602082015250565b6000612752602983611e08565b915061275d826126f6565b604082019050919050565b6000602082019050818103600083015261278181612745565b9050919050565b600081905092915050565b600061279e82611dfd565b6127a88185612788565b93506127b8818560208601611e19565b80840191505092915050565b60006127d08285612793565b91506127dc8284612793565b91508190509392505050565b7f4552433732313a207472616e736665722066726f6d20696e636f72726563742060008201527f6f776e6572000000000000000000000000000000000000000000000000000000602082015250565b6000612844602583611e08565b915061284f826127e8565b604082019050919050565b6000602082019050818103600083015261287381612837565b9050919050565b7f4552433732313a207472616e7366657220746f20746865207a65726f2061646460008201527f7265737300000000000000000000000000000000000000000000000000000000602082015250565b60006128d6602483611e08565b91506128e18261287a565b604082019050919050565b60006020820190508181036000830152612905816128c9565b9050919050565b7f4552433732313a20617070726f766520746f2063616c6c657200000000000000600082015250565b6000612942601983611e08565b915061294d8261290c565b602082019050919050565b6000602082019050818103600083015261297181612935565b9050919050565b7f4552433732313a207472616e7366657220746f206e6f6e20455243373231526560008201527f63656976657220696d706c656d656e7465720000000000000000000000000000602082015250565b60006129d4603283611e08565b91506129df82612978565b604082019050919050565b60006020820190508181036000830152612a03816129c7565b9050919050565b7f4e487b7100000000000000000000000000000000000000000000000000000000600052601260045260246000fd5b7f4e487b7100000000000000000000000000000000000000000000000000000000600052601160045260246000fd5b6000612a7382611eaf565b9150612a7e83611eaf565b9250828203905081811115612a9657612a95612a39565b5b92915050565b6000612aa782611eaf565b9150612ab283611eaf565b9250828201905080821115612aca57612ac9612a39565b5b92915050565b600081519050919050565b600082825260208201905092915050565b6000612af782612ad0565b612b018185612adb565b9350612b11818560208601611e19565b612b1a81611e43565b840191505092915050565b6000608082019050612b3a6000830187611f44565b612b476020830186611f44565b612b54604083018561209a565b8181036060830152612b668184612aec565b905095945050505050565b600081519050612b8081611d6e565b92915050565b600060208284031215612b9c57612b9b611d38565b5b6000612baa84828501612b71565b91505092915050565b7f4552433732313a206d696e7420746f20746865207a65726f2061646472657373600082015250565b6000612be9602083611e08565b9150612bf482612bb3565b602082019050919050565b60006020820190508181036000830152612c1881612bdc565b9050919050565b7f4552433732313a20746f6b656e20616c7265616479206d696e74656400000000600082015250565b6000612c55601c83611e08565b9150612c6082612c1f565b602082019050919050565b60006020820190508181036000830152612c8481612c48565b905091905056fea2646970667358221220d47c044d6619cd80cabdbf51d6eaa368973e72ade6cd9cfce5f9f25dce7ed69764736f6c63430008110033"}