{"address":"0x6B87871E7b38bf60933D9A6A5372ACfbd4FB2f4C","abi":[{"inputs":[],"stateMutability":"nonpayable","type":"constructor"},{"anonymous":false,"inputs":[{"indexed":true,"internalType":"address","name":"owner","type":"address"},{"indexed":true,"internalType":"address","name":"approved","type":"address"},{"indexed":true,"internalType":"uint256","name":"tokenId","type":"uint256"}],"name":"Approval","type":"event"},{"anonymous":false,"inputs":[{"indexed":true,"internalType":"address","name":"owner","type":"address"},{"indexed":true,"internalType":"address","name":"operator","type":"address"},{"indexed":false,"internalType":"bool","name":"approved","type":"bool"}],"name":"ApprovalForAll","type":"event"},{"anonymous":false,"inputs":[{"indexed":true,"internalType":"address","name":"from","type":"address"},{"indexed":true,"internalType":"address","name":"to","type":"address"},{"indexed":true,"internalType":"uint256","name":"tokenId","type":"uint256"}],"name":"Transfer","type":"event"},{"inputs":[{"internalType":"uint256","name":"","type":"uint256"},{"internalType":"uint256","name":"","type":"uint256"}],"name":"accessibleBooks","outputs":[{"internalType":"uint256","name":"","type":"uint256"}],"stateMutability":"view","type":"function"},{"inputs":[{"internalType":"uint256","name":"keyId","type":"uint256"},{"internalType":"uint256","name":"bookId","type":"uint256"}],"name":"addBook","outputs":[],"stateMutability":"nonpayable","type":"function"},{"inputs":[{"internalType":"address","name":"to","type":"address"},{"internalType":"uint256","name":"tokenId","type":"uint256"}],"name":"approve","outputs":[],"stateMutability":"nonpayable","type":"function"},{"inputs":[{"internalType":"address","name":"owner","type":"address"}],"name":"balanceOf","outputs":[{"internalType":"uint256","name":"","type":"uint256"}],"stateMutability":"view","type":"function"},{"inputs":[{"internalType":"address","name":"caller","type":"address"}],"name":"generateKey","outputs":[{"internalType":"uint256","name":"","type":"uint256"}],"stateMutability":"nonpayable","type":"function"},{"inputs":[{"internalType":"uint256","name":"tokenId","type":"uint256"}],"name":"getApproved","outputs":[{"internalType":"address","name":"","type":"address"}],"stateMutability":"view","type":"function"},{"inputs":[{"internalType":"address","name":"user","type":"address"}],"name":"getUserKey","outputs":[{"internalType":"uint256","name":"","type":"uint256"}],"stateMutability":"view","type":"function"},{"inputs":[{"internalType":"address","name":"owner","type":"address"},{"internalType":"address","name":"operator","type":"address"}],"name":"isApprovedForAll","outputs":[{"internalType":"bool","name":"","type":"bool"}],"stateMutability":"view","type":"function"},{"inputs":[],"name":"name","outputs":[{"internalType":"string","name":"","type":"string"}],"stateMutability":"view","type":"function"},{"inputs":[{"internalType":"uint256","name":"tokenId","type":"uint256"}],"name":"ownerOf","outputs":[{"internalType":"address","name":"","type":"address"}],"stateMutability":"view","type":"function"},{"inputs":[{"internalType":"address","name":"","type":"address"}],"name":"ownerToKey","outputs":[{"internalType":"uint256","name":"","type":"uint256"}],"stateMutability":"view","type":"function"},{"inputs":[{"internalType":"address","name":"from","type":"address"},{"internalType":"address","name":"to","type":"address"},{"internalType":"uint256","name":"tokenId","type":"uint256"}],"name":"safeTransferFrom","outputs":[],"stateMutability":"nonpayable","type":"function"},{"inputs":[{"internalType":"address","name":"from","type":"address"},{"internalType":"address","name":"to","type":"address"},{"internalType":"uint256","name":"tokenId","type":"uint256"},{"internalType":"bytes","name":"data","type":"bytes"}],"name":"safeTransferFrom","outputs":[],"stateMutability":"nonpayable","type":"function"},{"inputs":[{"internalType":"address","name":"operator","type":"address"},{"internalType":"bool","name":"approved","type":"bool"}],"name":"setApprovalForAll","outputs":[],"stateMutability":"nonpayable","type":"function"},{"inputs":[{"internalType":"address","name":"user","type":"address"},{"internalType":"uint256","name":"keyId","type":"uint256"}],"name":"setUserKey","outputs":[],"stateMutability":"nonpayable","type":"function"},{"inputs":[{"internalType":"bytes4","name":"interfaceId","type":"bytes4"}],"name":"supportsInterface","outputs":[{"internalType":"bool","name":"","type":"bool"}],"stateMutability":"view","type":"function"},{"inputs":[{"internalType":"address","name":"user1","type":"address"},{"internalType":"address","name":"user2","type":"address"}],"name":"swapKeys","outputs":[],"stateMutability":"nonpayable","type":"function"},{"inputs":[],"name":"symbol","outputs":[{"internalType":"string","name":"","type":"string"}],"stateMutability":"view","type":"function"},{"inputs":[{"internalType":"uint256","name":"tokenId","type":"uint256"}],"name":"tokenURI","outputs":[{"internalType":"string","name":"","type":"string"}],"stateMutability":"view","type":"function"},{"inputs":[{"internalType":"address","name":"from","type":"address"},{"internalType":"address","name":"to","type":"address"},{"internalType":"uint256","name":"tokenId","type":"uint256"}],"name":"transferFrom","outputs":[],"stateMutability":"nonpayable","type":"function"}],"bytecode":"0x60806040523480156200001157600080fd5b506040518060400160405280600381526020017f4b657900000000000000000000000000000000000000000000000000000000008152506040518060400160405280600281526020017f4b7900000000000000000000000000000000000000000000000000000000000081525081600090816200008f919062000324565b508060019081620000a1919062000324565b5050506200040b565b600081519050919050565b7f4e487b7100000000000000000000000000000000000000000000000000000000600052604160045260246000fd5b7f4e487b7100000000000000000000000000000000000000000000000000000000600052602260045260246000fd5b600060028204905060018216806200012c57607f821691505b602082108103620001425762000141620000e4565b5b50919050565b60008190508160005260206000209050919050565b60006020601f8301049050919050565b600082821b905092915050565b600060088302620001ac7fffffffffffffffffffffffffffffffffffffffffffffffffffffffffffffffff826200016d565b620001b886836200016d565b95508019841693508086168417925050509392505050565b6000819050919050565b6000819050919050565b600062000205620001ff620001f984620001d0565b620001da565b620001d0565b9050919050565b6000819050919050565b6200022183620001e4565b6200023962000230826200020c565b8484546200017a565b825550505050565b600090565b6200025062000241565b6200025d81848462000216565b505050565b5b8181101562000285576200027960008262000246565b60018101905062000263565b5050565b601f821115620002d4576200029e8162000148565b620002a9846200015d565b81016020851015620002b9578190505b620002d1620002c8856200015d565b83018262000262565b50505b505050565b600082821c905092915050565b6000620002f960001984600802620002d9565b1980831691505092915050565b6000620003148383620002e6565b9150826002028217905092915050565b6200032f82620000aa565b67ffffffffffffffff8111156200034b576200034a620000b5565b5b62000357825462000113565b6200036482828562000289565b600060209050601f8311600181146200039c576000841562000387578287015190505b62000393858262000306565b86555062000403565b601f198416620003ac8662000148565b60005b82811015620003d657848901518255600182019150602085019450602081019050620003af565b86831015620003f65784890151620003f2601f891682620002e6565b8355505b6001600288020188555050505b505050505050565b612b2d806200041b6000396000f3fe608060405234801561001057600080fd5b506004361061012c5760003560e01c806363cb1534116100ad578063a22cb46511610071578063a22cb46514610365578063b88d4fde14610381578063c87b56dd1461039d578063e789af48146103cd578063e985e9c5146103fd5761012c565b806363cb15341461029b5780636ee82ee1146102b757806370a08231146102e7578063745c84ca1461031757806395d89b41146103475761012c565b80632597e047116100f45780632597e047146101e757806342842e0e146102035780635290a0761461021f57806356ddf67b1461023b5780636352211e1461026b5761012c565b806301ffc9a71461013157806306fdde0314610161578063081812fc1461017f578063095ea7b3146101af57806323b872dd146101cb575b600080fd5b61014b60048036038101906101469190611ce6565b61042d565b6040516101589190611d2e565b60405180910390f35b61016961050f565b6040516101769190611dd9565b60405180910390f35b61019960048036038101906101949190611e31565b6105a1565b6040516101a69190611e9f565b60405180910390f35b6101c960048036038101906101c49190611ee6565b6105e7565b005b6101e560048036038101906101e09190611f26565b6106fe565b005b61020160048036038101906101fc9190611f79565b61075e565b005b61021d60048036038101906102189190611f26565b6107c5565b005b61023960048036038101906102349190611ee6565b6107e5565b005b61025560048036038101906102509190611fb9565b6108a3565b6040516102629190611ff5565b60405180910390f35b61028560048036038101906102809190611e31565b6108da565b6040516102929190611e9f565b60405180910390f35b6102b560048036038101906102b09190612010565b610960565b005b6102d160048036038101906102cc9190611f79565b6109aa565b6040516102de9190611ff5565b60405180910390f35b61030160048036038101906102fc9190611fb9565b6109db565b60405161030e9190611ff5565b60405180910390f35b610331600480360381019061032c9190611fb9565b610a92565b60405161033e9190611ff5565b60405180910390f35b61034f610adb565b60405161035c9190611dd9565b60405180910390f35b61037f600480360381019061037a919061207c565b610b6d565b005b61039b600480360381019061039691906121f1565b610b83565b005b6103b760048036038101906103b29190611e31565b610be5565b6040516103c49190611dd9565b60405180910390f35b6103e760048036038101906103e29190611fb9565b610c4d565b6040516103f49190611ff5565b60405180910390f35b61041760048036038101906104129190612010565b610c65565b6040516104249190611d2e565b60405180910390f35b60007f80ac58cd000000000000000000000000000000000000000000000000000000007bffffffffffffffffffffffffffffffffffffffffffffffffffffffff1916827bffffffffffffffffffffffffffffffffffffffffffffffffffffffff191614806104f857507f5b5e139f000000000000000000000000000000000000000000000000000000007bffffffffffffffffffffffffffffffffffffffffffffffffffffffff1916827bffffffffffffffffffffffffffffffffffffffffffffffffffffffff1916145b80610508575061050782610cf9565b5b9050919050565b60606000805461051e906122a3565b80601f016020809104026020016040519081016040528092919081815260200182805461054a906122a3565b80156105975780601f1061056c57610100808354040283529160200191610597565b820191906000526020600020905b81548152906001019060200180831161057a57829003601f168201915b5050505050905090565b60006105ac82610d63565b6004600083815260200190815260200160002060009054906101000a900473ffffffffffffffffffffffffffffffffffffffff169050919050565b60006105f2826108da565b90508073ffffffffffffffffffffffffffffffffffffffff168373ffffffffffffffffffffffffffffffffffffffff1603610662576040517f08c379a000000000000000000000000000000000000000000000000000000000815260040161065990612346565b60405180910390fd5b8073ffffffffffffffffffffffffffffffffffffffff16610681610dae565b73ffffffffffffffffffffffffffffffffffffffff1614806106b057506106af816106aa610dae565b610c65565b5b6106ef576040517f08c379a00000000000000000000000000000000000000000000000000000000081526004016106e6906123d8565b60405180910390fd5b6106f98383610db6565b505050565b61070f610709610dae565b82610e6f565b61074e576040517f08c379a00000000000000000000000000000000000000000000000000000000081526004016107459061246a565b60405180910390fd5b610759838383610f04565b505050565b60006007600084815260200190815260200160002090508082908060018154018082558091505060019003906000526020600020016000909190919091505580600760008581526020019081526020016000209080546107bf929190611c0b565b50505050565b6107e083838360405180602001604052806000815250610b83565b505050565b8173ffffffffffffffffffffffffffffffffffffffff16610805826108da565b73ffffffffffffffffffffffffffffffffffffffff161461085b576040517f08c379a0000000000000000000000000000000000000000000000000000000008152600401610852906124d6565b60405180910390fd5b80600860008473ffffffffffffffffffffffffffffffffffffffff1673ffffffffffffffffffffffffffffffffffffffff168152602001908152602001600020819055505050565b60006108af60066111fd565b60006108bb6006611213565b90506108c78382611221565b6108d183826107e5565b80915050919050565b6000806108e68361123f565b9050600073ffffffffffffffffffffffffffffffffffffffff168173ffffffffffffffffffffffffffffffffffffffff1603610957576040517f08c379a000000000000000000000000000000000000000000000000000000000815260040161094e90612542565b60405180910390fd5b80915050919050565b600061096b83610a92565b9050600061097883610a92565b90506109858484846107c5565b6109908385836107c5565b61099a84826107e5565b6109a483836107e5565b50505050565b600760205281600052604060002081815481106109c657600080fd5b90600052602060002001600091509150505481565b60008073ffffffffffffffffffffffffffffffffffffffff168273ffffffffffffffffffffffffffffffffffffffff1603610a4b576040517f08c379a0000000000000000000000000000000000000000000000000000000008152600401610a42906125d4565b60405180910390fd5b600360008373ffffffffffffffffffffffffffffffffffffffff1673ffffffffffffffffffffffffffffffffffffffff168152602001908152602001600020549050919050565b6000600860008373ffffffffffffffffffffffffffffffffffffffff1673ffffffffffffffffffffffffffffffffffffffff168152602001908152602001600020549050919050565b606060018054610aea906122a3565b80601f0160208091040260200160405190810160405280929190818152602001828054610b16906122a3565b8015610b635780601f10610b3857610100808354040283529160200191610b63565b820191906000526020600020905b815481529060010190602001808311610b4657829003601f168201915b5050505050905090565b610b7f610b78610dae565b838361127c565b5050565b610b94610b8e610dae565b83610e6f565b610bd3576040517f08c379a0000000000000000000000000000000000000000000000000000000008152600401610bca9061246a565b60405180910390fd5b610bdf848484846113e8565b50505050565b6060610bf082610d63565b6000610bfa611444565b90506000815111610c1a5760405180602001604052806000815250610c45565b80610c248461145b565b604051602001610c35929190612630565b6040516020818303038152906040525b915050919050565b60086020528060005260406000206000915090505481565b6000600560008473ffffffffffffffffffffffffffffffffffffffff1673ffffffffffffffffffffffffffffffffffffffff16815260200190815260200160002060008373ffffffffffffffffffffffffffffffffffffffff1673ffffffffffffffffffffffffffffffffffffffff16815260200190815260200160002060009054906101000a900460ff16905092915050565b60007f01ffc9a7000000000000000000000000000000000000000000000000000000007bffffffffffffffffffffffffffffffffffffffffffffffffffffffff1916827bffffffffffffffffffffffffffffffffffffffffffffffffffffffff1916149050919050565b610d6c81611529565b610dab576040517f08c379a0000000000000000000000000000000000000000000000000000000008152600401610da290612542565b60405180910390fd5b50565b600033905090565b816004600083815260200190815260200160002060006101000a81548173ffffffffffffffffffffffffffffffffffffffff021916908373ffffffffffffffffffffffffffffffffffffffff160217905550808273ffffffffffffffffffffffffffffffffffffffff16610e29836108da565b73ffffffffffffffffffffffffffffffffffffffff167f8c5be1e5ebec7d5bd14f71427d1e84f3dd0314c0f7b2291e5b200ac8c7c3b92560405160405180910390a45050565b600080610e7b836108da565b90508073ffffffffffffffffffffffffffffffffffffffff168473ffffffffffffffffffffffffffffffffffffffff161480610ebd5750610ebc8185610c65565b5b80610efb57508373ffffffffffffffffffffffffffffffffffffffff16610ee3846105a1565b73ffffffffffffffffffffffffffffffffffffffff16145b91505092915050565b8273ffffffffffffffffffffffffffffffffffffffff16610f24826108da565b73ffffffffffffffffffffffffffffffffffffffff1614610f7a576040517f08c379a0000000000000000000000000000000000000000000000000000000008152600401610f71906126c6565b60405180910390fd5b600073ffffffffffffffffffffffffffffffffffffffff168273ffffffffffffffffffffffffffffffffffffffff1603610fe9576040517f08c379a0000000000000000000000000000000000000000000000000000000008152600401610fe090612758565b60405180910390fd5b610ff6838383600161156a565b8273ffffffffffffffffffffffffffffffffffffffff16611016826108da565b73ffffffffffffffffffffffffffffffffffffffff161461106c576040517f08c379a0000000000000000000000000000000000000000000000000000000008152600401611063906126c6565b60405180910390fd5b6004600082815260200190815260200160002060006101000a81549073ffffffffffffffffffffffffffffffffffffffff02191690556001600360008573ffffffffffffffffffffffffffffffffffffffff1673ffffffffffffffffffffffffffffffffffffffff168152602001908152602001600020600082825403925050819055506001600360008473ffffffffffffffffffffffffffffffffffffffff1673ffffffffffffffffffffffffffffffffffffffff16815260200190815260200160002060008282540192505081905550816002600083815260200190815260200160002060006101000a81548173ffffffffffffffffffffffffffffffffffffffff021916908373ffffffffffffffffffffffffffffffffffffffff160217905550808273ffffffffffffffffffffffffffffffffffffffff168473ffffffffffffffffffffffffffffffffffffffff167fddf252ad1be2c89b69c2b068fc378daa952ba7f163c4a11628f55a4df523b3ef60405160405180910390a46111f88383836001611690565b505050565b6001816000016000828254019250508190555050565b600081600001549050919050565b61123b828260405180602001604052806000815250611696565b5050565b60006002600083815260200190815260200160002060009054906101000a900473ffffffffffffffffffffffffffffffffffffffff169050919050565b8173ffffffffffffffffffffffffffffffffffffffff168373ffffffffffffffffffffffffffffffffffffffff16036112ea576040517f08c379a00000000000000000000000000000000000000000000000000000000081526004016112e1906127c4565b60405180910390fd5b80600560008573ffffffffffffffffffffffffffffffffffffffff1673ffffffffffffffffffffffffffffffffffffffff16815260200190815260200160002060008473ffffffffffffffffffffffffffffffffffffffff1673ffffffffffffffffffffffffffffffffffffffff16815260200190815260200160002060006101000a81548160ff0219169083151502179055508173ffffffffffffffffffffffffffffffffffffffff168373ffffffffffffffffffffffffffffffffffffffff167f17307eab39ab6107e8899845ad3d59bd9653f200f220920489ca2b5937696c31836040516113db9190611d2e565b60405180910390a3505050565b6113f3848484610f04565b6113ff848484846116f1565b61143e576040517f08c379a000000000000000000000000000000000000000000000000000000000815260040161143590612856565b60405180910390fd5b50505050565b606060405180602001604052806000815250905090565b60606000600161146a84611878565b01905060008167ffffffffffffffff811115611489576114886120c6565b5b6040519080825280601f01601f1916602001820160405280156114bb5781602001600182028036833780820191505090505b509050600082602001820190505b60011561151e578080600190039150507f3031323334353637383961626364656600000000000000000000000000000000600a86061a8153600a858161151257611511612876565b5b049450600085036114c9575b819350505050919050565b60008073ffffffffffffffffffffffffffffffffffffffff1661154b8361123f565b73ffffffffffffffffffffffffffffffffffffffff1614159050919050565b600181111561168a57600073ffffffffffffffffffffffffffffffffffffffff168473ffffffffffffffffffffffffffffffffffffffff16146115fe5780600360008673ffffffffffffffffffffffffffffffffffffffff1673ffffffffffffffffffffffffffffffffffffffff16815260200190815260200160002060008282546115f691906128d4565b925050819055505b600073ffffffffffffffffffffffffffffffffffffffff168373ffffffffffffffffffffffffffffffffffffffff16146116895780600360008573ffffffffffffffffffffffffffffffffffffffff1673ffffffffffffffffffffffffffffffffffffffff16815260200190815260200160002060008282546116819190612908565b925050819055505b5b50505050565b50505050565b6116a083836119cb565b6116ad60008484846116f1565b6116ec576040517f08c379a00000000000000000000000000000000000000000000000000000000081526004016116e390612856565b60405180910390fd5b505050565b60006117128473ffffffffffffffffffffffffffffffffffffffff16611be8565b1561186b578373ffffffffffffffffffffffffffffffffffffffff1663150b7a0261173b610dae565b8786866040518563ffffffff1660e01b815260040161175d9493929190612991565b6020604051808303816000875af192505050801561179957506040513d601f19601f8201168201806040525081019061179691906129f2565b60015b61181b573d80600081146117c9576040519150601f19603f3d011682016040523d82523d6000602084013e6117ce565b606091505b506000815103611813576040517f08c379a000000000000000000000000000000000000000000000000000000000815260040161180a90612856565b60405180910390fd5b805181602001fd5b63150b7a0260e01b7bffffffffffffffffffffffffffffffffffffffffffffffffffffffff1916817bffffffffffffffffffffffffffffffffffffffffffffffffffffffff191614915050611870565b600190505b949350505050565b600080600090507a184f03e93ff9f4daa797ed6e38ed64bf6a1f01000000000000000083106118d6577a184f03e93ff9f4daa797ed6e38ed64bf6a1f01000000000000000083816118cc576118cb612876565b5b0492506040810190505b6d04ee2d6d415b85acef81000000008310611913576d04ee2d6d415b85acef8100000000838161190957611908612876565b5b0492506020810190505b662386f26fc10000831061194257662386f26fc10000838161193857611937612876565b5b0492506010810190505b6305f5e100831061196b576305f5e100838161196157611960612876565b5b0492506008810190505b612710831061199057612710838161198657611985612876565b5b0492506004810190505b606483106119b357606483816119a9576119a8612876565b5b0492506002810190505b600a83106119c2576001810190505b80915050919050565b600073ffffffffffffffffffffffffffffffffffffffff168273ffffffffffffffffffffffffffffffffffffffff1603611a3a576040517f08c379a0000000000000000000000000000000000000000000000000000000008152600401611a3190612a6b565b60405180910390fd5b611a4381611529565b15611a83576040517f08c379a0000000000000000000000000000000000000000000000000000000008152600401611a7a90612ad7565b60405180910390fd5b611a9160008383600161156a565b611a9a81611529565b15611ada576040517f08c379a0000000000000000000000000000000000000000000000000000000008152600401611ad190612ad7565b60405180910390fd5b6001600360008473ffffffffffffffffffffffffffffffffffffffff1673ffffffffffffffffffffffffffffffffffffffff16815260200190815260200160002060008282540192505081905550816002600083815260200190815260200160002060006101000a81548173ffffffffffffffffffffffffffffffffffffffff021916908373ffffffffffffffffffffffffffffffffffffffff160217905550808273ffffffffffffffffffffffffffffffffffffffff16600073ffffffffffffffffffffffffffffffffffffffff167fddf252ad1be2c89b69c2b068fc378daa952ba7f163c4a11628f55a4df523b3ef60405160405180910390a4611be4600083836001611690565b5050565b6000808273ffffffffffffffffffffffffffffffffffffffff163b119050919050565b828054828255906000526020600020908101928215611c4c5760005260206000209182015b82811115611c4b578254825591600101919060010190611c30565b5b509050611c599190611c5d565b5090565b5b80821115611c76576000816000905550600101611c5e565b5090565b6000604051905090565b600080fd5b600080fd5b60007fffffffff0000000000000000000000000000000000000000000000000000000082169050919050565b611cc381611c8e565b8114611cce57600080fd5b50565b600081359050611ce081611cba565b92915050565b600060208284031215611cfc57611cfb611c84565b5b6000611d0a84828501611cd1565b91505092915050565b60008115159050919050565b611d2881611d13565b82525050565b6000602082019050611d436000830184611d1f565b92915050565b600081519050919050565b600082825260208201905092915050565b60005b83811015611d83578082015181840152602081019050611d68565b60008484015250505050565b6000601f19601f8301169050919050565b6000611dab82611d49565b611db58185611d54565b9350611dc5818560208601611d65565b611dce81611d8f565b840191505092915050565b60006020820190508181036000830152611df38184611da0565b905092915050565b6000819050919050565b611e0e81611dfb565b8114611e1957600080fd5b50565b600081359050611e2b81611e05565b92915050565b600060208284031215611e4757611e46611c84565b5b6000611e5584828501611e1c565b91505092915050565b600073ffffffffffffffffffffffffffffffffffffffff82169050919050565b6000611e8982611e5e565b9050919050565b611e9981611e7e565b82525050565b6000602082019050611eb46000830184611e90565b92915050565b611ec381611e7e565b8114611ece57600080fd5b50565b600081359050611ee081611eba565b92915050565b60008060408385031215611efd57611efc611c84565b5b6000611f0b85828601611ed1565b9250506020611f1c85828601611e1c565b9150509250929050565b600080600060608486031215611f3f57611f3e611c84565b5b6000611f4d86828701611ed1565b9350506020611f5e86828701611ed1565b9250506040611f6f86828701611e1c565b9150509250925092565b60008060408385031215611f9057611f8f611c84565b5b6000611f9e85828601611e1c565b9250506020611faf85828601611e1c565b9150509250929050565b600060208284031215611fcf57611fce611c84565b5b6000611fdd84828501611ed1565b91505092915050565b611fef81611dfb565b82525050565b600060208201905061200a6000830184611fe6565b92915050565b6000806040838503121561202757612026611c84565b5b600061203585828601611ed1565b925050602061204685828601611ed1565b9150509250929050565b61205981611d13565b811461206457600080fd5b50565b60008135905061207681612050565b92915050565b6000806040838503121561209357612092611c84565b5b60006120a185828601611ed1565b92505060206120b285828601612067565b9150509250929050565b600080fd5b600080fd5b7f4e487b7100000000000000000000000000000000000000000000000000000000600052604160045260246000fd5b6120fe82611d8f565b810181811067ffffffffffffffff8211171561211d5761211c6120c6565b5b80604052505050565b6000612130611c7a565b905061213c82826120f5565b919050565b600067ffffffffffffffff82111561215c5761215b6120c6565b5b61216582611d8f565b9050602081019050919050565b82818337600083830152505050565b600061219461218f84612141565b612126565b9050828152602081018484840111156121b0576121af6120c1565b5b6121bb848285612172565b509392505050565b600082601f8301126121d8576121d76120bc565b5b81356121e8848260208601612181565b91505092915050565b6000806000806080858703121561220b5761220a611c84565b5b600061221987828801611ed1565b945050602061222a87828801611ed1565b935050604061223b87828801611e1c565b925050606085013567ffffffffffffffff81111561225c5761225b611c89565b5b612268878288016121c3565b91505092959194509250565b7f4e487b7100000000000000000000000000000000000000000000000000000000600052602260045260246000fd5b600060028204905060018216806122bb57607f821691505b6020821081036122ce576122cd612274565b5b50919050565b7f4552433732313a20617070726f76616c20746f2063757272656e74206f776e6560008201527f7200000000000000000000000000000000000000000000000000000000000000602082015250565b6000612330602183611d54565b915061233b826122d4565b604082019050919050565b6000602082019050818103600083015261235f81612323565b9050919050565b7f4552433732313a20617070726f76652063616c6c6572206973206e6f7420746f60008201527f6b656e206f776e6572206f7220617070726f76656420666f7220616c6c000000602082015250565b60006123c2603d83611d54565b91506123cd82612366565b604082019050919050565b600060208201905081810360008301526123f1816123b5565b9050919050565b7f4552433732313a2063616c6c6572206973206e6f7420746f6b656e206f776e6560008201527f72206f7220617070726f76656400000000000000000000000000000000000000602082015250565b6000612454602d83611d54565b915061245f826123f8565b604082019050919050565b6000602082019050818103600083015261248381612447565b9050919050565b7f4e6f74206f776e6572206f66206b657900000000000000000000000000000000600082015250565b60006124c0601083611d54565b91506124cb8261248a565b602082019050919050565b600060208201905081810360008301526124ef816124b3565b9050919050565b7f4552433732313a20696e76616c696420746f6b656e2049440000000000000000600082015250565b600061252c601883611d54565b9150612537826124f6565b602082019050919050565b6000602082019050818103600083015261255b8161251f565b9050919050565b7f4552433732313a2061646472657373207a65726f206973206e6f74206120766160008201527f6c6964206f776e65720000000000000000000000000000000000000000000000602082015250565b60006125be602983611d54565b91506125c982612562565b604082019050919050565b600060208201905081810360008301526125ed816125b1565b9050919050565b600081905092915050565b600061260a82611d49565b61261481856125f4565b9350612624818560208601611d65565b80840191505092915050565b600061263c82856125ff565b915061264882846125ff565b91508190509392505050565b7f4552433732313a207472616e736665722066726f6d20696e636f72726563742060008201527f6f776e6572000000000000000000000000000000000000000000000000000000602082015250565b60006126b0602583611d54565b91506126bb82612654565b604082019050919050565b600060208201905081810360008301526126df816126a3565b9050919050565b7f4552433732313a207472616e7366657220746f20746865207a65726f2061646460008201527f7265737300000000000000000000000000000000000000000000000000000000602082015250565b6000612742602483611d54565b915061274d826126e6565b604082019050919050565b6000602082019050818103600083015261277181612735565b9050919050565b7f4552433732313a20617070726f766520746f2063616c6c657200000000000000600082015250565b60006127ae601983611d54565b91506127b982612778565b602082019050919050565b600060208201905081810360008301526127dd816127a1565b9050919050565b7f4552433732313a207472616e7366657220746f206e6f6e20455243373231526560008201527f63656976657220696d706c656d656e7465720000000000000000000000000000602082015250565b6000612840603283611d54565b915061284b826127e4565b604082019050919050565b6000602082019050818103600083015261286f81612833565b9050919050565b7f4e487b7100000000000000000000000000000000000000000000000000000000600052601260045260246000fd5b7f4e487b7100000000000000000000000000000000000000000000000000000000600052601160045260246000fd5b60006128df82611dfb565b91506128ea83611dfb565b9250828203905081811115612902576129016128a5565b5b92915050565b600061291382611dfb565b915061291e83611dfb565b9250828201905080821115612936576129356128a5565b5b92915050565b600081519050919050565b600082825260208201905092915050565b60006129638261293c565b61296d8185612947565b935061297d818560208601611d65565b61298681611d8f565b840191505092915050565b60006080820190506129a66000830187611e90565b6129b36020830186611e90565b6129c06040830185611fe6565b81810360608301526129d28184612958565b905095945050505050565b6000815190506129ec81611cba565b92915050565b600060208284031215612a0857612a07611c84565b5b6000612a16848285016129dd565b91505092915050565b7f4552433732313a206d696e7420746f20746865207a65726f2061646472657373600082015250565b6000612a55602083611d54565b9150612a6082612a1f565b602082019050919050565b60006020820190508181036000830152612a8481612a48565b9050919050565b7f4552433732313a20746f6b656e20616c7265616479206d696e74656400000000600082015250565b6000612ac1601c83611d54565b9150612acc82612a8b565b602082019050919050565b60006020820190508181036000830152612af081612ab4565b905091905056fea2646970667358221220e670d7563992b13991007d3e326534ed31970bdbbd452287e1a7be2fd159fe9964736f6c63430008110033"}