{"address":"0xbe7FE66862003A94d9BE20D3C634476EE7aF630C","abi":[{"inputs":[],"stateMutability":"nonpayable","type":"constructor"},{"anonymous":false,"inputs":[{"indexed":true,"internalType":"address","name":"caller","type":"address"}],"name":"Added","type":"event"},{"inputs":[],"name":"access","outputs":[{"internalType":"uint8","name":"","type":"uint8"}],"stateMutability":"pure","type":"function"},{"inputs":[],"name":"add","outputs":[],"stateMutability":"nonpayable","type":"function"},{"inputs":[],"name":"integer","outputs":[{"internalType":"uint256","name":"","type":"uint256"}],"stateMutability":"view","type":"function"}],"bytecode":"0x608060405234801561001057600080fd5b5060016000819055506101f9806100286000396000f3fe608060405234801561001057600080fd5b50600436106100415760003560e01c806309efb8ff146100465780634f2be91f1461006457806371907f171461006e575b600080fd5b61004e61008c565b60405161005b919061010e565b60405180910390f35b61006c610092565b005b6100766100ec565b6040516100839190610145565b60405180910390f35b60005481565b60016000546100a1919061018f565b6000819055503373ffffffffffffffffffffffffffffffffffffffff167fdcfefddfe354ab15def7a2a6a8758e2ad4100c920318c627db94e29d833e156760405160405180910390a2565b60006004905090565b6000819050919050565b610108816100f5565b82525050565b600060208201905061012360008301846100ff565b92915050565b600060ff82169050919050565b61013f81610129565b82525050565b600060208201905061015a6000830184610136565b92915050565b7f4e487b7100000000000000000000000000000000000000000000000000000000600052601160045260246000fd5b600061019a826100f5565b91506101a5836100f5565b92508282019050808211156101bd576101bc610160565b5b9291505056fea264697066735822122089059ca85d70b0bfc10e4db7ba1c370e7e3aa93d033cc61b46f5857c3ca06f0464736f6c63430008110033"}