{"address":"0xBc36C8DB87990EA6Bf5BA905457bf1f2c23f4e1b","abi":[{"inputs":[{"internalType":"uint8","name":"feePercentage","type":"uint8"},{"internalType":"address","name":"key","type":"address"}],"stateMutability":"nonpayable","type":"constructor"},{"anonymous":false,"inputs":[{"indexed":true,"internalType":"address","name":"owner","type":"address"},{"indexed":true,"internalType":"address","name":"approved","type":"address"},{"indexed":true,"internalType":"uint256","name":"tokenId","type":"uint256"}],"name":"Approval","type":"event"},{"anonymous":false,"inputs":[{"indexed":true,"internalType":"address","name":"owner","type":"address"},{"indexed":true,"internalType":"address","name":"operator","type":"address"},{"indexed":false,"internalType":"bool","name":"approved","type":"bool"}],"name":"ApprovalForAll","type":"event"},{"anonymous":false,"inputs":[{"indexed":true,"internalType":"address","name":"author","type":"address"},{"indexed":false,"internalType":"string","name":"cid","type":"string"}],"name":"BookCreated","type":"event"},{"anonymous":false,"inputs":[{"indexed":true,"internalType":"address","name":"from","type":"address"},{"indexed":true,"internalType":"address","name":"to","type":"address"},{"indexed":true,"internalType":"uint256","name":"tokenId","type":"uint256"}],"name":"Transfer","type":"event"},{"inputs":[],"name":"_feePercentage","outputs":[{"internalType":"uint8","name":"","type":"uint8"}],"stateMutability":"view","type":"function"},{"inputs":[],"name":"_key","outputs":[{"internalType":"contract Key","name":"","type":"address"}],"stateMutability":"view","type":"function"},{"inputs":[{"internalType":"address","name":"to","type":"address"},{"internalType":"uint256","name":"tokenId","type":"uint256"}],"name":"approve","outputs":[],"stateMutability":"nonpayable","type":"function"},{"inputs":[{"internalType":"address","name":"owner","type":"address"}],"name":"balanceOf","outputs":[{"internalType":"uint256","name":"","type":"uint256"}],"stateMutability":"view","type":"function"},{"inputs":[{"internalType":"uint256","name":"","type":"uint256"}],"name":"bookIdToBookStruct","outputs":[{"internalType":"string","name":"cid","type":"string"},{"internalType":"uint256","name":"purchasePrice","type":"uint256"},{"internalType":"uint256","name":"totalRevenue","type":"uint256"},{"internalType":"uint256","name":"pricePerEpoch","type":"uint256"}],"stateMutability":"view","type":"function"},{"inputs":[{"internalType":"uint256","name":"bookId","type":"uint256"}],"name":"buyAccess","outputs":[],"stateMutability":"payable","type":"function"},{"inputs":[{"internalType":"uint256","name":"keyId","type":"uint256"}],"name":"buyBookOwnership","outputs":[],"stateMutability":"nonpayable","type":"function"},{"inputs":[{"internalType":"uint256","name":"bookId","type":"uint256"}],"name":"canAccessBook","outputs":[{"internalType":"bool","name":"","type":"bool"}],"stateMutability":"view","type":"function"},{"inputs":[{"internalType":"string","name":"cid","type":"string"}],"name":"createBook","outputs":[],"stateMutability":"nonpayable","type":"function"},{"inputs":[{"internalType":"uint256","name":"keyId","type":"uint256"}],"name":"createCollection","outputs":[],"stateMutability":"nonpayable","type":"function"},{"inputs":[{"internalType":"uint256","name":"tokenId","type":"uint256"}],"name":"getApproved","outputs":[{"internalType":"address","name":"","type":"address"}],"stateMutability":"view","type":"function"},{"inputs":[{"internalType":"uint256","name":"bookId","type":"uint256"}],"name":"getPurchasePrice","outputs":[{"internalType":"uint256","name":"","type":"uint256"}],"stateMutability":"view","type":"function"},{"inputs":[{"internalType":"address","name":"owner","type":"address"},{"internalType":"address","name":"operator","type":"address"}],"name":"isApprovedForAll","outputs":[{"internalType":"bool","name":"","type":"bool"}],"stateMutability":"view","type":"function"},{"inputs":[],"name":"name","outputs":[{"internalType":"string","name":"","type":"string"}],"stateMutability":"view","type":"function"},{"inputs":[{"internalType":"uint256","name":"tokenId","type":"uint256"}],"name":"ownerOf","outputs":[{"internalType":"address","name":"","type":"address"}],"stateMutability":"view","type":"function"},{"inputs":[{"internalType":"uint256","name":"keyId","type":"uint256"}],"name":"rentAccessToBook","outputs":[],"stateMutability":"nonpayable","type":"function"},{"inputs":[{"internalType":"address","name":"from","type":"address"},{"internalType":"address","name":"to","type":"address"},{"internalType":"uint256","name":"tokenId","type":"uint256"}],"name":"safeTransferFrom","outputs":[],"stateMutability":"nonpayable","type":"function"},{"inputs":[{"internalType":"address","name":"from","type":"address"},{"internalType":"address","name":"to","type":"address"},{"internalType":"uint256","name":"tokenId","type":"uint256"},{"internalType":"bytes","name":"data","type":"bytes"}],"name":"safeTransferFrom","outputs":[],"stateMutability":"nonpayable","type":"function"},{"inputs":[{"internalType":"uint256","name":"keyId","type":"uint256"}],"name":"sellBookOwnership","outputs":[],"stateMutability":"nonpayable","type":"function"},{"inputs":[{"internalType":"address","name":"operator","type":"address"},{"internalType":"bool","name":"approved","type":"bool"}],"name":"setApprovalForAll","outputs":[],"stateMutability":"nonpayable","type":"function"},{"inputs":[{"internalType":"uint8","name":"feePercentage","type":"uint8"}],"name":"setFeePercentage","outputs":[],"stateMutability":"nonpayable","type":"function"},{"inputs":[{"internalType":"bytes4","name":"interfaceId","type":"bytes4"}],"name":"supportsInterface","outputs":[{"internalType":"bool","name":"","type":"bool"}],"stateMutability":"view","type":"function"},{"inputs":[],"name":"symbol","outputs":[{"internalType":"string","name":"","type":"string"}],"stateMutability":"view","type":"function"},{"inputs":[{"internalType":"uint256","name":"tokenId","type":"uint256"}],"name":"tokenURI","outputs":[{"internalType":"string","name":"","type":"string"}],"stateMutability":"view","type":"function"},{"inputs":[{"internalType":"address","name":"from","type":"address"},{"internalType":"address","name":"to","type":"address"},{"internalType":"uint256","name":"tokenId","type":"uint256"}],"name":"transferFrom","outputs":[],"stateMutability":"nonpayable","type":"function"},{"inputs":[{"internalType":"uint256","name":"bookId","type":"uint256"}],"name":"withdrawProfit","outputs":[],"stateMutability":"payable","type":"function"}],"bytecode":"0x60a06040523480156200001157600080fd5b5060405162003e4838038062003e488339818101604052810190620000379190620001c8565b6040518060400160405280600481526020017f426f6f6b000000000000000000000000000000000000000000000000000000008152506040518060400160405280600281526020017f426b0000000000000000000000000000000000000000000000000000000000008152508160009081620000b4919062000489565b508060019081620000c6919062000489565b50505081600860006101000a81548160ff021916908360ff1602179055508073ffffffffffffffffffffffffffffffffffffffff1660808173ffffffffffffffffffffffffffffffffffffffff1681525050505062000570565b600080fd5b600060ff82169050919050565b6200013d8162000125565b81146200014957600080fd5b50565b6000815190506200015d8162000132565b92915050565b600073ffffffffffffffffffffffffffffffffffffffff82169050919050565b6000620001908262000163565b9050919050565b620001a28162000183565b8114620001ae57600080fd5b50565b600081519050620001c28162000197565b92915050565b60008060408385031215620001e257620001e162000120565b5b6000620001f2858286016200014c565b92505060206200020585828601620001b1565b9150509250929050565b600081519050919050565b7f4e487b7100000000000000000000000000000000000000000000000000000000600052604160045260246000fd5b7f4e487b7100000000000000000000000000000000000000000000000000000000600052602260045260246000fd5b600060028204905060018216806200029157607f821691505b602082108103620002a757620002a662000249565b5b50919050565b60008190508160005260206000209050919050565b60006020601f8301049050919050565b600082821b905092915050565b600060088302620003117fffffffffffffffffffffffffffffffffffffffffffffffffffffffffffffffff82620002d2565b6200031d8683620002d2565b95508019841693508086168417925050509392505050565b6000819050919050565b6000819050919050565b60006200036a620003646200035e8462000335565b6200033f565b62000335565b9050919050565b6000819050919050565b620003868362000349565b6200039e620003958262000371565b848454620002df565b825550505050565b600090565b620003b5620003a6565b620003c28184846200037b565b505050565b5b81811015620003ea57620003de600082620003ab565b600181019050620003c8565b5050565b601f82111562000439576200040381620002ad565b6200040e84620002c2565b810160208510156200041e578190505b620004366200042d85620002c2565b830182620003c7565b50505b505050565b600082821c905092915050565b60006200045e600019846008026200043e565b1980831691505092915050565b60006200047983836200044b565b9150826002028217905092915050565b62000494826200020f565b67ffffffffffffffff811115620004b057620004af6200021a565b5b620004bc825462000278565b620004c9828285620003ee565b600060209050601f831160018114620005015760008415620004ec578287015190505b620004f885826200046b565b86555062000568565b601f1984166200051186620002ad565b60005b828110156200053b5784890151825560018201915060208501945060208101905062000514565b868310156200055b578489015162000557601f8916826200044b565b8355505b6001600288020188555050505b505050505050565b6080516138a7620005a16000396000818161098b01528181610a9701528181610c020152610dd101526138a76000f3fe6080604052600436106101815760003560e01c806395d89b41116100d1578063c59d56331161008a578063d82a2bea11610064578063d82a2bea146105a8578063e985e9c5146105c4578063f699343e14610601578063f9c9c8781461062c57610181565b8063c59d563314610505578063c87b56dd14610542578063d0011d9d1461057f57610181565b806395d89b41146103f6578063a22cb46514610421578063a5766aa61461044a578063b75174f014610473578063b88d4fde146104b3578063b9f72b7d146104dc57610181565b806342842e0e1161013e5780636352211e116101185780636352211e1461032857806370a082311461036557806374ad7ac4146103a25780639072df6b146103cd57610181565b806342842e0e146102ba5780634ba8b733146102e357806350a1a2641461030c57610181565b806301ffc9a71461018657806306fdde03146101c3578063081812fc146101ee578063095ea7b31461022b57806323b872dd146102545780632d89c10f1461027d575b600080fd5b34801561019257600080fd5b506101ad60048036038101906101a891906123db565b610655565b6040516101ba9190612423565b60405180910390f35b3480156101cf57600080fd5b506101d8610737565b6040516101e591906124ce565b60405180910390f35b3480156101fa57600080fd5b5061021560048036038101906102109190612526565b6107c9565b6040516102229190612594565b60405180910390f35b34801561023757600080fd5b50610252600480360381019061024d91906125db565b61080f565b005b34801561026057600080fd5b5061027b6004803603810190610276919061261b565b610926565b005b34801561028957600080fd5b506102a4600480360381019061029f9190612526565b610986565b6040516102b19190612423565b60405180910390f35b3480156102c657600080fd5b506102e160048036038101906102dc919061261b565b610a70565b005b3480156102ef57600080fd5b5061030a60048036038101906103059190612526565b610a90565b005b61032660048036038101906103219190612526565b610a93565b005b34801561033457600080fd5b5061034f600480360381019061034a9190612526565b610c92565b60405161035c9190612594565b60405180910390f35b34801561037157600080fd5b5061038c6004803603810190610387919061266e565b610d18565b60405161039991906126aa565b60405180910390f35b3480156103ae57600080fd5b506103b7610dcf565b6040516103c49190612724565b60405180910390f35b3480156103d957600080fd5b506103f460048036038101906103ef9190612526565b610df3565b005b34801561040257600080fd5b5061040b610df6565b60405161041891906124ce565b60405180910390f35b34801561042d57600080fd5b506104486004803603810190610443919061276b565b610e88565b005b34801561045657600080fd5b50610471600480360381019061046c91906127e4565b610e9e565b005b34801561047f57600080fd5b5061049a60048036038101906104959190612526565b610ebc565b6040516104aa9493929190612811565b60405180910390f35b3480156104bf57600080fd5b506104da60048036038101906104d59190612992565b610f74565b005b3480156104e857600080fd5b5061050360048036038101906104fe9190612ab6565b610fd6565b005b34801561051157600080fd5b5061052c60048036038101906105279190612526565b61107e565b60405161053991906126aa565b60405180910390f35b34801561054e57600080fd5b5061056960048036038101906105649190612526565b61109e565b60405161057691906124ce565b60405180910390f35b34801561058b57600080fd5b506105a660048036038101906105a19190612526565b6111b0565b005b6105c260048036038101906105bd9190612526565b6111b3565b005b3480156105d057600080fd5b506105eb60048036038101906105e69190612aff565b6112ad565b6040516105f89190612423565b60405180910390f35b34801561060d57600080fd5b50610616611341565b6040516106239190612b4e565b60405180910390f35b34801561063857600080fd5b50610653600480360381019061064e9190612526565b611354565b005b60007f80ac58cd000000000000000000000000000000000000000000000000000000007bffffffffffffffffffffffffffffffffffffffffffffffffffffffff1916827bffffffffffffffffffffffffffffffffffffffffffffffffffffffff1916148061072057507f5b5e139f000000000000000000000000000000000000000000000000000000007bffffffffffffffffffffffffffffffffffffffffffffffffffffffff1916827bffffffffffffffffffffffffffffffffffffffffffffffffffffffff1916145b80610730575061072f82611357565b5b9050919050565b60606000805461074690612b98565b80601f016020809104026020016040519081016040528092919081815260200182805461077290612b98565b80156107bf5780601f10610794576101008083540402835291602001916107bf565b820191906000526020600020905b8154815290600101906020018083116107a257829003601f168201915b5050505050905090565b60006107d4826113c1565b6004600083815260200190815260200160002060009054906101000a900473ffffffffffffffffffffffffffffffffffffffff169050919050565b600061081a82610c92565b90508073ffffffffffffffffffffffffffffffffffffffff168373ffffffffffffffffffffffffffffffffffffffff160361088a576040517f08c379a000000000000000000000000000000000000000000000000000000000815260040161088190612c3b565b60405180910390fd5b8073ffffffffffffffffffffffffffffffffffffffff166108a961140c565b73ffffffffffffffffffffffffffffffffffffffff1614806108d857506108d7816108d261140c565b6112ad565b5b610917576040517f08c379a000000000000000000000000000000000000000000000000000000000815260040161090e90612ccd565b60405180910390fd5b6109218383611414565b505050565b61093761093161140c565b826114cd565b610976576040517f08c379a000000000000000000000000000000000000000000000000000000000815260040161096d90612d5f565b60405180910390fd5b610981838383611562565b505050565b6000807f000000000000000000000000000000000000000000000000000000000000000073ffffffffffffffffffffffffffffffffffffffff1663745c84ca336040518263ffffffff1660e01b81526004016109e29190612594565b602060405180830381865afa1580156109ff573d6000803e3d6000fd5b505050506040513d601f19601f82011682018060405250810190610a239190612d94565b9050600060096000858152602001908152602001600020905042816004016000848152602001908152602001600020541115610a6457600192505050610a6b565b6000925050505b919050565b610a8b83838360405180602001604052806000815250610f74565b505050565b50565b60007f000000000000000000000000000000000000000000000000000000000000000073ffffffffffffffffffffffffffffffffffffffff1663745c84ca336040518263ffffffff1660e01b8152600401610aee9190612594565b602060405180830381865afa158015610b0b573d6000803e3d6000fd5b505050506040513d601f19601f82011682018060405250810190610b2f9190612d94565b905060006009600084815260200190815260200160002090508060010154341015610b8f576040517f08c379a0000000000000000000000000000000000000000000000000000000008152600401610b8690612e0d565b60405180910390fd5b7fffffffffffffffffffffffffffffffffffffffffffffffffffffffffffffffff81600401600084815260200190815260200160002081905550610be6600860009054906101000a900460ff16826001015461185b565b816002016000828254610bf99190612e5c565b925050819055507f000000000000000000000000000000000000000000000000000000000000000073ffffffffffffffffffffffffffffffffffffffff16632597e04783856040518363ffffffff1660e01b8152600401610c5b929190612e90565b600060405180830381600087803b158015610c7557600080fd5b505af1158015610c89573d6000803e3d6000fd5b50505050505050565b600080610c9e8361188c565b9050600073ffffffffffffffffffffffffffffffffffffffff168173ffffffffffffffffffffffffffffffffffffffff1603610d0f576040517f08c379a0000000000000000000000000000000000000000000000000000000008152600401610d0690612f05565b60405180910390fd5b80915050919050565b60008073ffffffffffffffffffffffffffffffffffffffff168273ffffffffffffffffffffffffffffffffffffffff1603610d88576040517f08c379a0000000000000000000000000000000000000000000000000000000008152600401610d7f90612f97565b60405180910390fd5b600360008373ffffffffffffffffffffffffffffffffffffffff1673ffffffffffffffffffffffffffffffffffffffff168152602001908152602001600020549050919050565b7f000000000000000000000000000000000000000000000000000000000000000081565b50565b606060018054610e0590612b98565b80601f0160208091040260200160405190810160405280929190818152602001828054610e3190612b98565b8015610e7e5780601f10610e5357610100808354040283529160200191610e7e565b820191906000526020600020905b815481529060010190602001808311610e6157829003601f168201915b5050505050905090565b610e9a610e9361140c565b83836118c9565b5050565b80600860006101000a81548160ff021916908360ff16021790555050565b6009602052806000526040600020600091509050806000018054610edf90612b98565b80601f0160208091040260200160405190810160405280929190818152602001828054610f0b90612b98565b8015610f585780601f10610f2d57610100808354040283529160200191610f58565b820191906000526020600020905b815481529060010190602001808311610f3b57829003601f168201915b5050505050908060010154908060020154908060030154905084565b610f85610f7f61140c565b836114cd565b610fc4576040517f08c379a0000000000000000000000000000000000000000000000000000000008152600401610fbb90612d5f565b60405180910390fd5b610fd084848484611a35565b50505050565b610fe06007611a91565b6000610fec6007611aa7565b9050610ff83382611ab5565b6110028183611ad3565b60006009600083815260200190815260200160002090508281600001908161102a9190613159565b503373ffffffffffffffffffffffffffffffffffffffff167fcd095682f94b665e1fabc71fabb6821464ec12b28cb7f151c43ec2dba1017d718460405161107191906124ce565b60405180910390a2505050565b600060096000838152602001908152602001600020600101549050919050565b60606110a9826113c1565b60006006600084815260200190815260200160002080546110c990612b98565b80601f01602080910402602001604051908101604052809291908181526020018280546110f590612b98565b80156111425780601f1061111757610100808354040283529160200191611142565b820191906000526020600020905b81548152906001019060200180831161112557829003601f168201915b505050505090506000611153611b40565b905060008151036111685781925050506111ab565b60008251111561119d578082604051602001611185929190613267565b604051602081830303815290604052925050506111ab565b6111a684611b57565b925050505b919050565b50565b3373ffffffffffffffffffffffffffffffffffffffff166111d382610c92565b73ffffffffffffffffffffffffffffffffffffffff1614611229576040517f08c379a0000000000000000000000000000000000000000000000000000000008152600401611220906132d7565b60405180910390fd5b6000600960008381526020019081526020016000206002018190555061124e81610c92565b73ffffffffffffffffffffffffffffffffffffffff166108fc60096000848152602001908152602001600020600201549081150290604051600060405180830381858888f193505050501580156112a9573d6000803e3d6000fd5b5050565b6000600560008473ffffffffffffffffffffffffffffffffffffffff1673ffffffffffffffffffffffffffffffffffffffff16815260200190815260200160002060008373ffffffffffffffffffffffffffffffffffffffff1673ffffffffffffffffffffffffffffffffffffffff16815260200190815260200160002060009054906101000a900460ff16905092915050565b600860009054906101000a900460ff1681565b50565b60007f01ffc9a7000000000000000000000000000000000000000000000000000000007bffffffffffffffffffffffffffffffffffffffffffffffffffffffff1916827bffffffffffffffffffffffffffffffffffffffffffffffffffffffff1916149050919050565b6113ca81611bbf565b611409576040517f08c379a000000000000000000000000000000000000000000000000000000000815260040161140090612f05565b60405180910390fd5b50565b600033905090565b816004600083815260200190815260200160002060006101000a81548173ffffffffffffffffffffffffffffffffffffffff021916908373ffffffffffffffffffffffffffffffffffffffff160217905550808273ffffffffffffffffffffffffffffffffffffffff1661148783610c92565b73ffffffffffffffffffffffffffffffffffffffff167f8c5be1e5ebec7d5bd14f71427d1e84f3dd0314c0f7b2291e5b200ac8c7c3b92560405160405180910390a45050565b6000806114d983610c92565b90508073ffffffffffffffffffffffffffffffffffffffff168473ffffffffffffffffffffffffffffffffffffffff16148061151b575061151a81856112ad565b5b8061155957508373ffffffffffffffffffffffffffffffffffffffff16611541846107c9565b73ffffffffffffffffffffffffffffffffffffffff16145b91505092915050565b8273ffffffffffffffffffffffffffffffffffffffff1661158282610c92565b73ffffffffffffffffffffffffffffffffffffffff16146115d8576040517f08c379a00000000000000000000000000000000000000000000000000000000081526004016115cf90613369565b60405180910390fd5b600073ffffffffffffffffffffffffffffffffffffffff168273ffffffffffffffffffffffffffffffffffffffff1603611647576040517f08c379a000000000000000000000000000000000000000000000000000000000815260040161163e906133fb565b60405180910390fd5b6116548383836001611c00565b8273ffffffffffffffffffffffffffffffffffffffff1661167482610c92565b73ffffffffffffffffffffffffffffffffffffffff16146116ca576040517f08c379a00000000000000000000000000000000000000000000000000000000081526004016116c190613369565b60405180910390fd5b6004600082815260200190815260200160002060006101000a81549073ffffffffffffffffffffffffffffffffffffffff02191690556001600360008573ffffffffffffffffffffffffffffffffffffffff1673ffffffffffffffffffffffffffffffffffffffff168152602001908152602001600020600082825403925050819055506001600360008473ffffffffffffffffffffffffffffffffffffffff1673ffffffffffffffffffffffffffffffffffffffff16815260200190815260200160002060008282540192505081905550816002600083815260200190815260200160002060006101000a81548173ffffffffffffffffffffffffffffffffffffffff021916908373ffffffffffffffffffffffffffffffffffffffff160217905550808273ffffffffffffffffffffffffffffffffffffffff168473ffffffffffffffffffffffffffffffffffffffff167fddf252ad1be2c89b69c2b068fc378daa952ba7f163c4a11628f55a4df523b3ef60405160405180910390a46118568383836001611d26565b505050565b600060648284606461186d919061341b565b60ff1661187a9190613450565b61188491906134c1565b905092915050565b60006002600083815260200190815260200160002060009054906101000a900473ffffffffffffffffffffffffffffffffffffffff169050919050565b8173ffffffffffffffffffffffffffffffffffffffff168373ffffffffffffffffffffffffffffffffffffffff1603611937576040517f08c379a000000000000000000000000000000000000000000000000000000000815260040161192e9061353e565b60405180910390fd5b80600560008573ffffffffffffffffffffffffffffffffffffffff1673ffffffffffffffffffffffffffffffffffffffff16815260200190815260200160002060008473ffffffffffffffffffffffffffffffffffffffff1673ffffffffffffffffffffffffffffffffffffffff16815260200190815260200160002060006101000a81548160ff0219169083151502179055508173ffffffffffffffffffffffffffffffffffffffff168373ffffffffffffffffffffffffffffffffffffffff167f17307eab39ab6107e8899845ad3d59bd9653f200f220920489ca2b5937696c3183604051611a289190612423565b60405180910390a3505050565b611a40848484611562565b611a4c84848484611d2c565b611a8b576040517f08c379a0000000000000000000000000000000000000000000000000000000008152600401611a82906135d0565b60405180910390fd5b50505050565b6001816000016000828254019250508190555050565b600081600001549050919050565b611acf828260405180602001604052806000815250611eb3565b5050565b611adc82611bbf565b611b1b576040517f08c379a0000000000000000000000000000000000000000000000000000000008152600401611b1290613662565b60405180910390fd5b80600660008481526020019081526020016000209081611b3b9190613159565b505050565b606060405180602001604052806000815250905090565b6060611b62826113c1565b6000611b6c611b40565b90506000815111611b8c5760405180602001604052806000815250611bb7565b80611b9684611f0e565b604051602001611ba7929190613267565b6040516020818303038152906040525b915050919050565b60008073ffffffffffffffffffffffffffffffffffffffff16611be18361188c565b73ffffffffffffffffffffffffffffffffffffffff1614159050919050565b6001811115611d2057600073ffffffffffffffffffffffffffffffffffffffff168473ffffffffffffffffffffffffffffffffffffffff1614611c945780600360008673ffffffffffffffffffffffffffffffffffffffff1673ffffffffffffffffffffffffffffffffffffffff1681526020019081526020016000206000828254611c8c9190613682565b925050819055505b600073ffffffffffffffffffffffffffffffffffffffff168373ffffffffffffffffffffffffffffffffffffffff1614611d1f5780600360008573ffffffffffffffffffffffffffffffffffffffff1673ffffffffffffffffffffffffffffffffffffffff1681526020019081526020016000206000828254611d179190612e5c565b925050819055505b5b50505050565b50505050565b6000611d4d8473ffffffffffffffffffffffffffffffffffffffff16611fdc565b15611ea6578373ffffffffffffffffffffffffffffffffffffffff1663150b7a02611d7661140c565b8786866040518563ffffffff1660e01b8152600401611d98949392919061370b565b6020604051808303816000875af1925050508015611dd457506040513d601f19601f82011682018060405250810190611dd1919061376c565b60015b611e56573d8060008114611e04576040519150601f19603f3d011682016040523d82523d6000602084013e611e09565b606091505b506000815103611e4e576040517f08c379a0000000000000000000000000000000000000000000000000000000008152600401611e45906135d0565b60405180910390fd5b805181602001fd5b63150b7a0260e01b7bffffffffffffffffffffffffffffffffffffffffffffffffffffffff1916817bffffffffffffffffffffffffffffffffffffffffffffffffffffffff191614915050611eab565b600190505b949350505050565b611ebd8383611fff565b611eca6000848484611d2c565b611f09576040517f08c379a0000000000000000000000000000000000000000000000000000000008152600401611f00906135d0565b60405180910390fd5b505050565b606060006001611f1d8461221c565b01905060008167ffffffffffffffff811115611f3c57611f3b612867565b5b6040519080825280601f01601f191660200182016040528015611f6e5781602001600182028036833780820191505090505b509050600082602001820190505b600115611fd1578080600190039150507f3031323334353637383961626364656600000000000000000000000000000000600a86061a8153600a8581611fc557611fc4613492565b5b04945060008503611f7c575b819350505050919050565b6000808273ffffffffffffffffffffffffffffffffffffffff163b119050919050565b600073ffffffffffffffffffffffffffffffffffffffff168273ffffffffffffffffffffffffffffffffffffffff160361206e576040517f08c379a0000000000000000000000000000000000000000000000000000000008152600401612065906137e5565b60405180910390fd5b61207781611bbf565b156120b7576040517f08c379a00000000000000000000000000000000000000000000000000000000081526004016120ae90613851565b60405180910390fd5b6120c5600083836001611c00565b6120ce81611bbf565b1561210e576040517f08c379a000000000000000000000000000000000000000000000000000000000815260040161210590613851565b60405180910390fd5b6001600360008473ffffffffffffffffffffffffffffffffffffffff1673ffffffffffffffffffffffffffffffffffffffff16815260200190815260200160002060008282540192505081905550816002600083815260200190815260200160002060006101000a81548173ffffffffffffffffffffffffffffffffffffffff021916908373ffffffffffffffffffffffffffffffffffffffff160217905550808273ffffffffffffffffffffffffffffffffffffffff16600073ffffffffffffffffffffffffffffffffffffffff167fddf252ad1be2c89b69c2b068fc378daa952ba7f163c4a11628f55a4df523b3ef60405160405180910390a4612218600083836001611d26565b5050565b600080600090507a184f03e93ff9f4daa797ed6e38ed64bf6a1f010000000000000000831061227a577a184f03e93ff9f4daa797ed6e38ed64bf6a1f01000000000000000083816122705761226f613492565b5b0492506040810190505b6d04ee2d6d415b85acef810000000083106122b7576d04ee2d6d415b85acef810000000083816122ad576122ac613492565b5b0492506020810190505b662386f26fc1000083106122e657662386f26fc1000083816122dc576122db613492565b5b0492506010810190505b6305f5e100831061230f576305f5e100838161230557612304613492565b5b0492506008810190505b612710831061233457612710838161232a57612329613492565b5b0492506004810190505b60648310612357576064838161234d5761234c613492565b5b0492506002810190505b600a8310612366576001810190505b80915050919050565b6000604051905090565b600080fd5b600080fd5b60007fffffffff0000000000000000000000000000000000000000000000000000000082169050919050565b6123b881612383565b81146123c357600080fd5b50565b6000813590506123d5816123af565b92915050565b6000602082840312156123f1576123f0612379565b5b60006123ff848285016123c6565b91505092915050565b60008115159050919050565b61241d81612408565b82525050565b60006020820190506124386000830184612414565b92915050565b600081519050919050565b600082825260208201905092915050565b60005b8381101561247857808201518184015260208101905061245d565b60008484015250505050565b6000601f19601f8301169050919050565b60006124a08261243e565b6124aa8185612449565b93506124ba81856020860161245a565b6124c381612484565b840191505092915050565b600060208201905081810360008301526124e88184612495565b905092915050565b6000819050919050565b612503816124f0565b811461250e57600080fd5b50565b600081359050612520816124fa565b92915050565b60006020828403121561253c5761253b612379565b5b600061254a84828501612511565b91505092915050565b600073ffffffffffffffffffffffffffffffffffffffff82169050919050565b600061257e82612553565b9050919050565b61258e81612573565b82525050565b60006020820190506125a96000830184612585565b92915050565b6125b881612573565b81146125c357600080fd5b50565b6000813590506125d5816125af565b92915050565b600080604083850312156125f2576125f1612379565b5b6000612600858286016125c6565b925050602061261185828601612511565b9150509250929050565b60008060006060848603121561263457612633612379565b5b6000612642868287016125c6565b9350506020612653868287016125c6565b925050604061266486828701612511565b9150509250925092565b60006020828403121561268457612683612379565b5b6000612692848285016125c6565b91505092915050565b6126a4816124f0565b82525050565b60006020820190506126bf600083018461269b565b92915050565b6000819050919050565b60006126ea6126e56126e084612553565b6126c5565b612553565b9050919050565b60006126fc826126cf565b9050919050565b600061270e826126f1565b9050919050565b61271e81612703565b82525050565b60006020820190506127396000830184612715565b92915050565b61274881612408565b811461275357600080fd5b50565b6000813590506127658161273f565b92915050565b6000806040838503121561278257612781612379565b5b6000612790858286016125c6565b92505060206127a185828601612756565b9150509250929050565b600060ff82169050919050565b6127c1816127ab565b81146127cc57600080fd5b50565b6000813590506127de816127b8565b92915050565b6000602082840312156127fa576127f9612379565b5b6000612808848285016127cf565b91505092915050565b6000608082019050818103600083015261282b8187612495565b905061283a602083018661269b565b612847604083018561269b565b612854606083018461269b565b95945050505050565b600080fd5b600080fd5b7f4e487b7100000000000000000000000000000000000000000000000000000000600052604160045260246000fd5b61289f82612484565b810181811067ffffffffffffffff821117156128be576128bd612867565b5b80604052505050565b60006128d161236f565b90506128dd8282612896565b919050565b600067ffffffffffffffff8211156128fd576128fc612867565b5b61290682612484565b9050602081019050919050565b82818337600083830152505050565b6000612935612930846128e2565b6128c7565b90508281526020810184848401111561295157612950612862565b5b61295c848285612913565b509392505050565b600082601f8301126129795761297861285d565b5b8135612989848260208601612922565b91505092915050565b600080600080608085870312156129ac576129ab612379565b5b60006129ba878288016125c6565b94505060206129cb878288016125c6565b93505060406129dc87828801612511565b925050606085013567ffffffffffffffff8111156129fd576129fc61237e565b5b612a0987828801612964565b91505092959194509250565b600067ffffffffffffffff821115612a3057612a2f612867565b5b612a3982612484565b9050602081019050919050565b6000612a59612a5484612a15565b6128c7565b905082815260208101848484011115612a7557612a74612862565b5b612a80848285612913565b509392505050565b600082601f830112612a9d57612a9c61285d565b5b8135612aad848260208601612a46565b91505092915050565b600060208284031215612acc57612acb612379565b5b600082013567ffffffffffffffff811115612aea57612ae961237e565b5b612af684828501612a88565b91505092915050565b60008060408385031215612b1657612b15612379565b5b6000612b24858286016125c6565b9250506020612b35858286016125c6565b9150509250929050565b612b48816127ab565b82525050565b6000602082019050612b636000830184612b3f565b92915050565b7f4e487b7100000000000000000000000000000000000000000000000000000000600052602260045260246000fd5b60006002820490506001821680612bb057607f821691505b602082108103612bc357612bc2612b69565b5b50919050565b7f4552433732313a20617070726f76616c20746f2063757272656e74206f776e6560008201527f7200000000000000000000000000000000000000000000000000000000000000602082015250565b6000612c25602183612449565b9150612c3082612bc9565b604082019050919050565b60006020820190508181036000830152612c5481612c18565b9050919050565b7f4552433732313a20617070726f76652063616c6c6572206973206e6f7420746f60008201527f6b656e206f776e6572206f7220617070726f76656420666f7220616c6c000000602082015250565b6000612cb7603d83612449565b9150612cc282612c5b565b604082019050919050565b60006020820190508181036000830152612ce681612caa565b9050919050565b7f4552433732313a2063616c6c6572206973206e6f7420746f6b656e206f776e6560008201527f72206f7220617070726f76656400000000000000000000000000000000000000602082015250565b6000612d49602d83612449565b9150612d5482612ced565b604082019050919050565b60006020820190508181036000830152612d7881612d3c565b9050919050565b600081519050612d8e816124fa565b92915050565b600060208284031215612daa57612da9612379565b5b6000612db884828501612d7f565b91505092915050565b7f6e6f7420656e6f7567682046494c2073656e7400000000000000000000000000600082015250565b6000612df7601383612449565b9150612e0282612dc1565b602082019050919050565b60006020820190508181036000830152612e2681612dea565b9050919050565b7f4e487b7100000000000000000000000000000000000000000000000000000000600052601160045260246000fd5b6000612e67826124f0565b9150612e72836124f0565b9250828201905080821115612e8a57612e89612e2d565b5b92915050565b6000604082019050612ea5600083018561269b565b612eb2602083018461269b565b9392505050565b7f4552433732313a20696e76616c696420746f6b656e2049440000000000000000600082015250565b6000612eef601883612449565b9150612efa82612eb9565b602082019050919050565b60006020820190508181036000830152612f1e81612ee2565b9050919050565b7f4552433732313a2061646472657373207a65726f206973206e6f74206120766160008201527f6c6964206f776e65720000000000000000000000000000000000000000000000602082015250565b6000612f81602983612449565b9150612f8c82612f25565b604082019050919050565b60006020820190508181036000830152612fb081612f74565b9050919050565b60008190508160005260206000209050919050565b60006020601f8301049050919050565b600082821b905092915050565b6000600883026130197fffffffffffffffffffffffffffffffffffffffffffffffffffffffffffffffff82612fdc565b6130238683612fdc565b95508019841693508086168417925050509392505050565b600061305661305161304c846124f0565b6126c5565b6124f0565b9050919050565b6000819050919050565b6130708361303b565b61308461307c8261305d565b848454612fe9565b825550505050565b600090565b61309961308c565b6130a4818484613067565b505050565b5b818110156130c8576130bd600082613091565b6001810190506130aa565b5050565b601f82111561310d576130de81612fb7565b6130e784612fcc565b810160208510156130f6578190505b61310a61310285612fcc565b8301826130a9565b50505b505050565b600082821c905092915050565b600061313060001984600802613112565b1980831691505092915050565b6000613149838361311f565b9150826002028217905092915050565b6131628261243e565b67ffffffffffffffff81111561317b5761317a612867565b5b6131858254612b98565b6131908282856130cc565b600060209050601f8311600181146131c357600084156131b1578287015190505b6131bb858261313d565b865550613223565b601f1984166131d186612fb7565b60005b828110156131f9578489015182556001820191506020850194506020810190506131d4565b868310156132165784890151613212601f89168261311f565b8355505b6001600288020188555050505b505050505050565b600081905092915050565b60006132418261243e565b61324b818561322b565b935061325b81856020860161245a565b80840191505092915050565b60006132738285613236565b915061327f8284613236565b91508190509392505050565b7f4e6f7420746865206f776e6572206f662074686520626f6f6b00000000000000600082015250565b60006132c1601983612449565b91506132cc8261328b565b602082019050919050565b600060208201905081810360008301526132f0816132b4565b9050919050565b7f4552433732313a207472616e736665722066726f6d20696e636f72726563742060008201527f6f776e6572000000000000000000000000000000000000000000000000000000602082015250565b6000613353602583612449565b915061335e826132f7565b604082019050919050565b6000602082019050818103600083015261338281613346565b9050919050565b7f4552433732313a207472616e7366657220746f20746865207a65726f2061646460008201527f7265737300000000000000000000000000000000000000000000000000000000602082015250565b60006133e5602483612449565b91506133f082613389565b604082019050919050565b60006020820190508181036000830152613414816133d8565b9050919050565b6000613426826127ab565b9150613431836127ab565b9250828203905060ff81111561344a57613449612e2d565b5b92915050565b600061345b826124f0565b9150613466836124f0565b9250828202613474816124f0565b9150828204841483151761348b5761348a612e2d565b5b5092915050565b7f4e487b7100000000000000000000000000000000000000000000000000000000600052601260045260246000fd5b60006134cc826124f0565b91506134d7836124f0565b9250826134e7576134e6613492565b5b828204905092915050565b7f4552433732313a20617070726f766520746f2063616c6c657200000000000000600082015250565b6000613528601983612449565b9150613533826134f2565b602082019050919050565b600060208201905081810360008301526135578161351b565b9050919050565b7f4552433732313a207472616e7366657220746f206e6f6e20455243373231526560008201527f63656976657220696d706c656d656e7465720000000000000000000000000000602082015250565b60006135ba603283612449565b91506135c58261355e565b604082019050919050565b600060208201905081810360008301526135e9816135ad565b9050919050565b7f45524337323155524953746f726167653a2055524920736574206f66206e6f6e60008201527f6578697374656e7420746f6b656e000000000000000000000000000000000000602082015250565b600061364c602e83612449565b9150613657826135f0565b604082019050919050565b6000602082019050818103600083015261367b8161363f565b9050919050565b600061368d826124f0565b9150613698836124f0565b92508282039050818111156136b0576136af612e2d565b5b92915050565b600081519050919050565b600082825260208201905092915050565b60006136dd826136b6565b6136e781856136c1565b93506136f781856020860161245a565b61370081612484565b840191505092915050565b60006080820190506137206000830187612585565b61372d6020830186612585565b61373a604083018561269b565b818103606083015261374c81846136d2565b905095945050505050565b600081519050613766816123af565b92915050565b60006020828403121561378257613781612379565b5b600061379084828501613757565b91505092915050565b7f4552433732313a206d696e7420746f20746865207a65726f2061646472657373600082015250565b60006137cf602083612449565b91506137da82613799565b602082019050919050565b600060208201905081810360008301526137fe816137c2565b9050919050565b7f4552433732313a20746f6b656e20616c7265616479206d696e74656400000000600082015250565b600061383b601c83612449565b915061384682613805565b602082019050919050565b6000602082019050818103600083015261386a8161382e565b905091905056fea2646970667358221220b1691087df0faacafd2e1138a816512923197a87e7dd52c8f00df611dcda73d764736f6c63430008110033"}