{
  "address": "0x09Ee4E1386fdA55198EFc94487F4fcCB3d335d0F",
  "abi": [
    {
      "inputs": [
        {
          "internalType": "uint8",
          "name": "feePercentage",
          "type": "uint8"
        },
        {
          "internalType": "address",
          "name": "key",
          "type": "address"
        }
      ],
      "stateMutability": "nonpayable",
      "type": "constructor"
    },
    {
      "anonymous": false,
      "inputs": [
        {
          "indexed": true,
          "internalType": "address",
          "name": "owner",
          "type": "address"
        },
        {
          "indexed": true,
          "internalType": "address",
          "name": "approved",
          "type": "address"
        },
        {
          "indexed": true,
          "internalType": "uint256",
          "name": "tokenId",
          "type": "uint256"
        }
      ],
      "name": "Approval",
      "type": "event"
    },
    {
      "anonymous": false,
      "inputs": [
        {
          "indexed": true,
          "internalType": "address",
          "name": "owner",
          "type": "address"
        },
        {
          "indexed": true,
          "internalType": "address",
          "name": "operator",
          "type": "address"
        },
        {
          "indexed": false,
          "internalType": "bool",
          "name": "approved",
          "type": "bool"
        }
      ],
      "name": "ApprovalForAll",
      "type": "event"
    },
    {
      "anonymous": false,
      "inputs": [
        {
          "indexed": false,
          "internalType": "address",
          "name": "author",
          "type": "address"
        },
        {
          "indexed": false,
          "internalType": "string",
          "name": "cid",
          "type": "string"
        },
        {
          "indexed": true,
          "internalType": "uint256",
          "name": "bookId",
          "type": "uint256"
        }
      ],
      "name": "BookCreated",
      "type": "event"
    },
    {
      "anonymous": false,
      "inputs": [
        {
          "indexed": true,
          "internalType": "address",
          "name": "from",
          "type": "address"
        },
        {
          "indexed": true,
          "internalType": "address",
          "name": "to",
          "type": "address"
        },
        {
          "indexed": true,
          "internalType": "uint256",
          "name": "tokenId",
          "type": "uint256"
        }
      ],
      "name": "Transfer",
      "type": "event"
    },
    {
      "inputs": [],
      "name": "_feePercentage",
      "outputs": [
        {
          "internalType": "uint8",
          "name": "",
          "type": "uint8"
        }
      ],
      "stateMutability": "view",
      "type": "function"
    },
    {
      "inputs": [],
      "name": "_key",
      "outputs": [
        {
          "internalType": "contract Key",
          "name": "",
          "type": "address"
        }
      ],
      "stateMutability": "view",
      "type": "function"
    },
    {
      "inputs": [
        {
          "internalType": "address",
          "name": "to",
          "type": "address"
        },
        {
          "internalType": "uint256",
          "name": "tokenId",
          "type": "uint256"
        }
      ],
      "name": "approve",
      "outputs": [],
      "stateMutability": "nonpayable",
      "type": "function"
    },
    {
      "inputs": [
        {
          "internalType": "address",
          "name": "owner",
          "type": "address"
        }
      ],
      "name": "balanceOf",
      "outputs": [
        {
          "internalType": "uint256",
          "name": "",
          "type": "uint256"
        }
      ],
      "stateMutability": "view",
      "type": "function"
    },
    {
      "inputs": [
        {
          "internalType": "uint256",
          "name": "",
          "type": "uint256"
        }
      ],
      "name": "bookIdToBookStruct",
      "outputs": [
        {
          "internalType": "string",
          "name": "cid",
          "type": "string"
        },
        {
          "internalType": "uint256",
          "name": "purchasePrice",
          "type": "uint256"
        },
        {
          "internalType": "uint256",
          "name": "totalRevenue",
          "type": "uint256"
        },
        {
          "internalType": "uint256",
          "name": "pricePerEpoch",
          "type": "uint256"
        }
      ],
      "stateMutability": "view",
      "type": "function"
    },
    {
      "inputs": [
        {
          "internalType": "uint256",
          "name": "bookId",
          "type": "uint256"
        }
      ],
      "name": "buyAccess",
      "outputs": [],
      "stateMutability": "payable",
      "type": "function"
    },
    {
      "inputs": [
        {
          "internalType": "uint256",
          "name": "keyId",
          "type": "uint256"
        }
      ],
      "name": "buyBookOwnership",
      "outputs": [],
      "stateMutability": "nonpayable",
      "type": "function"
    },
    {
      "inputs": [
        {
          "internalType": "uint256",
          "name": "bookId",
          "type": "uint256"
        },
        {
          "internalType": "address",
          "name": "caller",
          "type": "address"
        }
      ],
      "name": "canAccessBook",
      "outputs": [
        {
          "internalType": "bool",
          "name": "",
          "type": "bool"
        }
      ],
      "stateMutability": "view",
      "type": "function"
    },
    {
      "inputs": [
        {
          "internalType": "string",
          "name": "cid",
          "type": "string"
        }
      ],
      "name": "createBook",
      "outputs": [],
      "stateMutability": "nonpayable",
      "type": "function"
    },
    {
      "inputs": [
        {
          "internalType": "uint256",
          "name": "keyId",
          "type": "uint256"
        }
      ],
      "name": "createCollection",
      "outputs": [],
      "stateMutability": "nonpayable",
      "type": "function"
    },
    {
      "inputs": [
        {
          "internalType": "uint256",
          "name": "tokenId",
          "type": "uint256"
        }
      ],
      "name": "getApproved",
      "outputs": [
        {
          "internalType": "address",
          "name": "",
          "type": "address"
        }
      ],
      "stateMutability": "view",
      "type": "function"
    },
    {
      "inputs": [
        {
          "internalType": "uint256",
          "name": "bookId",
          "type": "uint256"
        }
      ],
      "name": "getPurchasePrice",
      "outputs": [
        {
          "internalType": "uint256",
          "name": "",
          "type": "uint256"
        }
      ],
      "stateMutability": "view",
      "type": "function"
    },
    {
      "inputs": [
        {
          "internalType": "address",
          "name": "owner",
          "type": "address"
        },
        {
          "internalType": "address",
          "name": "operator",
          "type": "address"
        }
      ],
      "name": "isApprovedForAll",
      "outputs": [
        {
          "internalType": "bool",
          "name": "",
          "type": "bool"
        }
      ],
      "stateMutability": "view",
      "type": "function"
    },
    {
      "inputs": [],
      "name": "name",
      "outputs": [
        {
          "internalType": "string",
          "name": "",
          "type": "string"
        }
      ],
      "stateMutability": "view",
      "type": "function"
    },
    {
      "inputs": [
        {
          "internalType": "uint256",
          "name": "tokenId",
          "type": "uint256"
        }
      ],
      "name": "ownerOf",
      "outputs": [
        {
          "internalType": "address",
          "name": "",
          "type": "address"
        }
      ],
      "stateMutability": "view",
      "type": "function"
    },
    {
      "inputs": [
        {
          "internalType": "uint256",
          "name": "keyId",
          "type": "uint256"
        }
      ],
      "name": "rentAccessToBook",
      "outputs": [],
      "stateMutability": "nonpayable",
      "type": "function"
    },
    {
      "inputs": [
        {
          "internalType": "address",
          "name": "from",
          "type": "address"
        },
        {
          "internalType": "address",
          "name": "to",
          "type": "address"
        },
        {
          "internalType": "uint256",
          "name": "tokenId",
          "type": "uint256"
        }
      ],
      "name": "safeTransferFrom",
      "outputs": [],
      "stateMutability": "nonpayable",
      "type": "function"
    },
    {
      "inputs": [
        {
          "internalType": "address",
          "name": "from",
          "type": "address"
        },
        {
          "internalType": "address",
          "name": "to",
          "type": "address"
        },
        {
          "internalType": "uint256",
          "name": "tokenId",
          "type": "uint256"
        },
        {
          "internalType": "bytes",
          "name": "data",
          "type": "bytes"
        }
      ],
      "name": "safeTransferFrom",
      "outputs": [],
      "stateMutability": "nonpayable",
      "type": "function"
    },
    {
      "inputs": [
        {
          "internalType": "uint256",
          "name": "keyId",
          "type": "uint256"
        }
      ],
      "name": "sellBookOwnership",
      "outputs": [],
      "stateMutability": "nonpayable",
      "type": "function"
    },
    {
      "inputs": [
        {
          "internalType": "address",
          "name": "operator",
          "type": "address"
        },
        {
          "internalType": "bool",
          "name": "approved",
          "type": "bool"
        }
      ],
      "name": "setApprovalForAll",
      "outputs": [],
      "stateMutability": "nonpayable",
      "type": "function"
    },
    {
      "inputs": [
        {
          "internalType": "uint256",
          "name": "bookId",
          "type": "uint256"
        },
        {
          "internalType": "uint256",
          "name": "purchasePrice",
          "type": "uint256"
        },
        {
          "internalType": "uint256",
          "name": "rentPrice",
          "type": "uint256"
        }
      ],
      "name": "setBookPrice",
      "outputs": [],
      "stateMutability": "nonpayable",
      "type": "function"
    },
    {
      "inputs": [
        {
          "internalType": "uint8",
          "name": "feePercentage",
          "type": "uint8"
        }
      ],
      "name": "setFeePercentage",
      "outputs": [],
      "stateMutability": "nonpayable",
      "type": "function"
    },
    {
      "inputs": [
        {
          "internalType": "bytes4",
          "name": "interfaceId",
          "type": "bytes4"
        }
      ],
      "name": "supportsInterface",
      "outputs": [
        {
          "internalType": "bool",
          "name": "",
          "type": "bool"
        }
      ],
      "stateMutability": "view",
      "type": "function"
    },
    {
      "inputs": [],
      "name": "symbol",
      "outputs": [
        {
          "internalType": "string",
          "name": "",
          "type": "string"
        }
      ],
      "stateMutability": "view",
      "type": "function"
    },
    {
      "inputs": [
        {
          "internalType": "uint256",
          "name": "tokenId",
          "type": "uint256"
        }
      ],
      "name": "tokenURI",
      "outputs": [
        {
          "internalType": "string",
          "name": "",
          "type": "string"
        }
      ],
      "stateMutability": "view",
      "type": "function"
    },
    {
      "inputs": [
        {
          "internalType": "address",
          "name": "from",
          "type": "address"
        },
        {
          "internalType": "address",
          "name": "to",
          "type": "address"
        },
        {
          "internalType": "uint256",
          "name": "tokenId",
          "type": "uint256"
        }
      ],
      "name": "transferFrom",
      "outputs": [],
      "stateMutability": "nonpayable",
      "type": "function"
    },
    {
      "inputs": [
        {
          "internalType": "uint256",
          "name": "bookId",
          "type": "uint256"
        }
      ],
      "name": "withdrawProfit",
      "outputs": [],
      "stateMutability": "payable",
      "type": "function"
    }
  ],
  "bytecode": "0x60a06040523480156200001157600080fd5b5060405162003f7738038062003f778339818101604052810190620000379190620001c8565b6040518060400160405280600481526020017f426f6f6b000000000000000000000000000000000000000000000000000000008152506040518060400160405280600281526020017f426b0000000000000000000000000000000000000000000000000000000000008152508160009081620000b4919062000489565b508060019081620000c6919062000489565b50505081600860006101000a81548160ff021916908360ff1602179055508073ffffffffffffffffffffffffffffffffffffffff1660808173ffffffffffffffffffffffffffffffffffffffff1681525050505062000570565b600080fd5b600060ff82169050919050565b6200013d8162000125565b81146200014957600080fd5b50565b6000815190506200015d8162000132565b92915050565b600073ffffffffffffffffffffffffffffffffffffffff82169050919050565b6000620001908262000163565b9050919050565b620001a28162000183565b8114620001ae57600080fd5b50565b600081519050620001c28162000197565b92915050565b60008060408385031215620001e257620001e162000120565b5b6000620001f2858286016200014c565b92505060206200020585828601620001b1565b9150509250929050565b600081519050919050565b7f4e487b7100000000000000000000000000000000000000000000000000000000600052604160045260246000fd5b7f4e487b7100000000000000000000000000000000000000000000000000000000600052602260045260246000fd5b600060028204905060018216806200029157607f821691505b602082108103620002a757620002a662000249565b5b50919050565b60008190508160005260206000209050919050565b60006020601f8301049050919050565b600082821b905092915050565b600060088302620003117fffffffffffffffffffffffffffffffffffffffffffffffffffffffffffffffff82620002d2565b6200031d8683620002d2565b95508019841693508086168417925050509392505050565b6000819050919050565b6000819050919050565b60006200036a620003646200035e8462000335565b6200033f565b62000335565b9050919050565b6000819050919050565b620003868362000349565b6200039e620003958262000371565b848454620002df565b825550505050565b600090565b620003b5620003a6565b620003c28184846200037b565b505050565b5b81811015620003ea57620003de600082620003ab565b600181019050620003c8565b5050565b601f82111562000439576200040381620002ad565b6200040e84620002c2565b810160208510156200041e578190505b620004366200042d85620002c2565b830182620003c7565b50505b505050565b600082821c905092915050565b60006200045e600019846008026200043e565b1980831691505092915050565b60006200047983836200044b565b9150826002028217905092915050565b62000494826200020f565b67ffffffffffffffff811115620004b057620004af6200021a565b5b620004bc825462000278565b620004c9828285620003ee565b600060209050601f831160018114620005015760008415620004ec578287015190505b620004f885826200046b565b86555062000568565b601f1984166200051186620002ad565b60005b828110156200053b5784890151825560018201915060208501945060208101905062000514565b868310156200055b578489015162000557601f8916826200044b565b8355505b6001600288020188555050505b505050505050565b6080516139d6620005a160003960008181610a0a01528181610b1701528181610c820152610e5101526139d66000f3fe60806040526004361061019c5760003560e01c80639072df6b116100ec578063c59d56331161008a578063d82a2bea11610064578063d82a2bea146105ec578063e985e9c514610608578063f699343e14610645578063f9c9c878146106705761019c565b8063c59d563314610549578063c87b56dd14610586578063d0011d9d146105c35761019c565b8063a5766aa6116100c6578063a5766aa61461048e578063b75174f0146104b7578063b88d4fde146104f7578063b9f72b7d146105205761019c565b80639072df6b1461041157806395d89b411461043a578063a22cb465146104655761019c565b806336d964121161015957806350a1a2641161013357806350a1a264146103505780636352211e1461036c57806370a08231146103a957806374ad7ac4146103e65761019c565b806336d96412146102c157806342842e0e146102fe5780634ba8b733146103275761019c565b806301ffc9a7146101a157806304ed5917146101de57806306fdde0314610207578063081812fc14610232578063095ea7b31461026f57806323b872dd14610298575b600080fd5b3480156101ad57600080fd5b506101c860048036038101906101c39190612447565b610699565b6040516101d5919061248f565b60405180910390f35b3480156101ea57600080fd5b50610205600480360381019061020091906124e0565b61077b565b005b34801561021357600080fd5b5061021c6107b6565b60405161022991906125c3565b60405180910390f35b34801561023e57600080fd5b50610259600480360381019061025491906125e5565b610848565b6040516102669190612653565b60405180910390f35b34801561027b57600080fd5b506102966004803603810190610291919061269a565b61088e565b005b3480156102a457600080fd5b506102bf60048036038101906102ba91906126da565b6109a5565b005b3480156102cd57600080fd5b506102e860048036038101906102e3919061272d565b610a05565b6040516102f5919061248f565b60405180910390f35b34801561030a57600080fd5b50610325600480360381019061032091906126da565b610af0565b005b34801561033357600080fd5b5061034e600480360381019061034991906125e5565b610b10565b005b61036a600480360381019061036591906125e5565b610b13565b005b34801561037857600080fd5b50610393600480360381019061038e91906125e5565b610d12565b6040516103a09190612653565b60405180910390f35b3480156103b557600080fd5b506103d060048036038101906103cb919061276d565b610d98565b6040516103dd91906127a9565b60405180910390f35b3480156103f257600080fd5b506103fb610e4f565b6040516104089190612823565b60405180910390f35b34801561041d57600080fd5b50610438600480360381019061043391906125e5565b610e73565b005b34801561044657600080fd5b5061044f610e76565b60405161045c91906125c3565b60405180910390f35b34801561047157600080fd5b5061048c6004803603810190610487919061286a565b610f08565b005b34801561049a57600080fd5b506104b560048036038101906104b091906128e3565b610f1e565b005b3480156104c357600080fd5b506104de60048036038101906104d991906125e5565b610f3c565b6040516104ee9493929190612910565b60405180910390f35b34801561050357600080fd5b5061051e60048036038101906105199190612a91565b610ff4565b005b34801561052c57600080fd5b5061054760048036038101906105429190612bb5565b611056565b005b34801561055557600080fd5b50610570600480360381019061056b91906125e5565b6110ea565b60405161057d91906127a9565b60405180910390f35b34801561059257600080fd5b506105ad60048036038101906105a891906125e5565b61110a565b6040516105ba91906125c3565b60405180910390f35b3480156105cf57600080fd5b506105ea60048036038101906105e591906125e5565b61121c565b005b610606600480360381019061060191906125e5565b61121f565b005b34801561061457600080fd5b5061062f600480360381019061062a9190612bfe565b611319565b60405161063c919061248f565b60405180910390f35b34801561065157600080fd5b5061065a6113ad565b6040516106679190612c4d565b60405180910390f35b34801561067c57600080fd5b50610697600480360381019061069291906125e5565b6113c0565b005b60007f80ac58cd000000000000000000000000000000000000000000000000000000007bffffffffffffffffffffffffffffffffffffffffffffffffffffffff1916827bffffffffffffffffffffffffffffffffffffffffffffffffffffffff1916148061076457507f5b5e139f000000000000000000000000000000000000000000000000000000007bffffffffffffffffffffffffffffffffffffffffffffffffffffffff1916827bffffffffffffffffffffffffffffffffffffffffffffffffffffffff1916145b806107745750610773826113c3565b5b9050919050565b816009600085815260200190815260200160002060010181905550806009600085815260200190815260200160002060030181905550505050565b6060600080546107c590612c97565b80601f01602080910402602001604051908101604052809291908181526020018280546107f190612c97565b801561083e5780601f106108135761010080835404028352916020019161083e565b820191906000526020600020905b81548152906001019060200180831161082157829003601f168201915b5050505050905090565b60006108538261142d565b6004600083815260200190815260200160002060009054906101000a900473ffffffffffffffffffffffffffffffffffffffff169050919050565b600061089982610d12565b90508073ffffffffffffffffffffffffffffffffffffffff168373ffffffffffffffffffffffffffffffffffffffff1603610909576040517f08c379a000000000000000000000000000000000000000000000000000000000815260040161090090612d3a565b60405180910390fd5b8073ffffffffffffffffffffffffffffffffffffffff16610928611478565b73ffffffffffffffffffffffffffffffffffffffff161480610957575061095681610951611478565b611319565b5b610996576040517f08c379a000000000000000000000000000000000000000000000000000000000815260040161098d90612dcc565b60405180910390fd5b6109a08383611480565b505050565b6109b66109b0611478565b82611539565b6109f5576040517f08c379a00000000000000000000000000000000000000000000000000000000081526004016109ec90612e5e565b60405180910390fd5b610a008383836115ce565b505050565b6000807f000000000000000000000000000000000000000000000000000000000000000073ffffffffffffffffffffffffffffffffffffffff1663745c84ca846040518263ffffffff1660e01b8152600401610a619190612653565b602060405180830381865afa158015610a7e573d6000803e3d6000fd5b505050506040513d601f19601f82011682018060405250810190610aa29190612e93565b9050600060096000868152602001908152602001600020905042816004016000848152602001908152602001600020541115610ae357600192505050610aea565b6000925050505b92915050565b610b0b83838360405180602001604052806000815250610ff4565b505050565b50565b60007f000000000000000000000000000000000000000000000000000000000000000073ffffffffffffffffffffffffffffffffffffffff1663745c84ca336040518263ffffffff1660e01b8152600401610b6e9190612653565b602060405180830381865afa158015610b8b573d6000803e3d6000fd5b505050506040513d601f19601f82011682018060405250810190610baf9190612e93565b905060006009600084815260200190815260200160002090508060010154341015610c0f576040517f08c379a0000000000000000000000000000000000000000000000000000000008152600401610c0690612f0c565b60405180910390fd5b7fffffffffffffffffffffffffffffffffffffffffffffffffffffffffffffffff81600401600084815260200190815260200160002081905550610c66600860009054906101000a900460ff1682600101546118c7565b816002016000828254610c799190612f5b565b925050819055507f000000000000000000000000000000000000000000000000000000000000000073ffffffffffffffffffffffffffffffffffffffff16632597e04783856040518363ffffffff1660e01b8152600401610cdb929190612f8f565b600060405180830381600087803b158015610cf557600080fd5b505af1158015610d09573d6000803e3d6000fd5b50505050505050565b600080610d1e836118f8565b9050600073ffffffffffffffffffffffffffffffffffffffff168173ffffffffffffffffffffffffffffffffffffffff1603610d8f576040517f08c379a0000000000000000000000000000000000000000000000000000000008152600401610d8690613004565b60405180910390fd5b80915050919050565b60008073ffffffffffffffffffffffffffffffffffffffff168273ffffffffffffffffffffffffffffffffffffffff1603610e08576040517f08c379a0000000000000000000000000000000000000000000000000000000008152600401610dff90613096565b60405180910390fd5b600360008373ffffffffffffffffffffffffffffffffffffffff1673ffffffffffffffffffffffffffffffffffffffff168152602001908152602001600020549050919050565b7f000000000000000000000000000000000000000000000000000000000000000081565b50565b606060018054610e8590612c97565b80601f0160208091040260200160405190810160405280929190818152602001828054610eb190612c97565b8015610efe5780601f10610ed357610100808354040283529160200191610efe565b820191906000526020600020905b815481529060010190602001808311610ee157829003601f168201915b5050505050905090565b610f1a610f13611478565b8383611935565b5050565b80600860006101000a81548160ff021916908360ff16021790555050565b6009602052806000526040600020600091509050806000018054610f5f90612c97565b80601f0160208091040260200160405190810160405280929190818152602001828054610f8b90612c97565b8015610fd85780601f10610fad57610100808354040283529160200191610fd8565b820191906000526020600020905b815481529060010190602001808311610fbb57829003601f168201915b5050505050908060010154908060020154908060030154905084565b611005610fff611478565b83611539565b611044576040517f08c379a000000000000000000000000000000000000000000000000000000000815260040161103b90612e5e565b60405180910390fd5b61105084848484611aa1565b50505050565b6110606007611afd565b600061106c6007611b13565b90506110783382611b21565b6110828183611b3f565b6000600960008381526020019081526020016000209050828160000190816110aa9190613258565b50817f6f10a189e74c40865dbc37544147d0a3d57b2a5e5100daf4cd09cff5a9033c7233856040516110dd92919061332a565b60405180910390a2505050565b600060096000838152602001908152602001600020600101549050919050565b60606111158261142d565b600060066000848152602001908152602001600020805461113590612c97565b80601f016020809104026020016040519081016040528092919081815260200182805461116190612c97565b80156111ae5780601f10611183576101008083540402835291602001916111ae565b820191906000526020600020905b81548152906001019060200180831161119157829003601f168201915b5050505050905060006111bf611bac565b905060008151036111d4578192505050611217565b6000825111156112095780826040516020016111f1929190613396565b60405160208183030381529060405292505050611217565b61121284611bc3565b925050505b919050565b50565b3373ffffffffffffffffffffffffffffffffffffffff1661123f82610d12565b73ffffffffffffffffffffffffffffffffffffffff1614611295576040517f08c379a000000000000000000000000000000000000000000000000000000000815260040161128c90613406565b60405180910390fd5b600060096000838152602001908152602001600020600201819055506112ba81610d12565b73ffffffffffffffffffffffffffffffffffffffff166108fc60096000848152602001908152602001600020600201549081150290604051600060405180830381858888f19350505050158015611315573d6000803e3d6000fd5b5050565b6000600560008473ffffffffffffffffffffffffffffffffffffffff1673ffffffffffffffffffffffffffffffffffffffff16815260200190815260200160002060008373ffffffffffffffffffffffffffffffffffffffff1673ffffffffffffffffffffffffffffffffffffffff16815260200190815260200160002060009054906101000a900460ff16905092915050565b600860009054906101000a900460ff1681565b50565b60007f01ffc9a7000000000000000000000000000000000000000000000000000000007bffffffffffffffffffffffffffffffffffffffffffffffffffffffff1916827bffffffffffffffffffffffffffffffffffffffffffffffffffffffff1916149050919050565b61143681611c2b565b611475576040517f08c379a000000000000000000000000000000000000000000000000000000000815260040161146c90613004565b60405180910390fd5b50565b600033905090565b816004600083815260200190815260200160002060006101000a81548173ffffffffffffffffffffffffffffffffffffffff021916908373ffffffffffffffffffffffffffffffffffffffff160217905550808273ffffffffffffffffffffffffffffffffffffffff166114f383610d12565b73ffffffffffffffffffffffffffffffffffffffff167f8c5be1e5ebec7d5bd14f71427d1e84f3dd0314c0f7b2291e5b200ac8c7c3b92560405160405180910390a45050565b60008061154583610d12565b90508073ffffffffffffffffffffffffffffffffffffffff168473ffffffffffffffffffffffffffffffffffffffff16148061158757506115868185611319565b5b806115c557508373ffffffffffffffffffffffffffffffffffffffff166115ad84610848565b73ffffffffffffffffffffffffffffffffffffffff16145b91505092915050565b8273ffffffffffffffffffffffffffffffffffffffff166115ee82610d12565b73ffffffffffffffffffffffffffffffffffffffff1614611644576040517f08c379a000000000000000000000000000000000000000000000000000000000815260040161163b90613498565b60405180910390fd5b600073ffffffffffffffffffffffffffffffffffffffff168273ffffffffffffffffffffffffffffffffffffffff16036116b3576040517f08c379a00000000000000000000000000000000000000000000000000000000081526004016116aa9061352a565b60405180910390fd5b6116c08383836001611c6c565b8273ffffffffffffffffffffffffffffffffffffffff166116e082610d12565b73ffffffffffffffffffffffffffffffffffffffff1614611736576040517f08c379a000000000000000000000000000000000000000000000000000000000815260040161172d90613498565b60405180910390fd5b6004600082815260200190815260200160002060006101000a81549073ffffffffffffffffffffffffffffffffffffffff02191690556001600360008573ffffffffffffffffffffffffffffffffffffffff1673ffffffffffffffffffffffffffffffffffffffff168152602001908152602001600020600082825403925050819055506001600360008473ffffffffffffffffffffffffffffffffffffffff1673ffffffffffffffffffffffffffffffffffffffff16815260200190815260200160002060008282540192505081905550816002600083815260200190815260200160002060006101000a81548173ffffffffffffffffffffffffffffffffffffffff021916908373ffffffffffffffffffffffffffffffffffffffff160217905550808273ffffffffffffffffffffffffffffffffffffffff168473ffffffffffffffffffffffffffffffffffffffff167fddf252ad1be2c89b69c2b068fc378daa952ba7f163c4a11628f55a4df523b3ef60405160405180910390a46118c28383836001611d92565b505050565b60006064828460646118d9919061354a565b60ff166118e6919061357f565b6118f091906135f0565b905092915050565b60006002600083815260200190815260200160002060009054906101000a900473ffffffffffffffffffffffffffffffffffffffff169050919050565b8173ffffffffffffffffffffffffffffffffffffffff168373ffffffffffffffffffffffffffffffffffffffff16036119a3576040517f08c379a000000000000000000000000000000000000000000000000000000000815260040161199a9061366d565b60405180910390fd5b80600560008573ffffffffffffffffffffffffffffffffffffffff1673ffffffffffffffffffffffffffffffffffffffff16815260200190815260200160002060008473ffffffffffffffffffffffffffffffffffffffff1673ffffffffffffffffffffffffffffffffffffffff16815260200190815260200160002060006101000a81548160ff0219169083151502179055508173ffffffffffffffffffffffffffffffffffffffff168373ffffffffffffffffffffffffffffffffffffffff167f17307eab39ab6107e8899845ad3d59bd9653f200f220920489ca2b5937696c3183604051611a94919061248f565b60405180910390a3505050565b611aac8484846115ce565b611ab884848484611d98565b611af7576040517f08c379a0000000000000000000000000000000000000000000000000000000008152600401611aee906136ff565b60405180910390fd5b50505050565b6001816000016000828254019250508190555050565b600081600001549050919050565b611b3b828260405180602001604052806000815250611f1f565b5050565b611b4882611c2b565b611b87576040517f08c379a0000000000000000000000000000000000000000000000000000000008152600401611b7e90613791565b60405180910390fd5b80600660008481526020019081526020016000209081611ba79190613258565b505050565b606060405180602001604052806000815250905090565b6060611bce8261142d565b6000611bd8611bac565b90506000815111611bf85760405180602001604052806000815250611c23565b80611c0284611f7a565b604051602001611c13929190613396565b6040516020818303038152906040525b915050919050565b60008073ffffffffffffffffffffffffffffffffffffffff16611c4d836118f8565b73ffffffffffffffffffffffffffffffffffffffff1614159050919050565b6001811115611d8c57600073ffffffffffffffffffffffffffffffffffffffff168473ffffffffffffffffffffffffffffffffffffffff1614611d005780600360008673ffffffffffffffffffffffffffffffffffffffff1673ffffffffffffffffffffffffffffffffffffffff1681526020019081526020016000206000828254611cf891906137b1565b925050819055505b600073ffffffffffffffffffffffffffffffffffffffff168373ffffffffffffffffffffffffffffffffffffffff1614611d8b5780600360008573ffffffffffffffffffffffffffffffffffffffff1673ffffffffffffffffffffffffffffffffffffffff1681526020019081526020016000206000828254611d839190612f5b565b925050819055505b5b50505050565b50505050565b6000611db98473ffffffffffffffffffffffffffffffffffffffff16612048565b15611f12578373ffffffffffffffffffffffffffffffffffffffff1663150b7a02611de2611478565b8786866040518563ffffffff1660e01b8152600401611e04949392919061383a565b6020604051808303816000875af1925050508015611e4057506040513d601f19601f82011682018060405250810190611e3d919061389b565b60015b611ec2573d8060008114611e70576040519150601f19603f3d011682016040523d82523d6000602084013e611e75565b606091505b506000815103611eba576040517f08c379a0000000000000000000000000000000000000000000000000000000008152600401611eb1906136ff565b60405180910390fd5b805181602001fd5b63150b7a0260e01b7bffffffffffffffffffffffffffffffffffffffffffffffffffffffff1916817bffffffffffffffffffffffffffffffffffffffffffffffffffffffff191614915050611f17565b600190505b949350505050565b611f29838361206b565b611f366000848484611d98565b611f75576040517f08c379a0000000000000000000000000000000000000000000000000000000008152600401611f6c906136ff565b60405180910390fd5b505050565b606060006001611f8984612288565b01905060008167ffffffffffffffff811115611fa857611fa7612966565b5b6040519080825280601f01601f191660200182016040528015611fda5781602001600182028036833780820191505090505b509050600082602001820190505b60011561203d578080600190039150507f3031323334353637383961626364656600000000000000000000000000000000600a86061a8153600a8581612031576120306135c1565b5b04945060008503611fe8575b819350505050919050565b6000808273ffffffffffffffffffffffffffffffffffffffff163b119050919050565b600073ffffffffffffffffffffffffffffffffffffffff168273ffffffffffffffffffffffffffffffffffffffff16036120da576040517f08c379a00000000000000000000000000000000000000000000000000000000081526004016120d190613914565b60405180910390fd5b6120e381611c2b565b15612123576040517f08c379a000000000000000000000000000000000000000000000000000000000815260040161211a90613980565b60405180910390fd5b612131600083836001611c6c565b61213a81611c2b565b1561217a576040517f08c379a000000000000000000000000000000000000000000000000000000000815260040161217190613980565b60405180910390fd5b6001600360008473ffffffffffffffffffffffffffffffffffffffff1673ffffffffffffffffffffffffffffffffffffffff16815260200190815260200160002060008282540192505081905550816002600083815260200190815260200160002060006101000a81548173ffffffffffffffffffffffffffffffffffffffff021916908373ffffffffffffffffffffffffffffffffffffffff160217905550808273ffffffffffffffffffffffffffffffffffffffff16600073ffffffffffffffffffffffffffffffffffffffff167fddf252ad1be2c89b69c2b068fc378daa952ba7f163c4a11628f55a4df523b3ef60405160405180910390a4612284600083836001611d92565b5050565b600080600090507a184f03e93ff9f4daa797ed6e38ed64bf6a1f01000000000000000083106122e6577a184f03e93ff9f4daa797ed6e38ed64bf6a1f01000000000000000083816122dc576122db6135c1565b5b0492506040810190505b6d04ee2d6d415b85acef81000000008310612323576d04ee2d6d415b85acef81000000008381612319576123186135c1565b5b0492506020810190505b662386f26fc10000831061235257662386f26fc100008381612348576123476135c1565b5b0492506010810190505b6305f5e100831061237b576305f5e1008381612371576123706135c1565b5b0492506008810190505b61271083106123a0576127108381612396576123956135c1565b5b0492506004810190505b606483106123c357606483816123b9576123b86135c1565b5b0492506002810190505b600a83106123d2576001810190505b80915050919050565b6000604051905090565b600080fd5b600080fd5b60007fffffffff0000000000000000000000000000000000000000000000000000000082169050919050565b612424816123ef565b811461242f57600080fd5b50565b6000813590506124418161241b565b92915050565b60006020828403121561245d5761245c6123e5565b5b600061246b84828501612432565b91505092915050565b60008115159050919050565b61248981612474565b82525050565b60006020820190506124a46000830184612480565b92915050565b6000819050919050565b6124bd816124aa565b81146124c857600080fd5b50565b6000813590506124da816124b4565b92915050565b6000806000606084860312156124f9576124f86123e5565b5b6000612507868287016124cb565b9350506020612518868287016124cb565b9250506040612529868287016124cb565b9150509250925092565b600081519050919050565b600082825260208201905092915050565b60005b8381101561256d578082015181840152602081019050612552565b60008484015250505050565b6000601f19601f8301169050919050565b600061259582612533565b61259f818561253e565b93506125af81856020860161254f565b6125b881612579565b840191505092915050565b600060208201905081810360008301526125dd818461258a565b905092915050565b6000602082840312156125fb576125fa6123e5565b5b6000612609848285016124cb565b91505092915050565b600073ffffffffffffffffffffffffffffffffffffffff82169050919050565b600061263d82612612565b9050919050565b61264d81612632565b82525050565b60006020820190506126686000830184612644565b92915050565b61267781612632565b811461268257600080fd5b50565b6000813590506126948161266e565b92915050565b600080604083850312156126b1576126b06123e5565b5b60006126bf85828601612685565b92505060206126d0858286016124cb565b9150509250929050565b6000806000606084860312156126f3576126f26123e5565b5b600061270186828701612685565b935050602061271286828701612685565b9250506040612723868287016124cb565b9150509250925092565b60008060408385031215612744576127436123e5565b5b6000612752858286016124cb565b925050602061276385828601612685565b9150509250929050565b600060208284031215612783576127826123e5565b5b600061279184828501612685565b91505092915050565b6127a3816124aa565b82525050565b60006020820190506127be600083018461279a565b92915050565b6000819050919050565b60006127e96127e46127df84612612565b6127c4565b612612565b9050919050565b60006127fb826127ce565b9050919050565b600061280d826127f0565b9050919050565b61281d81612802565b82525050565b60006020820190506128386000830184612814565b92915050565b61284781612474565b811461285257600080fd5b50565b6000813590506128648161283e565b92915050565b60008060408385031215612881576128806123e5565b5b600061288f85828601612685565b92505060206128a085828601612855565b9150509250929050565b600060ff82169050919050565b6128c0816128aa565b81146128cb57600080fd5b50565b6000813590506128dd816128b7565b92915050565b6000602082840312156128f9576128f86123e5565b5b6000612907848285016128ce565b91505092915050565b6000608082019050818103600083015261292a818761258a565b9050612939602083018661279a565b612946604083018561279a565b612953606083018461279a565b95945050505050565b600080fd5b600080fd5b7f4e487b7100000000000000000000000000000000000000000000000000000000600052604160045260246000fd5b61299e82612579565b810181811067ffffffffffffffff821117156129bd576129bc612966565b5b80604052505050565b60006129d06123db565b90506129dc8282612995565b919050565b600067ffffffffffffffff8211156129fc576129fb612966565b5b612a0582612579565b9050602081019050919050565b82818337600083830152505050565b6000612a34612a2f846129e1565b6129c6565b905082815260208101848484011115612a5057612a4f612961565b5b612a5b848285612a12565b509392505050565b600082601f830112612a7857612a7761295c565b5b8135612a88848260208601612a21565b91505092915050565b60008060008060808587031215612aab57612aaa6123e5565b5b6000612ab987828801612685565b9450506020612aca87828801612685565b9350506040612adb878288016124cb565b925050606085013567ffffffffffffffff811115612afc57612afb6123ea565b5b612b0887828801612a63565b91505092959194509250565b600067ffffffffffffffff821115612b2f57612b2e612966565b5b612b3882612579565b9050602081019050919050565b6000612b58612b5384612b14565b6129c6565b905082815260208101848484011115612b7457612b73612961565b5b612b7f848285612a12565b509392505050565b600082601f830112612b9c57612b9b61295c565b5b8135612bac848260208601612b45565b91505092915050565b600060208284031215612bcb57612bca6123e5565b5b600082013567ffffffffffffffff811115612be957612be86123ea565b5b612bf584828501612b87565b91505092915050565b60008060408385031215612c1557612c146123e5565b5b6000612c2385828601612685565b9250506020612c3485828601612685565b9150509250929050565b612c47816128aa565b82525050565b6000602082019050612c626000830184612c3e565b92915050565b7f4e487b7100000000000000000000000000000000000000000000000000000000600052602260045260246000fd5b60006002820490506001821680612caf57607f821691505b602082108103612cc257612cc1612c68565b5b50919050565b7f4552433732313a20617070726f76616c20746f2063757272656e74206f776e6560008201527f7200000000000000000000000000000000000000000000000000000000000000602082015250565b6000612d2460218361253e565b9150612d2f82612cc8565b604082019050919050565b60006020820190508181036000830152612d5381612d17565b9050919050565b7f4552433732313a20617070726f76652063616c6c6572206973206e6f7420746f60008201527f6b656e206f776e6572206f7220617070726f76656420666f7220616c6c000000602082015250565b6000612db6603d8361253e565b9150612dc182612d5a565b604082019050919050565b60006020820190508181036000830152612de581612da9565b9050919050565b7f4552433732313a2063616c6c6572206973206e6f7420746f6b656e206f776e6560008201527f72206f7220617070726f76656400000000000000000000000000000000000000602082015250565b6000612e48602d8361253e565b9150612e5382612dec565b604082019050919050565b60006020820190508181036000830152612e7781612e3b565b9050919050565b600081519050612e8d816124b4565b92915050565b600060208284031215612ea957612ea86123e5565b5b6000612eb784828501612e7e565b91505092915050565b7f6e6f7420656e6f7567682046494c2073656e7400000000000000000000000000600082015250565b6000612ef660138361253e565b9150612f0182612ec0565b602082019050919050565b60006020820190508181036000830152612f2581612ee9565b9050919050565b7f4e487b7100000000000000000000000000000000000000000000000000000000600052601160045260246000fd5b6000612f66826124aa565b9150612f71836124aa565b9250828201905080821115612f8957612f88612f2c565b5b92915050565b6000604082019050612fa4600083018561279a565b612fb1602083018461279a565b9392505050565b7f4552433732313a20696e76616c696420746f6b656e2049440000000000000000600082015250565b6000612fee60188361253e565b9150612ff982612fb8565b602082019050919050565b6000602082019050818103600083015261301d81612fe1565b9050919050565b7f4552433732313a2061646472657373207a65726f206973206e6f74206120766160008201527f6c6964206f776e65720000000000000000000000000000000000000000000000602082015250565b600061308060298361253e565b915061308b82613024565b604082019050919050565b600060208201905081810360008301526130af81613073565b9050919050565b60008190508160005260206000209050919050565b60006020601f8301049050919050565b600082821b905092915050565b6000600883026131187fffffffffffffffffffffffffffffffffffffffffffffffffffffffffffffffff826130db565b61312286836130db565b95508019841693508086168417925050509392505050565b600061315561315061314b846124aa565b6127c4565b6124aa565b9050919050565b6000819050919050565b61316f8361313a565b61318361317b8261315c565b8484546130e8565b825550505050565b600090565b61319861318b565b6131a3818484613166565b505050565b5b818110156131c7576131bc600082613190565b6001810190506131a9565b5050565b601f82111561320c576131dd816130b6565b6131e6846130cb565b810160208510156131f5578190505b613209613201856130cb565b8301826131a8565b50505b505050565b600082821c905092915050565b600061322f60001984600802613211565b1980831691505092915050565b6000613248838361321e565b9150826002028217905092915050565b61326182612533565b67ffffffffffffffff81111561327a57613279612966565b5b6132848254612c97565b61328f8282856131cb565b600060209050601f8311600181146132c257600084156132b0578287015190505b6132ba858261323c565b865550613322565b601f1984166132d0866130b6565b60005b828110156132f8578489015182556001820191506020850194506020810190506132d3565b868310156133155784890151613311601f89168261321e565b8355505b6001600288020188555050505b505050505050565b600060408201905061333f6000830185612644565b8181036020830152613351818461258a565b90509392505050565b600081905092915050565b600061337082612533565b61337a818561335a565b935061338a81856020860161254f565b80840191505092915050565b60006133a28285613365565b91506133ae8284613365565b91508190509392505050565b7f4e6f7420746865206f776e6572206f662074686520626f6f6b00000000000000600082015250565b60006133f060198361253e565b91506133fb826133ba565b602082019050919050565b6000602082019050818103600083015261341f816133e3565b9050919050565b7f4552433732313a207472616e736665722066726f6d20696e636f72726563742060008201527f6f776e6572000000000000000000000000000000000000000000000000000000602082015250565b600061348260258361253e565b915061348d82613426565b604082019050919050565b600060208201905081810360008301526134b181613475565b9050919050565b7f4552433732313a207472616e7366657220746f20746865207a65726f2061646460008201527f7265737300000000000000000000000000000000000000000000000000000000602082015250565b600061351460248361253e565b915061351f826134b8565b604082019050919050565b6000602082019050818103600083015261354381613507565b9050919050565b6000613555826128aa565b9150613560836128aa565b9250828203905060ff81111561357957613578612f2c565b5b92915050565b600061358a826124aa565b9150613595836124aa565b92508282026135a3816124aa565b915082820484148315176135ba576135b9612f2c565b5b5092915050565b7f4e487b7100000000000000000000000000000000000000000000000000000000600052601260045260246000fd5b60006135fb826124aa565b9150613606836124aa565b925082613616576136156135c1565b5b828204905092915050565b7f4552433732313a20617070726f766520746f2063616c6c657200000000000000600082015250565b600061365760198361253e565b915061366282613621565b602082019050919050565b600060208201905081810360008301526136868161364a565b9050919050565b7f4552433732313a207472616e7366657220746f206e6f6e20455243373231526560008201527f63656976657220696d706c656d656e7465720000000000000000000000000000602082015250565b60006136e960328361253e565b91506136f48261368d565b604082019050919050565b60006020820190508181036000830152613718816136dc565b9050919050565b7f45524337323155524953746f726167653a2055524920736574206f66206e6f6e60008201527f6578697374656e7420746f6b656e000000000000000000000000000000000000602082015250565b600061377b602e8361253e565b91506137868261371f565b604082019050919050565b600060208201905081810360008301526137aa8161376e565b9050919050565b60006137bc826124aa565b91506137c7836124aa565b92508282039050818111156137df576137de612f2c565b5b92915050565b600081519050919050565b600082825260208201905092915050565b600061380c826137e5565b61381681856137f0565b935061382681856020860161254f565b61382f81612579565b840191505092915050565b600060808201905061384f6000830187612644565b61385c6020830186612644565b613869604083018561279a565b818103606083015261387b8184613801565b905095945050505050565b6000815190506138958161241b565b92915050565b6000602082840312156138b1576138b06123e5565b5b60006138bf84828501613886565b91505092915050565b7f4552433732313a206d696e7420746f20746865207a65726f2061646472657373600082015250565b60006138fe60208361253e565b9150613909826138c8565b602082019050919050565b6000602082019050818103600083015261392d816138f1565b9050919050565b7f4552433732313a20746f6b656e20616c7265616479206d696e74656400000000600082015250565b600061396a601c8361253e565b915061397582613934565b602082019050919050565b600060208201905081810360008301526139998161395d565b905091905056fea2646970667358221220fdba4da1ed22c7034d981ff4add579320eaa50ad605b832a68904a29a30e3eaf64736f6c63430008110033"
}