{"address":"0x5A5497748BB72CD00238B96ddee620c18A3e94c8","abi":[{"inputs":[{"internalType":"uint8","name":"feePercentage","type":"uint8"},{"internalType":"address","name":"key","type":"address"}],"stateMutability":"nonpayable","type":"constructor"},{"anonymous":false,"inputs":[{"indexed":true,"internalType":"address","name":"owner","type":"address"},{"indexed":true,"internalType":"address","name":"approved","type":"address"},{"indexed":true,"internalType":"uint256","name":"tokenId","type":"uint256"}],"name":"Approval","type":"event"},{"anonymous":false,"inputs":[{"indexed":true,"internalType":"address","name":"owner","type":"address"},{"indexed":true,"internalType":"address","name":"operator","type":"address"},{"indexed":false,"internalType":"bool","name":"approved","type":"bool"}],"name":"ApprovalForAll","type":"event"},{"anonymous":false,"inputs":[{"indexed":false,"internalType":"address","name":"author","type":"address"},{"indexed":false,"internalType":"string","name":"cid","type":"string"},{"indexed":true,"internalType":"uint256","name":"bookId","type":"uint256"}],"name":"BookCreated","type":"event"},{"anonymous":false,"inputs":[{"indexed":true,"internalType":"uint256","name":"bookId","type":"uint256"},{"indexed":false,"internalType":"uint256","name":"purchasePrice","type":"uint256"},{"indexed":false,"internalType":"uint256","name":"rentPrice","type":"uint256"}],"name":"BookPublished","type":"event"},{"anonymous":false,"inputs":[{"indexed":true,"internalType":"address","name":"from","type":"address"},{"indexed":true,"internalType":"address","name":"to","type":"address"},{"indexed":true,"internalType":"uint256","name":"tokenId","type":"uint256"}],"name":"Transfer","type":"event"},{"inputs":[],"name":"_feePercentage","outputs":[{"internalType":"uint8","name":"","type":"uint8"}],"stateMutability":"view","type":"function"},{"inputs":[],"name":"_key","outputs":[{"internalType":"contract Key","name":"","type":"address"}],"stateMutability":"view","type":"function"},{"inputs":[{"internalType":"address","name":"to","type":"address"},{"internalType":"uint256","name":"tokenId","type":"uint256"}],"name":"approve","outputs":[],"stateMutability":"nonpayable","type":"function"},{"inputs":[{"internalType":"address","name":"owner","type":"address"}],"name":"balanceOf","outputs":[{"internalType":"uint256","name":"","type":"uint256"}],"stateMutability":"view","type":"function"},{"inputs":[{"internalType":"uint256","name":"","type":"uint256"}],"name":"bookIdToBookStruct","outputs":[{"internalType":"string","name":"cid","type":"string"},{"internalType":"uint256","name":"purchasePrice","type":"uint256"},{"internalType":"uint256","name":"rentPrice","type":"uint256"},{"internalType":"uint256","name":"totalRevenue","type":"uint256"},{"internalType":"address","name":"owner","type":"address"}],"stateMutability":"view","type":"function"},{"inputs":[{"internalType":"uint256","name":"bookId","type":"uint256"}],"name":"buyAccess","outputs":[],"stateMutability":"payable","type":"function"},{"inputs":[{"internalType":"uint256","name":"keyId","type":"uint256"}],"name":"buyBookOwnership","outputs":[],"stateMutability":"nonpayable","type":"function"},{"inputs":[{"internalType":"uint256","name":"bookId","type":"uint256"},{"internalType":"address","name":"caller","type":"address"}],"name":"canAccessBook","outputs":[{"internalType":"bool","name":"","type":"bool"}],"stateMutability":"view","type":"function"},{"inputs":[{"internalType":"string","name":"cid","type":"string"}],"name":"createBook","outputs":[],"stateMutability":"nonpayable","type":"function"},{"inputs":[{"internalType":"uint256","name":"tokenId","type":"uint256"}],"name":"getApproved","outputs":[{"internalType":"address","name":"","type":"address"}],"stateMutability":"view","type":"function"},{"inputs":[{"internalType":"address","name":"owner","type":"address"},{"internalType":"address","name":"operator","type":"address"}],"name":"isApprovedForAll","outputs":[{"internalType":"bool","name":"","type":"bool"}],"stateMutability":"view","type":"function"},{"inputs":[],"name":"name","outputs":[{"internalType":"string","name":"","type":"string"}],"stateMutability":"view","type":"function"},{"inputs":[{"internalType":"uint256","name":"tokenId","type":"uint256"}],"name":"ownerOf","outputs":[{"internalType":"address","name":"","type":"address"}],"stateMutability":"view","type":"function"},{"inputs":[{"internalType":"uint256","name":"keyId","type":"uint256"}],"name":"rentAccessToBook","outputs":[],"stateMutability":"nonpayable","type":"function"},{"inputs":[{"internalType":"address","name":"from","type":"address"},{"internalType":"address","name":"to","type":"address"},{"internalType":"uint256","name":"tokenId","type":"uint256"}],"name":"safeTransferFrom","outputs":[],"stateMutability":"nonpayable","type":"function"},{"inputs":[{"internalType":"address","name":"from","type":"address"},{"internalType":"address","name":"to","type":"address"},{"internalType":"uint256","name":"tokenId","type":"uint256"},{"internalType":"bytes","name":"data","type":"bytes"}],"name":"safeTransferFrom","outputs":[],"stateMutability":"nonpayable","type":"function"},{"inputs":[{"internalType":"uint256","name":"keyId","type":"uint256"}],"name":"sellBookOwnership","outputs":[],"stateMutability":"nonpayable","type":"function"},{"inputs":[{"internalType":"address","name":"operator","type":"address"},{"internalType":"bool","name":"approved","type":"bool"}],"name":"setApprovalForAll","outputs":[],"stateMutability":"nonpayable","type":"function"},{"inputs":[{"internalType":"bytes4","name":"interfaceId","type":"bytes4"}],"name":"supportsInterface","outputs":[{"internalType":"bool","name":"","type":"bool"}],"stateMutability":"view","type":"function"},{"inputs":[],"name":"symbol","outputs":[{"internalType":"string","name":"","type":"string"}],"stateMutability":"view","type":"function"},{"inputs":[{"internalType":"uint256","name":"tokenId","type":"uint256"}],"name":"tokenURI","outputs":[{"internalType":"string","name":"","type":"string"}],"stateMutability":"view","type":"function"},{"inputs":[{"internalType":"address","name":"from","type":"address"},{"internalType":"address","name":"to","type":"address"},{"internalType":"uint256","name":"tokenId","type":"uint256"}],"name":"transferFrom","outputs":[],"stateMutability":"nonpayable","type":"function"},{"inputs":[{"internalType":"uint256","name":"bookId","type":"uint256"},{"internalType":"uint256","name":"purchasePrice","type":"uint256"},{"internalType":"uint256","name":"rentPrice","type":"uint256"}],"name":"uploadBook","outputs":[],"stateMutability":"nonpayable","type":"function"},{"inputs":[{"internalType":"uint256","name":"bookId","type":"uint256"}],"name":"withdrawProfit","outputs":[],"stateMutability":"payable","type":"function"},{"stateMutability":"payable","type":"receive"}],"bytecode":"0x60a06040523480156200001157600080fd5b506040516200409d3803806200409d8339818101604052810190620000379190620001c8565b6040518060400160405280600481526020017f426f6f6b000000000000000000000000000000000000000000000000000000008152506040518060400160405280600281526020017f426b0000000000000000000000000000000000000000000000000000000000008152508160009081620000b4919062000489565b508060019081620000c6919062000489565b50505081600860006101000a81548160ff021916908360ff1602179055508073ffffffffffffffffffffffffffffffffffffffff1660808173ffffffffffffffffffffffffffffffffffffffff1681525050505062000570565b600080fd5b600060ff82169050919050565b6200013d8162000125565b81146200014957600080fd5b50565b6000815190506200015d8162000132565b92915050565b600073ffffffffffffffffffffffffffffffffffffffff82169050919050565b6000620001908262000163565b9050919050565b620001a28162000183565b8114620001ae57600080fd5b50565b600081519050620001c28162000197565b92915050565b60008060408385031215620001e257620001e162000120565b5b6000620001f2858286016200014c565b92505060206200020585828601620001b1565b9150509250929050565b600081519050919050565b7f4e487b7100000000000000000000000000000000000000000000000000000000600052604160045260246000fd5b7f4e487b7100000000000000000000000000000000000000000000000000000000600052602260045260246000fd5b600060028204905060018216806200029157607f821691505b602082108103620002a757620002a662000249565b5b50919050565b60008190508160005260206000209050919050565b60006020601f8301049050919050565b600082821b905092915050565b600060088302620003117fffffffffffffffffffffffffffffffffffffffffffffffffffffffffffffffff82620002d2565b6200031d8683620002d2565b95508019841693508086168417925050509392505050565b6000819050919050565b6000819050919050565b60006200036a620003646200035e8462000335565b6200033f565b62000335565b9050919050565b6000819050919050565b620003868362000349565b6200039e620003958262000371565b848454620002df565b825550505050565b600090565b620003b5620003a6565b620003c28184846200037b565b505050565b5b81811015620003ea57620003de600082620003ab565b600181019050620003c8565b5050565b601f82111562000439576200040381620002ad565b6200040e84620002c2565b810160208510156200041e578190505b620004366200042d85620002c2565b830182620003c7565b50505b505050565b600082821c905092915050565b60006200045e600019846008026200043e565b1980831691505092915050565b60006200047983836200044b565b9150826002028217905092915050565b62000494826200020f565b67ffffffffffffffff811115620004b057620004af6200021a565b5b620004bc825462000278565b620004c9828285620003ee565b600060209050601f831160018114620005015760008415620004ec578287015190505b620004f885826200046b565b86555062000568565b601f1984166200051186620002ad565b60005b828110156200053b5784890151825560018201915060208501945060208101905062000514565b868310156200055b578489015162000557601f8916826200044b565b8355505b6001600288020188555050505b505050505050565b608051613aee620005af600039600081816108fb01528181610a7801528181610b1c01528181610bb901528181610cc70152610e960152613aee6000f3fe60806040526004361061014f5760003560e01c8063815092d7116100b6578063b9f72b7d1161006f578063b9f72b7d146104b2578063c87b56dd146104db578063d82a2bea14610518578063e985e9c514610534578063f699343e14610571578063f9c9c8781461059c57610156565b8063815092d7146103a25780639072df6b146103cb57806395d89b41146103f4578063a22cb4651461041f578063b75174f014610448578063b88d4fde1461048957610156565b806342842e0e1161010857806342842e0e1461028f5780634ba8b733146102b857806350a1a264146102e15780636352211e146102fd57806370a082311461033a57806374ad7ac41461037757610156565b806301ffc9a71461015b57806306fdde0314610198578063081812fc146101c3578063095ea7b31461020057806323b872dd1461022957806336d964121461025257610156565b3661015657005b600080fd5b34801561016757600080fd5b50610182600480360381019061017d919061253e565b6105c5565b60405161018f9190612586565b60405180910390f35b3480156101a457600080fd5b506101ad6106a7565b6040516101ba9190612631565b60405180910390f35b3480156101cf57600080fd5b506101ea60048036038101906101e59190612689565b610739565b6040516101f791906126f7565b60405180910390f35b34801561020c57600080fd5b506102276004803603810190610222919061273e565b61077f565b005b34801561023557600080fd5b50610250600480360381019061024b919061277e565b610896565b005b34801561025e57600080fd5b50610279600480360381019061027491906127d1565b6108f6565b6040516102869190612586565b60405180910390f35b34801561029b57600080fd5b506102b660048036038101906102b1919061277e565b6109f3565b005b3480156102c457600080fd5b506102df60048036038101906102da9190612689565b610a13565b005b6102fb60048036038101906102f69190612689565b610a16565b005b34801561030957600080fd5b50610324600480360381019061031f9190612689565b610d57565b60405161033191906126f7565b60405180910390f35b34801561034657600080fd5b50610361600480360381019061035c9190612811565b610ddd565b60405161036e919061284d565b60405180910390f35b34801561038357600080fd5b5061038c610e94565b60405161039991906128c7565b60405180910390f35b3480156103ae57600080fd5b506103c960048036038101906103c491906128e2565b610eb8565b005b3480156103d757600080fd5b506103f260048036038101906103ed9190612689565b610f85565b005b34801561040057600080fd5b50610409610f88565b6040516104169190612631565b60405180910390f35b34801561042b57600080fd5b5061044660048036038101906104419190612961565b61101a565b005b34801561045457600080fd5b5061046f600480360381019061046a9190612689565b611030565b6040516104809594939291906129a1565b60405180910390f35b34801561049557600080fd5b506104b060048036038101906104ab9190612b30565b61110e565b005b3480156104be57600080fd5b506104d960048036038101906104d49190612c54565b611170565b005b3480156104e757600080fd5b5061050260048036038101906104fd9190612689565b611204565b60405161050f9190612631565b60405180910390f35b610532600480360381019061052d9190612689565b611316565b005b34801561054057600080fd5b5061055b60048036038101906105569190612c9d565b611410565b6040516105689190612586565b60405180910390f35b34801561057d57600080fd5b506105866114a4565b6040516105939190612cf9565b60405180910390f35b3480156105a857600080fd5b506105c360048036038101906105be9190612689565b6114b7565b005b60007f80ac58cd000000000000000000000000000000000000000000000000000000007bffffffffffffffffffffffffffffffffffffffffffffffffffffffff1916827bffffffffffffffffffffffffffffffffffffffffffffffffffffffff1916148061069057507f5b5e139f000000000000000000000000000000000000000000000000000000007bffffffffffffffffffffffffffffffffffffffffffffffffffffffff1916827bffffffffffffffffffffffffffffffffffffffffffffffffffffffff1916145b806106a0575061069f826114ba565b5b9050919050565b6060600080546106b690612d43565b80601f01602080910402602001604051908101604052809291908181526020018280546106e290612d43565b801561072f5780601f106107045761010080835404028352916020019161072f565b820191906000526020600020905b81548152906001019060200180831161071257829003601f168201915b5050505050905090565b600061074482611524565b6004600083815260200190815260200160002060009054906101000a900473ffffffffffffffffffffffffffffffffffffffff169050919050565b600061078a82610d57565b90508073ffffffffffffffffffffffffffffffffffffffff168373ffffffffffffffffffffffffffffffffffffffff16036107fa576040517f08c379a00000000000000000000000000000000000000000000000000000000081526004016107f190612de6565b60405180910390fd5b8073ffffffffffffffffffffffffffffffffffffffff1661081961156f565b73ffffffffffffffffffffffffffffffffffffffff16148061084857506108478161084261156f565b611410565b5b610887576040517f08c379a000000000000000000000000000000000000000000000000000000000815260040161087e90612e78565b60405180910390fd5b6108918383611577565b505050565b6108a76108a161156f565b82611630565b6108e6576040517f08c379a00000000000000000000000000000000000000000000000000000000081526004016108dd90612f0a565b60405180910390fd5b6108f18383836116c5565b505050565b6000807f000000000000000000000000000000000000000000000000000000000000000073ffffffffffffffffffffffffffffffffffffffff1663745c84ca846040518263ffffffff1660e01b815260040161095291906126f7565b602060405180830381865afa15801561096f573d6000803e3d6000fd5b505050506040513d601f19601f820116820180604052508101906109939190612f3f565b9050600081036109a75760009150506109ed565b6000600960008681526020019081526020016000209050428160040160008481526020019081526020016000205411156109e6576001925050506109ed565b6000925050505b92915050565b610a0e8383836040518060200160405280600081525061110e565b505050565b50565b60006009600083815260200190815260200160002090508060010154341015610a74576040517f08c379a0000000000000000000000000000000000000000000000000000000008152600401610a6b90612fb8565b60405180910390fd5b60007f000000000000000000000000000000000000000000000000000000000000000073ffffffffffffffffffffffffffffffffffffffff1663745c84ca336040518263ffffffff1660e01b8152600401610acf91906126f7565b602060405180830381865afa158015610aec573d6000803e3d6000fd5b505050506040513d601f19601f82011682018060405250810190610b109190612f3f565b905060008103610c54577f000000000000000000000000000000000000000000000000000000000000000073ffffffffffffffffffffffffffffffffffffffff166356ddf67b336040518263ffffffff1660e01b8152600401610b7391906126f7565b6020604051808303816000875af1158015610b92573d6000803e3d6000fd5b505050506040513d601f19601f82011682018060405250810190610bb69190612f3f565b507f000000000000000000000000000000000000000000000000000000000000000073ffffffffffffffffffffffffffffffffffffffff1663745c84ca336040518263ffffffff1660e01b8152600401610c1091906126f7565b602060405180830381865afa158015610c2d573d6000803e3d6000fd5b505050506040513d601f19601f82011682018060405250810190610c519190612f3f565b90505b7fffffffffffffffffffffffffffffffffffffffffffffffffffffffffffffffff82600401600083815260200190815260200160002081905550610cab600860009054906101000a900460ff1683600101546119be565b826003016000828254610cbe9190613007565b925050819055507f000000000000000000000000000000000000000000000000000000000000000073ffffffffffffffffffffffffffffffffffffffff16632597e04782856040518363ffffffff1660e01b8152600401610d2092919061303b565b600060405180830381600087803b158015610d3a57600080fd5b505af1158015610d4e573d6000803e3d6000fd5b50505050505050565b600080610d63836119ef565b9050600073ffffffffffffffffffffffffffffffffffffffff168173ffffffffffffffffffffffffffffffffffffffff1603610dd4576040517f08c379a0000000000000000000000000000000000000000000000000000000008152600401610dcb906130b0565b60405180910390fd5b80915050919050565b60008073ffffffffffffffffffffffffffffffffffffffff168273ffffffffffffffffffffffffffffffffffffffff1603610e4d576040517f08c379a0000000000000000000000000000000000000000000000000000000008152600401610e4490613142565b60405180910390fd5b600360008373ffffffffffffffffffffffffffffffffffffffff1673ffffffffffffffffffffffffffffffffffffffff168152602001908152602001600020549050919050565b7f000000000000000000000000000000000000000000000000000000000000000081565b600083118015610ed15750610ecd6007611a2c565b8311155b610f10576040517f08c379a0000000000000000000000000000000000000000000000000000000008152600401610f07906131ae565b60405180910390fd5b816009600085815260200190815260200160002060010181905550806009600085815260200190815260200160002060020181905550827f204930f3db2bb7f6984c024cf2a93710045c72024ec59bff7d4e63b2409c841e8383604051610f7892919061303b565b60405180910390a2505050565b50565b606060018054610f9790612d43565b80601f0160208091040260200160405190810160405280929190818152602001828054610fc390612d43565b80156110105780601f10610fe557610100808354040283529160200191611010565b820191906000526020600020905b815481529060010190602001808311610ff357829003601f168201915b5050505050905090565b61102c61102561156f565b8383611a3a565b5050565b600960205280600052604060002060009150905080600001805461105390612d43565b80601f016020809104026020016040519081016040528092919081815260200182805461107f90612d43565b80156110cc5780601f106110a1576101008083540402835291602001916110cc565b820191906000526020600020905b8154815290600101906020018083116110af57829003601f168201915b5050505050908060010154908060020154908060030154908060050160009054906101000a900473ffffffffffffffffffffffffffffffffffffffff16905085565b61111f61111961156f565b83611630565b61115e576040517f08c379a000000000000000000000000000000000000000000000000000000000815260040161115590612f0a565b60405180910390fd5b61116a84848484611ba6565b50505050565b61117a6007611c02565b60006111866007611a2c565b90506111923382611c18565b61119c8183611c36565b6000600960008381526020019081526020016000209050828160000190816111c49190613370565b50817f6f10a189e74c40865dbc37544147d0a3d57b2a5e5100daf4cd09cff5a9033c7233856040516111f7929190613442565b60405180910390a2505050565b606061120f82611524565b600060066000848152602001908152602001600020805461122f90612d43565b80601f016020809104026020016040519081016040528092919081815260200182805461125b90612d43565b80156112a85780601f1061127d576101008083540402835291602001916112a8565b820191906000526020600020905b81548152906001019060200180831161128b57829003601f168201915b5050505050905060006112b9611ca3565b905060008151036112ce578192505050611311565b6000825111156113035780826040516020016112eb9291906134ae565b60405160208183030381529060405292505050611311565b61130c84611cba565b925050505b919050565b3373ffffffffffffffffffffffffffffffffffffffff1661133682610d57565b73ffffffffffffffffffffffffffffffffffffffff161461138c576040517f08c379a00000000000000000000000000000000000000000000000000000000081526004016113839061351e565b60405180910390fd5b600060096000838152602001908152602001600020600301819055506113b181610d57565b73ffffffffffffffffffffffffffffffffffffffff166108fc60096000848152602001908152602001600020600301549081150290604051600060405180830381858888f1935050505015801561140c573d6000803e3d6000fd5b5050565b6000600560008473ffffffffffffffffffffffffffffffffffffffff1673ffffffffffffffffffffffffffffffffffffffff16815260200190815260200160002060008373ffffffffffffffffffffffffffffffffffffffff1673ffffffffffffffffffffffffffffffffffffffff16815260200190815260200160002060009054906101000a900460ff16905092915050565b600860009054906101000a900460ff1681565b50565b60007f01ffc9a7000000000000000000000000000000000000000000000000000000007bffffffffffffffffffffffffffffffffffffffffffffffffffffffff1916827bffffffffffffffffffffffffffffffffffffffffffffffffffffffff1916149050919050565b61152d81611d22565b61156c576040517f08c379a0000000000000000000000000000000000000000000000000000000008152600401611563906130b0565b60405180910390fd5b50565b600033905090565b816004600083815260200190815260200160002060006101000a81548173ffffffffffffffffffffffffffffffffffffffff021916908373ffffffffffffffffffffffffffffffffffffffff160217905550808273ffffffffffffffffffffffffffffffffffffffff166115ea83610d57565b73ffffffffffffffffffffffffffffffffffffffff167f8c5be1e5ebec7d5bd14f71427d1e84f3dd0314c0f7b2291e5b200ac8c7c3b92560405160405180910390a45050565b60008061163c83610d57565b90508073ffffffffffffffffffffffffffffffffffffffff168473ffffffffffffffffffffffffffffffffffffffff16148061167e575061167d8185611410565b5b806116bc57508373ffffffffffffffffffffffffffffffffffffffff166116a484610739565b73ffffffffffffffffffffffffffffffffffffffff16145b91505092915050565b8273ffffffffffffffffffffffffffffffffffffffff166116e582610d57565b73ffffffffffffffffffffffffffffffffffffffff161461173b576040517f08c379a0000000000000000000000000000000000000000000000000000000008152600401611732906135b0565b60405180910390fd5b600073ffffffffffffffffffffffffffffffffffffffff168273ffffffffffffffffffffffffffffffffffffffff16036117aa576040517f08c379a00000000000000000000000000000000000000000000000000000000081526004016117a190613642565b60405180910390fd5b6117b78383836001611d63565b8273ffffffffffffffffffffffffffffffffffffffff166117d782610d57565b73ffffffffffffffffffffffffffffffffffffffff161461182d576040517f08c379a0000000000000000000000000000000000000000000000000000000008152600401611824906135b0565b60405180910390fd5b6004600082815260200190815260200160002060006101000a81549073ffffffffffffffffffffffffffffffffffffffff02191690556001600360008573ffffffffffffffffffffffffffffffffffffffff1673ffffffffffffffffffffffffffffffffffffffff168152602001908152602001600020600082825403925050819055506001600360008473ffffffffffffffffffffffffffffffffffffffff1673ffffffffffffffffffffffffffffffffffffffff16815260200190815260200160002060008282540192505081905550816002600083815260200190815260200160002060006101000a81548173ffffffffffffffffffffffffffffffffffffffff021916908373ffffffffffffffffffffffffffffffffffffffff160217905550808273ffffffffffffffffffffffffffffffffffffffff168473ffffffffffffffffffffffffffffffffffffffff167fddf252ad1be2c89b69c2b068fc378daa952ba7f163c4a11628f55a4df523b3ef60405160405180910390a46119b98383836001611e89565b505050565b60006064828460646119d09190613662565b60ff166119dd9190613697565b6119e79190613708565b905092915050565b60006002600083815260200190815260200160002060009054906101000a900473ffffffffffffffffffffffffffffffffffffffff169050919050565b600081600001549050919050565b8173ffffffffffffffffffffffffffffffffffffffff168373ffffffffffffffffffffffffffffffffffffffff1603611aa8576040517f08c379a0000000000000000000000000000000000000000000000000000000008152600401611a9f90613785565b60405180910390fd5b80600560008573ffffffffffffffffffffffffffffffffffffffff1673ffffffffffffffffffffffffffffffffffffffff16815260200190815260200160002060008473ffffffffffffffffffffffffffffffffffffffff1673ffffffffffffffffffffffffffffffffffffffff16815260200190815260200160002060006101000a81548160ff0219169083151502179055508173ffffffffffffffffffffffffffffffffffffffff168373ffffffffffffffffffffffffffffffffffffffff167f17307eab39ab6107e8899845ad3d59bd9653f200f220920489ca2b5937696c3183604051611b999190612586565b60405180910390a3505050565b611bb18484846116c5565b611bbd84848484611e8f565b611bfc576040517f08c379a0000000000000000000000000000000000000000000000000000000008152600401611bf390613817565b60405180910390fd5b50505050565b6001816000016000828254019250508190555050565b611c32828260405180602001604052806000815250612016565b5050565b611c3f82611d22565b611c7e576040517f08c379a0000000000000000000000000000000000000000000000000000000008152600401611c75906138a9565b60405180910390fd5b80600660008481526020019081526020016000209081611c9e9190613370565b505050565b606060405180602001604052806000815250905090565b6060611cc582611524565b6000611ccf611ca3565b90506000815111611cef5760405180602001604052806000815250611d1a565b80611cf984612071565b604051602001611d0a9291906134ae565b6040516020818303038152906040525b915050919050565b60008073ffffffffffffffffffffffffffffffffffffffff16611d44836119ef565b73ffffffffffffffffffffffffffffffffffffffff1614159050919050565b6001811115611e8357600073ffffffffffffffffffffffffffffffffffffffff168473ffffffffffffffffffffffffffffffffffffffff1614611df75780600360008673ffffffffffffffffffffffffffffffffffffffff1673ffffffffffffffffffffffffffffffffffffffff1681526020019081526020016000206000828254611def91906138c9565b925050819055505b600073ffffffffffffffffffffffffffffffffffffffff168373ffffffffffffffffffffffffffffffffffffffff1614611e825780600360008573ffffffffffffffffffffffffffffffffffffffff1673ffffffffffffffffffffffffffffffffffffffff1681526020019081526020016000206000828254611e7a9190613007565b925050819055505b5b50505050565b50505050565b6000611eb08473ffffffffffffffffffffffffffffffffffffffff1661213f565b15612009578373ffffffffffffffffffffffffffffffffffffffff1663150b7a02611ed961156f565b8786866040518563ffffffff1660e01b8152600401611efb9493929190613952565b6020604051808303816000875af1925050508015611f3757506040513d601f19601f82011682018060405250810190611f3491906139b3565b60015b611fb9573d8060008114611f67576040519150601f19603f3d011682016040523d82523d6000602084013e611f6c565b606091505b506000815103611fb1576040517f08c379a0000000000000000000000000000000000000000000000000000000008152600401611fa890613817565b60405180910390fd5b805181602001fd5b63150b7a0260e01b7bffffffffffffffffffffffffffffffffffffffffffffffffffffffff1916817bffffffffffffffffffffffffffffffffffffffffffffffffffffffff19161491505061200e565b600190505b949350505050565b6120208383612162565b61202d6000848484611e8f565b61206c576040517f08c379a000000000000000000000000000000000000000000000000000000000815260040161206390613817565b60405180910390fd5b505050565b6060600060016120808461237f565b01905060008167ffffffffffffffff81111561209f5761209e612a05565b5b6040519080825280601f01601f1916602001820160405280156120d15781602001600182028036833780820191505090505b509050600082602001820190505b600115612134578080600190039150507f3031323334353637383961626364656600000000000000000000000000000000600a86061a8153600a8581612128576121276136d9565b5b049450600085036120df575b819350505050919050565b6000808273ffffffffffffffffffffffffffffffffffffffff163b119050919050565b600073ffffffffffffffffffffffffffffffffffffffff168273ffffffffffffffffffffffffffffffffffffffff16036121d1576040517f08c379a00000000000000000000000000000000000000000000000000000000081526004016121c890613a2c565b60405180910390fd5b6121da81611d22565b1561221a576040517f08c379a000000000000000000000000000000000000000000000000000000000815260040161221190613a98565b60405180910390fd5b612228600083836001611d63565b61223181611d22565b15612271576040517f08c379a000000000000000000000000000000000000000000000000000000000815260040161226890613a98565b60405180910390fd5b6001600360008473ffffffffffffffffffffffffffffffffffffffff1673ffffffffffffffffffffffffffffffffffffffff16815260200190815260200160002060008282540192505081905550816002600083815260200190815260200160002060006101000a81548173ffffffffffffffffffffffffffffffffffffffff021916908373ffffffffffffffffffffffffffffffffffffffff160217905550808273ffffffffffffffffffffffffffffffffffffffff16600073ffffffffffffffffffffffffffffffffffffffff167fddf252ad1be2c89b69c2b068fc378daa952ba7f163c4a11628f55a4df523b3ef60405160405180910390a461237b600083836001611e89565b5050565b600080600090507a184f03e93ff9f4daa797ed6e38ed64bf6a1f01000000000000000083106123dd577a184f03e93ff9f4daa797ed6e38ed64bf6a1f01000000000000000083816123d3576123d26136d9565b5b0492506040810190505b6d04ee2d6d415b85acef8100000000831061241a576d04ee2d6d415b85acef810000000083816124105761240f6136d9565b5b0492506020810190505b662386f26fc10000831061244957662386f26fc10000838161243f5761243e6136d9565b5b0492506010810190505b6305f5e1008310612472576305f5e1008381612468576124676136d9565b5b0492506008810190505b612710831061249757612710838161248d5761248c6136d9565b5b0492506004810190505b606483106124ba57606483816124b0576124af6136d9565b5b0492506002810190505b600a83106124c9576001810190505b80915050919050565b6000604051905090565b600080fd5b600080fd5b60007fffffffff0000000000000000000000000000000000000000000000000000000082169050919050565b61251b816124e6565b811461252657600080fd5b50565b60008135905061253881612512565b92915050565b600060208284031215612554576125536124dc565b5b600061256284828501612529565b91505092915050565b60008115159050919050565b6125808161256b565b82525050565b600060208201905061259b6000830184612577565b92915050565b600081519050919050565b600082825260208201905092915050565b60005b838110156125db5780820151818401526020810190506125c0565b60008484015250505050565b6000601f19601f8301169050919050565b6000612603826125a1565b61260d81856125ac565b935061261d8185602086016125bd565b612626816125e7565b840191505092915050565b6000602082019050818103600083015261264b81846125f8565b905092915050565b6000819050919050565b61266681612653565b811461267157600080fd5b50565b6000813590506126838161265d565b92915050565b60006020828403121561269f5761269e6124dc565b5b60006126ad84828501612674565b91505092915050565b600073ffffffffffffffffffffffffffffffffffffffff82169050919050565b60006126e1826126b6565b9050919050565b6126f1816126d6565b82525050565b600060208201905061270c60008301846126e8565b92915050565b61271b816126d6565b811461272657600080fd5b50565b60008135905061273881612712565b92915050565b60008060408385031215612755576127546124dc565b5b600061276385828601612729565b925050602061277485828601612674565b9150509250929050565b600080600060608486031215612797576127966124dc565b5b60006127a586828701612729565b93505060206127b686828701612729565b92505060406127c786828701612674565b9150509250925092565b600080604083850312156127e8576127e76124dc565b5b60006127f685828601612674565b925050602061280785828601612729565b9150509250929050565b600060208284031215612827576128266124dc565b5b600061283584828501612729565b91505092915050565b61284781612653565b82525050565b6000602082019050612862600083018461283e565b92915050565b6000819050919050565b600061288d612888612883846126b6565b612868565b6126b6565b9050919050565b600061289f82612872565b9050919050565b60006128b182612894565b9050919050565b6128c1816128a6565b82525050565b60006020820190506128dc60008301846128b8565b92915050565b6000806000606084860312156128fb576128fa6124dc565b5b600061290986828701612674565b935050602061291a86828701612674565b925050604061292b86828701612674565b9150509250925092565b61293e8161256b565b811461294957600080fd5b50565b60008135905061295b81612935565b92915050565b60008060408385031215612978576129776124dc565b5b600061298685828601612729565b92505060206129978582860161294c565b9150509250929050565b600060a08201905081810360008301526129bb81886125f8565b90506129ca602083018761283e565b6129d7604083018661283e565b6129e4606083018561283e565b6129f160808301846126e8565b9695505050505050565b600080fd5b600080fd5b7f4e487b7100000000000000000000000000000000000000000000000000000000600052604160045260246000fd5b612a3d826125e7565b810181811067ffffffffffffffff82111715612a5c57612a5b612a05565b5b80604052505050565b6000612a6f6124d2565b9050612a7b8282612a34565b919050565b600067ffffffffffffffff821115612a9b57612a9a612a05565b5b612aa4826125e7565b9050602081019050919050565b82818337600083830152505050565b6000612ad3612ace84612a80565b612a65565b905082815260208101848484011115612aef57612aee612a00565b5b612afa848285612ab1565b509392505050565b600082601f830112612b1757612b166129fb565b5b8135612b27848260208601612ac0565b91505092915050565b60008060008060808587031215612b4a57612b496124dc565b5b6000612b5887828801612729565b9450506020612b6987828801612729565b9350506040612b7a87828801612674565b925050606085013567ffffffffffffffff811115612b9b57612b9a6124e1565b5b612ba787828801612b02565b91505092959194509250565b600067ffffffffffffffff821115612bce57612bcd612a05565b5b612bd7826125e7565b9050602081019050919050565b6000612bf7612bf284612bb3565b612a65565b905082815260208101848484011115612c1357612c12612a00565b5b612c1e848285612ab1565b509392505050565b600082601f830112612c3b57612c3a6129fb565b5b8135612c4b848260208601612be4565b91505092915050565b600060208284031215612c6a57612c696124dc565b5b600082013567ffffffffffffffff811115612c8857612c876124e1565b5b612c9484828501612c26565b91505092915050565b60008060408385031215612cb457612cb36124dc565b5b6000612cc285828601612729565b9250506020612cd385828601612729565b9150509250929050565b600060ff82169050919050565b612cf381612cdd565b82525050565b6000602082019050612d0e6000830184612cea565b92915050565b7f4e487b7100000000000000000000000000000000000000000000000000000000600052602260045260246000fd5b60006002820490506001821680612d5b57607f821691505b602082108103612d6e57612d6d612d14565b5b50919050565b7f4552433732313a20617070726f76616c20746f2063757272656e74206f776e6560008201527f7200000000000000000000000000000000000000000000000000000000000000602082015250565b6000612dd06021836125ac565b9150612ddb82612d74565b604082019050919050565b60006020820190508181036000830152612dff81612dc3565b9050919050565b7f4552433732313a20617070726f76652063616c6c6572206973206e6f7420746f60008201527f6b656e206f776e6572206f7220617070726f76656420666f7220616c6c000000602082015250565b6000612e62603d836125ac565b9150612e6d82612e06565b604082019050919050565b60006020820190508181036000830152612e9181612e55565b9050919050565b7f4552433732313a2063616c6c6572206973206e6f7420746f6b656e206f776e6560008201527f72206f7220617070726f76656400000000000000000000000000000000000000602082015250565b6000612ef4602d836125ac565b9150612eff82612e98565b604082019050919050565b60006020820190508181036000830152612f2381612ee7565b9050919050565b600081519050612f398161265d565b92915050565b600060208284031215612f5557612f546124dc565b5b6000612f6384828501612f2a565b91505092915050565b7f6e6f7420656e6f7567682046494c2073656e7400000000000000000000000000600082015250565b6000612fa26013836125ac565b9150612fad82612f6c565b602082019050919050565b60006020820190508181036000830152612fd181612f95565b9050919050565b7f4e487b7100000000000000000000000000000000000000000000000000000000600052601160045260246000fd5b600061301282612653565b915061301d83612653565b925082820190508082111561303557613034612fd8565b5b92915050565b6000604082019050613050600083018561283e565b61305d602083018461283e565b9392505050565b7f4552433732313a20696e76616c696420746f6b656e2049440000000000000000600082015250565b600061309a6018836125ac565b91506130a582613064565b602082019050919050565b600060208201905081810360008301526130c98161308d565b9050919050565b7f4552433732313a2061646472657373207a65726f206973206e6f74206120766160008201527f6c6964206f776e65720000000000000000000000000000000000000000000000602082015250565b600061312c6029836125ac565b9150613137826130d0565b604082019050919050565b6000602082019050818103600083015261315b8161311f565b9050919050565b7f4e6f6e2d6578697374656e7420626f6f6b000000000000000000000000000000600082015250565b60006131986011836125ac565b91506131a382613162565b602082019050919050565b600060208201905081810360008301526131c78161318b565b9050919050565b60008190508160005260206000209050919050565b60006020601f8301049050919050565b600082821b905092915050565b6000600883026132307fffffffffffffffffffffffffffffffffffffffffffffffffffffffffffffffff826131f3565b61323a86836131f3565b95508019841693508086168417925050509392505050565b600061326d61326861326384612653565b612868565b612653565b9050919050565b6000819050919050565b61328783613252565b61329b61329382613274565b848454613200565b825550505050565b600090565b6132b06132a3565b6132bb81848461327e565b505050565b5b818110156132df576132d46000826132a8565b6001810190506132c1565b5050565b601f821115613324576132f5816131ce565b6132fe846131e3565b8101602085101561330d578190505b613321613319856131e3565b8301826132c0565b50505b505050565b600082821c905092915050565b600061334760001984600802613329565b1980831691505092915050565b60006133608383613336565b9150826002028217905092915050565b613379826125a1565b67ffffffffffffffff81111561339257613391612a05565b5b61339c8254612d43565b6133a78282856132e3565b600060209050601f8311600181146133da57600084156133c8578287015190505b6133d28582613354565b86555061343a565b601f1984166133e8866131ce565b60005b82811015613410578489015182556001820191506020850194506020810190506133eb565b8683101561342d5784890151613429601f891682613336565b8355505b6001600288020188555050505b505050505050565b600060408201905061345760008301856126e8565b818103602083015261346981846125f8565b90509392505050565b600081905092915050565b6000613488826125a1565b6134928185613472565b93506134a28185602086016125bd565b80840191505092915050565b60006134ba828561347d565b91506134c6828461347d565b91508190509392505050565b7f4e6f7420746865206f776e6572206f662074686520626f6f6b00000000000000600082015250565b60006135086019836125ac565b9150613513826134d2565b602082019050919050565b60006020820190508181036000830152613537816134fb565b9050919050565b7f4552433732313a207472616e736665722066726f6d20696e636f72726563742060008201527f6f776e6572000000000000000000000000000000000000000000000000000000602082015250565b600061359a6025836125ac565b91506135a58261353e565b604082019050919050565b600060208201905081810360008301526135c98161358d565b9050919050565b7f4552433732313a207472616e7366657220746f20746865207a65726f2061646460008201527f7265737300000000000000000000000000000000000000000000000000000000602082015250565b600061362c6024836125ac565b9150613637826135d0565b604082019050919050565b6000602082019050818103600083015261365b8161361f565b9050919050565b600061366d82612cdd565b915061367883612cdd565b9250828203905060ff81111561369157613690612fd8565b5b92915050565b60006136a282612653565b91506136ad83612653565b92508282026136bb81612653565b915082820484148315176136d2576136d1612fd8565b5b5092915050565b7f4e487b7100000000000000000000000000000000000000000000000000000000600052601260045260246000fd5b600061371382612653565b915061371e83612653565b92508261372e5761372d6136d9565b5b828204905092915050565b7f4552433732313a20617070726f766520746f2063616c6c657200000000000000600082015250565b600061376f6019836125ac565b915061377a82613739565b602082019050919050565b6000602082019050818103600083015261379e81613762565b9050919050565b7f4552433732313a207472616e7366657220746f206e6f6e20455243373231526560008201527f63656976657220696d706c656d656e7465720000000000000000000000000000602082015250565b60006138016032836125ac565b915061380c826137a5565b604082019050919050565b60006020820190508181036000830152613830816137f4565b9050919050565b7f45524337323155524953746f726167653a2055524920736574206f66206e6f6e60008201527f6578697374656e7420746f6b656e000000000000000000000000000000000000602082015250565b6000613893602e836125ac565b915061389e82613837565b604082019050919050565b600060208201905081810360008301526138c281613886565b9050919050565b60006138d482612653565b91506138df83612653565b92508282039050818111156138f7576138f6612fd8565b5b92915050565b600081519050919050565b600082825260208201905092915050565b6000613924826138fd565b61392e8185613908565b935061393e8185602086016125bd565b613947816125e7565b840191505092915050565b600060808201905061396760008301876126e8565b61397460208301866126e8565b613981604083018561283e565b81810360608301526139938184613919565b905095945050505050565b6000815190506139ad81612512565b92915050565b6000602082840312156139c9576139c86124dc565b5b60006139d78482850161399e565b91505092915050565b7f4552433732313a206d696e7420746f20746865207a65726f2061646472657373600082015250565b6000613a166020836125ac565b9150613a21826139e0565b602082019050919050565b60006020820190508181036000830152613a4581613a09565b9050919050565b7f4552433732313a20746f6b656e20616c7265616479206d696e74656400000000600082015250565b6000613a82601c836125ac565b9150613a8d82613a4c565b602082019050919050565b60006020820190508181036000830152613ab181613a75565b905091905056fea2646970667358221220ff690fcfd83fa0d26938b03650fe9493363ec8cf74de3d7f09af0b74553cfad364736f6c63430008110033"}