{"address":"0xF7545C153fB2EE1Bd65642CDc482b4932aEEe802","abi":[{"inputs":[{"internalType":"uint8","name":"feePercentage","type":"uint8"},{"internalType":"address","name":"key","type":"address"}],"stateMutability":"nonpayable","type":"constructor"},{"anonymous":false,"inputs":[{"indexed":true,"internalType":"address","name":"owner","type":"address"},{"indexed":true,"internalType":"address","name":"approved","type":"address"},{"indexed":true,"internalType":"uint256","name":"tokenId","type":"uint256"}],"name":"Approval","type":"event"},{"anonymous":false,"inputs":[{"indexed":true,"internalType":"address","name":"owner","type":"address"},{"indexed":true,"internalType":"address","name":"operator","type":"address"},{"indexed":false,"internalType":"bool","name":"approved","type":"bool"}],"name":"ApprovalForAll","type":"event"},{"anonymous":false,"inputs":[{"indexed":false,"internalType":"address","name":"author","type":"address"},{"indexed":false,"internalType":"string","name":"cid","type":"string"},{"indexed":true,"internalType":"uint256","name":"bookId","type":"uint256"}],"name":"BookCreated","type":"event"},{"anonymous":false,"inputs":[{"indexed":true,"internalType":"uint256","name":"bookId","type":"uint256"},{"indexed":false,"internalType":"uint256","name":"purchasePrice","type":"uint256"},{"indexed":false,"internalType":"uint256","name":"rentPrice","type":"uint256"}],"name":"BookPublished","type":"event"},{"anonymous":false,"inputs":[{"indexed":false,"internalType":"uint256","name":"period","type":"uint256"}],"name":"Expires","type":"event"},{"anonymous":false,"inputs":[{"indexed":true,"internalType":"address","name":"from","type":"address"},{"indexed":true,"internalType":"address","name":"to","type":"address"},{"indexed":true,"internalType":"uint256","name":"tokenId","type":"uint256"}],"name":"Transfer","type":"event"},{"inputs":[],"name":"_feePercentage","outputs":[{"internalType":"uint8","name":"","type":"uint8"}],"stateMutability":"view","type":"function"},{"inputs":[],"name":"_key","outputs":[{"internalType":"contract Key","name":"","type":"address"}],"stateMutability":"view","type":"function"},{"inputs":[{"internalType":"address","name":"to","type":"address"},{"internalType":"uint256","name":"tokenId","type":"uint256"}],"name":"approve","outputs":[],"stateMutability":"nonpayable","type":"function"},{"inputs":[{"internalType":"address","name":"owner","type":"address"}],"name":"balanceOf","outputs":[{"internalType":"uint256","name":"","type":"uint256"}],"stateMutability":"view","type":"function"},{"inputs":[{"internalType":"uint256","name":"","type":"uint256"}],"name":"bookIdToBookStruct","outputs":[{"internalType":"string","name":"cid","type":"string"},{"internalType":"uint256","name":"purchasePrice","type":"uint256"},{"internalType":"uint256","name":"rentPrice","type":"uint256"},{"internalType":"uint256","name":"totalRevenue","type":"uint256"}],"stateMutability":"view","type":"function"},{"inputs":[{"internalType":"uint256","name":"bookId","type":"uint256"}],"name":"buyAccess","outputs":[],"stateMutability":"payable","type":"function"},{"inputs":[{"internalType":"uint256","name":"keyId","type":"uint256"}],"name":"buyBookOwnership","outputs":[],"stateMutability":"nonpayable","type":"function"},{"inputs":[{"internalType":"uint256","name":"bookId","type":"uint256"},{"internalType":"address","name":"caller","type":"address"}],"name":"canAccessBook","outputs":[{"internalType":"bool","name":"","type":"bool"}],"stateMutability":"view","type":"function"},{"inputs":[{"internalType":"string","name":"cid","type":"string"}],"name":"createBook","outputs":[],"stateMutability":"nonpayable","type":"function"},{"inputs":[{"internalType":"uint256","name":"tokenId","type":"uint256"}],"name":"getApproved","outputs":[{"internalType":"address","name":"","type":"address"}],"stateMutability":"view","type":"function"},{"inputs":[{"internalType":"uint256","name":"bookId","type":"uint256"}],"name":"getBookProfit","outputs":[{"internalType":"uint256","name":"","type":"uint256"}],"stateMutability":"view","type":"function"},{"inputs":[{"internalType":"address","name":"owner","type":"address"},{"internalType":"address","name":"operator","type":"address"}],"name":"isApprovedForAll","outputs":[{"internalType":"bool","name":"","type":"bool"}],"stateMutability":"view","type":"function"},{"inputs":[],"name":"name","outputs":[{"internalType":"string","name":"","type":"string"}],"stateMutability":"view","type":"function"},{"inputs":[{"internalType":"uint256","name":"tokenId","type":"uint256"}],"name":"ownerOf","outputs":[{"internalType":"address","name":"","type":"address"}],"stateMutability":"view","type":"function"},{"inputs":[{"internalType":"uint256","name":"bookId","type":"uint256"}],"name":"rentAccess","outputs":[],"stateMutability":"payable","type":"function"},{"inputs":[{"internalType":"address","name":"from","type":"address"},{"internalType":"address","name":"to","type":"address"},{"internalType":"uint256","name":"tokenId","type":"uint256"}],"name":"safeTransferFrom","outputs":[],"stateMutability":"nonpayable","type":"function"},{"inputs":[{"internalType":"address","name":"from","type":"address"},{"internalType":"address","name":"to","type":"address"},{"internalType":"uint256","name":"tokenId","type":"uint256"},{"internalType":"bytes","name":"data","type":"bytes"}],"name":"safeTransferFrom","outputs":[],"stateMutability":"nonpayable","type":"function"},{"inputs":[{"internalType":"uint256","name":"keyId","type":"uint256"}],"name":"sellBookOwnership","outputs":[],"stateMutability":"nonpayable","type":"function"},{"inputs":[{"internalType":"address","name":"operator","type":"address"},{"internalType":"bool","name":"approved","type":"bool"}],"name":"setApprovalForAll","outputs":[],"stateMutability":"nonpayable","type":"function"},{"inputs":[{"internalType":"bytes4","name":"interfaceId","type":"bytes4"}],"name":"supportsInterface","outputs":[{"internalType":"bool","name":"","type":"bool"}],"stateMutability":"view","type":"function"},{"inputs":[],"name":"symbol","outputs":[{"internalType":"string","name":"","type":"string"}],"stateMutability":"view","type":"function"},{"inputs":[{"internalType":"uint256","name":"tokenId","type":"uint256"}],"name":"tokenURI","outputs":[{"internalType":"string","name":"","type":"string"}],"stateMutability":"view","type":"function"},{"inputs":[{"internalType":"address","name":"from","type":"address"},{"internalType":"address","name":"to","type":"address"},{"internalType":"uint256","name":"tokenId","type":"uint256"}],"name":"transferFrom","outputs":[],"stateMutability":"nonpayable","type":"function"},{"inputs":[{"internalType":"uint256","name":"bookId","type":"uint256"},{"internalType":"uint256","name":"purchasePrice","type":"uint256"},{"internalType":"uint256","name":"rentPrice","type":"uint256"}],"name":"uploadBook","outputs":[],"stateMutability":"nonpayable","type":"function"},{"inputs":[{"internalType":"uint256","name":"bookId","type":"uint256"}],"name":"withdrawProfit","outputs":[],"stateMutability":"payable","type":"function"},{"stateMutability":"payable","type":"receive"}],"bytecode":"0x60a06040523480156200001157600080fd5b5060405162004555380380620045558339818101604052810190620000379190620001c8565b6040518060400160405280600481526020017f426f6f6b000000000000000000000000000000000000000000000000000000008152506040518060400160405280600281526020017f426b0000000000000000000000000000000000000000000000000000000000008152508160009081620000b4919062000489565b508060019081620000c6919062000489565b50505081600860006101000a81548160ff021916908360ff1602179055508073ffffffffffffffffffffffffffffffffffffffff1660808173ffffffffffffffffffffffffffffffffffffffff1681525050505062000570565b600080fd5b600060ff82169050919050565b6200013d8162000125565b81146200014957600080fd5b50565b6000815190506200015d8162000132565b92915050565b600073ffffffffffffffffffffffffffffffffffffffff82169050919050565b6000620001908262000163565b9050919050565b620001a28162000183565b8114620001ae57600080fd5b50565b600081519050620001c28162000197565b92915050565b60008060408385031215620001e257620001e162000120565b5b6000620001f2858286016200014c565b92505060206200020585828601620001b1565b9150509250929050565b600081519050919050565b7f4e487b7100000000000000000000000000000000000000000000000000000000600052604160045260246000fd5b7f4e487b7100000000000000000000000000000000000000000000000000000000600052602260045260246000fd5b600060028204905060018216806200029157607f821691505b602082108103620002a757620002a662000249565b5b50919050565b60008190508160005260206000209050919050565b60006020601f8301049050919050565b600082821b905092915050565b600060088302620003117fffffffffffffffffffffffffffffffffffffffffffffffffffffffffffffffff82620002d2565b6200031d8683620002d2565b95508019841693508086168417925050509392505050565b6000819050919050565b6000819050919050565b60006200036a620003646200035e8462000335565b6200033f565b62000335565b9050919050565b6000819050919050565b620003868362000349565b6200039e620003958262000371565b848454620002df565b825550505050565b600090565b620003b5620003a6565b620003c28184846200037b565b505050565b5b81811015620003ea57620003de600082620003ab565b600181019050620003c8565b5050565b601f82111562000439576200040381620002ad565b6200040e84620002c2565b810160208510156200041e578190505b620004366200042d85620002c2565b830182620003c7565b50505b505050565b600082821c905092915050565b60006200045e600019846008026200043e565b1980831691505092915050565b60006200047983836200044b565b9150826002028217905092915050565b62000494826200020f565b67ffffffffffffffff811115620004b057620004af6200021a565b5b620004bc825462000278565b620004c9828285620003ee565b600060209050601f831160018114620005015760008415620004ec578287015190505b620004f885826200046b565b86555062000568565b601f1984166200051186620002ad565b60005b828110156200053b5784890151825560018201915060208501945060208101905062000514565b868310156200055b578489015162000557601f8916826200044b565b8355505b6001600288020188555050505b505050505050565b608051613f8a620005cb6000396000818161098a01528181610b0401528181610ba801528181610c4501528181610d5301528181610f22015281816115790152818161161d015281816116ba01526117d50152613f8a6000f3fe60806040526004361061016a5760003560e01c80639072df6b116100d1578063b9f72b7d1161008a578063dc4e35e811610064578063dc4e35e814610562578063e985e9c51461057e578063f699343e146105bb578063f9c9c878146105e657610171565b8063b9f72b7d146104e0578063c87b56dd14610509578063d82a2bea1461054657610171565b80639072df6b146103bd57806395d89b41146103e6578063a22cb46514610411578063ada3bb701461043a578063b75174f014610477578063b88d4fde146104b757610171565b806342842e0e1161012357806342842e0e146102aa57806350a1a264146102d35780636352211e146102ef57806370a082311461032c57806374ad7ac414610369578063815092d71461039457610171565b806301ffc9a71461017657806306fdde03146101b3578063081812fc146101de578063095ea7b31461021b57806323b872dd1461024457806336d964121461026d57610171565b3661017157005b600080fd5b34801561018257600080fd5b5061019d600480360381019061019891906129e8565b61060f565b6040516101aa9190612a30565b60405180910390f35b3480156101bf57600080fd5b506101c86106f1565b6040516101d59190612adb565b60405180910390f35b3480156101ea57600080fd5b5061020560048036038101906102009190612b33565b610783565b6040516102129190612ba1565b60405180910390f35b34801561022757600080fd5b50610242600480360381019061023d9190612be8565b6107c9565b005b34801561025057600080fd5b5061026b60048036038101906102669190612c28565b6108e0565b005b34801561027957600080fd5b50610294600480360381019061028f9190612c7b565b610940565b6040516102a19190612a30565b60405180910390f35b3480156102b657600080fd5b506102d160048036038101906102cc9190612c28565b610a82565b005b6102ed60048036038101906102e89190612b33565b610aa2565b005b3480156102fb57600080fd5b5061031660048036038101906103119190612b33565b610de3565b6040516103239190612ba1565b60405180910390f35b34801561033857600080fd5b50610353600480360381019061034e9190612cbb565b610e69565b6040516103609190612cf7565b60405180910390f35b34801561037557600080fd5b5061037e610f20565b60405161038b9190612d71565b60405180910390f35b3480156103a057600080fd5b506103bb60048036038101906103b69190612d8c565b610f44565b005b3480156103c957600080fd5b506103e460048036038101906103df9190612b33565b611087565b005b3480156103f257600080fd5b506103fb61108a565b6040516104089190612adb565b60405180910390f35b34801561041d57600080fd5b5061043860048036038101906104339190612e0b565b61111c565b005b34801561044657600080fd5b50610461600480360381019061045c9190612b33565b611132565b60405161046e9190612cf7565b60405180910390f35b34801561048357600080fd5b5061049e60048036038101906104999190612b33565b611157565b6040516104ae9493929190612e4b565b60405180910390f35b3480156104c357600080fd5b506104de60048036038101906104d99190612fcc565b61120f565b005b3480156104ec57600080fd5b50610507600480360381019061050291906130f0565b611271565b005b34801561051557600080fd5b50610530600480360381019061052b9190612b33565b611305565b60405161053d9190612adb565b60405180910390f35b610560600480360381019061055b9190612b33565b611417565b005b61057c60048036038101906105779190612b33565b611517565b005b34801561058a57600080fd5b506105a560048036038101906105a09190613139565b6118ba565b6040516105b29190612a30565b60405180910390f35b3480156105c757600080fd5b506105d061194e565b6040516105dd9190613195565b60405180910390f35b3480156105f257600080fd5b5061060d60048036038101906106089190612b33565b611961565b005b60007f80ac58cd000000000000000000000000000000000000000000000000000000007bffffffffffffffffffffffffffffffffffffffffffffffffffffffff1916827bffffffffffffffffffffffffffffffffffffffffffffffffffffffff191614806106da57507f5b5e139f000000000000000000000000000000000000000000000000000000007bffffffffffffffffffffffffffffffffffffffffffffffffffffffff1916827bffffffffffffffffffffffffffffffffffffffffffffffffffffffff1916145b806106ea57506106e982611964565b5b9050919050565b606060008054610700906131df565b80601f016020809104026020016040519081016040528092919081815260200182805461072c906131df565b80156107795780601f1061074e57610100808354040283529160200191610779565b820191906000526020600020905b81548152906001019060200180831161075c57829003601f168201915b5050505050905090565b600061078e826119ce565b6004600083815260200190815260200160002060009054906101000a900473ffffffffffffffffffffffffffffffffffffffff169050919050565b60006107d482610de3565b90508073ffffffffffffffffffffffffffffffffffffffff168373ffffffffffffffffffffffffffffffffffffffff1603610844576040517f08c379a000000000000000000000000000000000000000000000000000000000815260040161083b90613282565b60405180910390fd5b8073ffffffffffffffffffffffffffffffffffffffff16610863611a19565b73ffffffffffffffffffffffffffffffffffffffff16148061089257506108918161088c611a19565b6118ba565b5b6108d1576040517f08c379a00000000000000000000000000000000000000000000000000000000081526004016108c890613314565b60405180910390fd5b6108db8383611a21565b505050565b6108f16108eb611a19565b82611ada565b610930576040517f08c379a0000000000000000000000000000000000000000000000000000000008152600401610927906133a6565b60405180910390fd5b61093b838383611b6f565b505050565b60008173ffffffffffffffffffffffffffffffffffffffff1661096284610de3565b73ffffffffffffffffffffffffffffffffffffffff16036109865760019050610a7c565b60007f000000000000000000000000000000000000000000000000000000000000000073ffffffffffffffffffffffffffffffffffffffff1663745c84ca846040518263ffffffff1660e01b81526004016109e19190612ba1565b602060405180830381865afa1580156109fe573d6000803e3d6000fd5b505050506040513d601f19601f82011682018060405250810190610a2291906133db565b905060008103610a36576000915050610a7c565b600060096000868152602001908152602001600020905042816004016000848152602001908152602001600020541115610a7557600192505050610a7c565b6000925050505b92915050565b610a9d8383836040518060200160405280600081525061120f565b505050565b60006009600083815260200190815260200160002090508060010154341015610b00576040517f08c379a0000000000000000000000000000000000000000000000000000000008152600401610af790613454565b60405180910390fd5b60007f000000000000000000000000000000000000000000000000000000000000000073ffffffffffffffffffffffffffffffffffffffff1663745c84ca336040518263ffffffff1660e01b8152600401610b5b9190612ba1565b602060405180830381865afa158015610b78573d6000803e3d6000fd5b505050506040513d601f19601f82011682018060405250810190610b9c91906133db565b905060008103610ce0577f000000000000000000000000000000000000000000000000000000000000000073ffffffffffffffffffffffffffffffffffffffff166356ddf67b336040518263ffffffff1660e01b8152600401610bff9190612ba1565b6020604051808303816000875af1158015610c1e573d6000803e3d6000fd5b505050506040513d601f19601f82011682018060405250810190610c4291906133db565b507f000000000000000000000000000000000000000000000000000000000000000073ffffffffffffffffffffffffffffffffffffffff1663745c84ca336040518263ffffffff1660e01b8152600401610c9c9190612ba1565b602060405180830381865afa158015610cb9573d6000803e3d6000fd5b505050506040513d601f19601f82011682018060405250810190610cdd91906133db565b90505b7fffffffffffffffffffffffffffffffffffffffffffffffffffffffffffffffff82600401600083815260200190815260200160002081905550610d37600860009054906101000a900460ff168360010154611e68565b826003016000828254610d4a91906134a3565b925050819055507f000000000000000000000000000000000000000000000000000000000000000073ffffffffffffffffffffffffffffffffffffffff16632597e04782856040518363ffffffff1660e01b8152600401610dac9291906134d7565b600060405180830381600087803b158015610dc657600080fd5b505af1158015610dda573d6000803e3d6000fd5b50505050505050565b600080610def83611e99565b9050600073ffffffffffffffffffffffffffffffffffffffff168173ffffffffffffffffffffffffffffffffffffffff1603610e60576040517f08c379a0000000000000000000000000000000000000000000000000000000008152600401610e579061354c565b60405180910390fd5b80915050919050565b60008073ffffffffffffffffffffffffffffffffffffffff168273ffffffffffffffffffffffffffffffffffffffff1603610ed9576040517f08c379a0000000000000000000000000000000000000000000000000000000008152600401610ed0906135de565b60405180910390fd5b600360008373ffffffffffffffffffffffffffffffffffffffff1673ffffffffffffffffffffffffffffffffffffffff168152602001908152602001600020549050919050565b7f000000000000000000000000000000000000000000000000000000000000000081565b600083118015610f5d5750610f596007611ed6565b8311155b610f9c576040517f08c379a0000000000000000000000000000000000000000000000000000000008152600401610f939061364a565b60405180910390fd5b3373ffffffffffffffffffffffffffffffffffffffff16610fbc84610de3565b73ffffffffffffffffffffffffffffffffffffffff1614611012576040517f08c379a0000000000000000000000000000000000000000000000000000000008152600401611009906136b6565b60405180910390fd5b816009600085815260200190815260200160002060010181905550806009600085815260200190815260200160002060020181905550827f204930f3db2bb7f6984c024cf2a93710045c72024ec59bff7d4e63b2409c841e838360405161107a9291906134d7565b60405180910390a2505050565b50565b606060018054611099906131df565b80601f01602080910402602001604051908101604052809291908181526020018280546110c5906131df565b80156111125780601f106110e757610100808354040283529160200191611112565b820191906000526020600020905b8154815290600101906020018083116110f557829003601f168201915b5050505050905090565b61112e611127611a19565b8383611ee4565b5050565b6000806009600084815260200190815260200160002090508060030154915050919050565b600960205280600052604060002060009150905080600001805461117a906131df565b80601f01602080910402602001604051908101604052809291908181526020018280546111a6906131df565b80156111f35780601f106111c8576101008083540402835291602001916111f3565b820191906000526020600020905b8154815290600101906020018083116111d657829003601f168201915b5050505050908060010154908060020154908060030154905084565b61122061121a611a19565b83611ada565b61125f576040517f08c379a0000000000000000000000000000000000000000000000000000000008152600401611256906133a6565b60405180910390fd5b61126b84848484612050565b50505050565b61127b60076120ac565b60006112876007611ed6565b905061129333826120c2565b61129d81836120e0565b6000600960008381526020019081526020016000209050828160000190816112c59190613878565b50817f6f10a189e74c40865dbc37544147d0a3d57b2a5e5100daf4cd09cff5a9033c7233856040516112f892919061394a565b60405180910390a2505050565b6060611310826119ce565b6000600660008481526020019081526020016000208054611330906131df565b80601f016020809104026020016040519081016040528092919081815260200182805461135c906131df565b80156113a95780601f1061137e576101008083540402835291602001916113a9565b820191906000526020600020905b81548152906001019060200180831161138c57829003601f168201915b5050505050905060006113ba61214d565b905060008151036113cf578192505050611412565b6000825111156114045780826040516020016113ec9291906139b6565b60405160208183030381529060405292505050611412565b61140d84612164565b925050505b919050565b3373ffffffffffffffffffffffffffffffffffffffff1661143782610de3565b73ffffffffffffffffffffffffffffffffffffffff161461148d576040517f08c379a0000000000000000000000000000000000000000000000000000000008152600401611484906136b6565b60405180910390fd5b600060096000838152602001908152602001600020600301549050600060096000848152602001908152602001600020600301819055506114cd82610de3565b73ffffffffffffffffffffffffffffffffffffffff166108fc829081150290604051600060405180830381858888f19350505050158015611512573d6000803e3d6000fd5b505050565b60006009600083815260200190815260200160002090508060020154341015611575576040517f08c379a000000000000000000000000000000000000000000000000000000000815260040161156c90613454565b60405180910390fd5b60007f000000000000000000000000000000000000000000000000000000000000000073ffffffffffffffffffffffffffffffffffffffff1663745c84ca336040518263ffffffff1660e01b81526004016115d09190612ba1565b602060405180830381865afa1580156115ed573d6000803e3d6000fd5b505050506040513d601f19601f8201168201806040525081019061161191906133db565b905060008103611755577f000000000000000000000000000000000000000000000000000000000000000073ffffffffffffffffffffffffffffffffffffffff166356ddf67b336040518263ffffffff1660e01b81526004016116749190612ba1565b6020604051808303816000875af1158015611693573d6000803e3d6000fd5b505050506040513d601f19601f820116820180604052508101906116b791906133db565b507f000000000000000000000000000000000000000000000000000000000000000073ffffffffffffffffffffffffffffffffffffffff1663745c84ca336040518263ffffffff1660e01b81526004016117119190612ba1565b602060405180830381865afa15801561172e573d6000803e3d6000fd5b505050506040513d601f19601f8201168201806040525081019061175291906133db565b90505b60008260020154620151803461176b91906139da565b6117759190613a4b565b4261178091906134a3565b905080836004016000848152602001908152602001600020819055506117b9600860009054906101000a900460ff168460020154611e68565b8360030160008282546117cc91906134a3565b925050819055507f000000000000000000000000000000000000000000000000000000000000000073ffffffffffffffffffffffffffffffffffffffff16632597e04783866040518363ffffffff1660e01b815260040161182e9291906134d7565b600060405180830381600087803b15801561184857600080fd5b505af115801561185c573d6000803e3d6000fd5b505050507ffb882a53492d19735e4736247541befcac221922df2603a7b9edef5989fe0c6e8360020154620151803461189591906139da565b61189f9190613a4b565b6040516118ac9190612cf7565b60405180910390a150505050565b6000600560008473ffffffffffffffffffffffffffffffffffffffff1673ffffffffffffffffffffffffffffffffffffffff16815260200190815260200160002060008373ffffffffffffffffffffffffffffffffffffffff1673ffffffffffffffffffffffffffffffffffffffff16815260200190815260200160002060009054906101000a900460ff16905092915050565b600860009054906101000a900460ff1681565b50565b60007f01ffc9a7000000000000000000000000000000000000000000000000000000007bffffffffffffffffffffffffffffffffffffffffffffffffffffffff1916827bffffffffffffffffffffffffffffffffffffffffffffffffffffffff1916149050919050565b6119d7816121cc565b611a16576040517f08c379a0000000000000000000000000000000000000000000000000000000008152600401611a0d9061354c565b60405180910390fd5b50565b600033905090565b816004600083815260200190815260200160002060006101000a81548173ffffffffffffffffffffffffffffffffffffffff021916908373ffffffffffffffffffffffffffffffffffffffff160217905550808273ffffffffffffffffffffffffffffffffffffffff16611a9483610de3565b73ffffffffffffffffffffffffffffffffffffffff167f8c5be1e5ebec7d5bd14f71427d1e84f3dd0314c0f7b2291e5b200ac8c7c3b92560405160405180910390a45050565b600080611ae683610de3565b90508073ffffffffffffffffffffffffffffffffffffffff168473ffffffffffffffffffffffffffffffffffffffff161480611b285750611b2781856118ba565b5b80611b6657508373ffffffffffffffffffffffffffffffffffffffff16611b4e84610783565b73ffffffffffffffffffffffffffffffffffffffff16145b91505092915050565b8273ffffffffffffffffffffffffffffffffffffffff16611b8f82610de3565b73ffffffffffffffffffffffffffffffffffffffff1614611be5576040517f08c379a0000000000000000000000000000000000000000000000000000000008152600401611bdc90613aee565b60405180910390fd5b600073ffffffffffffffffffffffffffffffffffffffff168273ffffffffffffffffffffffffffffffffffffffff1603611c54576040517f08c379a0000000000000000000000000000000000000000000000000000000008152600401611c4b90613b80565b60405180910390fd5b611c61838383600161220d565b8273ffffffffffffffffffffffffffffffffffffffff16611c8182610de3565b73ffffffffffffffffffffffffffffffffffffffff1614611cd7576040517f08c379a0000000000000000000000000000000000000000000000000000000008152600401611cce90613aee565b60405180910390fd5b6004600082815260200190815260200160002060006101000a81549073ffffffffffffffffffffffffffffffffffffffff02191690556001600360008573ffffffffffffffffffffffffffffffffffffffff1673ffffffffffffffffffffffffffffffffffffffff168152602001908152602001600020600082825403925050819055506001600360008473ffffffffffffffffffffffffffffffffffffffff1673ffffffffffffffffffffffffffffffffffffffff16815260200190815260200160002060008282540192505081905550816002600083815260200190815260200160002060006101000a81548173ffffffffffffffffffffffffffffffffffffffff021916908373ffffffffffffffffffffffffffffffffffffffff160217905550808273ffffffffffffffffffffffffffffffffffffffff168473ffffffffffffffffffffffffffffffffffffffff167fddf252ad1be2c89b69c2b068fc378daa952ba7f163c4a11628f55a4df523b3ef60405160405180910390a4611e638383836001612333565b505050565b6000606482846064611e7a9190613ba0565b60ff16611e8791906139da565b611e919190613a4b565b905092915050565b60006002600083815260200190815260200160002060009054906101000a900473ffffffffffffffffffffffffffffffffffffffff169050919050565b600081600001549050919050565b8173ffffffffffffffffffffffffffffffffffffffff168373ffffffffffffffffffffffffffffffffffffffff1603611f52576040517f08c379a0000000000000000000000000000000000000000000000000000000008152600401611f4990613c21565b60405180910390fd5b80600560008573ffffffffffffffffffffffffffffffffffffffff1673ffffffffffffffffffffffffffffffffffffffff16815260200190815260200160002060008473ffffffffffffffffffffffffffffffffffffffff1673ffffffffffffffffffffffffffffffffffffffff16815260200190815260200160002060006101000a81548160ff0219169083151502179055508173ffffffffffffffffffffffffffffffffffffffff168373ffffffffffffffffffffffffffffffffffffffff167f17307eab39ab6107e8899845ad3d59bd9653f200f220920489ca2b5937696c31836040516120439190612a30565b60405180910390a3505050565b61205b848484611b6f565b61206784848484612339565b6120a6576040517f08c379a000000000000000000000000000000000000000000000000000000000815260040161209d90613cb3565b60405180910390fd5b50505050565b6001816000016000828254019250508190555050565b6120dc8282604051806020016040528060008152506124c0565b5050565b6120e9826121cc565b612128576040517f08c379a000000000000000000000000000000000000000000000000000000000815260040161211f90613d45565b60405180910390fd5b806006600084815260200190815260200160002090816121489190613878565b505050565b606060405180602001604052806000815250905090565b606061216f826119ce565b600061217961214d565b9050600081511161219957604051806020016040528060008152506121c4565b806121a38461251b565b6040516020016121b49291906139b6565b6040516020818303038152906040525b915050919050565b60008073ffffffffffffffffffffffffffffffffffffffff166121ee83611e99565b73ffffffffffffffffffffffffffffffffffffffff1614159050919050565b600181111561232d57600073ffffffffffffffffffffffffffffffffffffffff168473ffffffffffffffffffffffffffffffffffffffff16146122a15780600360008673ffffffffffffffffffffffffffffffffffffffff1673ffffffffffffffffffffffffffffffffffffffff16815260200190815260200160002060008282546122999190613d65565b925050819055505b600073ffffffffffffffffffffffffffffffffffffffff168373ffffffffffffffffffffffffffffffffffffffff161461232c5780600360008573ffffffffffffffffffffffffffffffffffffffff1673ffffffffffffffffffffffffffffffffffffffff168152602001908152602001600020600082825461232491906134a3565b925050819055505b5b50505050565b50505050565b600061235a8473ffffffffffffffffffffffffffffffffffffffff166125e9565b156124b3578373ffffffffffffffffffffffffffffffffffffffff1663150b7a02612383611a19565b8786866040518563ffffffff1660e01b81526004016123a59493929190613dee565b6020604051808303816000875af19250505080156123e157506040513d601f19601f820116820180604052508101906123de9190613e4f565b60015b612463573d8060008114612411576040519150601f19603f3d011682016040523d82523d6000602084013e612416565b606091505b50600081510361245b576040517f08c379a000000000000000000000000000000000000000000000000000000000815260040161245290613cb3565b60405180910390fd5b805181602001fd5b63150b7a0260e01b7bffffffffffffffffffffffffffffffffffffffffffffffffffffffff1916817bffffffffffffffffffffffffffffffffffffffffffffffffffffffff1916149150506124b8565b600190505b949350505050565b6124ca838361260c565b6124d76000848484612339565b612516576040517f08c379a000000000000000000000000000000000000000000000000000000000815260040161250d90613cb3565b60405180910390fd5b505050565b60606000600161252a84612829565b01905060008167ffffffffffffffff81111561254957612548612ea1565b5b6040519080825280601f01601f19166020018201604052801561257b5781602001600182028036833780820191505090505b509050600082602001820190505b6001156125de578080600190039150507f3031323334353637383961626364656600000000000000000000000000000000600a86061a8153600a85816125d2576125d1613a1c565b5b04945060008503612589575b819350505050919050565b6000808273ffffffffffffffffffffffffffffffffffffffff163b119050919050565b600073ffffffffffffffffffffffffffffffffffffffff168273ffffffffffffffffffffffffffffffffffffffff160361267b576040517f08c379a000000000000000000000000000000000000000000000000000000000815260040161267290613ec8565b60405180910390fd5b612684816121cc565b156126c4576040517f08c379a00000000000000000000000000000000000000000000000000000000081526004016126bb90613f34565b60405180910390fd5b6126d260008383600161220d565b6126db816121cc565b1561271b576040517f08c379a000000000000000000000000000000000000000000000000000000000815260040161271290613f34565b60405180910390fd5b6001600360008473ffffffffffffffffffffffffffffffffffffffff1673ffffffffffffffffffffffffffffffffffffffff16815260200190815260200160002060008282540192505081905550816002600083815260200190815260200160002060006101000a81548173ffffffffffffffffffffffffffffffffffffffff021916908373ffffffffffffffffffffffffffffffffffffffff160217905550808273ffffffffffffffffffffffffffffffffffffffff16600073ffffffffffffffffffffffffffffffffffffffff167fddf252ad1be2c89b69c2b068fc378daa952ba7f163c4a11628f55a4df523b3ef60405160405180910390a4612825600083836001612333565b5050565b600080600090507a184f03e93ff9f4daa797ed6e38ed64bf6a1f0100000000000000008310612887577a184f03e93ff9f4daa797ed6e38ed64bf6a1f010000000000000000838161287d5761287c613a1c565b5b0492506040810190505b6d04ee2d6d415b85acef810000000083106128c4576d04ee2d6d415b85acef810000000083816128ba576128b9613a1c565b5b0492506020810190505b662386f26fc1000083106128f357662386f26fc1000083816128e9576128e8613a1c565b5b0492506010810190505b6305f5e100831061291c576305f5e100838161291257612911613a1c565b5b0492506008810190505b612710831061294157612710838161293757612936613a1c565b5b0492506004810190505b60648310612964576064838161295a57612959613a1c565b5b0492506002810190505b600a8310612973576001810190505b80915050919050565b6000604051905090565b600080fd5b600080fd5b60007fffffffff0000000000000000000000000000000000000000000000000000000082169050919050565b6129c581612990565b81146129d057600080fd5b50565b6000813590506129e2816129bc565b92915050565b6000602082840312156129fe576129fd612986565b5b6000612a0c848285016129d3565b91505092915050565b60008115159050919050565b612a2a81612a15565b82525050565b6000602082019050612a456000830184612a21565b92915050565b600081519050919050565b600082825260208201905092915050565b60005b83811015612a85578082015181840152602081019050612a6a565b60008484015250505050565b6000601f19601f8301169050919050565b6000612aad82612a4b565b612ab78185612a56565b9350612ac7818560208601612a67565b612ad081612a91565b840191505092915050565b60006020820190508181036000830152612af58184612aa2565b905092915050565b6000819050919050565b612b1081612afd565b8114612b1b57600080fd5b50565b600081359050612b2d81612b07565b92915050565b600060208284031215612b4957612b48612986565b5b6000612b5784828501612b1e565b91505092915050565b600073ffffffffffffffffffffffffffffffffffffffff82169050919050565b6000612b8b82612b60565b9050919050565b612b9b81612b80565b82525050565b6000602082019050612bb66000830184612b92565b92915050565b612bc581612b80565b8114612bd057600080fd5b50565b600081359050612be281612bbc565b92915050565b60008060408385031215612bff57612bfe612986565b5b6000612c0d85828601612bd3565b9250506020612c1e85828601612b1e565b9150509250929050565b600080600060608486031215612c4157612c40612986565b5b6000612c4f86828701612bd3565b9350506020612c6086828701612bd3565b9250506040612c7186828701612b1e565b9150509250925092565b60008060408385031215612c9257612c91612986565b5b6000612ca085828601612b1e565b9250506020612cb185828601612bd3565b9150509250929050565b600060208284031215612cd157612cd0612986565b5b6000612cdf84828501612bd3565b91505092915050565b612cf181612afd565b82525050565b6000602082019050612d0c6000830184612ce8565b92915050565b6000819050919050565b6000612d37612d32612d2d84612b60565b612d12565b612b60565b9050919050565b6000612d4982612d1c565b9050919050565b6000612d5b82612d3e565b9050919050565b612d6b81612d50565b82525050565b6000602082019050612d866000830184612d62565b92915050565b600080600060608486031215612da557612da4612986565b5b6000612db386828701612b1e565b9350506020612dc486828701612b1e565b9250506040612dd586828701612b1e565b9150509250925092565b612de881612a15565b8114612df357600080fd5b50565b600081359050612e0581612ddf565b92915050565b60008060408385031215612e2257612e21612986565b5b6000612e3085828601612bd3565b9250506020612e4185828601612df6565b9150509250929050565b60006080820190508181036000830152612e658187612aa2565b9050612e746020830186612ce8565b612e816040830185612ce8565b612e8e6060830184612ce8565b95945050505050565b600080fd5b600080fd5b7f4e487b7100000000000000000000000000000000000000000000000000000000600052604160045260246000fd5b612ed982612a91565b810181811067ffffffffffffffff82111715612ef857612ef7612ea1565b5b80604052505050565b6000612f0b61297c565b9050612f178282612ed0565b919050565b600067ffffffffffffffff821115612f3757612f36612ea1565b5b612f4082612a91565b9050602081019050919050565b82818337600083830152505050565b6000612f6f612f6a84612f1c565b612f01565b905082815260208101848484011115612f8b57612f8a612e9c565b5b612f96848285612f4d565b509392505050565b600082601f830112612fb357612fb2612e97565b5b8135612fc3848260208601612f5c565b91505092915050565b60008060008060808587031215612fe657612fe5612986565b5b6000612ff487828801612bd3565b945050602061300587828801612bd3565b935050604061301687828801612b1e565b925050606085013567ffffffffffffffff8111156130375761303661298b565b5b61304387828801612f9e565b91505092959194509250565b600067ffffffffffffffff82111561306a57613069612ea1565b5b61307382612a91565b9050602081019050919050565b600061309361308e8461304f565b612f01565b9050828152602081018484840111156130af576130ae612e9c565b5b6130ba848285612f4d565b509392505050565b600082601f8301126130d7576130d6612e97565b5b81356130e7848260208601613080565b91505092915050565b60006020828403121561310657613105612986565b5b600082013567ffffffffffffffff8111156131245761312361298b565b5b613130848285016130c2565b91505092915050565b600080604083850312156131505761314f612986565b5b600061315e85828601612bd3565b925050602061316f85828601612bd3565b9150509250929050565b600060ff82169050919050565b61318f81613179565b82525050565b60006020820190506131aa6000830184613186565b92915050565b7f4e487b7100000000000000000000000000000000000000000000000000000000600052602260045260246000fd5b600060028204905060018216806131f757607f821691505b60208210810361320a576132096131b0565b5b50919050565b7f4552433732313a20617070726f76616c20746f2063757272656e74206f776e6560008201527f7200000000000000000000000000000000000000000000000000000000000000602082015250565b600061326c602183612a56565b915061327782613210565b604082019050919050565b6000602082019050818103600083015261329b8161325f565b9050919050565b7f4552433732313a20617070726f76652063616c6c6572206973206e6f7420746f60008201527f6b656e206f776e6572206f7220617070726f76656420666f7220616c6c000000602082015250565b60006132fe603d83612a56565b9150613309826132a2565b604082019050919050565b6000602082019050818103600083015261332d816132f1565b9050919050565b7f4552433732313a2063616c6c6572206973206e6f7420746f6b656e206f776e6560008201527f72206f7220617070726f76656400000000000000000000000000000000000000602082015250565b6000613390602d83612a56565b915061339b82613334565b604082019050919050565b600060208201905081810360008301526133bf81613383565b9050919050565b6000815190506133d581612b07565b92915050565b6000602082840312156133f1576133f0612986565b5b60006133ff848285016133c6565b91505092915050565b7f6e6f7420656e6f7567682046494c2073656e7400000000000000000000000000600082015250565b600061343e601383612a56565b915061344982613408565b602082019050919050565b6000602082019050818103600083015261346d81613431565b9050919050565b7f4e487b7100000000000000000000000000000000000000000000000000000000600052601160045260246000fd5b60006134ae82612afd565b91506134b983612afd565b92508282019050808211156134d1576134d0613474565b5b92915050565b60006040820190506134ec6000830185612ce8565b6134f96020830184612ce8565b9392505050565b7f4552433732313a20696e76616c696420746f6b656e2049440000000000000000600082015250565b6000613536601883612a56565b915061354182613500565b602082019050919050565b6000602082019050818103600083015261356581613529565b9050919050565b7f4552433732313a2061646472657373207a65726f206973206e6f74206120766160008201527f6c6964206f776e65720000000000000000000000000000000000000000000000602082015250565b60006135c8602983612a56565b91506135d38261356c565b604082019050919050565b600060208201905081810360008301526135f7816135bb565b9050919050565b7f4e6f6e2d6578697374656e7420626f6f6b000000000000000000000000000000600082015250565b6000613634601183612a56565b915061363f826135fe565b602082019050919050565b6000602082019050818103600083015261366381613627565b9050919050565b7f6e6f7420626f6f6b206f776e6572000000000000000000000000000000000000600082015250565b60006136a0600e83612a56565b91506136ab8261366a565b602082019050919050565b600060208201905081810360008301526136cf81613693565b9050919050565b60008190508160005260206000209050919050565b60006020601f8301049050919050565b600082821b905092915050565b6000600883026137387fffffffffffffffffffffffffffffffffffffffffffffffffffffffffffffffff826136fb565b61374286836136fb565b95508019841693508086168417925050509392505050565b600061377561377061376b84612afd565b612d12565b612afd565b9050919050565b6000819050919050565b61378f8361375a565b6137a361379b8261377c565b848454613708565b825550505050565b600090565b6137b86137ab565b6137c3818484613786565b505050565b5b818110156137e7576137dc6000826137b0565b6001810190506137c9565b5050565b601f82111561382c576137fd816136d6565b613806846136eb565b81016020851015613815578190505b613829613821856136eb565b8301826137c8565b50505b505050565b600082821c905092915050565b600061384f60001984600802613831565b1980831691505092915050565b6000613868838361383e565b9150826002028217905092915050565b61388182612a4b565b67ffffffffffffffff81111561389a57613899612ea1565b5b6138a482546131df565b6138af8282856137eb565b600060209050601f8311600181146138e257600084156138d0578287015190505b6138da858261385c565b865550613942565b601f1984166138f0866136d6565b60005b82811015613918578489015182556001820191506020850194506020810190506138f3565b868310156139355784890151613931601f89168261383e565b8355505b6001600288020188555050505b505050505050565b600060408201905061395f6000830185612b92565b81810360208301526139718184612aa2565b90509392505050565b600081905092915050565b600061399082612a4b565b61399a818561397a565b93506139aa818560208601612a67565b80840191505092915050565b60006139c28285613985565b91506139ce8284613985565b91508190509392505050565b60006139e582612afd565b91506139f083612afd565b92508282026139fe81612afd565b91508282048414831517613a1557613a14613474565b5b5092915050565b7f4e487b7100000000000000000000000000000000000000000000000000000000600052601260045260246000fd5b6000613a5682612afd565b9150613a6183612afd565b925082613a7157613a70613a1c565b5b828204905092915050565b7f4552433732313a207472616e736665722066726f6d20696e636f72726563742060008201527f6f776e6572000000000000000000000000000000000000000000000000000000602082015250565b6000613ad8602583612a56565b9150613ae382613a7c565b604082019050919050565b60006020820190508181036000830152613b0781613acb565b9050919050565b7f4552433732313a207472616e7366657220746f20746865207a65726f2061646460008201527f7265737300000000000000000000000000000000000000000000000000000000602082015250565b6000613b6a602483612a56565b9150613b7582613b0e565b604082019050919050565b60006020820190508181036000830152613b9981613b5d565b9050919050565b6000613bab82613179565b9150613bb683613179565b9250828203905060ff811115613bcf57613bce613474565b5b92915050565b7f4552433732313a20617070726f766520746f2063616c6c657200000000000000600082015250565b6000613c0b601983612a56565b9150613c1682613bd5565b602082019050919050565b60006020820190508181036000830152613c3a81613bfe565b9050919050565b7f4552433732313a207472616e7366657220746f206e6f6e20455243373231526560008201527f63656976657220696d706c656d656e7465720000000000000000000000000000602082015250565b6000613c9d603283612a56565b9150613ca882613c41565b604082019050919050565b60006020820190508181036000830152613ccc81613c90565b9050919050565b7f45524337323155524953746f726167653a2055524920736574206f66206e6f6e60008201527f6578697374656e7420746f6b656e000000000000000000000000000000000000602082015250565b6000613d2f602e83612a56565b9150613d3a82613cd3565b604082019050919050565b60006020820190508181036000830152613d5e81613d22565b9050919050565b6000613d7082612afd565b9150613d7b83612afd565b9250828203905081811115613d9357613d92613474565b5b92915050565b600081519050919050565b600082825260208201905092915050565b6000613dc082613d99565b613dca8185613da4565b9350613dda818560208601612a67565b613de381612a91565b840191505092915050565b6000608082019050613e036000830187612b92565b613e106020830186612b92565b613e1d6040830185612ce8565b8181036060830152613e2f8184613db5565b905095945050505050565b600081519050613e49816129bc565b92915050565b600060208284031215613e6557613e64612986565b5b6000613e7384828501613e3a565b91505092915050565b7f4552433732313a206d696e7420746f20746865207a65726f2061646472657373600082015250565b6000613eb2602083612a56565b9150613ebd82613e7c565b602082019050919050565b60006020820190508181036000830152613ee181613ea5565b9050919050565b7f4552433732313a20746f6b656e20616c7265616479206d696e74656400000000600082015250565b6000613f1e601c83612a56565b9150613f2982613ee8565b602082019050919050565b60006020820190508181036000830152613f4d81613f11565b905091905056fea26469706673582212206e63101010585109925d59ea2996b2d96d3bd2efa94dd8ef8c90a9bacb42ad3264736f6c63430008110033"}