{
  "address": "0x0784D15192BcAC6E9dFFABc2087cd10567334DB6",
  "abi": [
    {
      "inputs": [
        {
          "internalType": "uint8",
          "name": "feePercentage",
          "type": "uint8"
        },
        {
          "internalType": "address",
          "name": "key",
          "type": "address"
        }
      ],
      "stateMutability": "nonpayable",
      "type": "constructor"
    },
    {
      "anonymous": false,
      "inputs": [
        {
          "indexed": true,
          "internalType": "address",
          "name": "owner",
          "type": "address"
        },
        {
          "indexed": true,
          "internalType": "address",
          "name": "approved",
          "type": "address"
        },
        {
          "indexed": true,
          "internalType": "uint256",
          "name": "tokenId",
          "type": "uint256"
        }
      ],
      "name": "Approval",
      "type": "event"
    },
    {
      "anonymous": false,
      "inputs": [
        {
          "indexed": true,
          "internalType": "address",
          "name": "owner",
          "type": "address"
        },
        {
          "indexed": true,
          "internalType": "address",
          "name": "operator",
          "type": "address"
        },
        {
          "indexed": false,
          "internalType": "bool",
          "name": "approved",
          "type": "bool"
        }
      ],
      "name": "ApprovalForAll",
      "type": "event"
    },
    {
      "anonymous": false,
      "inputs": [
        {
          "indexed": false,
          "internalType": "address",
          "name": "author",
          "type": "address"
        },
        {
          "indexed": false,
          "internalType": "string",
          "name": "cid",
          "type": "string"
        },
        {
          "indexed": true,
          "internalType": "uint256",
          "name": "bookId",
          "type": "uint256"
        }
      ],
      "name": "BookCreated",
      "type": "event"
    },
    {
      "anonymous": false,
      "inputs": [
        {
          "indexed": true,
          "internalType": "address",
          "name": "from",
          "type": "address"
        },
        {
          "indexed": true,
          "internalType": "address",
          "name": "to",
          "type": "address"
        },
        {
          "indexed": true,
          "internalType": "uint256",
          "name": "tokenId",
          "type": "uint256"
        }
      ],
      "name": "Transfer",
      "type": "event"
    },
    {
      "inputs": [],
      "name": "_feePercentage",
      "outputs": [
        {
          "internalType": "uint8",
          "name": "",
          "type": "uint8"
        }
      ],
      "stateMutability": "view",
      "type": "function"
    },
    {
      "inputs": [],
      "name": "_key",
      "outputs": [
        {
          "internalType": "contract Key",
          "name": "",
          "type": "address"
        }
      ],
      "stateMutability": "view",
      "type": "function"
    },
    {
      "inputs": [
        {
          "internalType": "address",
          "name": "to",
          "type": "address"
        },
        {
          "internalType": "uint256",
          "name": "tokenId",
          "type": "uint256"
        }
      ],
      "name": "approve",
      "outputs": [],
      "stateMutability": "nonpayable",
      "type": "function"
    },
    {
      "inputs": [
        {
          "internalType": "address",
          "name": "owner",
          "type": "address"
        }
      ],
      "name": "balanceOf",
      "outputs": [
        {
          "internalType": "uint256",
          "name": "",
          "type": "uint256"
        }
      ],
      "stateMutability": "view",
      "type": "function"
    },
    {
      "inputs": [
        {
          "internalType": "uint256",
          "name": "",
          "type": "uint256"
        }
      ],
      "name": "bookIdToBookStruct",
      "outputs": [
        {
          "internalType": "string",
          "name": "cid",
          "type": "string"
        },
        {
          "internalType": "uint256",
          "name": "purchasePrice",
          "type": "uint256"
        },
        {
          "internalType": "uint256",
          "name": "totalRevenue",
          "type": "uint256"
        },
        {
          "internalType": "uint256",
          "name": "pricePerEpoch",
          "type": "uint256"
        }
      ],
      "stateMutability": "view",
      "type": "function"
    },
    {
      "inputs": [
        {
          "internalType": "uint256",
          "name": "bookId",
          "type": "uint256"
        }
      ],
      "name": "buyAccess",
      "outputs": [],
      "stateMutability": "payable",
      "type": "function"
    },
    {
      "inputs": [
        {
          "internalType": "uint256",
          "name": "keyId",
          "type": "uint256"
        }
      ],
      "name": "buyBookOwnership",
      "outputs": [],
      "stateMutability": "nonpayable",
      "type": "function"
    },
    {
      "inputs": [
        {
          "internalType": "uint256",
          "name": "bookId",
          "type": "uint256"
        },
        {
          "internalType": "address",
          "name": "caller",
          "type": "address"
        }
      ],
      "name": "canAccessBook",
      "outputs": [
        {
          "internalType": "uint8",
          "name": "",
          "type": "uint8"
        }
      ],
      "stateMutability": "view",
      "type": "function"
    },
    {
      "inputs": [
        {
          "internalType": "string",
          "name": "cid",
          "type": "string"
        }
      ],
      "name": "createBook",
      "outputs": [],
      "stateMutability": "nonpayable",
      "type": "function"
    },
    {
      "inputs": [
        {
          "internalType": "uint256",
          "name": "keyId",
          "type": "uint256"
        }
      ],
      "name": "createCollection",
      "outputs": [],
      "stateMutability": "nonpayable",
      "type": "function"
    },
    {
      "inputs": [
        {
          "internalType": "uint256",
          "name": "tokenId",
          "type": "uint256"
        }
      ],
      "name": "getApproved",
      "outputs": [
        {
          "internalType": "address",
          "name": "",
          "type": "address"
        }
      ],
      "stateMutability": "view",
      "type": "function"
    },
    {
      "inputs": [
        {
          "internalType": "uint256",
          "name": "bookId",
          "type": "uint256"
        }
      ],
      "name": "getPurchasePrice",
      "outputs": [
        {
          "internalType": "uint256",
          "name": "",
          "type": "uint256"
        }
      ],
      "stateMutability": "view",
      "type": "function"
    },
    {
      "inputs": [
        {
          "internalType": "address",
          "name": "owner",
          "type": "address"
        },
        {
          "internalType": "address",
          "name": "operator",
          "type": "address"
        }
      ],
      "name": "isApprovedForAll",
      "outputs": [
        {
          "internalType": "bool",
          "name": "",
          "type": "bool"
        }
      ],
      "stateMutability": "view",
      "type": "function"
    },
    {
      "inputs": [],
      "name": "name",
      "outputs": [
        {
          "internalType": "string",
          "name": "",
          "type": "string"
        }
      ],
      "stateMutability": "view",
      "type": "function"
    },
    {
      "inputs": [
        {
          "internalType": "uint256",
          "name": "tokenId",
          "type": "uint256"
        }
      ],
      "name": "ownerOf",
      "outputs": [
        {
          "internalType": "address",
          "name": "",
          "type": "address"
        }
      ],
      "stateMutability": "view",
      "type": "function"
    },
    {
      "inputs": [
        {
          "internalType": "uint256",
          "name": "keyId",
          "type": "uint256"
        }
      ],
      "name": "rentAccessToBook",
      "outputs": [],
      "stateMutability": "nonpayable",
      "type": "function"
    },
    {
      "inputs": [
        {
          "internalType": "address",
          "name": "from",
          "type": "address"
        },
        {
          "internalType": "address",
          "name": "to",
          "type": "address"
        },
        {
          "internalType": "uint256",
          "name": "tokenId",
          "type": "uint256"
        }
      ],
      "name": "safeTransferFrom",
      "outputs": [],
      "stateMutability": "nonpayable",
      "type": "function"
    },
    {
      "inputs": [
        {
          "internalType": "address",
          "name": "from",
          "type": "address"
        },
        {
          "internalType": "address",
          "name": "to",
          "type": "address"
        },
        {
          "internalType": "uint256",
          "name": "tokenId",
          "type": "uint256"
        },
        {
          "internalType": "bytes",
          "name": "data",
          "type": "bytes"
        }
      ],
      "name": "safeTransferFrom",
      "outputs": [],
      "stateMutability": "nonpayable",
      "type": "function"
    },
    {
      "inputs": [
        {
          "internalType": "uint256",
          "name": "keyId",
          "type": "uint256"
        }
      ],
      "name": "sellBookOwnership",
      "outputs": [],
      "stateMutability": "nonpayable",
      "type": "function"
    },
    {
      "inputs": [
        {
          "internalType": "address",
          "name": "operator",
          "type": "address"
        },
        {
          "internalType": "bool",
          "name": "approved",
          "type": "bool"
        }
      ],
      "name": "setApprovalForAll",
      "outputs": [],
      "stateMutability": "nonpayable",
      "type": "function"
    },
    {
      "inputs": [
        {
          "internalType": "uint256",
          "name": "bookId",
          "type": "uint256"
        },
        {
          "internalType": "uint256",
          "name": "purchasePrice",
          "type": "uint256"
        },
        {
          "internalType": "uint256",
          "name": "rentPrice",
          "type": "uint256"
        }
      ],
      "name": "setBookPrice",
      "outputs": [],
      "stateMutability": "nonpayable",
      "type": "function"
    },
    {
      "inputs": [
        {
          "internalType": "uint8",
          "name": "feePercentage",
          "type": "uint8"
        }
      ],
      "name": "setFeePercentage",
      "outputs": [],
      "stateMutability": "nonpayable",
      "type": "function"
    },
    {
      "inputs": [
        {
          "internalType": "bytes4",
          "name": "interfaceId",
          "type": "bytes4"
        }
      ],
      "name": "supportsInterface",
      "outputs": [
        {
          "internalType": "bool",
          "name": "",
          "type": "bool"
        }
      ],
      "stateMutability": "view",
      "type": "function"
    },
    {
      "inputs": [],
      "name": "symbol",
      "outputs": [
        {
          "internalType": "string",
          "name": "",
          "type": "string"
        }
      ],
      "stateMutability": "view",
      "type": "function"
    },
    {
      "inputs": [
        {
          "internalType": "uint256",
          "name": "tokenId",
          "type": "uint256"
        }
      ],
      "name": "tokenURI",
      "outputs": [
        {
          "internalType": "string",
          "name": "",
          "type": "string"
        }
      ],
      "stateMutability": "view",
      "type": "function"
    },
    {
      "inputs": [
        {
          "internalType": "address",
          "name": "from",
          "type": "address"
        },
        {
          "internalType": "address",
          "name": "to",
          "type": "address"
        },
        {
          "internalType": "uint256",
          "name": "tokenId",
          "type": "uint256"
        }
      ],
      "name": "transferFrom",
      "outputs": [],
      "stateMutability": "nonpayable",
      "type": "function"
    },
    {
      "inputs": [
        {
          "internalType": "uint256",
          "name": "bookId",
          "type": "uint256"
        }
      ],
      "name": "withdrawProfit",
      "outputs": [],
      "stateMutability": "payable",
      "type": "function"
    }
  ],
  "bytecode": "0x60a06040523480156200001157600080fd5b5060405162004052380380620040528339818101604052810190620000379190620001c8565b6040518060400160405280600481526020017f426f6f6b000000000000000000000000000000000000000000000000000000008152506040518060400160405280600281526020017f426b0000000000000000000000000000000000000000000000000000000000008152508160009081620000b4919062000489565b508060019081620000c6919062000489565b50505081600860006101000a81548160ff021916908360ff1602179055508073ffffffffffffffffffffffffffffffffffffffff1660808173ffffffffffffffffffffffffffffffffffffffff1681525050505062000570565b600080fd5b600060ff82169050919050565b6200013d8162000125565b81146200014957600080fd5b50565b6000815190506200015d8162000132565b92915050565b600073ffffffffffffffffffffffffffffffffffffffff82169050919050565b6000620001908262000163565b9050919050565b620001a28162000183565b8114620001ae57600080fd5b50565b600081519050620001c28162000197565b92915050565b60008060408385031215620001e257620001e162000120565b5b6000620001f2858286016200014c565b92505060206200020585828601620001b1565b9150509250929050565b600081519050919050565b7f4e487b7100000000000000000000000000000000000000000000000000000000600052604160045260246000fd5b7f4e487b7100000000000000000000000000000000000000000000000000000000600052602260045260246000fd5b600060028204905060018216806200029157607f821691505b602082108103620002a757620002a662000249565b5b50919050565b60008190508160005260206000209050919050565b60006020601f8301049050919050565b600082821b905092915050565b600060088302620003117fffffffffffffffffffffffffffffffffffffffffffffffffffffffffffffffff82620002d2565b6200031d8683620002d2565b95508019841693508086168417925050509392505050565b6000819050919050565b6000819050919050565b60006200036a620003646200035e8462000335565b6200033f565b62000335565b9050919050565b6000819050919050565b620003868362000349565b6200039e620003958262000371565b848454620002df565b825550505050565b600090565b620003b5620003a6565b620003c28184846200037b565b505050565b5b81811015620003ea57620003de600082620003ab565b600181019050620003c8565b5050565b601f82111562000439576200040381620002ad565b6200040e84620002c2565b810160208510156200041e578190505b620004366200042d85620002c2565b830182620003c7565b50505b505050565b600082821c905092915050565b60006200045e600019846008026200043e565b1980831691505092915050565b60006200047983836200044b565b9150826002028217905092915050565b62000494826200020f565b67ffffffffffffffff811115620004b057620004af6200021a565b5b620004bc825462000278565b620004c9828285620003ee565b600060209050601f831160018114620005015760008415620004ec578287015190505b620004f885826200046b565b86555062000568565b601f1984166200051186620002ad565b60005b828110156200053b5784890151825560018201915060208501945060208101905062000514565b868310156200055b578489015162000557601f8916826200044b565b8355505b6001600288020188555050505b505050505050565b608051613ab1620005a160003960008181610a7901528181610b8601528181610cf10152610ec00152613ab16000f3fe60806040526004361061019c5760003560e01c80639072df6b116100ec578063c59d56331161008a578063d82a2bea11610064578063d82a2bea146105ec578063e985e9c514610608578063f699343e14610645578063f9c9c878146106705761019c565b8063c59d563314610549578063c87b56dd14610586578063d0011d9d146105c35761019c565b8063a5766aa6116100c6578063a5766aa61461048e578063b75174f0146104b7578063b88d4fde146104f7578063b9f72b7d146105205761019c565b80639072df6b1461041157806395d89b411461043a578063a22cb465146104655761019c565b806336d964121161015957806350a1a2641161013357806350a1a264146103505780636352211e1461036c57806370a08231146103a957806374ad7ac4146103e65761019c565b806336d96412146102c157806342842e0e146102fe5780634ba8b733146103275761019c565b806301ffc9a7146101a157806304ed5917146101de57806306fdde0314610207578063081812fc14610232578063095ea7b31461026f57806323b872dd14610298575b600080fd5b3480156101ad57600080fd5b506101c860048036038101906101c391906124b6565b610699565b6040516101d591906124fe565b60405180910390f35b3480156101ea57600080fd5b506102056004803603810190610200919061254f565b61077b565b005b34801561021357600080fd5b5061021c6107b6565b6040516102299190612632565b60405180910390f35b34801561023e57600080fd5b5061025960048036038101906102549190612654565b610848565b60405161026691906126c2565b60405180910390f35b34801561027b57600080fd5b5061029660048036038101906102919190612709565b61088e565b005b3480156102a457600080fd5b506102bf60048036038101906102ba9190612749565b6109a5565b005b3480156102cd57600080fd5b506102e860048036038101906102e3919061279c565b610a05565b6040516102f591906127f8565b60405180910390f35b34801561030a57600080fd5b5061032560048036038101906103209190612749565b610b5f565b005b34801561033357600080fd5b5061034e60048036038101906103499190612654565b610b7f565b005b61036a60048036038101906103659190612654565b610b82565b005b34801561037857600080fd5b50610393600480360381019061038e9190612654565b610d81565b6040516103a091906126c2565b60405180910390f35b3480156103b557600080fd5b506103d060048036038101906103cb9190612813565b610e07565b6040516103dd919061284f565b60405180910390f35b3480156103f257600080fd5b506103fb610ebe565b60405161040891906128c9565b60405180910390f35b34801561041d57600080fd5b5061043860048036038101906104339190612654565b610ee2565b005b34801561044657600080fd5b5061044f610ee5565b60405161045c9190612632565b60405180910390f35b34801561047157600080fd5b5061048c60048036038101906104879190612910565b610f77565b005b34801561049a57600080fd5b506104b560048036038101906104b0919061297c565b610f8d565b005b3480156104c357600080fd5b506104de60048036038101906104d99190612654565b610fab565b6040516104ee94939291906129a9565b60405180910390f35b34801561050357600080fd5b5061051e60048036038101906105199190612b2a565b611063565b005b34801561052c57600080fd5b5061054760048036038101906105429190612c4e565b6110c5565b005b34801561055557600080fd5b50610570600480360381019061056b9190612654565b611159565b60405161057d919061284f565b60405180910390f35b34801561059257600080fd5b506105ad60048036038101906105a89190612654565b611179565b6040516105ba9190612632565b60405180910390f35b3480156105cf57600080fd5b506105ea60048036038101906105e59190612654565b61128b565b005b61060660048036038101906106019190612654565b61128e565b005b34801561061457600080fd5b5061062f600480360381019061062a9190612c97565b611388565b60405161063c91906124fe565b60405180910390f35b34801561065157600080fd5b5061065a61141c565b60405161066791906127f8565b60405180910390f35b34801561067c57600080fd5b5061069760048036038101906106929190612654565b61142f565b005b60007f80ac58cd000000000000000000000000000000000000000000000000000000007bffffffffffffffffffffffffffffffffffffffffffffffffffffffff1916827bffffffffffffffffffffffffffffffffffffffffffffffffffffffff1916148061076457507f5b5e139f000000000000000000000000000000000000000000000000000000007bffffffffffffffffffffffffffffffffffffffffffffffffffffffff1916827bffffffffffffffffffffffffffffffffffffffffffffffffffffffff1916145b80610774575061077382611432565b5b9050919050565b816009600085815260200190815260200160002060010181905550806009600085815260200190815260200160002060030181905550505050565b6060600080546107c590612d06565b80601f01602080910402602001604051908101604052809291908181526020018280546107f190612d06565b801561083e5780601f106108135761010080835404028352916020019161083e565b820191906000526020600020905b81548152906001019060200180831161082157829003601f168201915b5050505050905090565b60006108538261149c565b6004600083815260200190815260200160002060009054906101000a900473ffffffffffffffffffffffffffffffffffffffff169050919050565b600061089982610d81565b90508073ffffffffffffffffffffffffffffffffffffffff168373ffffffffffffffffffffffffffffffffffffffff1603610909576040517f08c379a000000000000000000000000000000000000000000000000000000000815260040161090090612da9565b60405180910390fd5b8073ffffffffffffffffffffffffffffffffffffffff166109286114e7565b73ffffffffffffffffffffffffffffffffffffffff1614806109575750610956816109516114e7565b611388565b5b610996576040517f08c379a000000000000000000000000000000000000000000000000000000000815260040161098d90612e3b565b60405180910390fd5b6109a083836114ef565b505050565b6109b66109b06114e7565b826115a8565b6109f5576040517f08c379a00000000000000000000000000000000000000000000000000000000081526004016109ec90612ecd565b60405180910390fd5b610a0083838361163d565b505050565b60003373ffffffffffffffffffffffffffffffffffffffff168273ffffffffffffffffffffffffffffffffffffffff1614610a75576040517f08c379a0000000000000000000000000000000000000000000000000000000008152600401610a6c90612f39565b60405180910390fd5b60007f000000000000000000000000000000000000000000000000000000000000000073ffffffffffffffffffffffffffffffffffffffff1663745c84ca846040518263ffffffff1660e01b8152600401610ad091906126c2565b602060405180830381865afa158015610aed573d6000803e3d6000fd5b505050506040513d601f19601f82011682018060405250810190610b119190612f6e565b9050600060096000868152602001908152602001600020905042816004016000848152602001908152602001600020541115610b5257600192505050610b59565b6000925050505b92915050565b610b7a83838360405180602001604052806000815250611063565b505050565b50565b60007f000000000000000000000000000000000000000000000000000000000000000073ffffffffffffffffffffffffffffffffffffffff1663745c84ca336040518263ffffffff1660e01b8152600401610bdd91906126c2565b602060405180830381865afa158015610bfa573d6000803e3d6000fd5b505050506040513d601f19601f82011682018060405250810190610c1e9190612f6e565b905060006009600084815260200190815260200160002090508060010154341015610c7e576040517f08c379a0000000000000000000000000000000000000000000000000000000008152600401610c7590612fe7565b60405180910390fd5b7fffffffffffffffffffffffffffffffffffffffffffffffffffffffffffffffff81600401600084815260200190815260200160002081905550610cd5600860009054906101000a900460ff168260010154611936565b816002016000828254610ce89190613036565b925050819055507f000000000000000000000000000000000000000000000000000000000000000073ffffffffffffffffffffffffffffffffffffffff16632597e04783856040518363ffffffff1660e01b8152600401610d4a92919061306a565b600060405180830381600087803b158015610d6457600080fd5b505af1158015610d78573d6000803e3d6000fd5b50505050505050565b600080610d8d83611967565b9050600073ffffffffffffffffffffffffffffffffffffffff168173ffffffffffffffffffffffffffffffffffffffff1603610dfe576040517f08c379a0000000000000000000000000000000000000000000000000000000008152600401610df5906130df565b60405180910390fd5b80915050919050565b60008073ffffffffffffffffffffffffffffffffffffffff168273ffffffffffffffffffffffffffffffffffffffff1603610e77576040517f08c379a0000000000000000000000000000000000000000000000000000000008152600401610e6e90613171565b60405180910390fd5b600360008373ffffffffffffffffffffffffffffffffffffffff1673ffffffffffffffffffffffffffffffffffffffff168152602001908152602001600020549050919050565b7f000000000000000000000000000000000000000000000000000000000000000081565b50565b606060018054610ef490612d06565b80601f0160208091040260200160405190810160405280929190818152602001828054610f2090612d06565b8015610f6d5780601f10610f4257610100808354040283529160200191610f6d565b820191906000526020600020905b815481529060010190602001808311610f5057829003601f168201915b5050505050905090565b610f89610f826114e7565b83836119a4565b5050565b80600860006101000a81548160ff021916908360ff16021790555050565b6009602052806000526040600020600091509050806000018054610fce90612d06565b80601f0160208091040260200160405190810160405280929190818152602001828054610ffa90612d06565b80156110475780601f1061101c57610100808354040283529160200191611047565b820191906000526020600020905b81548152906001019060200180831161102a57829003601f168201915b5050505050908060010154908060020154908060030154905084565b61107461106e6114e7565b836115a8565b6110b3576040517f08c379a00000000000000000000000000000000000000000000000000000000081526004016110aa90612ecd565b60405180910390fd5b6110bf84848484611b10565b50505050565b6110cf6007611b6c565b60006110db6007611b82565b90506110e73382611b90565b6110f18183611bae565b6000600960008381526020019081526020016000209050828160000190816111199190613333565b50817f6f10a189e74c40865dbc37544147d0a3d57b2a5e5100daf4cd09cff5a9033c72338560405161114c929190613405565b60405180910390a2505050565b600060096000838152602001908152602001600020600101549050919050565b60606111848261149c565b60006006600084815260200190815260200160002080546111a490612d06565b80601f01602080910402602001604051908101604052809291908181526020018280546111d090612d06565b801561121d5780601f106111f25761010080835404028352916020019161121d565b820191906000526020600020905b81548152906001019060200180831161120057829003601f168201915b50505050509050600061122e611c1b565b90506000815103611243578192505050611286565b600082511115611278578082604051602001611260929190613471565b60405160208183030381529060405292505050611286565b61128184611c32565b925050505b919050565b50565b3373ffffffffffffffffffffffffffffffffffffffff166112ae82610d81565b73ffffffffffffffffffffffffffffffffffffffff1614611304576040517f08c379a00000000000000000000000000000000000000000000000000000000081526004016112fb906134e1565b60405180910390fd5b6000600960008381526020019081526020016000206002018190555061132981610d81565b73ffffffffffffffffffffffffffffffffffffffff166108fc60096000848152602001908152602001600020600201549081150290604051600060405180830381858888f19350505050158015611384573d6000803e3d6000fd5b5050565b6000600560008473ffffffffffffffffffffffffffffffffffffffff1673ffffffffffffffffffffffffffffffffffffffff16815260200190815260200160002060008373ffffffffffffffffffffffffffffffffffffffff1673ffffffffffffffffffffffffffffffffffffffff16815260200190815260200160002060009054906101000a900460ff16905092915050565b600860009054906101000a900460ff1681565b50565b60007f01ffc9a7000000000000000000000000000000000000000000000000000000007bffffffffffffffffffffffffffffffffffffffffffffffffffffffff1916827bffffffffffffffffffffffffffffffffffffffffffffffffffffffff1916149050919050565b6114a581611c9a565b6114e4576040517f08c379a00000000000000000000000000000000000000000000000000000000081526004016114db906130df565b60405180910390fd5b50565b600033905090565b816004600083815260200190815260200160002060006101000a81548173ffffffffffffffffffffffffffffffffffffffff021916908373ffffffffffffffffffffffffffffffffffffffff160217905550808273ffffffffffffffffffffffffffffffffffffffff1661156283610d81565b73ffffffffffffffffffffffffffffffffffffffff167f8c5be1e5ebec7d5bd14f71427d1e84f3dd0314c0f7b2291e5b200ac8c7c3b92560405160405180910390a45050565b6000806115b483610d81565b90508073ffffffffffffffffffffffffffffffffffffffff168473ffffffffffffffffffffffffffffffffffffffff1614806115f657506115f58185611388565b5b8061163457508373ffffffffffffffffffffffffffffffffffffffff1661161c84610848565b73ffffffffffffffffffffffffffffffffffffffff16145b91505092915050565b8273ffffffffffffffffffffffffffffffffffffffff1661165d82610d81565b73ffffffffffffffffffffffffffffffffffffffff16146116b3576040517f08c379a00000000000000000000000000000000000000000000000000000000081526004016116aa90613573565b60405180910390fd5b600073ffffffffffffffffffffffffffffffffffffffff168273ffffffffffffffffffffffffffffffffffffffff1603611722576040517f08c379a000000000000000000000000000000000000000000000000000000000815260040161171990613605565b60405180910390fd5b61172f8383836001611cdb565b8273ffffffffffffffffffffffffffffffffffffffff1661174f82610d81565b73ffffffffffffffffffffffffffffffffffffffff16146117a5576040517f08c379a000000000000000000000000000000000000000000000000000000000815260040161179c90613573565b60405180910390fd5b6004600082815260200190815260200160002060006101000a81549073ffffffffffffffffffffffffffffffffffffffff02191690556001600360008573ffffffffffffffffffffffffffffffffffffffff1673ffffffffffffffffffffffffffffffffffffffff168152602001908152602001600020600082825403925050819055506001600360008473ffffffffffffffffffffffffffffffffffffffff1673ffffffffffffffffffffffffffffffffffffffff16815260200190815260200160002060008282540192505081905550816002600083815260200190815260200160002060006101000a81548173ffffffffffffffffffffffffffffffffffffffff021916908373ffffffffffffffffffffffffffffffffffffffff160217905550808273ffffffffffffffffffffffffffffffffffffffff168473ffffffffffffffffffffffffffffffffffffffff167fddf252ad1be2c89b69c2b068fc378daa952ba7f163c4a11628f55a4df523b3ef60405160405180910390a46119318383836001611e01565b505050565b60006064828460646119489190613625565b60ff16611955919061365a565b61195f91906136cb565b905092915050565b60006002600083815260200190815260200160002060009054906101000a900473ffffffffffffffffffffffffffffffffffffffff169050919050565b8173ffffffffffffffffffffffffffffffffffffffff168373ffffffffffffffffffffffffffffffffffffffff1603611a12576040517f08c379a0000000000000000000000000000000000000000000000000000000008152600401611a0990613748565b60405180910390fd5b80600560008573ffffffffffffffffffffffffffffffffffffffff1673ffffffffffffffffffffffffffffffffffffffff16815260200190815260200160002060008473ffffffffffffffffffffffffffffffffffffffff1673ffffffffffffffffffffffffffffffffffffffff16815260200190815260200160002060006101000a81548160ff0219169083151502179055508173ffffffffffffffffffffffffffffffffffffffff168373ffffffffffffffffffffffffffffffffffffffff167f17307eab39ab6107e8899845ad3d59bd9653f200f220920489ca2b5937696c3183604051611b0391906124fe565b60405180910390a3505050565b611b1b84848461163d565b611b2784848484611e07565b611b66576040517f08c379a0000000000000000000000000000000000000000000000000000000008152600401611b5d906137da565b60405180910390fd5b50505050565b6001816000016000828254019250508190555050565b600081600001549050919050565b611baa828260405180602001604052806000815250611f8e565b5050565b611bb782611c9a565b611bf6576040517f08c379a0000000000000000000000000000000000000000000000000000000008152600401611bed9061386c565b60405180910390fd5b80600660008481526020019081526020016000209081611c169190613333565b505050565b606060405180602001604052806000815250905090565b6060611c3d8261149c565b6000611c47611c1b565b90506000815111611c675760405180602001604052806000815250611c92565b80611c7184611fe9565b604051602001611c82929190613471565b6040516020818303038152906040525b915050919050565b60008073ffffffffffffffffffffffffffffffffffffffff16611cbc83611967565b73ffffffffffffffffffffffffffffffffffffffff1614159050919050565b6001811115611dfb57600073ffffffffffffffffffffffffffffffffffffffff168473ffffffffffffffffffffffffffffffffffffffff1614611d6f5780600360008673ffffffffffffffffffffffffffffffffffffffff1673ffffffffffffffffffffffffffffffffffffffff1681526020019081526020016000206000828254611d67919061388c565b925050819055505b600073ffffffffffffffffffffffffffffffffffffffff168373ffffffffffffffffffffffffffffffffffffffff1614611dfa5780600360008573ffffffffffffffffffffffffffffffffffffffff1673ffffffffffffffffffffffffffffffffffffffff1681526020019081526020016000206000828254611df29190613036565b925050819055505b5b50505050565b50505050565b6000611e288473ffffffffffffffffffffffffffffffffffffffff166120b7565b15611f81578373ffffffffffffffffffffffffffffffffffffffff1663150b7a02611e516114e7565b8786866040518563ffffffff1660e01b8152600401611e739493929190613915565b6020604051808303816000875af1925050508015611eaf57506040513d601f19601f82011682018060405250810190611eac9190613976565b60015b611f31573d8060008114611edf576040519150601f19603f3d011682016040523d82523d6000602084013e611ee4565b606091505b506000815103611f29576040517f08c379a0000000000000000000000000000000000000000000000000000000008152600401611f20906137da565b60405180910390fd5b805181602001fd5b63150b7a0260e01b7bffffffffffffffffffffffffffffffffffffffffffffffffffffffff1916817bffffffffffffffffffffffffffffffffffffffffffffffffffffffff191614915050611f86565b600190505b949350505050565b611f9883836120da565b611fa56000848484611e07565b611fe4576040517f08c379a0000000000000000000000000000000000000000000000000000000008152600401611fdb906137da565b60405180910390fd5b505050565b606060006001611ff8846122f7565b01905060008167ffffffffffffffff811115612017576120166129ff565b5b6040519080825280601f01601f1916602001820160405280156120495781602001600182028036833780820191505090505b509050600082602001820190505b6001156120ac578080600190039150507f3031323334353637383961626364656600000000000000000000000000000000600a86061a8153600a85816120a05761209f61369c565b5b04945060008503612057575b819350505050919050565b6000808273ffffffffffffffffffffffffffffffffffffffff163b119050919050565b600073ffffffffffffffffffffffffffffffffffffffff168273ffffffffffffffffffffffffffffffffffffffff1603612149576040517f08c379a0000000000000000000000000000000000000000000000000000000008152600401612140906139ef565b60405180910390fd5b61215281611c9a565b15612192576040517f08c379a000000000000000000000000000000000000000000000000000000000815260040161218990613a5b565b60405180910390fd5b6121a0600083836001611cdb565b6121a981611c9a565b156121e9576040517f08c379a00000000000000000000000000000000000000000000000000000000081526004016121e090613a5b565b60405180910390fd5b6001600360008473ffffffffffffffffffffffffffffffffffffffff1673ffffffffffffffffffffffffffffffffffffffff16815260200190815260200160002060008282540192505081905550816002600083815260200190815260200160002060006101000a81548173ffffffffffffffffffffffffffffffffffffffff021916908373ffffffffffffffffffffffffffffffffffffffff160217905550808273ffffffffffffffffffffffffffffffffffffffff16600073ffffffffffffffffffffffffffffffffffffffff167fddf252ad1be2c89b69c2b068fc378daa952ba7f163c4a11628f55a4df523b3ef60405160405180910390a46122f3600083836001611e01565b5050565b600080600090507a184f03e93ff9f4daa797ed6e38ed64bf6a1f0100000000000000008310612355577a184f03e93ff9f4daa797ed6e38ed64bf6a1f010000000000000000838161234b5761234a61369c565b5b0492506040810190505b6d04ee2d6d415b85acef81000000008310612392576d04ee2d6d415b85acef810000000083816123885761238761369c565b5b0492506020810190505b662386f26fc1000083106123c157662386f26fc1000083816123b7576123b661369c565b5b0492506010810190505b6305f5e10083106123ea576305f5e10083816123e0576123df61369c565b5b0492506008810190505b612710831061240f5761271083816124055761240461369c565b5b0492506004810190505b6064831061243257606483816124285761242761369c565b5b0492506002810190505b600a8310612441576001810190505b80915050919050565b6000604051905090565b600080fd5b600080fd5b60007fffffffff0000000000000000000000000000000000000000000000000000000082169050919050565b6124938161245e565b811461249e57600080fd5b50565b6000813590506124b08161248a565b92915050565b6000602082840312156124cc576124cb612454565b5b60006124da848285016124a1565b91505092915050565b60008115159050919050565b6124f8816124e3565b82525050565b600060208201905061251360008301846124ef565b92915050565b6000819050919050565b61252c81612519565b811461253757600080fd5b50565b60008135905061254981612523565b92915050565b60008060006060848603121561256857612567612454565b5b60006125768682870161253a565b93505060206125878682870161253a565b92505060406125988682870161253a565b9150509250925092565b600081519050919050565b600082825260208201905092915050565b60005b838110156125dc5780820151818401526020810190506125c1565b60008484015250505050565b6000601f19601f8301169050919050565b6000612604826125a2565b61260e81856125ad565b935061261e8185602086016125be565b612627816125e8565b840191505092915050565b6000602082019050818103600083015261264c81846125f9565b905092915050565b60006020828403121561266a57612669612454565b5b60006126788482850161253a565b91505092915050565b600073ffffffffffffffffffffffffffffffffffffffff82169050919050565b60006126ac82612681565b9050919050565b6126bc816126a1565b82525050565b60006020820190506126d760008301846126b3565b92915050565b6126e6816126a1565b81146126f157600080fd5b50565b600081359050612703816126dd565b92915050565b600080604083850312156127205761271f612454565b5b600061272e858286016126f4565b925050602061273f8582860161253a565b9150509250929050565b60008060006060848603121561276257612761612454565b5b6000612770868287016126f4565b9350506020612781868287016126f4565b92505060406127928682870161253a565b9150509250925092565b600080604083850312156127b3576127b2612454565b5b60006127c18582860161253a565b92505060206127d2858286016126f4565b9150509250929050565b600060ff82169050919050565b6127f2816127dc565b82525050565b600060208201905061280d60008301846127e9565b92915050565b60006020828403121561282957612828612454565b5b6000612837848285016126f4565b91505092915050565b61284981612519565b82525050565b60006020820190506128646000830184612840565b92915050565b6000819050919050565b600061288f61288a61288584612681565b61286a565b612681565b9050919050565b60006128a182612874565b9050919050565b60006128b382612896565b9050919050565b6128c3816128a8565b82525050565b60006020820190506128de60008301846128ba565b92915050565b6128ed816124e3565b81146128f857600080fd5b50565b60008135905061290a816128e4565b92915050565b6000806040838503121561292757612926612454565b5b6000612935858286016126f4565b9250506020612946858286016128fb565b9150509250929050565b612959816127dc565b811461296457600080fd5b50565b60008135905061297681612950565b92915050565b60006020828403121561299257612991612454565b5b60006129a084828501612967565b91505092915050565b600060808201905081810360008301526129c381876125f9565b90506129d26020830186612840565b6129df6040830185612840565b6129ec6060830184612840565b95945050505050565b600080fd5b600080fd5b7f4e487b7100000000000000000000000000000000000000000000000000000000600052604160045260246000fd5b612a37826125e8565b810181811067ffffffffffffffff82111715612a5657612a556129ff565b5b80604052505050565b6000612a6961244a565b9050612a758282612a2e565b919050565b600067ffffffffffffffff821115612a9557612a946129ff565b5b612a9e826125e8565b9050602081019050919050565b82818337600083830152505050565b6000612acd612ac884612a7a565b612a5f565b905082815260208101848484011115612ae957612ae86129fa565b5b612af4848285612aab565b509392505050565b600082601f830112612b1157612b106129f5565b5b8135612b21848260208601612aba565b91505092915050565b60008060008060808587031215612b4457612b43612454565b5b6000612b52878288016126f4565b9450506020612b63878288016126f4565b9350506040612b748782880161253a565b925050606085013567ffffffffffffffff811115612b9557612b94612459565b5b612ba187828801612afc565b91505092959194509250565b600067ffffffffffffffff821115612bc857612bc76129ff565b5b612bd1826125e8565b9050602081019050919050565b6000612bf1612bec84612bad565b612a5f565b905082815260208101848484011115612c0d57612c0c6129fa565b5b612c18848285612aab565b509392505050565b600082601f830112612c3557612c346129f5565b5b8135612c45848260208601612bde565b91505092915050565b600060208284031215612c6457612c63612454565b5b600082013567ffffffffffffffff811115612c8257612c81612459565b5b612c8e84828501612c20565b91505092915050565b60008060408385031215612cae57612cad612454565b5b6000612cbc858286016126f4565b9250506020612ccd858286016126f4565b9150509250929050565b7f4e487b7100000000000000000000000000000000000000000000000000000000600052602260045260246000fd5b60006002820490506001821680612d1e57607f821691505b602082108103612d3157612d30612cd7565b5b50919050565b7f4552433732313a20617070726f76616c20746f2063757272656e74206f776e6560008201527f7200000000000000000000000000000000000000000000000000000000000000602082015250565b6000612d936021836125ad565b9150612d9e82612d37565b604082019050919050565b60006020820190508181036000830152612dc281612d86565b9050919050565b7f4552433732313a20617070726f76652063616c6c6572206973206e6f7420746f60008201527f6b656e206f776e6572206f7220617070726f76656420666f7220616c6c000000602082015250565b6000612e25603d836125ad565b9150612e3082612dc9565b604082019050919050565b60006020820190508181036000830152612e5481612e18565b9050919050565b7f4552433732313a2063616c6c6572206973206e6f7420746f6b656e206f776e6560008201527f72206f7220617070726f76656400000000000000000000000000000000000000602082015250565b6000612eb7602d836125ad565b9150612ec282612e5b565b604082019050919050565b60006020820190508181036000830152612ee681612eaa565b9050919050565b7f41646472657373206d69736d6174636800000000000000000000000000000000600082015250565b6000612f236010836125ad565b9150612f2e82612eed565b602082019050919050565b60006020820190508181036000830152612f5281612f16565b9050919050565b600081519050612f6881612523565b92915050565b600060208284031215612f8457612f83612454565b5b6000612f9284828501612f59565b91505092915050565b7f6e6f7420656e6f7567682046494c2073656e7400000000000000000000000000600082015250565b6000612fd16013836125ad565b9150612fdc82612f9b565b602082019050919050565b6000602082019050818103600083015261300081612fc4565b9050919050565b7f4e487b7100000000000000000000000000000000000000000000000000000000600052601160045260246000fd5b600061304182612519565b915061304c83612519565b925082820190508082111561306457613063613007565b5b92915050565b600060408201905061307f6000830185612840565b61308c6020830184612840565b9392505050565b7f4552433732313a20696e76616c696420746f6b656e2049440000000000000000600082015250565b60006130c96018836125ad565b91506130d482613093565b602082019050919050565b600060208201905081810360008301526130f8816130bc565b9050919050565b7f4552433732313a2061646472657373207a65726f206973206e6f74206120766160008201527f6c6964206f776e65720000000000000000000000000000000000000000000000602082015250565b600061315b6029836125ad565b9150613166826130ff565b604082019050919050565b6000602082019050818103600083015261318a8161314e565b9050919050565b60008190508160005260206000209050919050565b60006020601f8301049050919050565b600082821b905092915050565b6000600883026131f37fffffffffffffffffffffffffffffffffffffffffffffffffffffffffffffffff826131b6565b6131fd86836131b6565b95508019841693508086168417925050509392505050565b600061323061322b61322684612519565b61286a565b612519565b9050919050565b6000819050919050565b61324a83613215565b61325e61325682613237565b8484546131c3565b825550505050565b600090565b613273613266565b61327e818484613241565b505050565b5b818110156132a25761329760008261326b565b600181019050613284565b5050565b601f8211156132e7576132b881613191565b6132c1846131a6565b810160208510156132d0578190505b6132e46132dc856131a6565b830182613283565b50505b505050565b600082821c905092915050565b600061330a600019846008026132ec565b1980831691505092915050565b600061332383836132f9565b9150826002028217905092915050565b61333c826125a2565b67ffffffffffffffff811115613355576133546129ff565b5b61335f8254612d06565b61336a8282856132a6565b600060209050601f83116001811461339d576000841561338b578287015190505b6133958582613317565b8655506133fd565b601f1984166133ab86613191565b60005b828110156133d3578489015182556001820191506020850194506020810190506133ae565b868310156133f057848901516133ec601f8916826132f9565b8355505b6001600288020188555050505b505050505050565b600060408201905061341a60008301856126b3565b818103602083015261342c81846125f9565b90509392505050565b600081905092915050565b600061344b826125a2565b6134558185613435565b93506134658185602086016125be565b80840191505092915050565b600061347d8285613440565b91506134898284613440565b91508190509392505050565b7f4e6f7420746865206f776e6572206f662074686520626f6f6b00000000000000600082015250565b60006134cb6019836125ad565b91506134d682613495565b602082019050919050565b600060208201905081810360008301526134fa816134be565b9050919050565b7f4552433732313a207472616e736665722066726f6d20696e636f72726563742060008201527f6f776e6572000000000000000000000000000000000000000000000000000000602082015250565b600061355d6025836125ad565b915061356882613501565b604082019050919050565b6000602082019050818103600083015261358c81613550565b9050919050565b7f4552433732313a207472616e7366657220746f20746865207a65726f2061646460008201527f7265737300000000000000000000000000000000000000000000000000000000602082015250565b60006135ef6024836125ad565b91506135fa82613593565b604082019050919050565b6000602082019050818103600083015261361e816135e2565b9050919050565b6000613630826127dc565b915061363b836127dc565b9250828203905060ff81111561365457613653613007565b5b92915050565b600061366582612519565b915061367083612519565b925082820261367e81612519565b9150828204841483151761369557613694613007565b5b5092915050565b7f4e487b7100000000000000000000000000000000000000000000000000000000600052601260045260246000fd5b60006136d682612519565b91506136e183612519565b9250826136f1576136f061369c565b5b828204905092915050565b7f4552433732313a20617070726f766520746f2063616c6c657200000000000000600082015250565b60006137326019836125ad565b915061373d826136fc565b602082019050919050565b6000602082019050818103600083015261376181613725565b9050919050565b7f4552433732313a207472616e7366657220746f206e6f6e20455243373231526560008201527f63656976657220696d706c656d656e7465720000000000000000000000000000602082015250565b60006137c46032836125ad565b91506137cf82613768565b604082019050919050565b600060208201905081810360008301526137f3816137b7565b9050919050565b7f45524337323155524953746f726167653a2055524920736574206f66206e6f6e60008201527f6578697374656e7420746f6b656e000000000000000000000000000000000000602082015250565b6000613856602e836125ad565b9150613861826137fa565b604082019050919050565b6000602082019050818103600083015261388581613849565b9050919050565b600061389782612519565b91506138a283612519565b92508282039050818111156138ba576138b9613007565b5b92915050565b600081519050919050565b600082825260208201905092915050565b60006138e7826138c0565b6138f181856138cb565b93506139018185602086016125be565b61390a816125e8565b840191505092915050565b600060808201905061392a60008301876126b3565b61393760208301866126b3565b6139446040830185612840565b818103606083015261395681846138dc565b905095945050505050565b6000815190506139708161248a565b92915050565b60006020828403121561398c5761398b612454565b5b600061399a84828501613961565b91505092915050565b7f4552433732313a206d696e7420746f20746865207a65726f2061646472657373600082015250565b60006139d96020836125ad565b91506139e4826139a3565b602082019050919050565b60006020820190508181036000830152613a08816139cc565b9050919050565b7f4552433732313a20746f6b656e20616c7265616479206d696e74656400000000600082015250565b6000613a45601c836125ad565b9150613a5082613a0f565b602082019050919050565b60006020820190508181036000830152613a7481613a38565b905091905056fea264697066735822122004e7f15cc32dc3f4d1e9dd9de72bc2d79698bdec7afc91dfa7275c6cc12f7ec464736f6c63430008110033"
}