{
  "address": "0xeCb0f670c026EEB3AA401492a9E8A35A9e4F6100",
  "abi": [
    {
      "inputs": [
        {
          "internalType": "address",
          "name": "book",
          "type": "address"
        },
        {
          "internalType": "address",
          "name": "key",
          "type": "address"
        }
      ],
      "stateMutability": "nonpayable",
      "type": "constructor"
    },
    {
      "anonymous": false,
      "inputs": [
        {
          "indexed": true,
          "internalType": "uint256",
          "name": "bookId",
          "type": "uint256"
        },
        {
          "indexed": false,
          "internalType": "uint256",
          "name": "purchasePrice",
          "type": "uint256"
        },
        {
          "indexed": false,
          "internalType": "uint256",
          "name": "rentPrice",
          "type": "uint256"
        }
      ],
      "name": "BookPublished",
      "type": "event"
    },
    {
      "inputs": [],
      "name": "_book",
      "outputs": [
        {
          "internalType": "contract Book",
          "name": "",
          "type": "address"
        }
      ],
      "stateMutability": "view",
      "type": "function"
    },
    {
      "inputs": [],
      "name": "_key",
      "outputs": [
        {
          "internalType": "contract Key",
          "name": "",
          "type": "address"
        }
      ],
      "stateMutability": "view",
      "type": "function"
    },
    {
      "inputs": [
        {
          "internalType": "uint256",
          "name": "",
          "type": "uint256"
        }
      ],
      "name": "bookIdToOwner",
      "outputs": [
        {
          "internalType": "address",
          "name": "",
          "type": "address"
        }
      ],
      "stateMutability": "view",
      "type": "function"
    },
    {
      "inputs": [],
      "name": "setFeePercentage",
      "outputs": [],
      "stateMutability": "nonpayable",
      "type": "function"
    },
    {
      "inputs": [
        {
          "internalType": "address",
          "name": "user1",
          "type": "address"
        },
        {
          "internalType": "address",
          "name": "user2",
          "type": "address"
        }
      ],
      "name": "swapKeys",
      "outputs": [],
      "stateMutability": "nonpayable",
      "type": "function"
    },
    {
      "inputs": [
        {
          "internalType": "uint256",
          "name": "bookId",
          "type": "uint256"
        },
        {
          "internalType": "uint256",
          "name": "purchasePrice",
          "type": "uint256"
        },
        {
          "internalType": "uint256",
          "name": "rentPrice",
          "type": "uint256"
        }
      ],
      "name": "uploadBook",
      "outputs": [],
      "stateMutability": "nonpayable",
      "type": "function"
    },
    {
      "inputs": [
        {
          "internalType": "uint256",
          "name": "bookId",
          "type": "uint256"
        }
      ],
      "name": "withdrawProfit",
      "outputs": [],
      "stateMutability": "nonpayable",
      "type": "function"
    }
  ],
  "bytecode": "0x60c06040523480156200001157600080fd5b5060405162000fd238038062000fd2833981810160405281019062000037919062000111565b8173ffffffffffffffffffffffffffffffffffffffff1660808173ffffffffffffffffffffffffffffffffffffffff16815250508073ffffffffffffffffffffffffffffffffffffffff1660a08173ffffffffffffffffffffffffffffffffffffffff1681525050505062000158565b600080fd5b600073ffffffffffffffffffffffffffffffffffffffff82169050919050565b6000620000d982620000ac565b9050919050565b620000eb81620000cc565b8114620000f757600080fd5b50565b6000815190506200010b81620000e0565b92915050565b600080604083850312156200012b576200012a620000a7565b5b60006200013b85828601620000fa565b92505060206200014e85828601620000fa565b9150509250929050565b60805160a051610e15620001bd600039600081816101a701528181610245015281816102e101528181610370015281816103ff0152818161048c0152610521015260008181610181015281816105e60152818161067501526108390152610e156000f3fe608060405234801561001057600080fd5b506004361061007d5760003560e01c806373e733a01161005b57806373e733a0146100ec57806374ad7ac4146100f6578063815092d714610114578063d82a2bea146101305761007d565b80631464845d1461008257806352028be3146100b257806363cb1534146100d0575b600080fd5b61009c60048036038101906100979190610969565b61014c565b6040516100a991906109d7565b60405180910390f35b6100ba61017f565b6040516100c79190610a51565b60405180910390f35b6100ea60048036038101906100e59190610a98565b6101a3565b005b6100f461051d565b005b6100fe61051f565b60405161010b9190610af9565b60405180910390f35b61012e60048036038101906101299190610b14565b610543565b005b61014a60048036038101906101459190610969565b610792565b005b60006020528060005260406000206000915054906101000a900473ffffffffffffffffffffffffffffffffffffffff1681565b7f000000000000000000000000000000000000000000000000000000000000000081565b60007f000000000000000000000000000000000000000000000000000000000000000073ffffffffffffffffffffffffffffffffffffffff1663745c84ca846040518263ffffffff1660e01b81526004016101fe91906109d7565b602060405180830381865afa15801561021b573d6000803e3d6000fd5b505050506040513d601f19601f8201168201806040525081019061023f9190610b7c565b905060007f000000000000000000000000000000000000000000000000000000000000000073ffffffffffffffffffffffffffffffffffffffff1663745c84ca846040518263ffffffff1660e01b815260040161029c91906109d7565b602060405180830381865afa1580156102b9573d6000803e3d6000fd5b505050506040513d601f19601f820116820180604052508101906102dd9190610b7c565b90507f000000000000000000000000000000000000000000000000000000000000000073ffffffffffffffffffffffffffffffffffffffff166342842e0e8585856040518463ffffffff1660e01b815260040161033c93929190610bb8565b600060405180830381600087803b15801561035657600080fd5b505af115801561036a573d6000803e3d6000fd5b505050507f000000000000000000000000000000000000000000000000000000000000000073ffffffffffffffffffffffffffffffffffffffff166342842e0e8486846040518463ffffffff1660e01b81526004016103cb93929190610bb8565b600060405180830381600087803b1580156103e557600080fd5b505af11580156103f9573d6000803e3d6000fd5b505050507f000000000000000000000000000000000000000000000000000000000000000073ffffffffffffffffffffffffffffffffffffffff16635290a07685836040518363ffffffff1660e01b8152600401610458929190610bef565b600060405180830381600087803b15801561047257600080fd5b505af1158015610486573d6000803e3d6000fd5b505050507f000000000000000000000000000000000000000000000000000000000000000073ffffffffffffffffffffffffffffffffffffffff16635290a07684846040518363ffffffff1660e01b81526004016104e5929190610bef565b600060405180830381600087803b1580156104ff57600080fd5b505af1158015610513573d6000803e3d6000fd5b5050505050505050565b565b7f000000000000000000000000000000000000000000000000000000000000000081565b600073ffffffffffffffffffffffffffffffffffffffff1660008085815260200190815260200160002060009054906101000a900473ffffffffffffffffffffffffffffffffffffffff1673ffffffffffffffffffffffffffffffffffffffff16146105e4576040517f08c379a00000000000000000000000000000000000000000000000000000000081526004016105db90610c75565b60405180910390fd5b7f000000000000000000000000000000000000000000000000000000000000000073ffffffffffffffffffffffffffffffffffffffff166304ed59178484846040518463ffffffff1660e01b815260040161064193929190610c95565b600060405180830381600087803b15801561065b57600080fd5b505af115801561066f573d6000803e3d6000fd5b505050507f000000000000000000000000000000000000000000000000000000000000000073ffffffffffffffffffffffffffffffffffffffff166342842e0e3330866040518463ffffffff1660e01b81526004016106d093929190610bb8565b600060405180830381600087803b1580156106ea57600080fd5b505af11580156106fe573d6000803e3d6000fd5b505050503360008085815260200190815260200160002060006101000a81548173ffffffffffffffffffffffffffffffffffffffff021916908373ffffffffffffffffffffffffffffffffffffffff160217905550827f204930f3db2bb7f6984c024cf2a93710045c72024ec59bff7d4e63b2409c841e8383604051610785929190610ccc565b60405180910390a2505050565b3373ffffffffffffffffffffffffffffffffffffffff1660008083815260200190815260200160002060009054906101000a900473ffffffffffffffffffffffffffffffffffffffff1673ffffffffffffffffffffffffffffffffffffffff1614610832576040517f08c379a000000000000000000000000000000000000000000000000000000000815260040161082990610d41565b60405180910390fd5b60004790507f000000000000000000000000000000000000000000000000000000000000000073ffffffffffffffffffffffffffffffffffffffff1663d82a2bea836040518263ffffffff1660e01b81526004016108909190610d61565b600060405180830381600087803b1580156108aa57600080fd5b505af11580156108be573d6000803e3d6000fd5b505050506000479050600082826108d59190610dab565b90506000811115610928573373ffffffffffffffffffffffffffffffffffffffff166108fc829081150290604051600060405180830381858888f19350505050158015610926573d6000803e3d6000fd5b505b50505050565b600080fd5b6000819050919050565b61094681610933565b811461095157600080fd5b50565b6000813590506109638161093d565b92915050565b60006020828403121561097f5761097e61092e565b5b600061098d84828501610954565b91505092915050565b600073ffffffffffffffffffffffffffffffffffffffff82169050919050565b60006109c182610996565b9050919050565b6109d1816109b6565b82525050565b60006020820190506109ec60008301846109c8565b92915050565b6000819050919050565b6000610a17610a12610a0d84610996565b6109f2565b610996565b9050919050565b6000610a29826109fc565b9050919050565b6000610a3b82610a1e565b9050919050565b610a4b81610a30565b82525050565b6000602082019050610a666000830184610a42565b92915050565b610a75816109b6565b8114610a8057600080fd5b50565b600081359050610a9281610a6c565b92915050565b60008060408385031215610aaf57610aae61092e565b5b6000610abd85828601610a83565b9250506020610ace85828601610a83565b9150509250929050565b6000610ae382610a1e565b9050919050565b610af381610ad8565b82525050565b6000602082019050610b0e6000830184610aea565b92915050565b600080600060608486031215610b2d57610b2c61092e565b5b6000610b3b86828701610954565b9350506020610b4c86828701610954565b9250506040610b5d86828701610954565b9150509250925092565b600081519050610b768161093d565b92915050565b600060208284031215610b9257610b9161092e565b5b6000610ba084828501610b67565b91505092915050565b610bb281610933565b82525050565b6000606082019050610bcd60008301866109c8565b610bda60208301856109c8565b610be76040830184610ba9565b949350505050565b6000604082019050610c0460008301856109c8565b610c116020830184610ba9565b9392505050565b600082825260208201905092915050565b7f426f6f6b20616c72656164792075706c6f616465640000000000000000000000600082015250565b6000610c5f601583610c18565b9150610c6a82610c29565b602082019050919050565b60006020820190508181036000830152610c8e81610c52565b9050919050565b6000606082019050610caa6000830186610ba9565b610cb76020830185610ba9565b610cc46040830184610ba9565b949350505050565b6000604082019050610ce16000830185610ba9565b610cee6020830184610ba9565b9392505050565b7f4e6f7420626f6f6b206f776e6572000000000000000000000000000000000000600082015250565b6000610d2b600e83610c18565b9150610d3682610cf5565b602082019050919050565b60006020820190508181036000830152610d5a81610d1e565b9050919050565b6000602082019050610d766000830184610ba9565b92915050565b7f4e487b7100000000000000000000000000000000000000000000000000000000600052601160045260246000fd5b6000610db682610933565b9150610dc183610933565b9250828203905081811115610dd957610dd8610d7c565b5b9291505056fea26469706673582212208b96397f91f2ec20a6192b54601415236d5fd396b739de61ba9be5429678d14764736f6c63430008110033"
}