{
  "address": "0x1821eF1458368071Fb858E7Db1f0887B8dC1982D",
  "abi": [
    {
      "inputs": [],
      "stateMutability": "nonpayable",
      "type": "constructor"
    },
    {
      "anonymous": false,
      "inputs": [
        {
          "indexed": true,
          "internalType": "address",
          "name": "owner",
          "type": "address"
        },
        {
          "indexed": true,
          "internalType": "address",
          "name": "approved",
          "type": "address"
        },
        {
          "indexed": true,
          "internalType": "uint256",
          "name": "tokenId",
          "type": "uint256"
        }
      ],
      "name": "Approval",
      "type": "event"
    },
    {
      "anonymous": false,
      "inputs": [
        {
          "indexed": true,
          "internalType": "address",
          "name": "owner",
          "type": "address"
        },
        {
          "indexed": true,
          "internalType": "address",
          "name": "operator",
          "type": "address"
        },
        {
          "indexed": false,
          "internalType": "bool",
          "name": "approved",
          "type": "bool"
        }
      ],
      "name": "ApprovalForAll",
      "type": "event"
    },
    {
      "anonymous": false,
      "inputs": [
        {
          "indexed": true,
          "internalType": "address",
          "name": "from",
          "type": "address"
        },
        {
          "indexed": true,
          "internalType": "address",
          "name": "to",
          "type": "address"
        },
        {
          "indexed": true,
          "internalType": "uint256",
          "name": "tokenId",
          "type": "uint256"
        }
      ],
      "name": "Transfer",
      "type": "event"
    },
    {
      "inputs": [
        {
          "internalType": "uint256",
          "name": "",
          "type": "uint256"
        },
        {
          "internalType": "uint256",
          "name": "",
          "type": "uint256"
        }
      ],
      "name": "accessibleBooks",
      "outputs": [
        {
          "internalType": "uint256",
          "name": "",
          "type": "uint256"
        }
      ],
      "stateMutability": "view",
      "type": "function"
    },
    {
      "inputs": [
        {
          "internalType": "uint256",
          "name": "keyId",
          "type": "uint256"
        },
        {
          "internalType": "uint256",
          "name": "bookId",
          "type": "uint256"
        }
      ],
      "name": "addBook",
      "outputs": [],
      "stateMutability": "nonpayable",
      "type": "function"
    },
    {
      "inputs": [
        {
          "internalType": "address",
          "name": "to",
          "type": "address"
        },
        {
          "internalType": "uint256",
          "name": "tokenId",
          "type": "uint256"
        }
      ],
      "name": "approve",
      "outputs": [],
      "stateMutability": "nonpayable",
      "type": "function"
    },
    {
      "inputs": [
        {
          "internalType": "address",
          "name": "owner",
          "type": "address"
        }
      ],
      "name": "balanceOf",
      "outputs": [
        {
          "internalType": "uint256",
          "name": "",
          "type": "uint256"
        }
      ],
      "stateMutability": "view",
      "type": "function"
    },
    {
      "inputs": [
        {
          "internalType": "address",
          "name": "caller",
          "type": "address"
        }
      ],
      "name": "generateKey",
      "outputs": [
        {
          "internalType": "uint256",
          "name": "",
          "type": "uint256"
        }
      ],
      "stateMutability": "nonpayable",
      "type": "function"
    },
    {
      "inputs": [
        {
          "internalType": "uint256",
          "name": "tokenId",
          "type": "uint256"
        }
      ],
      "name": "getApproved",
      "outputs": [
        {
          "internalType": "address",
          "name": "",
          "type": "address"
        }
      ],
      "stateMutability": "view",
      "type": "function"
    },
    {
      "inputs": [
        {
          "internalType": "address",
          "name": "user",
          "type": "address"
        }
      ],
      "name": "getUserKey",
      "outputs": [
        {
          "internalType": "uint256",
          "name": "",
          "type": "uint256"
        }
      ],
      "stateMutability": "view",
      "type": "function"
    },
    {
      "inputs": [
        {
          "internalType": "address",
          "name": "owner",
          "type": "address"
        },
        {
          "internalType": "address",
          "name": "operator",
          "type": "address"
        }
      ],
      "name": "isApprovedForAll",
      "outputs": [
        {
          "internalType": "bool",
          "name": "",
          "type": "bool"
        }
      ],
      "stateMutability": "view",
      "type": "function"
    },
    {
      "inputs": [],
      "name": "name",
      "outputs": [
        {
          "internalType": "string",
          "name": "",
          "type": "string"
        }
      ],
      "stateMutability": "view",
      "type": "function"
    },
    {
      "inputs": [
        {
          "internalType": "uint256",
          "name": "tokenId",
          "type": "uint256"
        }
      ],
      "name": "ownerOf",
      "outputs": [
        {
          "internalType": "address",
          "name": "",
          "type": "address"
        }
      ],
      "stateMutability": "view",
      "type": "function"
    },
    {
      "inputs": [
        {
          "internalType": "address",
          "name": "",
          "type": "address"
        }
      ],
      "name": "ownerToKey",
      "outputs": [
        {
          "internalType": "uint256",
          "name": "",
          "type": "uint256"
        }
      ],
      "stateMutability": "view",
      "type": "function"
    },
    {
      "inputs": [
        {
          "internalType": "address",
          "name": "from",
          "type": "address"
        },
        {
          "internalType": "address",
          "name": "to",
          "type": "address"
        },
        {
          "internalType": "uint256",
          "name": "tokenId",
          "type": "uint256"
        }
      ],
      "name": "safeTransferFrom",
      "outputs": [],
      "stateMutability": "nonpayable",
      "type": "function"
    },
    {
      "inputs": [
        {
          "internalType": "address",
          "name": "from",
          "type": "address"
        },
        {
          "internalType": "address",
          "name": "to",
          "type": "address"
        },
        {
          "internalType": "uint256",
          "name": "tokenId",
          "type": "uint256"
        },
        {
          "internalType": "bytes",
          "name": "data",
          "type": "bytes"
        }
      ],
      "name": "safeTransferFrom",
      "outputs": [],
      "stateMutability": "nonpayable",
      "type": "function"
    },
    {
      "inputs": [
        {
          "internalType": "address",
          "name": "operator",
          "type": "address"
        },
        {
          "internalType": "bool",
          "name": "approved",
          "type": "bool"
        }
      ],
      "name": "setApprovalForAll",
      "outputs": [],
      "stateMutability": "nonpayable",
      "type": "function"
    },
    {
      "inputs": [
        {
          "internalType": "address",
          "name": "user",
          "type": "address"
        },
        {
          "internalType": "uint256",
          "name": "keyId",
          "type": "uint256"
        }
      ],
      "name": "setUserKey",
      "outputs": [],
      "stateMutability": "nonpayable",
      "type": "function"
    },
    {
      "inputs": [
        {
          "internalType": "bytes4",
          "name": "interfaceId",
          "type": "bytes4"
        }
      ],
      "name": "supportsInterface",
      "outputs": [
        {
          "internalType": "bool",
          "name": "",
          "type": "bool"
        }
      ],
      "stateMutability": "view",
      "type": "function"
    },
    {
      "inputs": [],
      "name": "symbol",
      "outputs": [
        {
          "internalType": "string",
          "name": "",
          "type": "string"
        }
      ],
      "stateMutability": "view",
      "type": "function"
    },
    {
      "inputs": [
        {
          "internalType": "uint256",
          "name": "tokenId",
          "type": "uint256"
        }
      ],
      "name": "tokenURI",
      "outputs": [
        {
          "internalType": "string",
          "name": "",
          "type": "string"
        }
      ],
      "stateMutability": "view",
      "type": "function"
    },
    {
      "inputs": [
        {
          "internalType": "address",
          "name": "from",
          "type": "address"
        },
        {
          "internalType": "address",
          "name": "to",
          "type": "address"
        },
        {
          "internalType": "uint256",
          "name": "tokenId",
          "type": "uint256"
        }
      ],
      "name": "transferFrom",
      "outputs": [],
      "stateMutability": "nonpayable",
      "type": "function"
    }
  ],
  "bytecode": "0x60806040523480156200001157600080fd5b506040518060400160405280600381526020017f4b657900000000000000000000000000000000000000000000000000000000008152506040518060400160405280600281526020017f4b7900000000000000000000000000000000000000000000000000000000000081525081600090816200008f919062000324565b508060019081620000a1919062000324565b5050506200040b565b600081519050919050565b7f4e487b7100000000000000000000000000000000000000000000000000000000600052604160045260246000fd5b7f4e487b7100000000000000000000000000000000000000000000000000000000600052602260045260246000fd5b600060028204905060018216806200012c57607f821691505b602082108103620001425762000141620000e4565b5b50919050565b60008190508160005260206000209050919050565b60006020601f8301049050919050565b600082821b905092915050565b600060088302620001ac7fffffffffffffffffffffffffffffffffffffffffffffffffffffffffffffffff826200016d565b620001b886836200016d565b95508019841693508086168417925050509392505050565b6000819050919050565b6000819050919050565b600062000205620001ff620001f984620001d0565b620001da565b620001d0565b9050919050565b6000819050919050565b6200022183620001e4565b6200023962000230826200020c565b8484546200017a565b825550505050565b600090565b6200025062000241565b6200025d81848462000216565b505050565b5b8181101562000285576200027960008262000246565b60018101905062000263565b5050565b601f821115620002d4576200029e8162000148565b620002a9846200015d565b81016020851015620002b9578190505b620002d1620002c8856200015d565b83018262000262565b50505b505050565b600082821c905092915050565b6000620002f960001984600802620002d9565b1980831691505092915050565b6000620003148383620002e6565b9150826002028217905092915050565b6200032f82620000aa565b67ffffffffffffffff8111156200034b576200034a620000b5565b5b62000357825462000113565b6200036482828562000289565b600060209050601f8311600181146200039c576000841562000387578287015190505b62000393858262000306565b86555062000403565b601f198416620003ac8662000148565b60005b82811015620003d657848901518255600182019150602085019450602081019050620003af565b86831015620003f65784890151620003f2601f891682620002e6565b8355505b6001600288020188555050505b505050505050565b612ab2806200041b6000396000f3fe608060405234801561001057600080fd5b50600436106101215760003560e01c80636352211e116100ad578063a22cb46511610071578063a22cb4651461033e578063b88d4fde1461035a578063c87b56dd14610376578063e789af48146103a6578063e985e9c5146103d657610121565b80636352211e146102605780636ee82ee11461029057806370a08231146102c0578063745c84ca146102f057806395d89b411461032057610121565b806323b872dd116100f457806323b872dd146101c05780632597e047146101dc57806342842e0e146101f85780635290a0761461021457806356ddf67b1461023057610121565b806301ffc9a71461012657806306fdde0314610156578063081812fc14610174578063095ea7b3146101a4575b600080fd5b610140600480360381019061013b9190611c6b565b610406565b60405161014d9190611cb3565b60405180910390f35b61015e6104e8565b60405161016b9190611d5e565b60405180910390f35b61018e60048036038101906101899190611db6565b61057a565b60405161019b9190611e24565b60405180910390f35b6101be60048036038101906101b99190611e6b565b6105c0565b005b6101da60048036038101906101d59190611eab565b6106d7565b005b6101f660048036038101906101f19190611efe565b610737565b005b610212600480360381019061020d9190611eab565b61079e565b005b61022e60048036038101906102299190611e6b565b6107be565b005b61024a60048036038101906102459190611f3e565b61087c565b6040516102579190611f7a565b60405180910390f35b61027a60048036038101906102759190611db6565b6108a9565b6040516102879190611e24565b60405180910390f35b6102aa60048036038101906102a59190611efe565b61092f565b6040516102b79190611f7a565b60405180910390f35b6102da60048036038101906102d59190611f3e565b610960565b6040516102e79190611f7a565b60405180910390f35b61030a60048036038101906103059190611f3e565b610a17565b6040516103179190611f7a565b60405180910390f35b610328610a60565b6040516103359190611d5e565b60405180910390f35b61035860048036038101906103539190611fc1565b610af2565b005b610374600480360381019061036f9190612136565b610b08565b005b610390600480360381019061038b9190611db6565b610b6a565b60405161039d9190611d5e565b60405180910390f35b6103c060048036038101906103bb9190611f3e565b610bd2565b6040516103cd9190611f7a565b60405180910390f35b6103f060048036038101906103eb91906121b9565b610bea565b6040516103fd9190611cb3565b60405180910390f35b60007f80ac58cd000000000000000000000000000000000000000000000000000000007bffffffffffffffffffffffffffffffffffffffffffffffffffffffff1916827bffffffffffffffffffffffffffffffffffffffffffffffffffffffff191614806104d157507f5b5e139f000000000000000000000000000000000000000000000000000000007bffffffffffffffffffffffffffffffffffffffffffffffffffffffff1916827bffffffffffffffffffffffffffffffffffffffffffffffffffffffff1916145b806104e157506104e082610c7e565b5b9050919050565b6060600080546104f790612228565b80601f016020809104026020016040519081016040528092919081815260200182805461052390612228565b80156105705780601f1061054557610100808354040283529160200191610570565b820191906000526020600020905b81548152906001019060200180831161055357829003601f168201915b5050505050905090565b600061058582610ce8565b6004600083815260200190815260200160002060009054906101000a900473ffffffffffffffffffffffffffffffffffffffff169050919050565b60006105cb826108a9565b90508073ffffffffffffffffffffffffffffffffffffffff168373ffffffffffffffffffffffffffffffffffffffff160361063b576040517f08c379a0000000000000000000000000000000000000000000000000000000008152600401610632906122cb565b60405180910390fd5b8073ffffffffffffffffffffffffffffffffffffffff1661065a610d33565b73ffffffffffffffffffffffffffffffffffffffff161480610689575061068881610683610d33565b610bea565b5b6106c8576040517f08c379a00000000000000000000000000000000000000000000000000000000081526004016106bf9061235d565b60405180910390fd5b6106d28383610d3b565b505050565b6106e86106e2610d33565b82610df4565b610727576040517f08c379a000000000000000000000000000000000000000000000000000000000815260040161071e906123ef565b60405180910390fd5b610732838383610e89565b505050565b6000600760008481526020019081526020016000209050808290806001815401808255809150506001900390600052602060002001600090919091909150558060076000858152602001908152602001600020908054610798929190611b90565b50505050565b6107b983838360405180602001604052806000815250610b08565b505050565b8173ffffffffffffffffffffffffffffffffffffffff166107de826108a9565b73ffffffffffffffffffffffffffffffffffffffff1614610834576040517f08c379a000000000000000000000000000000000000000000000000000000000815260040161082b9061245b565b60405180910390fd5b80600860008473ffffffffffffffffffffffffffffffffffffffff1673ffffffffffffffffffffffffffffffffffffffff168152602001908152602001600020819055505050565b60006108886006611182565b60006108946006611198565b90506108a083826111a6565b80915050919050565b6000806108b5836111c4565b9050600073ffffffffffffffffffffffffffffffffffffffff168173ffffffffffffffffffffffffffffffffffffffff1603610926576040517f08c379a000000000000000000000000000000000000000000000000000000000815260040161091d906124c7565b60405180910390fd5b80915050919050565b6007602052816000526040600020818154811061094b57600080fd5b90600052602060002001600091509150505481565b60008073ffffffffffffffffffffffffffffffffffffffff168273ffffffffffffffffffffffffffffffffffffffff16036109d0576040517f08c379a00000000000000000000000000000000000000000000000000000000081526004016109c790612559565b60405180910390fd5b600360008373ffffffffffffffffffffffffffffffffffffffff1673ffffffffffffffffffffffffffffffffffffffff168152602001908152602001600020549050919050565b6000600860008373ffffffffffffffffffffffffffffffffffffffff1673ffffffffffffffffffffffffffffffffffffffff168152602001908152602001600020549050919050565b606060018054610a6f90612228565b80601f0160208091040260200160405190810160405280929190818152602001828054610a9b90612228565b8015610ae85780601f10610abd57610100808354040283529160200191610ae8565b820191906000526020600020905b815481529060010190602001808311610acb57829003601f168201915b5050505050905090565b610b04610afd610d33565b8383611201565b5050565b610b19610b13610d33565b83610df4565b610b58576040517f08c379a0000000000000000000000000000000000000000000000000000000008152600401610b4f906123ef565b60405180910390fd5b610b648484848461136d565b50505050565b6060610b7582610ce8565b6000610b7f6113c9565b90506000815111610b9f5760405180602001604052806000815250610bca565b80610ba9846113e0565b604051602001610bba9291906125b5565b6040516020818303038152906040525b915050919050565b60086020528060005260406000206000915090505481565b6000600560008473ffffffffffffffffffffffffffffffffffffffff1673ffffffffffffffffffffffffffffffffffffffff16815260200190815260200160002060008373ffffffffffffffffffffffffffffffffffffffff1673ffffffffffffffffffffffffffffffffffffffff16815260200190815260200160002060009054906101000a900460ff16905092915050565b60007f01ffc9a7000000000000000000000000000000000000000000000000000000007bffffffffffffffffffffffffffffffffffffffffffffffffffffffff1916827bffffffffffffffffffffffffffffffffffffffffffffffffffffffff1916149050919050565b610cf1816114ae565b610d30576040517f08c379a0000000000000000000000000000000000000000000000000000000008152600401610d27906124c7565b60405180910390fd5b50565b600033905090565b816004600083815260200190815260200160002060006101000a81548173ffffffffffffffffffffffffffffffffffffffff021916908373ffffffffffffffffffffffffffffffffffffffff160217905550808273ffffffffffffffffffffffffffffffffffffffff16610dae836108a9565b73ffffffffffffffffffffffffffffffffffffffff167f8c5be1e5ebec7d5bd14f71427d1e84f3dd0314c0f7b2291e5b200ac8c7c3b92560405160405180910390a45050565b600080610e00836108a9565b90508073ffffffffffffffffffffffffffffffffffffffff168473ffffffffffffffffffffffffffffffffffffffff161480610e425750610e418185610bea565b5b80610e8057508373ffffffffffffffffffffffffffffffffffffffff16610e688461057a565b73ffffffffffffffffffffffffffffffffffffffff16145b91505092915050565b8273ffffffffffffffffffffffffffffffffffffffff16610ea9826108a9565b73ffffffffffffffffffffffffffffffffffffffff1614610eff576040517f08c379a0000000000000000000000000000000000000000000000000000000008152600401610ef69061264b565b60405180910390fd5b600073ffffffffffffffffffffffffffffffffffffffff168273ffffffffffffffffffffffffffffffffffffffff1603610f6e576040517f08c379a0000000000000000000000000000000000000000000000000000000008152600401610f65906126dd565b60405180910390fd5b610f7b83838360016114ef565b8273ffffffffffffffffffffffffffffffffffffffff16610f9b826108a9565b73ffffffffffffffffffffffffffffffffffffffff1614610ff1576040517f08c379a0000000000000000000000000000000000000000000000000000000008152600401610fe89061264b565b60405180910390fd5b6004600082815260200190815260200160002060006101000a81549073ffffffffffffffffffffffffffffffffffffffff02191690556001600360008573ffffffffffffffffffffffffffffffffffffffff1673ffffffffffffffffffffffffffffffffffffffff168152602001908152602001600020600082825403925050819055506001600360008473ffffffffffffffffffffffffffffffffffffffff1673ffffffffffffffffffffffffffffffffffffffff16815260200190815260200160002060008282540192505081905550816002600083815260200190815260200160002060006101000a81548173ffffffffffffffffffffffffffffffffffffffff021916908373ffffffffffffffffffffffffffffffffffffffff160217905550808273ffffffffffffffffffffffffffffffffffffffff168473ffffffffffffffffffffffffffffffffffffffff167fddf252ad1be2c89b69c2b068fc378daa952ba7f163c4a11628f55a4df523b3ef60405160405180910390a461117d8383836001611615565b505050565b6001816000016000828254019250508190555050565b600081600001549050919050565b6111c082826040518060200160405280600081525061161b565b5050565b60006002600083815260200190815260200160002060009054906101000a900473ffffffffffffffffffffffffffffffffffffffff169050919050565b8173ffffffffffffffffffffffffffffffffffffffff168373ffffffffffffffffffffffffffffffffffffffff160361126f576040517f08c379a000000000000000000000000000000000000000000000000000000000815260040161126690612749565b60405180910390fd5b80600560008573ffffffffffffffffffffffffffffffffffffffff1673ffffffffffffffffffffffffffffffffffffffff16815260200190815260200160002060008473ffffffffffffffffffffffffffffffffffffffff1673ffffffffffffffffffffffffffffffffffffffff16815260200190815260200160002060006101000a81548160ff0219169083151502179055508173ffffffffffffffffffffffffffffffffffffffff168373ffffffffffffffffffffffffffffffffffffffff167f17307eab39ab6107e8899845ad3d59bd9653f200f220920489ca2b5937696c31836040516113609190611cb3565b60405180910390a3505050565b611378848484610e89565b61138484848484611676565b6113c3576040517f08c379a00000000000000000000000000000000000000000000000000000000081526004016113ba906127db565b60405180910390fd5b50505050565b606060405180602001604052806000815250905090565b6060600060016113ef846117fd565b01905060008167ffffffffffffffff81111561140e5761140d61200b565b5b6040519080825280601f01601f1916602001820160405280156114405781602001600182028036833780820191505090505b509050600082602001820190505b6001156114a3578080600190039150507f3031323334353637383961626364656600000000000000000000000000000000600a86061a8153600a8581611497576114966127fb565b5b0494506000850361144e575b819350505050919050565b60008073ffffffffffffffffffffffffffffffffffffffff166114d0836111c4565b73ffffffffffffffffffffffffffffffffffffffff1614159050919050565b600181111561160f57600073ffffffffffffffffffffffffffffffffffffffff168473ffffffffffffffffffffffffffffffffffffffff16146115835780600360008673ffffffffffffffffffffffffffffffffffffffff1673ffffffffffffffffffffffffffffffffffffffff168152602001908152602001600020600082825461157b9190612859565b925050819055505b600073ffffffffffffffffffffffffffffffffffffffff168373ffffffffffffffffffffffffffffffffffffffff161461160e5780600360008573ffffffffffffffffffffffffffffffffffffffff1673ffffffffffffffffffffffffffffffffffffffff1681526020019081526020016000206000828254611606919061288d565b925050819055505b5b50505050565b50505050565b6116258383611950565b6116326000848484611676565b611671576040517f08c379a0000000000000000000000000000000000000000000000000000000008152600401611668906127db565b60405180910390fd5b505050565b60006116978473ffffffffffffffffffffffffffffffffffffffff16611b6d565b156117f0578373ffffffffffffffffffffffffffffffffffffffff1663150b7a026116c0610d33565b8786866040518563ffffffff1660e01b81526004016116e29493929190612916565b6020604051808303816000875af192505050801561171e57506040513d601f19601f8201168201806040525081019061171b9190612977565b60015b6117a0573d806000811461174e576040519150601f19603f3d011682016040523d82523d6000602084013e611753565b606091505b506000815103611798576040517f08c379a000000000000000000000000000000000000000000000000000000000815260040161178f906127db565b60405180910390fd5b805181602001fd5b63150b7a0260e01b7bffffffffffffffffffffffffffffffffffffffffffffffffffffffff1916817bffffffffffffffffffffffffffffffffffffffffffffffffffffffff1916149150506117f5565b600190505b949350505050565b600080600090507a184f03e93ff9f4daa797ed6e38ed64bf6a1f010000000000000000831061185b577a184f03e93ff9f4daa797ed6e38ed64bf6a1f0100000000000000008381611851576118506127fb565b5b0492506040810190505b6d04ee2d6d415b85acef81000000008310611898576d04ee2d6d415b85acef8100000000838161188e5761188d6127fb565b5b0492506020810190505b662386f26fc1000083106118c757662386f26fc1000083816118bd576118bc6127fb565b5b0492506010810190505b6305f5e10083106118f0576305f5e10083816118e6576118e56127fb565b5b0492506008810190505b612710831061191557612710838161190b5761190a6127fb565b5b0492506004810190505b60648310611938576064838161192e5761192d6127fb565b5b0492506002810190505b600a8310611947576001810190505b80915050919050565b600073ffffffffffffffffffffffffffffffffffffffff168273ffffffffffffffffffffffffffffffffffffffff16036119bf576040517f08c379a00000000000000000000000000000000000000000000000000000000081526004016119b6906129f0565b60405180910390fd5b6119c8816114ae565b15611a08576040517f08c379a00000000000000000000000000000000000000000000000000000000081526004016119ff90612a5c565b60405180910390fd5b611a166000838360016114ef565b611a1f816114ae565b15611a5f576040517f08c379a0000000000000000000000000000000000000000000000000000000008152600401611a5690612a5c565b60405180910390fd5b6001600360008473ffffffffffffffffffffffffffffffffffffffff1673ffffffffffffffffffffffffffffffffffffffff16815260200190815260200160002060008282540192505081905550816002600083815260200190815260200160002060006101000a81548173ffffffffffffffffffffffffffffffffffffffff021916908373ffffffffffffffffffffffffffffffffffffffff160217905550808273ffffffffffffffffffffffffffffffffffffffff16600073ffffffffffffffffffffffffffffffffffffffff167fddf252ad1be2c89b69c2b068fc378daa952ba7f163c4a11628f55a4df523b3ef60405160405180910390a4611b69600083836001611615565b5050565b6000808273ffffffffffffffffffffffffffffffffffffffff163b119050919050565b828054828255906000526020600020908101928215611bd15760005260206000209182015b82811115611bd0578254825591600101919060010190611bb5565b5b509050611bde9190611be2565b5090565b5b80821115611bfb576000816000905550600101611be3565b5090565b6000604051905090565b600080fd5b600080fd5b60007fffffffff0000000000000000000000000000000000000000000000000000000082169050919050565b611c4881611c13565b8114611c5357600080fd5b50565b600081359050611c6581611c3f565b92915050565b600060208284031215611c8157611c80611c09565b5b6000611c8f84828501611c56565b91505092915050565b60008115159050919050565b611cad81611c98565b82525050565b6000602082019050611cc86000830184611ca4565b92915050565b600081519050919050565b600082825260208201905092915050565b60005b83811015611d08578082015181840152602081019050611ced565b60008484015250505050565b6000601f19601f8301169050919050565b6000611d3082611cce565b611d3a8185611cd9565b9350611d4a818560208601611cea565b611d5381611d14565b840191505092915050565b60006020820190508181036000830152611d788184611d25565b905092915050565b6000819050919050565b611d9381611d80565b8114611d9e57600080fd5b50565b600081359050611db081611d8a565b92915050565b600060208284031215611dcc57611dcb611c09565b5b6000611dda84828501611da1565b91505092915050565b600073ffffffffffffffffffffffffffffffffffffffff82169050919050565b6000611e0e82611de3565b9050919050565b611e1e81611e03565b82525050565b6000602082019050611e396000830184611e15565b92915050565b611e4881611e03565b8114611e5357600080fd5b50565b600081359050611e6581611e3f565b92915050565b60008060408385031215611e8257611e81611c09565b5b6000611e9085828601611e56565b9250506020611ea185828601611da1565b9150509250929050565b600080600060608486031215611ec457611ec3611c09565b5b6000611ed286828701611e56565b9350506020611ee386828701611e56565b9250506040611ef486828701611da1565b9150509250925092565b60008060408385031215611f1557611f14611c09565b5b6000611f2385828601611da1565b9250506020611f3485828601611da1565b9150509250929050565b600060208284031215611f5457611f53611c09565b5b6000611f6284828501611e56565b91505092915050565b611f7481611d80565b82525050565b6000602082019050611f8f6000830184611f6b565b92915050565b611f9e81611c98565b8114611fa957600080fd5b50565b600081359050611fbb81611f95565b92915050565b60008060408385031215611fd857611fd7611c09565b5b6000611fe685828601611e56565b9250506020611ff785828601611fac565b9150509250929050565b600080fd5b600080fd5b7f4e487b7100000000000000000000000000000000000000000000000000000000600052604160045260246000fd5b61204382611d14565b810181811067ffffffffffffffff821117156120625761206161200b565b5b80604052505050565b6000612075611bff565b9050612081828261203a565b919050565b600067ffffffffffffffff8211156120a1576120a061200b565b5b6120aa82611d14565b9050602081019050919050565b82818337600083830152505050565b60006120d96120d484612086565b61206b565b9050828152602081018484840111156120f5576120f4612006565b5b6121008482856120b7565b509392505050565b600082601f83011261211d5761211c612001565b5b813561212d8482602086016120c6565b91505092915050565b600080600080608085870312156121505761214f611c09565b5b600061215e87828801611e56565b945050602061216f87828801611e56565b935050604061218087828801611da1565b925050606085013567ffffffffffffffff8111156121a1576121a0611c0e565b5b6121ad87828801612108565b91505092959194509250565b600080604083850312156121d0576121cf611c09565b5b60006121de85828601611e56565b92505060206121ef85828601611e56565b9150509250929050565b7f4e487b7100000000000000000000000000000000000000000000000000000000600052602260045260246000fd5b6000600282049050600182168061224057607f821691505b602082108103612253576122526121f9565b5b50919050565b7f4552433732313a20617070726f76616c20746f2063757272656e74206f776e6560008201527f7200000000000000000000000000000000000000000000000000000000000000602082015250565b60006122b5602183611cd9565b91506122c082612259565b604082019050919050565b600060208201905081810360008301526122e4816122a8565b9050919050565b7f4552433732313a20617070726f76652063616c6c6572206973206e6f7420746f60008201527f6b656e206f776e6572206f7220617070726f76656420666f7220616c6c000000602082015250565b6000612347603d83611cd9565b9150612352826122eb565b604082019050919050565b600060208201905081810360008301526123768161233a565b9050919050565b7f4552433732313a2063616c6c6572206973206e6f7420746f6b656e206f776e6560008201527f72206f7220617070726f76656400000000000000000000000000000000000000602082015250565b60006123d9602d83611cd9565b91506123e48261237d565b604082019050919050565b60006020820190508181036000830152612408816123cc565b9050919050565b7f4e6f74206f776e6572206f66206b657900000000000000000000000000000000600082015250565b6000612445601083611cd9565b91506124508261240f565b602082019050919050565b6000602082019050818103600083015261247481612438565b9050919050565b7f4552433732313a20696e76616c696420746f6b656e2049440000000000000000600082015250565b60006124b1601883611cd9565b91506124bc8261247b565b602082019050919050565b600060208201905081810360008301526124e0816124a4565b9050919050565b7f4552433732313a2061646472657373207a65726f206973206e6f74206120766160008201527f6c6964206f776e65720000000000000000000000000000000000000000000000602082015250565b6000612543602983611cd9565b915061254e826124e7565b604082019050919050565b6000602082019050818103600083015261257281612536565b9050919050565b600081905092915050565b600061258f82611cce565b6125998185612579565b93506125a9818560208601611cea565b80840191505092915050565b60006125c18285612584565b91506125cd8284612584565b91508190509392505050565b7f4552433732313a207472616e736665722066726f6d20696e636f72726563742060008201527f6f776e6572000000000000000000000000000000000000000000000000000000602082015250565b6000612635602583611cd9565b9150612640826125d9565b604082019050919050565b6000602082019050818103600083015261266481612628565b9050919050565b7f4552433732313a207472616e7366657220746f20746865207a65726f2061646460008201527f7265737300000000000000000000000000000000000000000000000000000000602082015250565b60006126c7602483611cd9565b91506126d28261266b565b604082019050919050565b600060208201905081810360008301526126f6816126ba565b9050919050565b7f4552433732313a20617070726f766520746f2063616c6c657200000000000000600082015250565b6000612733601983611cd9565b915061273e826126fd565b602082019050919050565b6000602082019050818103600083015261276281612726565b9050919050565b7f4552433732313a207472616e7366657220746f206e6f6e20455243373231526560008201527f63656976657220696d706c656d656e7465720000000000000000000000000000602082015250565b60006127c5603283611cd9565b91506127d082612769565b604082019050919050565b600060208201905081810360008301526127f4816127b8565b9050919050565b7f4e487b7100000000000000000000000000000000000000000000000000000000600052601260045260246000fd5b7f4e487b7100000000000000000000000000000000000000000000000000000000600052601160045260246000fd5b600061286482611d80565b915061286f83611d80565b92508282039050818111156128875761288661282a565b5b92915050565b600061289882611d80565b91506128a383611d80565b92508282019050808211156128bb576128ba61282a565b5b92915050565b600081519050919050565b600082825260208201905092915050565b60006128e8826128c1565b6128f281856128cc565b9350612902818560208601611cea565b61290b81611d14565b840191505092915050565b600060808201905061292b6000830187611e15565b6129386020830186611e15565b6129456040830185611f6b565b818103606083015261295781846128dd565b905095945050505050565b60008151905061297181611c3f565b92915050565b60006020828403121561298d5761298c611c09565b5b600061299b84828501612962565b91505092915050565b7f4552433732313a206d696e7420746f20746865207a65726f2061646472657373600082015250565b60006129da602083611cd9565b91506129e5826129a4565b602082019050919050565b60006020820190508181036000830152612a09816129cd565b9050919050565b7f4552433732313a20746f6b656e20616c7265616479206d696e74656400000000600082015250565b6000612a46601c83611cd9565b9150612a5182612a10565b602082019050919050565b60006020820190508181036000830152612a7581612a39565b905091905056fea2646970667358221220adccca2054b14b4ef45ad13a27587f2be967a479bda4e5617cc31fa5b350790664736f6c63430008110033"
}