{"address":"0x3a4e9A54bB19774A2c381dc89a9990ED5eA39316","abi":[{"inputs":[{"internalType":"uint8","name":"feePercentage","type":"uint8"},{"internalType":"address","name":"key","type":"address"}],"stateMutability":"nonpayable","type":"constructor"},{"anonymous":false,"inputs":[{"indexed":true,"internalType":"address","name":"owner","type":"address"},{"indexed":true,"internalType":"address","name":"approved","type":"address"},{"indexed":true,"internalType":"uint256","name":"tokenId","type":"uint256"}],"name":"Approval","type":"event"},{"anonymous":false,"inputs":[{"indexed":true,"internalType":"address","name":"owner","type":"address"},{"indexed":true,"internalType":"address","name":"operator","type":"address"},{"indexed":false,"internalType":"bool","name":"approved","type":"bool"}],"name":"ApprovalForAll","type":"event"},{"anonymous":false,"inputs":[{"indexed":false,"internalType":"address","name":"author","type":"address"},{"indexed":false,"internalType":"string","name":"cid","type":"string"},{"indexed":true,"internalType":"uint256","name":"bookId","type":"uint256"}],"name":"BookCreated","type":"event"},{"anonymous":false,"inputs":[{"indexed":true,"internalType":"uint256","name":"bookId","type":"uint256"},{"indexed":false,"internalType":"uint256","name":"purchasePrice","type":"uint256"},{"indexed":false,"internalType":"uint256","name":"rentPrice","type":"uint256"}],"name":"BookPublished","type":"event"},{"anonymous":false,"inputs":[{"indexed":true,"internalType":"address","name":"from","type":"address"},{"indexed":true,"internalType":"address","name":"to","type":"address"},{"indexed":true,"internalType":"uint256","name":"tokenId","type":"uint256"}],"name":"Transfer","type":"event"},{"inputs":[],"name":"_feePercentage","outputs":[{"internalType":"uint8","name":"","type":"uint8"}],"stateMutability":"view","type":"function"},{"inputs":[],"name":"_key","outputs":[{"internalType":"contract Key","name":"","type":"address"}],"stateMutability":"view","type":"function"},{"inputs":[{"internalType":"address","name":"to","type":"address"},{"internalType":"uint256","name":"tokenId","type":"uint256"}],"name":"approve","outputs":[],"stateMutability":"nonpayable","type":"function"},{"inputs":[{"internalType":"address","name":"owner","type":"address"}],"name":"balanceOf","outputs":[{"internalType":"uint256","name":"","type":"uint256"}],"stateMutability":"view","type":"function"},{"inputs":[{"internalType":"uint256","name":"","type":"uint256"}],"name":"bookIdToBookStruct","outputs":[{"internalType":"string","name":"cid","type":"string"},{"internalType":"uint256","name":"purchasePrice","type":"uint256"},{"internalType":"uint256","name":"rentPrice","type":"uint256"},{"internalType":"uint256","name":"totalRevenue","type":"uint256"}],"stateMutability":"view","type":"function"},{"inputs":[{"internalType":"uint256","name":"bookId","type":"uint256"}],"name":"buyAccess","outputs":[],"stateMutability":"payable","type":"function"},{"inputs":[{"internalType":"uint256","name":"keyId","type":"uint256"}],"name":"buyBookOwnership","outputs":[],"stateMutability":"nonpayable","type":"function"},{"inputs":[{"internalType":"uint256","name":"bookId","type":"uint256"},{"internalType":"address","name":"caller","type":"address"}],"name":"canAccessBook","outputs":[{"internalType":"bool","name":"","type":"bool"}],"stateMutability":"view","type":"function"},{"inputs":[{"internalType":"string","name":"cid","type":"string"}],"name":"createBook","outputs":[],"stateMutability":"nonpayable","type":"function"},{"inputs":[{"internalType":"uint256","name":"tokenId","type":"uint256"}],"name":"getApproved","outputs":[{"internalType":"address","name":"","type":"address"}],"stateMutability":"view","type":"function"},{"inputs":[{"internalType":"address","name":"owner","type":"address"},{"internalType":"address","name":"operator","type":"address"}],"name":"isApprovedForAll","outputs":[{"internalType":"bool","name":"","type":"bool"}],"stateMutability":"view","type":"function"},{"inputs":[],"name":"name","outputs":[{"internalType":"string","name":"","type":"string"}],"stateMutability":"view","type":"function"},{"inputs":[{"internalType":"uint256","name":"tokenId","type":"uint256"}],"name":"ownerOf","outputs":[{"internalType":"address","name":"","type":"address"}],"stateMutability":"view","type":"function"},{"inputs":[{"internalType":"uint256","name":"bookId","type":"uint256"}],"name":"rentAccess","outputs":[],"stateMutability":"payable","type":"function"},{"inputs":[{"internalType":"address","name":"from","type":"address"},{"internalType":"address","name":"to","type":"address"},{"internalType":"uint256","name":"tokenId","type":"uint256"}],"name":"safeTransferFrom","outputs":[],"stateMutability":"nonpayable","type":"function"},{"inputs":[{"internalType":"address","name":"from","type":"address"},{"internalType":"address","name":"to","type":"address"},{"internalType":"uint256","name":"tokenId","type":"uint256"},{"internalType":"bytes","name":"data","type":"bytes"}],"name":"safeTransferFrom","outputs":[],"stateMutability":"nonpayable","type":"function"},{"inputs":[{"internalType":"uint256","name":"keyId","type":"uint256"}],"name":"sellBookOwnership","outputs":[],"stateMutability":"nonpayable","type":"function"},{"inputs":[{"internalType":"address","name":"operator","type":"address"},{"internalType":"bool","name":"approved","type":"bool"}],"name":"setApprovalForAll","outputs":[],"stateMutability":"nonpayable","type":"function"},{"inputs":[{"internalType":"bytes4","name":"interfaceId","type":"bytes4"}],"name":"supportsInterface","outputs":[{"internalType":"bool","name":"","type":"bool"}],"stateMutability":"view","type":"function"},{"inputs":[],"name":"symbol","outputs":[{"internalType":"string","name":"","type":"string"}],"stateMutability":"view","type":"function"},{"inputs":[{"internalType":"uint256","name":"tokenId","type":"uint256"}],"name":"tokenURI","outputs":[{"internalType":"string","name":"","type":"string"}],"stateMutability":"view","type":"function"},{"inputs":[{"internalType":"address","name":"from","type":"address"},{"internalType":"address","name":"to","type":"address"},{"internalType":"uint256","name":"tokenId","type":"uint256"}],"name":"transferFrom","outputs":[],"stateMutability":"nonpayable","type":"function"},{"inputs":[{"internalType":"uint256","name":"bookId","type":"uint256"},{"internalType":"uint256","name":"purchasePrice","type":"uint256"},{"internalType":"uint256","name":"rentPrice","type":"uint256"}],"name":"uploadBook","outputs":[],"stateMutability":"nonpayable","type":"function"},{"inputs":[{"internalType":"uint256","name":"bookId","type":"uint256"}],"name":"withdrawProfit","outputs":[],"stateMutability":"payable","type":"function"},{"stateMutability":"payable","type":"receive"}],"bytecode":"0x60a06040523480156200001157600080fd5b506040516200447e3803806200447e8339818101604052810190620000379190620001c8565b6040518060400160405280600481526020017f426f6f6b000000000000000000000000000000000000000000000000000000008152506040518060400160405280600281526020017f426b0000000000000000000000000000000000000000000000000000000000008152508160009081620000b4919062000489565b508060019081620000c6919062000489565b50505081600860006101000a81548160ff021916908360ff1602179055508073ffffffffffffffffffffffffffffffffffffffff1660808173ffffffffffffffffffffffffffffffffffffffff1681525050505062000570565b600080fd5b600060ff82169050919050565b6200013d8162000125565b81146200014957600080fd5b50565b6000815190506200015d8162000132565b92915050565b600073ffffffffffffffffffffffffffffffffffffffff82169050919050565b6000620001908262000163565b9050919050565b620001a28162000183565b8114620001ae57600080fd5b50565b600081519050620001c28162000197565b92915050565b60008060408385031215620001e257620001e162000120565b5b6000620001f2858286016200014c565b92505060206200020585828601620001b1565b9150509250929050565b600081519050919050565b7f4e487b7100000000000000000000000000000000000000000000000000000000600052604160045260246000fd5b7f4e487b7100000000000000000000000000000000000000000000000000000000600052602260045260246000fd5b600060028204905060018216806200029157607f821691505b602082108103620002a757620002a662000249565b5b50919050565b60008190508160005260206000209050919050565b60006020601f8301049050919050565b600082821b905092915050565b600060088302620003117fffffffffffffffffffffffffffffffffffffffffffffffffffffffffffffffff82620002d2565b6200031d8683620002d2565b95508019841693508086168417925050509392505050565b6000819050919050565b6000819050919050565b60006200036a620003646200035e8462000335565b6200033f565b62000335565b9050919050565b6000819050919050565b620003868362000349565b6200039e620003958262000371565b848454620002df565b825550505050565b600090565b620003b5620003a6565b620003c28184846200037b565b505050565b5b81811015620003ea57620003de600082620003ab565b600181019050620003c8565b5050565b601f82111562000439576200040381620002ad565b6200040e84620002c2565b810160208510156200041e578190505b620004366200042d85620002c2565b830182620003c7565b50505b505050565b600082821c905092915050565b60006200045e600019846008026200043e565b1980831691505092915050565b60006200047983836200044b565b9150826002028217905092915050565b62000494826200020f565b67ffffffffffffffff811115620004b057620004af6200021a565b5b620004bc825462000278565b620004c9828285620003ee565b600060209050601f831160018114620005015760008415620004ec578287015190505b620004f885826200046b565b86555062000568565b601f1984166200051186620002ad565b60005b828110156200053b5784890151825560018201915060208501945060208101905062000514565b868310156200055b578489015162000557601f8916826200044b565b8355505b6001600288020188555050505b505050505050565b608051613eb3620005cb6000396000818161093201528181610aac01528181610b5001528181610bed01528181610cfb01528181610eca015281816114f60152818161159a0152818161163701526117520152613eb36000f3fe60806040526004361061014f5760003560e01c80639072df6b116100b6578063c87b56dd1161006f578063c87b56dd146104b1578063d82a2bea146104ee578063dc4e35e81461050a578063e985e9c514610526578063f699343e14610563578063f9c9c8781461058e57610156565b80639072df6b146103a257806395d89b41146103cb578063a22cb465146103f6578063b75174f01461041f578063b88d4fde1461045f578063b9f72b7d1461048857610156565b806342842e0e1161010857806342842e0e1461028f57806350a1a264146102b85780636352211e146102d457806370a082311461031157806374ad7ac41461034e578063815092d71461037957610156565b806301ffc9a71461015b57806306fdde0314610198578063081812fc146101c3578063095ea7b31461020057806323b872dd1461022957806336d964121461025257610156565b3661015657005b600080fd5b34801561016757600080fd5b50610182600480360381019061017d9190612911565b6105b7565b60405161018f9190612959565b60405180910390f35b3480156101a457600080fd5b506101ad610699565b6040516101ba9190612a04565b60405180910390f35b3480156101cf57600080fd5b506101ea60048036038101906101e59190612a5c565b61072b565b6040516101f79190612aca565b60405180910390f35b34801561020c57600080fd5b5061022760048036038101906102229190612b11565b610771565b005b34801561023557600080fd5b50610250600480360381019061024b9190612b51565b610888565b005b34801561025e57600080fd5b5061027960048036038101906102749190612ba4565b6108e8565b6040516102869190612959565b60405180910390f35b34801561029b57600080fd5b506102b660048036038101906102b19190612b51565b610a2a565b005b6102d260048036038101906102cd9190612a5c565b610a4a565b005b3480156102e057600080fd5b506102fb60048036038101906102f69190612a5c565b610d8b565b6040516103089190612aca565b60405180910390f35b34801561031d57600080fd5b5061033860048036038101906103339190612be4565b610e11565b6040516103459190612c20565b60405180910390f35b34801561035a57600080fd5b50610363610ec8565b6040516103709190612c9a565b60405180910390f35b34801561038557600080fd5b506103a0600480360381019061039b9190612cb5565b610eec565b005b3480156103ae57600080fd5b506103c960048036038101906103c49190612a5c565b61102f565b005b3480156103d757600080fd5b506103e0611032565b6040516103ed9190612a04565b60405180910390f35b34801561040257600080fd5b5061041d60048036038101906104189190612d34565b6110c4565b005b34801561042b57600080fd5b5061044660048036038101906104419190612a5c565b6110da565b6040516104569493929190612d74565b60405180910390f35b34801561046b57600080fd5b5061048660048036038101906104819190612ef5565b611192565b005b34801561049457600080fd5b506104af60048036038101906104aa9190613019565b6111f4565b005b3480156104bd57600080fd5b506104d860048036038101906104d39190612a5c565b611288565b6040516104e59190612a04565b60405180910390f35b61050860048036038101906105039190612a5c565b61139a565b005b610524600480360381019061051f9190612a5c565b611494565b005b34801561053257600080fd5b5061054d60048036038101906105489190613062565b6117e3565b60405161055a9190612959565b60405180910390f35b34801561056f57600080fd5b50610578611877565b60405161058591906130be565b60405180910390f35b34801561059a57600080fd5b506105b560048036038101906105b09190612a5c565b61188a565b005b60007f80ac58cd000000000000000000000000000000000000000000000000000000007bffffffffffffffffffffffffffffffffffffffffffffffffffffffff1916827bffffffffffffffffffffffffffffffffffffffffffffffffffffffff1916148061068257507f5b5e139f000000000000000000000000000000000000000000000000000000007bffffffffffffffffffffffffffffffffffffffffffffffffffffffff1916827bffffffffffffffffffffffffffffffffffffffffffffffffffffffff1916145b8061069257506106918261188d565b5b9050919050565b6060600080546106a890613108565b80601f01602080910402602001604051908101604052809291908181526020018280546106d490613108565b80156107215780601f106106f657610100808354040283529160200191610721565b820191906000526020600020905b81548152906001019060200180831161070457829003601f168201915b5050505050905090565b6000610736826118f7565b6004600083815260200190815260200160002060009054906101000a900473ffffffffffffffffffffffffffffffffffffffff169050919050565b600061077c82610d8b565b90508073ffffffffffffffffffffffffffffffffffffffff168373ffffffffffffffffffffffffffffffffffffffff16036107ec576040517f08c379a00000000000000000000000000000000000000000000000000000000081526004016107e3906131ab565b60405180910390fd5b8073ffffffffffffffffffffffffffffffffffffffff1661080b611942565b73ffffffffffffffffffffffffffffffffffffffff16148061083a575061083981610834611942565b6117e3565b5b610879576040517f08c379a00000000000000000000000000000000000000000000000000000000081526004016108709061323d565b60405180910390fd5b610883838361194a565b505050565b610899610893611942565b82611a03565b6108d8576040517f08c379a00000000000000000000000000000000000000000000000000000000081526004016108cf906132cf565b60405180910390fd5b6108e3838383611a98565b505050565b60008173ffffffffffffffffffffffffffffffffffffffff1661090a84610d8b565b73ffffffffffffffffffffffffffffffffffffffff160361092e5760019050610a24565b60007f000000000000000000000000000000000000000000000000000000000000000073ffffffffffffffffffffffffffffffffffffffff1663745c84ca846040518263ffffffff1660e01b81526004016109899190612aca565b602060405180830381865afa1580156109a6573d6000803e3d6000fd5b505050506040513d601f19601f820116820180604052508101906109ca9190613304565b9050600081036109de576000915050610a24565b600060096000868152602001908152602001600020905042816004016000848152602001908152602001600020541115610a1d57600192505050610a24565b6000925050505b92915050565b610a4583838360405180602001604052806000815250611192565b505050565b60006009600083815260200190815260200160002090508060010154341015610aa8576040517f08c379a0000000000000000000000000000000000000000000000000000000008152600401610a9f9061337d565b60405180910390fd5b60007f000000000000000000000000000000000000000000000000000000000000000073ffffffffffffffffffffffffffffffffffffffff1663745c84ca336040518263ffffffff1660e01b8152600401610b039190612aca565b602060405180830381865afa158015610b20573d6000803e3d6000fd5b505050506040513d601f19601f82011682018060405250810190610b449190613304565b905060008103610c88577f000000000000000000000000000000000000000000000000000000000000000073ffffffffffffffffffffffffffffffffffffffff166356ddf67b336040518263ffffffff1660e01b8152600401610ba79190612aca565b6020604051808303816000875af1158015610bc6573d6000803e3d6000fd5b505050506040513d601f19601f82011682018060405250810190610bea9190613304565b507f000000000000000000000000000000000000000000000000000000000000000073ffffffffffffffffffffffffffffffffffffffff1663745c84ca336040518263ffffffff1660e01b8152600401610c449190612aca565b602060405180830381865afa158015610c61573d6000803e3d6000fd5b505050506040513d601f19601f82011682018060405250810190610c859190613304565b90505b7fffffffffffffffffffffffffffffffffffffffffffffffffffffffffffffffff82600401600083815260200190815260200160002081905550610cdf600860009054906101000a900460ff168360010154611d91565b826003016000828254610cf291906133cc565b925050819055507f000000000000000000000000000000000000000000000000000000000000000073ffffffffffffffffffffffffffffffffffffffff16632597e04782856040518363ffffffff1660e01b8152600401610d54929190613400565b600060405180830381600087803b158015610d6e57600080fd5b505af1158015610d82573d6000803e3d6000fd5b50505050505050565b600080610d9783611dc2565b9050600073ffffffffffffffffffffffffffffffffffffffff168173ffffffffffffffffffffffffffffffffffffffff1603610e08576040517f08c379a0000000000000000000000000000000000000000000000000000000008152600401610dff90613475565b60405180910390fd5b80915050919050565b60008073ffffffffffffffffffffffffffffffffffffffff168273ffffffffffffffffffffffffffffffffffffffff1603610e81576040517f08c379a0000000000000000000000000000000000000000000000000000000008152600401610e7890613507565b60405180910390fd5b600360008373ffffffffffffffffffffffffffffffffffffffff1673ffffffffffffffffffffffffffffffffffffffff168152602001908152602001600020549050919050565b7f000000000000000000000000000000000000000000000000000000000000000081565b600083118015610f055750610f016007611dff565b8311155b610f44576040517f08c379a0000000000000000000000000000000000000000000000000000000008152600401610f3b90613573565b60405180910390fd5b3373ffffffffffffffffffffffffffffffffffffffff16610f6484610d8b565b73ffffffffffffffffffffffffffffffffffffffff1614610fba576040517f08c379a0000000000000000000000000000000000000000000000000000000008152600401610fb1906135df565b60405180910390fd5b816009600085815260200190815260200160002060010181905550806009600085815260200190815260200160002060020181905550827f204930f3db2bb7f6984c024cf2a93710045c72024ec59bff7d4e63b2409c841e8383604051611022929190613400565b60405180910390a2505050565b50565b60606001805461104190613108565b80601f016020809104026020016040519081016040528092919081815260200182805461106d90613108565b80156110ba5780601f1061108f576101008083540402835291602001916110ba565b820191906000526020600020905b81548152906001019060200180831161109d57829003601f168201915b5050505050905090565b6110d66110cf611942565b8383611e0d565b5050565b60096020528060005260406000206000915090508060000180546110fd90613108565b80601f016020809104026020016040519081016040528092919081815260200182805461112990613108565b80156111765780601f1061114b57610100808354040283529160200191611176565b820191906000526020600020905b81548152906001019060200180831161115957829003601f168201915b5050505050908060010154908060020154908060030154905084565b6111a361119d611942565b83611a03565b6111e2576040517f08c379a00000000000000000000000000000000000000000000000000000000081526004016111d9906132cf565b60405180910390fd5b6111ee84848484611f79565b50505050565b6111fe6007611fd5565b600061120a6007611dff565b90506112163382611feb565b6112208183612009565b60006009600083815260200190815260200160002090508281600001908161124891906137a1565b50817f6f10a189e74c40865dbc37544147d0a3d57b2a5e5100daf4cd09cff5a9033c72338560405161127b929190613873565b60405180910390a2505050565b6060611293826118f7565b60006006600084815260200190815260200160002080546112b390613108565b80601f01602080910402602001604051908101604052809291908181526020018280546112df90613108565b801561132c5780601f106113015761010080835404028352916020019161132c565b820191906000526020600020905b81548152906001019060200180831161130f57829003601f168201915b50505050509050600061133d612076565b90506000815103611352578192505050611395565b60008251111561138757808260405160200161136f9291906138df565b60405160208183030381529060405292505050611395565b6113908461208d565b925050505b919050565b3373ffffffffffffffffffffffffffffffffffffffff166113ba82610d8b565b73ffffffffffffffffffffffffffffffffffffffff1614611410576040517f08c379a0000000000000000000000000000000000000000000000000000000008152600401611407906135df565b60405180910390fd5b6000600960008381526020019081526020016000206003018190555061143581610d8b565b73ffffffffffffffffffffffffffffffffffffffff166108fc60096000848152602001908152602001600020600301549081150290604051600060405180830381858888f19350505050158015611490573d6000803e3d6000fd5b5050565b600060096000838152602001908152602001600020905080600201543410156114f2576040517f08c379a00000000000000000000000000000000000000000000000000000000081526004016114e99061337d565b60405180910390fd5b60007f000000000000000000000000000000000000000000000000000000000000000073ffffffffffffffffffffffffffffffffffffffff1663745c84ca336040518263ffffffff1660e01b815260040161154d9190612aca565b602060405180830381865afa15801561156a573d6000803e3d6000fd5b505050506040513d601f19601f8201168201806040525081019061158e9190613304565b9050600081036116d2577f000000000000000000000000000000000000000000000000000000000000000073ffffffffffffffffffffffffffffffffffffffff166356ddf67b336040518263ffffffff1660e01b81526004016115f19190612aca565b6020604051808303816000875af1158015611610573d6000803e3d6000fd5b505050506040513d601f19601f820116820180604052508101906116349190613304565b507f000000000000000000000000000000000000000000000000000000000000000073ffffffffffffffffffffffffffffffffffffffff1663745c84ca336040518263ffffffff1660e01b815260040161168e9190612aca565b602060405180830381865afa1580156116ab573d6000803e3d6000fd5b505050506040513d601f19601f820116820180604052508101906116cf9190613304565b90505b6000826002015462015180346116e89190613903565b6116f29190613974565b426116fd91906133cc565b90508083600401600084815260200190815260200160002081905550611736600860009054906101000a900460ff168460020154611d91565b83600301600082825461174991906133cc565b925050819055507f000000000000000000000000000000000000000000000000000000000000000073ffffffffffffffffffffffffffffffffffffffff16632597e04783866040518363ffffffff1660e01b81526004016117ab929190613400565b600060405180830381600087803b1580156117c557600080fd5b505af11580156117d9573d6000803e3d6000fd5b5050505050505050565b6000600560008473ffffffffffffffffffffffffffffffffffffffff1673ffffffffffffffffffffffffffffffffffffffff16815260200190815260200160002060008373ffffffffffffffffffffffffffffffffffffffff1673ffffffffffffffffffffffffffffffffffffffff16815260200190815260200160002060009054906101000a900460ff16905092915050565b600860009054906101000a900460ff1681565b50565b60007f01ffc9a7000000000000000000000000000000000000000000000000000000007bffffffffffffffffffffffffffffffffffffffffffffffffffffffff1916827bffffffffffffffffffffffffffffffffffffffffffffffffffffffff1916149050919050565b611900816120f5565b61193f576040517f08c379a000000000000000000000000000000000000000000000000000000000815260040161193690613475565b60405180910390fd5b50565b600033905090565b816004600083815260200190815260200160002060006101000a81548173ffffffffffffffffffffffffffffffffffffffff021916908373ffffffffffffffffffffffffffffffffffffffff160217905550808273ffffffffffffffffffffffffffffffffffffffff166119bd83610d8b565b73ffffffffffffffffffffffffffffffffffffffff167f8c5be1e5ebec7d5bd14f71427d1e84f3dd0314c0f7b2291e5b200ac8c7c3b92560405160405180910390a45050565b600080611a0f83610d8b565b90508073ffffffffffffffffffffffffffffffffffffffff168473ffffffffffffffffffffffffffffffffffffffff161480611a515750611a5081856117e3565b5b80611a8f57508373ffffffffffffffffffffffffffffffffffffffff16611a778461072b565b73ffffffffffffffffffffffffffffffffffffffff16145b91505092915050565b8273ffffffffffffffffffffffffffffffffffffffff16611ab882610d8b565b73ffffffffffffffffffffffffffffffffffffffff1614611b0e576040517f08c379a0000000000000000000000000000000000000000000000000000000008152600401611b0590613a17565b60405180910390fd5b600073ffffffffffffffffffffffffffffffffffffffff168273ffffffffffffffffffffffffffffffffffffffff1603611b7d576040517f08c379a0000000000000000000000000000000000000000000000000000000008152600401611b7490613aa9565b60405180910390fd5b611b8a8383836001612136565b8273ffffffffffffffffffffffffffffffffffffffff16611baa82610d8b565b73ffffffffffffffffffffffffffffffffffffffff1614611c00576040517f08c379a0000000000000000000000000000000000000000000000000000000008152600401611bf790613a17565b60405180910390fd5b6004600082815260200190815260200160002060006101000a81549073ffffffffffffffffffffffffffffffffffffffff02191690556001600360008573ffffffffffffffffffffffffffffffffffffffff1673ffffffffffffffffffffffffffffffffffffffff168152602001908152602001600020600082825403925050819055506001600360008473ffffffffffffffffffffffffffffffffffffffff1673ffffffffffffffffffffffffffffffffffffffff16815260200190815260200160002060008282540192505081905550816002600083815260200190815260200160002060006101000a81548173ffffffffffffffffffffffffffffffffffffffff021916908373ffffffffffffffffffffffffffffffffffffffff160217905550808273ffffffffffffffffffffffffffffffffffffffff168473ffffffffffffffffffffffffffffffffffffffff167fddf252ad1be2c89b69c2b068fc378daa952ba7f163c4a11628f55a4df523b3ef60405160405180910390a4611d8c838383600161225c565b505050565b6000606482846064611da39190613ac9565b60ff16611db09190613903565b611dba9190613974565b905092915050565b60006002600083815260200190815260200160002060009054906101000a900473ffffffffffffffffffffffffffffffffffffffff169050919050565b600081600001549050919050565b8173ffffffffffffffffffffffffffffffffffffffff168373ffffffffffffffffffffffffffffffffffffffff1603611e7b576040517f08c379a0000000000000000000000000000000000000000000000000000000008152600401611e7290613b4a565b60405180910390fd5b80600560008573ffffffffffffffffffffffffffffffffffffffff1673ffffffffffffffffffffffffffffffffffffffff16815260200190815260200160002060008473ffffffffffffffffffffffffffffffffffffffff1673ffffffffffffffffffffffffffffffffffffffff16815260200190815260200160002060006101000a81548160ff0219169083151502179055508173ffffffffffffffffffffffffffffffffffffffff168373ffffffffffffffffffffffffffffffffffffffff167f17307eab39ab6107e8899845ad3d59bd9653f200f220920489ca2b5937696c3183604051611f6c9190612959565b60405180910390a3505050565b611f84848484611a98565b611f9084848484612262565b611fcf576040517f08c379a0000000000000000000000000000000000000000000000000000000008152600401611fc690613bdc565b60405180910390fd5b50505050565b6001816000016000828254019250508190555050565b6120058282604051806020016040528060008152506123e9565b5050565b612012826120f5565b612051576040517f08c379a000000000000000000000000000000000000000000000000000000000815260040161204890613c6e565b60405180910390fd5b8060066000848152602001908152602001600020908161207191906137a1565b505050565b606060405180602001604052806000815250905090565b6060612098826118f7565b60006120a2612076565b905060008151116120c257604051806020016040528060008152506120ed565b806120cc84612444565b6040516020016120dd9291906138df565b6040516020818303038152906040525b915050919050565b60008073ffffffffffffffffffffffffffffffffffffffff1661211783611dc2565b73ffffffffffffffffffffffffffffffffffffffff1614159050919050565b600181111561225657600073ffffffffffffffffffffffffffffffffffffffff168473ffffffffffffffffffffffffffffffffffffffff16146121ca5780600360008673ffffffffffffffffffffffffffffffffffffffff1673ffffffffffffffffffffffffffffffffffffffff16815260200190815260200160002060008282546121c29190613c8e565b925050819055505b600073ffffffffffffffffffffffffffffffffffffffff168373ffffffffffffffffffffffffffffffffffffffff16146122555780600360008573ffffffffffffffffffffffffffffffffffffffff1673ffffffffffffffffffffffffffffffffffffffff168152602001908152602001600020600082825461224d91906133cc565b925050819055505b5b50505050565b50505050565b60006122838473ffffffffffffffffffffffffffffffffffffffff16612512565b156123dc578373ffffffffffffffffffffffffffffffffffffffff1663150b7a026122ac611942565b8786866040518563ffffffff1660e01b81526004016122ce9493929190613d17565b6020604051808303816000875af192505050801561230a57506040513d601f19601f820116820180604052508101906123079190613d78565b60015b61238c573d806000811461233a576040519150601f19603f3d011682016040523d82523d6000602084013e61233f565b606091505b506000815103612384576040517f08c379a000000000000000000000000000000000000000000000000000000000815260040161237b90613bdc565b60405180910390fd5b805181602001fd5b63150b7a0260e01b7bffffffffffffffffffffffffffffffffffffffffffffffffffffffff1916817bffffffffffffffffffffffffffffffffffffffffffffffffffffffff1916149150506123e1565b600190505b949350505050565b6123f38383612535565b6124006000848484612262565b61243f576040517f08c379a000000000000000000000000000000000000000000000000000000000815260040161243690613bdc565b60405180910390fd5b505050565b60606000600161245384612752565b01905060008167ffffffffffffffff81111561247257612471612dca565b5b6040519080825280601f01601f1916602001820160405280156124a45781602001600182028036833780820191505090505b509050600082602001820190505b600115612507578080600190039150507f3031323334353637383961626364656600000000000000000000000000000000600a86061a8153600a85816124fb576124fa613945565b5b049450600085036124b2575b819350505050919050565b6000808273ffffffffffffffffffffffffffffffffffffffff163b119050919050565b600073ffffffffffffffffffffffffffffffffffffffff168273ffffffffffffffffffffffffffffffffffffffff16036125a4576040517f08c379a000000000000000000000000000000000000000000000000000000000815260040161259b90613df1565b60405180910390fd5b6125ad816120f5565b156125ed576040517f08c379a00000000000000000000000000000000000000000000000000000000081526004016125e490613e5d565b60405180910390fd5b6125fb600083836001612136565b612604816120f5565b15612644576040517f08c379a000000000000000000000000000000000000000000000000000000000815260040161263b90613e5d565b60405180910390fd5b6001600360008473ffffffffffffffffffffffffffffffffffffffff1673ffffffffffffffffffffffffffffffffffffffff16815260200190815260200160002060008282540192505081905550816002600083815260200190815260200160002060006101000a81548173ffffffffffffffffffffffffffffffffffffffff021916908373ffffffffffffffffffffffffffffffffffffffff160217905550808273ffffffffffffffffffffffffffffffffffffffff16600073ffffffffffffffffffffffffffffffffffffffff167fddf252ad1be2c89b69c2b068fc378daa952ba7f163c4a11628f55a4df523b3ef60405160405180910390a461274e60008383600161225c565b5050565b600080600090507a184f03e93ff9f4daa797ed6e38ed64bf6a1f01000000000000000083106127b0577a184f03e93ff9f4daa797ed6e38ed64bf6a1f01000000000000000083816127a6576127a5613945565b5b0492506040810190505b6d04ee2d6d415b85acef810000000083106127ed576d04ee2d6d415b85acef810000000083816127e3576127e2613945565b5b0492506020810190505b662386f26fc10000831061281c57662386f26fc10000838161281257612811613945565b5b0492506010810190505b6305f5e1008310612845576305f5e100838161283b5761283a613945565b5b0492506008810190505b612710831061286a5761271083816128605761285f613945565b5b0492506004810190505b6064831061288d576064838161288357612882613945565b5b0492506002810190505b600a831061289c576001810190505b80915050919050565b6000604051905090565b600080fd5b600080fd5b60007fffffffff0000000000000000000000000000000000000000000000000000000082169050919050565b6128ee816128b9565b81146128f957600080fd5b50565b60008135905061290b816128e5565b92915050565b600060208284031215612927576129266128af565b5b6000612935848285016128fc565b91505092915050565b60008115159050919050565b6129538161293e565b82525050565b600060208201905061296e600083018461294a565b92915050565b600081519050919050565b600082825260208201905092915050565b60005b838110156129ae578082015181840152602081019050612993565b60008484015250505050565b6000601f19601f8301169050919050565b60006129d682612974565b6129e0818561297f565b93506129f0818560208601612990565b6129f9816129ba565b840191505092915050565b60006020820190508181036000830152612a1e81846129cb565b905092915050565b6000819050919050565b612a3981612a26565b8114612a4457600080fd5b50565b600081359050612a5681612a30565b92915050565b600060208284031215612a7257612a716128af565b5b6000612a8084828501612a47565b91505092915050565b600073ffffffffffffffffffffffffffffffffffffffff82169050919050565b6000612ab482612a89565b9050919050565b612ac481612aa9565b82525050565b6000602082019050612adf6000830184612abb565b92915050565b612aee81612aa9565b8114612af957600080fd5b50565b600081359050612b0b81612ae5565b92915050565b60008060408385031215612b2857612b276128af565b5b6000612b3685828601612afc565b9250506020612b4785828601612a47565b9150509250929050565b600080600060608486031215612b6a57612b696128af565b5b6000612b7886828701612afc565b9350506020612b8986828701612afc565b9250506040612b9a86828701612a47565b9150509250925092565b60008060408385031215612bbb57612bba6128af565b5b6000612bc985828601612a47565b9250506020612bda85828601612afc565b9150509250929050565b600060208284031215612bfa57612bf96128af565b5b6000612c0884828501612afc565b91505092915050565b612c1a81612a26565b82525050565b6000602082019050612c356000830184612c11565b92915050565b6000819050919050565b6000612c60612c5b612c5684612a89565b612c3b565b612a89565b9050919050565b6000612c7282612c45565b9050919050565b6000612c8482612c67565b9050919050565b612c9481612c79565b82525050565b6000602082019050612caf6000830184612c8b565b92915050565b600080600060608486031215612cce57612ccd6128af565b5b6000612cdc86828701612a47565b9350506020612ced86828701612a47565b9250506040612cfe86828701612a47565b9150509250925092565b612d118161293e565b8114612d1c57600080fd5b50565b600081359050612d2e81612d08565b92915050565b60008060408385031215612d4b57612d4a6128af565b5b6000612d5985828601612afc565b9250506020612d6a85828601612d1f565b9150509250929050565b60006080820190508181036000830152612d8e81876129cb565b9050612d9d6020830186612c11565b612daa6040830185612c11565b612db76060830184612c11565b95945050505050565b600080fd5b600080fd5b7f4e487b7100000000000000000000000000000000000000000000000000000000600052604160045260246000fd5b612e02826129ba565b810181811067ffffffffffffffff82111715612e2157612e20612dca565b5b80604052505050565b6000612e346128a5565b9050612e408282612df9565b919050565b600067ffffffffffffffff821115612e6057612e5f612dca565b5b612e69826129ba565b9050602081019050919050565b82818337600083830152505050565b6000612e98612e9384612e45565b612e2a565b905082815260208101848484011115612eb457612eb3612dc5565b5b612ebf848285612e76565b509392505050565b600082601f830112612edc57612edb612dc0565b5b8135612eec848260208601612e85565b91505092915050565b60008060008060808587031215612f0f57612f0e6128af565b5b6000612f1d87828801612afc565b9450506020612f2e87828801612afc565b9350506040612f3f87828801612a47565b925050606085013567ffffffffffffffff811115612f6057612f5f6128b4565b5b612f6c87828801612ec7565b91505092959194509250565b600067ffffffffffffffff821115612f9357612f92612dca565b5b612f9c826129ba565b9050602081019050919050565b6000612fbc612fb784612f78565b612e2a565b905082815260208101848484011115612fd857612fd7612dc5565b5b612fe3848285612e76565b509392505050565b600082601f83011261300057612fff612dc0565b5b8135613010848260208601612fa9565b91505092915050565b60006020828403121561302f5761302e6128af565b5b600082013567ffffffffffffffff81111561304d5761304c6128b4565b5b61305984828501612feb565b91505092915050565b60008060408385031215613079576130786128af565b5b600061308785828601612afc565b925050602061309885828601612afc565b9150509250929050565b600060ff82169050919050565b6130b8816130a2565b82525050565b60006020820190506130d360008301846130af565b92915050565b7f4e487b7100000000000000000000000000000000000000000000000000000000600052602260045260246000fd5b6000600282049050600182168061312057607f821691505b602082108103613133576131326130d9565b5b50919050565b7f4552433732313a20617070726f76616c20746f2063757272656e74206f776e6560008201527f7200000000000000000000000000000000000000000000000000000000000000602082015250565b600061319560218361297f565b91506131a082613139565b604082019050919050565b600060208201905081810360008301526131c481613188565b9050919050565b7f4552433732313a20617070726f76652063616c6c6572206973206e6f7420746f60008201527f6b656e206f776e6572206f7220617070726f76656420666f7220616c6c000000602082015250565b6000613227603d8361297f565b9150613232826131cb565b604082019050919050565b600060208201905081810360008301526132568161321a565b9050919050565b7f4552433732313a2063616c6c6572206973206e6f7420746f6b656e206f776e6560008201527f72206f7220617070726f76656400000000000000000000000000000000000000602082015250565b60006132b9602d8361297f565b91506132c48261325d565b604082019050919050565b600060208201905081810360008301526132e8816132ac565b9050919050565b6000815190506132fe81612a30565b92915050565b60006020828403121561331a576133196128af565b5b6000613328848285016132ef565b91505092915050565b7f6e6f7420656e6f7567682046494c2073656e7400000000000000000000000000600082015250565b600061336760138361297f565b915061337282613331565b602082019050919050565b600060208201905081810360008301526133968161335a565b9050919050565b7f4e487b7100000000000000000000000000000000000000000000000000000000600052601160045260246000fd5b60006133d782612a26565b91506133e283612a26565b92508282019050808211156133fa576133f961339d565b5b92915050565b60006040820190506134156000830185612c11565b6134226020830184612c11565b9392505050565b7f4552433732313a20696e76616c696420746f6b656e2049440000000000000000600082015250565b600061345f60188361297f565b915061346a82613429565b602082019050919050565b6000602082019050818103600083015261348e81613452565b9050919050565b7f4552433732313a2061646472657373207a65726f206973206e6f74206120766160008201527f6c6964206f776e65720000000000000000000000000000000000000000000000602082015250565b60006134f160298361297f565b91506134fc82613495565b604082019050919050565b60006020820190508181036000830152613520816134e4565b9050919050565b7f4e6f6e2d6578697374656e7420626f6f6b000000000000000000000000000000600082015250565b600061355d60118361297f565b915061356882613527565b602082019050919050565b6000602082019050818103600083015261358c81613550565b9050919050565b7f6e6f7420626f6f6b206f776e6572000000000000000000000000000000000000600082015250565b60006135c9600e8361297f565b91506135d482613593565b602082019050919050565b600060208201905081810360008301526135f8816135bc565b9050919050565b60008190508160005260206000209050919050565b60006020601f8301049050919050565b600082821b905092915050565b6000600883026136617fffffffffffffffffffffffffffffffffffffffffffffffffffffffffffffffff82613624565b61366b8683613624565b95508019841693508086168417925050509392505050565b600061369e61369961369484612a26565b612c3b565b612a26565b9050919050565b6000819050919050565b6136b883613683565b6136cc6136c4826136a5565b848454613631565b825550505050565b600090565b6136e16136d4565b6136ec8184846136af565b505050565b5b81811015613710576137056000826136d9565b6001810190506136f2565b5050565b601f82111561375557613726816135ff565b61372f84613614565b8101602085101561373e578190505b61375261374a85613614565b8301826136f1565b50505b505050565b600082821c905092915050565b60006137786000198460080261375a565b1980831691505092915050565b60006137918383613767565b9150826002028217905092915050565b6137aa82612974565b67ffffffffffffffff8111156137c3576137c2612dca565b5b6137cd8254613108565b6137d8828285613714565b600060209050601f83116001811461380b57600084156137f9578287015190505b6138038582613785565b86555061386b565b601f198416613819866135ff565b60005b828110156138415784890151825560018201915060208501945060208101905061381c565b8683101561385e578489015161385a601f891682613767565b8355505b6001600288020188555050505b505050505050565b60006040820190506138886000830185612abb565b818103602083015261389a81846129cb565b90509392505050565b600081905092915050565b60006138b982612974565b6138c381856138a3565b93506138d3818560208601612990565b80840191505092915050565b60006138eb82856138ae565b91506138f782846138ae565b91508190509392505050565b600061390e82612a26565b915061391983612a26565b925082820261392781612a26565b9150828204841483151761393e5761393d61339d565b5b5092915050565b7f4e487b7100000000000000000000000000000000000000000000000000000000600052601260045260246000fd5b600061397f82612a26565b915061398a83612a26565b92508261399a57613999613945565b5b828204905092915050565b7f4552433732313a207472616e736665722066726f6d20696e636f72726563742060008201527f6f776e6572000000000000000000000000000000000000000000000000000000602082015250565b6000613a0160258361297f565b9150613a0c826139a5565b604082019050919050565b60006020820190508181036000830152613a30816139f4565b9050919050565b7f4552433732313a207472616e7366657220746f20746865207a65726f2061646460008201527f7265737300000000000000000000000000000000000000000000000000000000602082015250565b6000613a9360248361297f565b9150613a9e82613a37565b604082019050919050565b60006020820190508181036000830152613ac281613a86565b9050919050565b6000613ad4826130a2565b9150613adf836130a2565b9250828203905060ff811115613af857613af761339d565b5b92915050565b7f4552433732313a20617070726f766520746f2063616c6c657200000000000000600082015250565b6000613b3460198361297f565b9150613b3f82613afe565b602082019050919050565b60006020820190508181036000830152613b6381613b27565b9050919050565b7f4552433732313a207472616e7366657220746f206e6f6e20455243373231526560008201527f63656976657220696d706c656d656e7465720000000000000000000000000000602082015250565b6000613bc660328361297f565b9150613bd182613b6a565b604082019050919050565b60006020820190508181036000830152613bf581613bb9565b9050919050565b7f45524337323155524953746f726167653a2055524920736574206f66206e6f6e60008201527f6578697374656e7420746f6b656e000000000000000000000000000000000000602082015250565b6000613c58602e8361297f565b9150613c6382613bfc565b604082019050919050565b60006020820190508181036000830152613c8781613c4b565b9050919050565b6000613c9982612a26565b9150613ca483612a26565b9250828203905081811115613cbc57613cbb61339d565b5b92915050565b600081519050919050565b600082825260208201905092915050565b6000613ce982613cc2565b613cf38185613ccd565b9350613d03818560208601612990565b613d0c816129ba565b840191505092915050565b6000608082019050613d2c6000830187612abb565b613d396020830186612abb565b613d466040830185612c11565b8181036060830152613d588184613cde565b905095945050505050565b600081519050613d72816128e5565b92915050565b600060208284031215613d8e57613d8d6128af565b5b6000613d9c84828501613d63565b91505092915050565b7f4552433732313a206d696e7420746f20746865207a65726f2061646472657373600082015250565b6000613ddb60208361297f565b9150613de682613da5565b602082019050919050565b60006020820190508181036000830152613e0a81613dce565b9050919050565b7f4552433732313a20746f6b656e20616c7265616479206d696e74656400000000600082015250565b6000613e47601c8361297f565b9150613e5282613e11565b602082019050919050565b60006020820190508181036000830152613e7681613e3a565b905091905056fea26469706673582212206ff1e69d481f5b5a94a83c0952e312afca48be65de5ea6dbf0e9614177dcbf3e64736f6c63430008110033"}