{"address":"0x3E50d40D7b1fed13dcEAeCbf00B2d16539Dceba8","abi":[{"inputs":[{"internalType":"uint8","name":"feePercentage","type":"uint8"},{"internalType":"address","name":"key","type":"address"}],"stateMutability":"nonpayable","type":"constructor"},{"anonymous":false,"inputs":[{"indexed":true,"internalType":"address","name":"owner","type":"address"},{"indexed":true,"internalType":"address","name":"approved","type":"address"},{"indexed":true,"internalType":"uint256","name":"tokenId","type":"uint256"}],"name":"Approval","type":"event"},{"anonymous":false,"inputs":[{"indexed":true,"internalType":"address","name":"owner","type":"address"},{"indexed":true,"internalType":"address","name":"operator","type":"address"},{"indexed":false,"internalType":"bool","name":"approved","type":"bool"}],"name":"ApprovalForAll","type":"event"},{"anonymous":false,"inputs":[{"indexed":false,"internalType":"address","name":"author","type":"address"},{"indexed":false,"internalType":"string","name":"cid","type":"string"},{"indexed":true,"internalType":"uint256","name":"bookId","type":"uint256"}],"name":"BookCreated","type":"event"},{"anonymous":false,"inputs":[{"indexed":true,"internalType":"address","name":"from","type":"address"},{"indexed":true,"internalType":"address","name":"to","type":"address"},{"indexed":true,"internalType":"uint256","name":"tokenId","type":"uint256"}],"name":"Transfer","type":"event"},{"inputs":[],"name":"_feePercentage","outputs":[{"internalType":"uint8","name":"","type":"uint8"}],"stateMutability":"view","type":"function"},{"inputs":[],"name":"_key","outputs":[{"internalType":"contract Key","name":"","type":"address"}],"stateMutability":"view","type":"function"},{"inputs":[{"internalType":"address","name":"to","type":"address"},{"internalType":"uint256","name":"tokenId","type":"uint256"}],"name":"approve","outputs":[],"stateMutability":"nonpayable","type":"function"},{"inputs":[{"internalType":"address","name":"owner","type":"address"}],"name":"balanceOf","outputs":[{"internalType":"uint256","name":"","type":"uint256"}],"stateMutability":"view","type":"function"},{"inputs":[{"internalType":"uint256","name":"","type":"uint256"}],"name":"bookIdToBookStruct","outputs":[{"internalType":"string","name":"cid","type":"string"},{"internalType":"uint256","name":"purchasePrice","type":"uint256"},{"internalType":"uint256","name":"totalRevenue","type":"uint256"},{"internalType":"uint256","name":"pricePerEpoch","type":"uint256"}],"stateMutability":"view","type":"function"},{"inputs":[{"internalType":"uint256","name":"bookId","type":"uint256"}],"name":"buyAccess","outputs":[],"stateMutability":"payable","type":"function"},{"inputs":[{"internalType":"uint256","name":"keyId","type":"uint256"}],"name":"buyBookOwnership","outputs":[],"stateMutability":"nonpayable","type":"function"},{"inputs":[{"internalType":"uint256","name":"bookId","type":"uint256"},{"internalType":"address","name":"caller","type":"address"}],"name":"canAccessBook","outputs":[{"internalType":"bool","name":"","type":"bool"}],"stateMutability":"view","type":"function"},{"inputs":[{"internalType":"string","name":"cid","type":"string"}],"name":"createBook","outputs":[],"stateMutability":"nonpayable","type":"function"},{"inputs":[{"internalType":"uint256","name":"keyId","type":"uint256"}],"name":"createCollection","outputs":[],"stateMutability":"nonpayable","type":"function"},{"inputs":[{"internalType":"uint256","name":"tokenId","type":"uint256"}],"name":"getApproved","outputs":[{"internalType":"address","name":"","type":"address"}],"stateMutability":"view","type":"function"},{"inputs":[{"internalType":"uint256","name":"bookId","type":"uint256"}],"name":"getPurchasePrice","outputs":[{"internalType":"uint256","name":"","type":"uint256"}],"stateMutability":"view","type":"function"},{"inputs":[{"internalType":"address","name":"owner","type":"address"},{"internalType":"address","name":"operator","type":"address"}],"name":"isApprovedForAll","outputs":[{"internalType":"bool","name":"","type":"bool"}],"stateMutability":"view","type":"function"},{"inputs":[],"name":"name","outputs":[{"internalType":"string","name":"","type":"string"}],"stateMutability":"view","type":"function"},{"inputs":[{"internalType":"uint256","name":"tokenId","type":"uint256"}],"name":"ownerOf","outputs":[{"internalType":"address","name":"","type":"address"}],"stateMutability":"view","type":"function"},{"inputs":[{"internalType":"uint256","name":"keyId","type":"uint256"}],"name":"rentAccessToBook","outputs":[],"stateMutability":"nonpayable","type":"function"},{"inputs":[{"internalType":"address","name":"from","type":"address"},{"internalType":"address","name":"to","type":"address"},{"internalType":"uint256","name":"tokenId","type":"uint256"}],"name":"safeTransferFrom","outputs":[],"stateMutability":"nonpayable","type":"function"},{"inputs":[{"internalType":"address","name":"from","type":"address"},{"internalType":"address","name":"to","type":"address"},{"internalType":"uint256","name":"tokenId","type":"uint256"},{"internalType":"bytes","name":"data","type":"bytes"}],"name":"safeTransferFrom","outputs":[],"stateMutability":"nonpayable","type":"function"},{"inputs":[{"internalType":"uint256","name":"keyId","type":"uint256"}],"name":"sellBookOwnership","outputs":[],"stateMutability":"nonpayable","type":"function"},{"inputs":[{"internalType":"address","name":"operator","type":"address"},{"internalType":"bool","name":"approved","type":"bool"}],"name":"setApprovalForAll","outputs":[],"stateMutability":"nonpayable","type":"function"},{"inputs":[{"internalType":"uint256","name":"bookId","type":"uint256"},{"internalType":"uint256","name":"purchasePrice","type":"uint256"},{"internalType":"uint256","name":"rentPrice","type":"uint256"}],"name":"setBookPrice","outputs":[],"stateMutability":"nonpayable","type":"function"},{"inputs":[{"internalType":"bytes4","name":"interfaceId","type":"bytes4"}],"name":"supportsInterface","outputs":[{"internalType":"bool","name":"","type":"bool"}],"stateMutability":"view","type":"function"},{"inputs":[],"name":"symbol","outputs":[{"internalType":"string","name":"","type":"string"}],"stateMutability":"view","type":"function"},{"inputs":[{"internalType":"uint256","name":"tokenId","type":"uint256"}],"name":"tokenURI","outputs":[{"internalType":"string","name":"","type":"string"}],"stateMutability":"view","type":"function"},{"inputs":[{"internalType":"address","name":"from","type":"address"},{"internalType":"address","name":"to","type":"address"},{"internalType":"uint256","name":"tokenId","type":"uint256"}],"name":"transferFrom","outputs":[],"stateMutability":"nonpayable","type":"function"},{"inputs":[{"internalType":"uint256","name":"bookId","type":"uint256"}],"name":"withdrawProfit","outputs":[],"stateMutability":"payable","type":"function"}],"bytecode":"0x60a06040523480156200001157600080fd5b5060405162003ebc38038062003ebc8339818101604052810190620000379190620001c8565b6040518060400160405280600481526020017f426f6f6b000000000000000000000000000000000000000000000000000000008152506040518060400160405280600281526020017f426b0000000000000000000000000000000000000000000000000000000000008152508160009081620000b4919062000489565b508060019081620000c6919062000489565b50505081600860006101000a81548160ff021916908360ff1602179055508073ffffffffffffffffffffffffffffffffffffffff1660808173ffffffffffffffffffffffffffffffffffffffff1681525050505062000570565b600080fd5b600060ff82169050919050565b6200013d8162000125565b81146200014957600080fd5b50565b6000815190506200015d8162000132565b92915050565b600073ffffffffffffffffffffffffffffffffffffffff82169050919050565b6000620001908262000163565b9050919050565b620001a28162000183565b8114620001ae57600080fd5b50565b600081519050620001c28162000197565b92915050565b60008060408385031215620001e257620001e162000120565b5b6000620001f2858286016200014c565b92505060206200020585828601620001b1565b9150509250929050565b600081519050919050565b7f4e487b7100000000000000000000000000000000000000000000000000000000600052604160045260246000fd5b7f4e487b7100000000000000000000000000000000000000000000000000000000600052602260045260246000fd5b600060028204905060018216806200029157607f821691505b602082108103620002a757620002a662000249565b5b50919050565b60008190508160005260206000209050919050565b60006020601f8301049050919050565b600082821b905092915050565b600060088302620003117fffffffffffffffffffffffffffffffffffffffffffffffffffffffffffffffff82620002d2565b6200031d8683620002d2565b95508019841693508086168417925050509392505050565b6000819050919050565b6000819050919050565b60006200036a620003646200035e8462000335565b6200033f565b62000335565b9050919050565b6000819050919050565b620003868362000349565b6200039e620003958262000371565b848454620002df565b825550505050565b600090565b620003b5620003a6565b620003c28184846200037b565b505050565b5b81811015620003ea57620003de600082620003ab565b600181019050620003c8565b5050565b601f82111562000439576200040381620002ad565b6200040e84620002c2565b810160208510156200041e578190505b620004366200042d85620002c2565b830182620003c7565b50505b505050565b600082821c905092915050565b60006200045e600019846008026200043e565b1980831691505092915050565b60006200047983836200044b565b9150826002028217905092915050565b62000494826200020f565b67ffffffffffffffff811115620004b057620004af6200021a565b5b620004bc825462000278565b620004c9828285620003ee565b600060209050601f831160018114620005015760008415620004ec578287015190505b620004f885826200046b565b86555062000568565b601f1984166200051186620002ad565b60005b828110156200053b5784890151825560018201915060208501945060208101905062000514565b868310156200055b578489015162000557601f8916826200044b565b8355505b6001600288020188555050505b505050505050565b60805161391b620005a1600039600081816109c601528181610ad301528181610c3e0152610e0d015261391b6000f3fe6080604052600436106101815760003560e01c80639072df6b116100d1578063c59d56331161008a578063d82a2bea11610064578063d82a2bea146105a8578063e985e9c5146105c4578063f699343e14610601578063f9c9c8781461062c57610181565b8063c59d563314610505578063c87b56dd14610542578063d0011d9d1461057f57610181565b80639072df6b146103f657806395d89b411461041f578063a22cb4651461044a578063b75174f014610473578063b88d4fde146104b3578063b9f72b7d146104dc57610181565b806336d964121161013e57806350a1a2641161011857806350a1a264146103355780636352211e1461035157806370a082311461038e57806374ad7ac4146103cb57610181565b806336d96412146102a657806342842e0e146102e35780634ba8b7331461030c57610181565b806301ffc9a71461018657806304ed5917146101c357806306fdde03146101ec578063081812fc14610217578063095ea7b31461025457806323b872dd1461027d575b600080fd5b34801561019257600080fd5b506101ad60048036038101906101a891906123e5565b610655565b6040516101ba919061242d565b60405180910390f35b3480156101cf57600080fd5b506101ea60048036038101906101e5919061247e565b610737565b005b3480156101f857600080fd5b50610201610772565b60405161020e9190612561565b60405180910390f35b34801561022357600080fd5b5061023e60048036038101906102399190612583565b610804565b60405161024b91906125f1565b60405180910390f35b34801561026057600080fd5b5061027b60048036038101906102769190612638565b61084a565b005b34801561028957600080fd5b506102a4600480360381019061029f9190612678565b610961565b005b3480156102b257600080fd5b506102cd60048036038101906102c891906126cb565b6109c1565b6040516102da919061242d565b60405180910390f35b3480156102ef57600080fd5b5061030a60048036038101906103059190612678565b610aac565b005b34801561031857600080fd5b50610333600480360381019061032e9190612583565b610acc565b005b61034f600480360381019061034a9190612583565b610acf565b005b34801561035d57600080fd5b5061037860048036038101906103739190612583565b610cce565b60405161038591906125f1565b60405180910390f35b34801561039a57600080fd5b506103b560048036038101906103b0919061270b565b610d54565b6040516103c29190612747565b60405180910390f35b3480156103d757600080fd5b506103e0610e0b565b6040516103ed91906127c1565b60405180910390f35b34801561040257600080fd5b5061041d60048036038101906104189190612583565b610e2f565b005b34801561042b57600080fd5b50610434610e32565b6040516104419190612561565b60405180910390f35b34801561045657600080fd5b50610471600480360381019061046c9190612808565b610ec4565b005b34801561047f57600080fd5b5061049a60048036038101906104959190612583565b610eda565b6040516104aa9493929190612848565b60405180910390f35b3480156104bf57600080fd5b506104da60048036038101906104d591906129c9565b610f92565b005b3480156104e857600080fd5b5061050360048036038101906104fe9190612aed565b610ff4565b005b34801561051157600080fd5b5061052c60048036038101906105279190612583565b611088565b6040516105399190612747565b60405180910390f35b34801561054e57600080fd5b5061056960048036038101906105649190612583565b6110a8565b6040516105769190612561565b60405180910390f35b34801561058b57600080fd5b506105a660048036038101906105a19190612583565b6111ba565b005b6105c260048036038101906105bd9190612583565b6111bd565b005b3480156105d057600080fd5b506105eb60048036038101906105e69190612b36565b6112b7565b6040516105f8919061242d565b60405180910390f35b34801561060d57600080fd5b5061061661134b565b6040516106239190612b92565b60405180910390f35b34801561063857600080fd5b50610653600480360381019061064e9190612583565b61135e565b005b60007f80ac58cd000000000000000000000000000000000000000000000000000000007bffffffffffffffffffffffffffffffffffffffffffffffffffffffff1916827bffffffffffffffffffffffffffffffffffffffffffffffffffffffff1916148061072057507f5b5e139f000000000000000000000000000000000000000000000000000000007bffffffffffffffffffffffffffffffffffffffffffffffffffffffff1916827bffffffffffffffffffffffffffffffffffffffffffffffffffffffff1916145b80610730575061072f82611361565b5b9050919050565b816009600085815260200190815260200160002060010181905550806009600085815260200190815260200160002060030181905550505050565b60606000805461078190612bdc565b80601f01602080910402602001604051908101604052809291908181526020018280546107ad90612bdc565b80156107fa5780601f106107cf576101008083540402835291602001916107fa565b820191906000526020600020905b8154815290600101906020018083116107dd57829003601f168201915b5050505050905090565b600061080f826113cb565b6004600083815260200190815260200160002060009054906101000a900473ffffffffffffffffffffffffffffffffffffffff169050919050565b600061085582610cce565b90508073ffffffffffffffffffffffffffffffffffffffff168373ffffffffffffffffffffffffffffffffffffffff16036108c5576040517f08c379a00000000000000000000000000000000000000000000000000000000081526004016108bc90612c7f565b60405180910390fd5b8073ffffffffffffffffffffffffffffffffffffffff166108e4611416565b73ffffffffffffffffffffffffffffffffffffffff16148061091357506109128161090d611416565b6112b7565b5b610952576040517f08c379a000000000000000000000000000000000000000000000000000000000815260040161094990612d11565b60405180910390fd5b61095c838361141e565b505050565b61097261096c611416565b826114d7565b6109b1576040517f08c379a00000000000000000000000000000000000000000000000000000000081526004016109a890612da3565b60405180910390fd5b6109bc83838361156c565b505050565b6000807f000000000000000000000000000000000000000000000000000000000000000073ffffffffffffffffffffffffffffffffffffffff1663745c84ca846040518263ffffffff1660e01b8152600401610a1d91906125f1565b602060405180830381865afa158015610a3a573d6000803e3d6000fd5b505050506040513d601f19601f82011682018060405250810190610a5e9190612dd8565b9050600060096000868152602001908152602001600020905042816004016000848152602001908152602001600020541115610a9f57600192505050610aa6565b6000925050505b92915050565b610ac783838360405180602001604052806000815250610f92565b505050565b50565b60007f000000000000000000000000000000000000000000000000000000000000000073ffffffffffffffffffffffffffffffffffffffff1663745c84ca336040518263ffffffff1660e01b8152600401610b2a91906125f1565b602060405180830381865afa158015610b47573d6000803e3d6000fd5b505050506040513d601f19601f82011682018060405250810190610b6b9190612dd8565b905060006009600084815260200190815260200160002090508060010154341015610bcb576040517f08c379a0000000000000000000000000000000000000000000000000000000008152600401610bc290612e51565b60405180910390fd5b7fffffffffffffffffffffffffffffffffffffffffffffffffffffffffffffffff81600401600084815260200190815260200160002081905550610c22600860009054906101000a900460ff168260010154611865565b816002016000828254610c359190612ea0565b925050819055507f000000000000000000000000000000000000000000000000000000000000000073ffffffffffffffffffffffffffffffffffffffff16632597e04783856040518363ffffffff1660e01b8152600401610c97929190612ed4565b600060405180830381600087803b158015610cb157600080fd5b505af1158015610cc5573d6000803e3d6000fd5b50505050505050565b600080610cda83611896565b9050600073ffffffffffffffffffffffffffffffffffffffff168173ffffffffffffffffffffffffffffffffffffffff1603610d4b576040517f08c379a0000000000000000000000000000000000000000000000000000000008152600401610d4290612f49565b60405180910390fd5b80915050919050565b60008073ffffffffffffffffffffffffffffffffffffffff168273ffffffffffffffffffffffffffffffffffffffff1603610dc4576040517f08c379a0000000000000000000000000000000000000000000000000000000008152600401610dbb90612fdb565b60405180910390fd5b600360008373ffffffffffffffffffffffffffffffffffffffff1673ffffffffffffffffffffffffffffffffffffffff168152602001908152602001600020549050919050565b7f000000000000000000000000000000000000000000000000000000000000000081565b50565b606060018054610e4190612bdc565b80601f0160208091040260200160405190810160405280929190818152602001828054610e6d90612bdc565b8015610eba5780601f10610e8f57610100808354040283529160200191610eba565b820191906000526020600020905b815481529060010190602001808311610e9d57829003601f168201915b5050505050905090565b610ed6610ecf611416565b83836118d3565b5050565b6009602052806000526040600020600091509050806000018054610efd90612bdc565b80601f0160208091040260200160405190810160405280929190818152602001828054610f2990612bdc565b8015610f765780601f10610f4b57610100808354040283529160200191610f76565b820191906000526020600020905b815481529060010190602001808311610f5957829003601f168201915b5050505050908060010154908060020154908060030154905084565b610fa3610f9d611416565b836114d7565b610fe2576040517f08c379a0000000000000000000000000000000000000000000000000000000008152600401610fd990612da3565b60405180910390fd5b610fee84848484611a3f565b50505050565b610ffe6007611a9b565b600061100a6007611ab1565b90506110163382611abf565b6110208183611add565b600060096000838152602001908152602001600020905082816000019081611048919061319d565b50817f6f10a189e74c40865dbc37544147d0a3d57b2a5e5100daf4cd09cff5a9033c72338560405161107b92919061326f565b60405180910390a2505050565b600060096000838152602001908152602001600020600101549050919050565b60606110b3826113cb565b60006006600084815260200190815260200160002080546110d390612bdc565b80601f01602080910402602001604051908101604052809291908181526020018280546110ff90612bdc565b801561114c5780601f106111215761010080835404028352916020019161114c565b820191906000526020600020905b81548152906001019060200180831161112f57829003601f168201915b50505050509050600061115d611b4a565b905060008151036111725781925050506111b5565b6000825111156111a757808260405160200161118f9291906132db565b604051602081830303815290604052925050506111b5565b6111b084611b61565b925050505b919050565b50565b3373ffffffffffffffffffffffffffffffffffffffff166111dd82610cce565b73ffffffffffffffffffffffffffffffffffffffff1614611233576040517f08c379a000000000000000000000000000000000000000000000000000000000815260040161122a9061334b565b60405180910390fd5b6000600960008381526020019081526020016000206002018190555061125881610cce565b73ffffffffffffffffffffffffffffffffffffffff166108fc60096000848152602001908152602001600020600201549081150290604051600060405180830381858888f193505050501580156112b3573d6000803e3d6000fd5b5050565b6000600560008473ffffffffffffffffffffffffffffffffffffffff1673ffffffffffffffffffffffffffffffffffffffff16815260200190815260200160002060008373ffffffffffffffffffffffffffffffffffffffff1673ffffffffffffffffffffffffffffffffffffffff16815260200190815260200160002060009054906101000a900460ff16905092915050565b600860009054906101000a900460ff1681565b50565b60007f01ffc9a7000000000000000000000000000000000000000000000000000000007bffffffffffffffffffffffffffffffffffffffffffffffffffffffff1916827bffffffffffffffffffffffffffffffffffffffffffffffffffffffff1916149050919050565b6113d481611bc9565b611413576040517f08c379a000000000000000000000000000000000000000000000000000000000815260040161140a90612f49565b60405180910390fd5b50565b600033905090565b816004600083815260200190815260200160002060006101000a81548173ffffffffffffffffffffffffffffffffffffffff021916908373ffffffffffffffffffffffffffffffffffffffff160217905550808273ffffffffffffffffffffffffffffffffffffffff1661149183610cce565b73ffffffffffffffffffffffffffffffffffffffff167f8c5be1e5ebec7d5bd14f71427d1e84f3dd0314c0f7b2291e5b200ac8c7c3b92560405160405180910390a45050565b6000806114e383610cce565b90508073ffffffffffffffffffffffffffffffffffffffff168473ffffffffffffffffffffffffffffffffffffffff161480611525575061152481856112b7565b5b8061156357508373ffffffffffffffffffffffffffffffffffffffff1661154b84610804565b73ffffffffffffffffffffffffffffffffffffffff16145b91505092915050565b8273ffffffffffffffffffffffffffffffffffffffff1661158c82610cce565b73ffffffffffffffffffffffffffffffffffffffff16146115e2576040517f08c379a00000000000000000000000000000000000000000000000000000000081526004016115d9906133dd565b60405180910390fd5b600073ffffffffffffffffffffffffffffffffffffffff168273ffffffffffffffffffffffffffffffffffffffff1603611651576040517f08c379a00000000000000000000000000000000000000000000000000000000081526004016116489061346f565b60405180910390fd5b61165e8383836001611c0a565b8273ffffffffffffffffffffffffffffffffffffffff1661167e82610cce565b73ffffffffffffffffffffffffffffffffffffffff16146116d4576040517f08c379a00000000000000000000000000000000000000000000000000000000081526004016116cb906133dd565b60405180910390fd5b6004600082815260200190815260200160002060006101000a81549073ffffffffffffffffffffffffffffffffffffffff02191690556001600360008573ffffffffffffffffffffffffffffffffffffffff1673ffffffffffffffffffffffffffffffffffffffff168152602001908152602001600020600082825403925050819055506001600360008473ffffffffffffffffffffffffffffffffffffffff1673ffffffffffffffffffffffffffffffffffffffff16815260200190815260200160002060008282540192505081905550816002600083815260200190815260200160002060006101000a81548173ffffffffffffffffffffffffffffffffffffffff021916908373ffffffffffffffffffffffffffffffffffffffff160217905550808273ffffffffffffffffffffffffffffffffffffffff168473ffffffffffffffffffffffffffffffffffffffff167fddf252ad1be2c89b69c2b068fc378daa952ba7f163c4a11628f55a4df523b3ef60405160405180910390a46118608383836001611d30565b505050565b6000606482846064611877919061348f565b60ff1661188491906134c4565b61188e9190613535565b905092915050565b60006002600083815260200190815260200160002060009054906101000a900473ffffffffffffffffffffffffffffffffffffffff169050919050565b8173ffffffffffffffffffffffffffffffffffffffff168373ffffffffffffffffffffffffffffffffffffffff1603611941576040517f08c379a0000000000000000000000000000000000000000000000000000000008152600401611938906135b2565b60405180910390fd5b80600560008573ffffffffffffffffffffffffffffffffffffffff1673ffffffffffffffffffffffffffffffffffffffff16815260200190815260200160002060008473ffffffffffffffffffffffffffffffffffffffff1673ffffffffffffffffffffffffffffffffffffffff16815260200190815260200160002060006101000a81548160ff0219169083151502179055508173ffffffffffffffffffffffffffffffffffffffff168373ffffffffffffffffffffffffffffffffffffffff167f17307eab39ab6107e8899845ad3d59bd9653f200f220920489ca2b5937696c3183604051611a32919061242d565b60405180910390a3505050565b611a4a84848461156c565b611a5684848484611d36565b611a95576040517f08c379a0000000000000000000000000000000000000000000000000000000008152600401611a8c90613644565b60405180910390fd5b50505050565b6001816000016000828254019250508190555050565b600081600001549050919050565b611ad9828260405180602001604052806000815250611ebd565b5050565b611ae682611bc9565b611b25576040517f08c379a0000000000000000000000000000000000000000000000000000000008152600401611b1c906136d6565b60405180910390fd5b80600660008481526020019081526020016000209081611b45919061319d565b505050565b606060405180602001604052806000815250905090565b6060611b6c826113cb565b6000611b76611b4a565b90506000815111611b965760405180602001604052806000815250611bc1565b80611ba084611f18565b604051602001611bb19291906132db565b6040516020818303038152906040525b915050919050565b60008073ffffffffffffffffffffffffffffffffffffffff16611beb83611896565b73ffffffffffffffffffffffffffffffffffffffff1614159050919050565b6001811115611d2a57600073ffffffffffffffffffffffffffffffffffffffff168473ffffffffffffffffffffffffffffffffffffffff1614611c9e5780600360008673ffffffffffffffffffffffffffffffffffffffff1673ffffffffffffffffffffffffffffffffffffffff1681526020019081526020016000206000828254611c9691906136f6565b925050819055505b600073ffffffffffffffffffffffffffffffffffffffff168373ffffffffffffffffffffffffffffffffffffffff1614611d295780600360008573ffffffffffffffffffffffffffffffffffffffff1673ffffffffffffffffffffffffffffffffffffffff1681526020019081526020016000206000828254611d219190612ea0565b925050819055505b5b50505050565b50505050565b6000611d578473ffffffffffffffffffffffffffffffffffffffff16611fe6565b15611eb0578373ffffffffffffffffffffffffffffffffffffffff1663150b7a02611d80611416565b8786866040518563ffffffff1660e01b8152600401611da2949392919061377f565b6020604051808303816000875af1925050508015611dde57506040513d601f19601f82011682018060405250810190611ddb91906137e0565b60015b611e60573d8060008114611e0e576040519150601f19603f3d011682016040523d82523d6000602084013e611e13565b606091505b506000815103611e58576040517f08c379a0000000000000000000000000000000000000000000000000000000008152600401611e4f90613644565b60405180910390fd5b805181602001fd5b63150b7a0260e01b7bffffffffffffffffffffffffffffffffffffffffffffffffffffffff1916817bffffffffffffffffffffffffffffffffffffffffffffffffffffffff191614915050611eb5565b600190505b949350505050565b611ec78383612009565b611ed46000848484611d36565b611f13576040517f08c379a0000000000000000000000000000000000000000000000000000000008152600401611f0a90613644565b60405180910390fd5b505050565b606060006001611f2784612226565b01905060008167ffffffffffffffff811115611f4657611f4561289e565b5b6040519080825280601f01601f191660200182016040528015611f785781602001600182028036833780820191505090505b509050600082602001820190505b600115611fdb578080600190039150507f3031323334353637383961626364656600000000000000000000000000000000600a86061a8153600a8581611fcf57611fce613506565b5b04945060008503611f86575b819350505050919050565b6000808273ffffffffffffffffffffffffffffffffffffffff163b119050919050565b600073ffffffffffffffffffffffffffffffffffffffff168273ffffffffffffffffffffffffffffffffffffffff1603612078576040517f08c379a000000000000000000000000000000000000000000000000000000000815260040161206f90613859565b60405180910390fd5b61208181611bc9565b156120c1576040517f08c379a00000000000000000000000000000000000000000000000000000000081526004016120b8906138c5565b60405180910390fd5b6120cf600083836001611c0a565b6120d881611bc9565b15612118576040517f08c379a000000000000000000000000000000000000000000000000000000000815260040161210f906138c5565b60405180910390fd5b6001600360008473ffffffffffffffffffffffffffffffffffffffff1673ffffffffffffffffffffffffffffffffffffffff16815260200190815260200160002060008282540192505081905550816002600083815260200190815260200160002060006101000a81548173ffffffffffffffffffffffffffffffffffffffff021916908373ffffffffffffffffffffffffffffffffffffffff160217905550808273ffffffffffffffffffffffffffffffffffffffff16600073ffffffffffffffffffffffffffffffffffffffff167fddf252ad1be2c89b69c2b068fc378daa952ba7f163c4a11628f55a4df523b3ef60405160405180910390a4612222600083836001611d30565b5050565b600080600090507a184f03e93ff9f4daa797ed6e38ed64bf6a1f0100000000000000008310612284577a184f03e93ff9f4daa797ed6e38ed64bf6a1f010000000000000000838161227a57612279613506565b5b0492506040810190505b6d04ee2d6d415b85acef810000000083106122c1576d04ee2d6d415b85acef810000000083816122b7576122b6613506565b5b0492506020810190505b662386f26fc1000083106122f057662386f26fc1000083816122e6576122e5613506565b5b0492506010810190505b6305f5e1008310612319576305f5e100838161230f5761230e613506565b5b0492506008810190505b612710831061233e57612710838161233457612333613506565b5b0492506004810190505b60648310612361576064838161235757612356613506565b5b0492506002810190505b600a8310612370576001810190505b80915050919050565b6000604051905090565b600080fd5b600080fd5b60007fffffffff0000000000000000000000000000000000000000000000000000000082169050919050565b6123c28161238d565b81146123cd57600080fd5b50565b6000813590506123df816123b9565b92915050565b6000602082840312156123fb576123fa612383565b5b6000612409848285016123d0565b91505092915050565b60008115159050919050565b61242781612412565b82525050565b6000602082019050612442600083018461241e565b92915050565b6000819050919050565b61245b81612448565b811461246657600080fd5b50565b60008135905061247881612452565b92915050565b60008060006060848603121561249757612496612383565b5b60006124a586828701612469565b93505060206124b686828701612469565b92505060406124c786828701612469565b9150509250925092565b600081519050919050565b600082825260208201905092915050565b60005b8381101561250b5780820151818401526020810190506124f0565b60008484015250505050565b6000601f19601f8301169050919050565b6000612533826124d1565b61253d81856124dc565b935061254d8185602086016124ed565b61255681612517565b840191505092915050565b6000602082019050818103600083015261257b8184612528565b905092915050565b60006020828403121561259957612598612383565b5b60006125a784828501612469565b91505092915050565b600073ffffffffffffffffffffffffffffffffffffffff82169050919050565b60006125db826125b0565b9050919050565b6125eb816125d0565b82525050565b600060208201905061260660008301846125e2565b92915050565b612615816125d0565b811461262057600080fd5b50565b6000813590506126328161260c565b92915050565b6000806040838503121561264f5761264e612383565b5b600061265d85828601612623565b925050602061266e85828601612469565b9150509250929050565b60008060006060848603121561269157612690612383565b5b600061269f86828701612623565b93505060206126b086828701612623565b92505060406126c186828701612469565b9150509250925092565b600080604083850312156126e2576126e1612383565b5b60006126f085828601612469565b925050602061270185828601612623565b9150509250929050565b60006020828403121561272157612720612383565b5b600061272f84828501612623565b91505092915050565b61274181612448565b82525050565b600060208201905061275c6000830184612738565b92915050565b6000819050919050565b600061278761278261277d846125b0565b612762565b6125b0565b9050919050565b60006127998261276c565b9050919050565b60006127ab8261278e565b9050919050565b6127bb816127a0565b82525050565b60006020820190506127d660008301846127b2565b92915050565b6127e581612412565b81146127f057600080fd5b50565b600081359050612802816127dc565b92915050565b6000806040838503121561281f5761281e612383565b5b600061282d85828601612623565b925050602061283e858286016127f3565b9150509250929050565b600060808201905081810360008301526128628187612528565b90506128716020830186612738565b61287e6040830185612738565b61288b6060830184612738565b95945050505050565b600080fd5b600080fd5b7f4e487b7100000000000000000000000000000000000000000000000000000000600052604160045260246000fd5b6128d682612517565b810181811067ffffffffffffffff821117156128f5576128f461289e565b5b80604052505050565b6000612908612379565b905061291482826128cd565b919050565b600067ffffffffffffffff8211156129345761293361289e565b5b61293d82612517565b9050602081019050919050565b82818337600083830152505050565b600061296c61296784612919565b6128fe565b90508281526020810184848401111561298857612987612899565b5b61299384828561294a565b509392505050565b600082601f8301126129b0576129af612894565b5b81356129c0848260208601612959565b91505092915050565b600080600080608085870312156129e3576129e2612383565b5b60006129f187828801612623565b9450506020612a0287828801612623565b9350506040612a1387828801612469565b925050606085013567ffffffffffffffff811115612a3457612a33612388565b5b612a408782880161299b565b91505092959194509250565b600067ffffffffffffffff821115612a6757612a6661289e565b5b612a7082612517565b9050602081019050919050565b6000612a90612a8b84612a4c565b6128fe565b905082815260208101848484011115612aac57612aab612899565b5b612ab784828561294a565b509392505050565b600082601f830112612ad457612ad3612894565b5b8135612ae4848260208601612a7d565b91505092915050565b600060208284031215612b0357612b02612383565b5b600082013567ffffffffffffffff811115612b2157612b20612388565b5b612b2d84828501612abf565b91505092915050565b60008060408385031215612b4d57612b4c612383565b5b6000612b5b85828601612623565b9250506020612b6c85828601612623565b9150509250929050565b600060ff82169050919050565b612b8c81612b76565b82525050565b6000602082019050612ba76000830184612b83565b92915050565b7f4e487b7100000000000000000000000000000000000000000000000000000000600052602260045260246000fd5b60006002820490506001821680612bf457607f821691505b602082108103612c0757612c06612bad565b5b50919050565b7f4552433732313a20617070726f76616c20746f2063757272656e74206f776e6560008201527f7200000000000000000000000000000000000000000000000000000000000000602082015250565b6000612c696021836124dc565b9150612c7482612c0d565b604082019050919050565b60006020820190508181036000830152612c9881612c5c565b9050919050565b7f4552433732313a20617070726f76652063616c6c6572206973206e6f7420746f60008201527f6b656e206f776e6572206f7220617070726f76656420666f7220616c6c000000602082015250565b6000612cfb603d836124dc565b9150612d0682612c9f565b604082019050919050565b60006020820190508181036000830152612d2a81612cee565b9050919050565b7f4552433732313a2063616c6c6572206973206e6f7420746f6b656e206f776e6560008201527f72206f7220617070726f76656400000000000000000000000000000000000000602082015250565b6000612d8d602d836124dc565b9150612d9882612d31565b604082019050919050565b60006020820190508181036000830152612dbc81612d80565b9050919050565b600081519050612dd281612452565b92915050565b600060208284031215612dee57612ded612383565b5b6000612dfc84828501612dc3565b91505092915050565b7f6e6f7420656e6f7567682046494c2073656e7400000000000000000000000000600082015250565b6000612e3b6013836124dc565b9150612e4682612e05565b602082019050919050565b60006020820190508181036000830152612e6a81612e2e565b9050919050565b7f4e487b7100000000000000000000000000000000000000000000000000000000600052601160045260246000fd5b6000612eab82612448565b9150612eb683612448565b9250828201905080821115612ece57612ecd612e71565b5b92915050565b6000604082019050612ee96000830185612738565b612ef66020830184612738565b9392505050565b7f4552433732313a20696e76616c696420746f6b656e2049440000000000000000600082015250565b6000612f336018836124dc565b9150612f3e82612efd565b602082019050919050565b60006020820190508181036000830152612f6281612f26565b9050919050565b7f4552433732313a2061646472657373207a65726f206973206e6f74206120766160008201527f6c6964206f776e65720000000000000000000000000000000000000000000000602082015250565b6000612fc56029836124dc565b9150612fd082612f69565b604082019050919050565b60006020820190508181036000830152612ff481612fb8565b9050919050565b60008190508160005260206000209050919050565b60006020601f8301049050919050565b600082821b905092915050565b60006008830261305d7fffffffffffffffffffffffffffffffffffffffffffffffffffffffffffffffff82613020565b6130678683613020565b95508019841693508086168417925050509392505050565b600061309a61309561309084612448565b612762565b612448565b9050919050565b6000819050919050565b6130b48361307f565b6130c86130c0826130a1565b84845461302d565b825550505050565b600090565b6130dd6130d0565b6130e88184846130ab565b505050565b5b8181101561310c576131016000826130d5565b6001810190506130ee565b5050565b601f8211156131515761312281612ffb565b61312b84613010565b8101602085101561313a578190505b61314e61314685613010565b8301826130ed565b50505b505050565b600082821c905092915050565b600061317460001984600802613156565b1980831691505092915050565b600061318d8383613163565b9150826002028217905092915050565b6131a6826124d1565b67ffffffffffffffff8111156131bf576131be61289e565b5b6131c98254612bdc565b6131d4828285613110565b600060209050601f83116001811461320757600084156131f5578287015190505b6131ff8582613181565b865550613267565b601f19841661321586612ffb565b60005b8281101561323d57848901518255600182019150602085019450602081019050613218565b8683101561325a5784890151613256601f891682613163565b8355505b6001600288020188555050505b505050505050565b600060408201905061328460008301856125e2565b81810360208301526132968184612528565b90509392505050565b600081905092915050565b60006132b5826124d1565b6132bf818561329f565b93506132cf8185602086016124ed565b80840191505092915050565b60006132e782856132aa565b91506132f382846132aa565b91508190509392505050565b7f4e6f7420746865206f776e6572206f662074686520626f6f6b00000000000000600082015250565b60006133356019836124dc565b9150613340826132ff565b602082019050919050565b6000602082019050818103600083015261336481613328565b9050919050565b7f4552433732313a207472616e736665722066726f6d20696e636f72726563742060008201527f6f776e6572000000000000000000000000000000000000000000000000000000602082015250565b60006133c76025836124dc565b91506133d28261336b565b604082019050919050565b600060208201905081810360008301526133f6816133ba565b9050919050565b7f4552433732313a207472616e7366657220746f20746865207a65726f2061646460008201527f7265737300000000000000000000000000000000000000000000000000000000602082015250565b60006134596024836124dc565b9150613464826133fd565b604082019050919050565b600060208201905081810360008301526134888161344c565b9050919050565b600061349a82612b76565b91506134a583612b76565b9250828203905060ff8111156134be576134bd612e71565b5b92915050565b60006134cf82612448565b91506134da83612448565b92508282026134e881612448565b915082820484148315176134ff576134fe612e71565b5b5092915050565b7f4e487b7100000000000000000000000000000000000000000000000000000000600052601260045260246000fd5b600061354082612448565b915061354b83612448565b92508261355b5761355a613506565b5b828204905092915050565b7f4552433732313a20617070726f766520746f2063616c6c657200000000000000600082015250565b600061359c6019836124dc565b91506135a782613566565b602082019050919050565b600060208201905081810360008301526135cb8161358f565b9050919050565b7f4552433732313a207472616e7366657220746f206e6f6e20455243373231526560008201527f63656976657220696d706c656d656e7465720000000000000000000000000000602082015250565b600061362e6032836124dc565b9150613639826135d2565b604082019050919050565b6000602082019050818103600083015261365d81613621565b9050919050565b7f45524337323155524953746f726167653a2055524920736574206f66206e6f6e60008201527f6578697374656e7420746f6b656e000000000000000000000000000000000000602082015250565b60006136c0602e836124dc565b91506136cb82613664565b604082019050919050565b600060208201905081810360008301526136ef816136b3565b9050919050565b600061370182612448565b915061370c83612448565b925082820390508181111561372457613723612e71565b5b92915050565b600081519050919050565b600082825260208201905092915050565b60006137518261372a565b61375b8185613735565b935061376b8185602086016124ed565b61377481612517565b840191505092915050565b600060808201905061379460008301876125e2565b6137a160208301866125e2565b6137ae6040830185612738565b81810360608301526137c08184613746565b905095945050505050565b6000815190506137da816123b9565b92915050565b6000602082840312156137f6576137f5612383565b5b6000613804848285016137cb565b91505092915050565b7f4552433732313a206d696e7420746f20746865207a65726f2061646472657373600082015250565b60006138436020836124dc565b915061384e8261380d565b602082019050919050565b6000602082019050818103600083015261387281613836565b9050919050565b7f4552433732313a20746f6b656e20616c7265616479206d696e74656400000000600082015250565b60006138af601c836124dc565b91506138ba82613879565b602082019050919050565b600060208201905081810360008301526138de816138a2565b905091905056fea26469706673582212206311c258fea48e47dbca6d930cb83210272334f9472c1de6668ec67481ea02ff64736f6c63430008110033"}