{
    "address": "0xC3EeFB74C2Fb1c5c8f284b2B0386d9274DBa90dA",
    "abi": [
        {
            "inputs": [
                {
                    "internalType": "address",
                    "name": "book",
                    "type": "address"
                },
                {
                    "internalType": "address",
                    "name": "key",
                    "type": "address"
                }
            ],
            "stateMutability": "nonpayable",
            "type": "constructor"
        },
        {
            "anonymous": false,
            "inputs": [
                {
                    "indexed": true,
                    "internalType": "address",
                    "name": "owner",
                    "type": "address"
                },
                {
                    "indexed": true,
                    "internalType": "uint256",
                    "name": "bookId",
                    "type": "uint256"
                }
            ],
            "name": "BookPublished",
            "type": "event"
        },
        {
            "inputs": [],
            "name": "_book",
            "outputs": [
                {
                    "internalType": "contract Book",
                    "name": "",
                    "type": "address"
                }
            ],
            "stateMutability": "view",
            "type": "function"
        },
        {
            "inputs": [],
            "name": "_key",
            "outputs": [
                {
                    "internalType": "contract Key",
                    "name": "",
                    "type": "address"
                }
            ],
            "stateMutability": "view",
            "type": "function"
        },
        {
            "inputs": [
                {
                    "internalType": "uint256",
                    "name": "",
                    "type": "uint256"
                }
            ],
            "name": "bookIdToOwner",
            "outputs": [
                {
                    "internalType": "address",
                    "name": "",
                    "type": "address"
                }
            ],
            "stateMutability": "view",
            "type": "function"
        },
        {
            "inputs": [],
            "name": "setFeePercentage",
            "outputs": [],
            "stateMutability": "nonpayable",
            "type": "function"
        },
        {
            "inputs": [
                {
                    "internalType": "address",
                    "name": "user1",
                    "type": "address"
                },
                {
                    "internalType": "address",
                    "name": "user2",
                    "type": "address"
                }
            ],
            "name": "swapKeys",
            "outputs": [],
            "stateMutability": "nonpayable",
            "type": "function"
        },
        {
            "inputs": [
                {
                    "internalType": "uint256",
                    "name": "bookId",
                    "type": "uint256"
                }
            ],
            "name": "uploadBook",
            "outputs": [],
            "stateMutability": "nonpayable",
            "type": "function"
        },
        {
            "inputs": [
                {
                    "internalType": "uint256",
                    "name": "bookId",
                    "type": "uint256"
                }
            ],
            "name": "withdrawProfit",
            "outputs": [],
            "stateMutability": "nonpayable",
            "type": "function"
        }
    ],
    "bytecode": "0x60c060405234801561001057600080fd5b50604051610d6f380380610d6f83398181016040528101906100329190610104565b8173ffffffffffffffffffffffffffffffffffffffff1660808173ffffffffffffffffffffffffffffffffffffffff16815250508073ffffffffffffffffffffffffffffffffffffffff1660a08173ffffffffffffffffffffffffffffffffffffffff16815250505050610144565b600080fd5b600073ffffffffffffffffffffffffffffffffffffffff82169050919050565b60006100d1826100a6565b9050919050565b6100e1816100c6565b81146100ec57600080fd5b50565b6000815190506100fe816100d8565b92915050565b6000806040838503121561011b5761011a6100a1565b5b6000610129858286016100ef565b925050602061013a858286016100ef565b9150509250929050565b60805160a051610bce6101a1600039600081816102ce0152818161036c015281816104080152818161049701528181610526015281816105b30152610648015260008181610181015281816102a801526107110152610bce6000f3fe608060405234801561001057600080fd5b506004361061007d5760003560e01c806363cb15341161005b57806363cb1534146100ec57806373e733a01461010857806374ad7ac414610112578063d82a2bea146101305761007d565b80631464845d146100825780634d04928f146100b257806352028be3146100ce575b600080fd5b61009c60048036038101906100979190610841565b61014c565b6040516100a991906108af565b60405180910390f35b6100cc60048036038101906100c79190610841565b61017f565b005b6100d66102a6565b6040516100e39190610929565b60405180910390f35b61010660048036038101906101019190610970565b6102ca565b005b610110610644565b005b61011a610646565b60405161012791906109d1565b60405180910390f35b61014a60048036038101906101459190610841565b61066a565b005b60006020528060005260406000206000915054906101000a900473ffffffffffffffffffffffffffffffffffffffff1681565b7f000000000000000000000000000000000000000000000000000000000000000073ffffffffffffffffffffffffffffffffffffffff166342842e0e3330846040518463ffffffff1660e01b81526004016101dc939291906109fb565b600060405180830381600087803b1580156101f657600080fd5b505af115801561020a573d6000803e3d6000fd5b505050503360008083815260200190815260200160002060006101000a81548173ffffffffffffffffffffffffffffffffffffffff021916908373ffffffffffffffffffffffffffffffffffffffff160217905550803373ffffffffffffffffffffffffffffffffffffffff167ff2a9613cbcef99207cc3c0eba3b844561d4be3a300f6710f5ea4623ae599789a60405160405180910390a350565b7f000000000000000000000000000000000000000000000000000000000000000081565b60007f000000000000000000000000000000000000000000000000000000000000000073ffffffffffffffffffffffffffffffffffffffff1663745c84ca846040518263ffffffff1660e01b815260040161032591906108af565b602060405180830381865afa158015610342573d6000803e3d6000fd5b505050506040513d601f19601f820116820180604052508101906103669190610a47565b905060007f000000000000000000000000000000000000000000000000000000000000000073ffffffffffffffffffffffffffffffffffffffff1663745c84ca846040518263ffffffff1660e01b81526004016103c391906108af565b602060405180830381865afa1580156103e0573d6000803e3d6000fd5b505050506040513d601f19601f820116820180604052508101906104049190610a47565b90507f000000000000000000000000000000000000000000000000000000000000000073ffffffffffffffffffffffffffffffffffffffff166342842e0e8585856040518463ffffffff1660e01b8152600401610463939291906109fb565b600060405180830381600087803b15801561047d57600080fd5b505af1158015610491573d6000803e3d6000fd5b505050507f000000000000000000000000000000000000000000000000000000000000000073ffffffffffffffffffffffffffffffffffffffff166342842e0e8486846040518463ffffffff1660e01b81526004016104f2939291906109fb565b600060405180830381600087803b15801561050c57600080fd5b505af1158015610520573d6000803e3d6000fd5b505050507f000000000000000000000000000000000000000000000000000000000000000073ffffffffffffffffffffffffffffffffffffffff16635290a07685836040518363ffffffff1660e01b815260040161057f929190610a74565b600060405180830381600087803b15801561059957600080fd5b505af11580156105ad573d6000803e3d6000fd5b505050507f000000000000000000000000000000000000000000000000000000000000000073ffffffffffffffffffffffffffffffffffffffff16635290a07684846040518363ffffffff1660e01b815260040161060c929190610a74565b600060405180830381600087803b15801561062657600080fd5b505af115801561063a573d6000803e3d6000fd5b5050505050505050565b565b7f000000000000000000000000000000000000000000000000000000000000000081565b3373ffffffffffffffffffffffffffffffffffffffff1660008083815260200190815260200160002060009054906101000a900473ffffffffffffffffffffffffffffffffffffffff1673ffffffffffffffffffffffffffffffffffffffff161461070a576040517f08c379a000000000000000000000000000000000000000000000000000000000815260040161070190610afa565b60405180910390fd5b60004790507f000000000000000000000000000000000000000000000000000000000000000073ffffffffffffffffffffffffffffffffffffffff1663d82a2bea836040518263ffffffff1660e01b81526004016107689190610b1a565b600060405180830381600087803b15801561078257600080fd5b505af1158015610796573d6000803e3d6000fd5b505050506000479050600082826107ad9190610b64565b90506000811115610800573373ffffffffffffffffffffffffffffffffffffffff166108fc829081150290604051600060405180830381858888f193505050501580156107fe573d6000803e3d6000fd5b505b50505050565b600080fd5b6000819050919050565b61081e8161080b565b811461082957600080fd5b50565b60008135905061083b81610815565b92915050565b60006020828403121561085757610856610806565b5b60006108658482850161082c565b91505092915050565b600073ffffffffffffffffffffffffffffffffffffffff82169050919050565b60006108998261086e565b9050919050565b6108a98161088e565b82525050565b60006020820190506108c460008301846108a0565b92915050565b6000819050919050565b60006108ef6108ea6108e58461086e565b6108ca565b61086e565b9050919050565b6000610901826108d4565b9050919050565b6000610913826108f6565b9050919050565b61092381610908565b82525050565b600060208201905061093e600083018461091a565b92915050565b61094d8161088e565b811461095857600080fd5b50565b60008135905061096a81610944565b92915050565b6000806040838503121561098757610986610806565b5b60006109958582860161095b565b92505060206109a68582860161095b565b9150509250929050565b60006109bb826108f6565b9050919050565b6109cb816109b0565b82525050565b60006020820190506109e660008301846109c2565b92915050565b6109f58161080b565b82525050565b6000606082019050610a1060008301866108a0565b610a1d60208301856108a0565b610a2a60408301846109ec565b949350505050565b600081519050610a4181610815565b92915050565b600060208284031215610a5d57610a5c610806565b5b6000610a6b84828501610a32565b91505092915050565b6000604082019050610a8960008301856108a0565b610a9660208301846109ec565b9392505050565b600082825260208201905092915050565b7f4e6f7420626f6f6b206f776e6572000000000000000000000000000000000000600082015250565b6000610ae4600e83610a9d565b9150610aef82610aae565b602082019050919050565b60006020820190508181036000830152610b1381610ad7565b9050919050565b6000602082019050610b2f60008301846109ec565b92915050565b7f4e487b7100000000000000000000000000000000000000000000000000000000600052601160045260246000fd5b6000610b6f8261080b565b9150610b7a8361080b565b9250828203905081811115610b9257610b91610b35565b5b9291505056fea26469706673582212202a1c4567b5df7a27688572e20f115b6ca960dfe70117babfe98afb7298e257c064736f6c63430008110033"
}