{"address":"0x518BD4A9581FA9998cb86139c992302D487d88Bd","abi":[{"inputs":[{"internalType":"address","name":"book","type":"address"},{"internalType":"address","name":"key","type":"address"}],"stateMutability":"nonpayable","type":"constructor"},{"anonymous":false,"inputs":[{"indexed":true,"internalType":"uint256","name":"bookId","type":"uint256"},{"indexed":false,"internalType":"uint256","name":"purchasePrice","type":"uint256"},{"indexed":false,"internalType":"uint256","name":"rentPrice","type":"uint256"}],"name":"BookPublished","type":"event"},{"inputs":[],"name":"_book","outputs":[{"internalType":"contract Book","name":"","type":"address"}],"stateMutability":"view","type":"function"},{"inputs":[],"name":"_key","outputs":[{"internalType":"contract Key","name":"","type":"address"}],"stateMutability":"view","type":"function"},{"inputs":[{"internalType":"uint256","name":"","type":"uint256"}],"name":"bookIdToOwner","outputs":[{"internalType":"address","name":"","type":"address"}],"stateMutability":"view","type":"function"},{"inputs":[{"internalType":"address","name":"user1","type":"address"},{"internalType":"address","name":"user2","type":"address"}],"name":"swapKeys","outputs":[],"stateMutability":"nonpayable","type":"function"},{"inputs":[{"internalType":"uint256","name":"bookId","type":"uint256"},{"internalType":"uint256","name":"purchasePrice","type":"uint256"},{"internalType":"uint256","name":"rentPrice","type":"uint256"}],"name":"uploadBook","outputs":[],"stateMutability":"nonpayable","type":"function"}],"bytecode":"0x60c060405234801561001057600080fd5b50604051610c4c380380610c4c83398181016040528101906100329190610104565b8173ffffffffffffffffffffffffffffffffffffffff1660808173ffffffffffffffffffffffffffffffffffffffff16815250508073ffffffffffffffffffffffffffffffffffffffff1660a08173ffffffffffffffffffffffffffffffffffffffff16815250505050610144565b600080fd5b600073ffffffffffffffffffffffffffffffffffffffff82169050919050565b60006100d1826100a6565b9050919050565b6100e1816100c6565b81146100ec57600080fd5b50565b6000815190506100fe816100d8565b92915050565b6000806040838503121561011b5761011a6100a1565b5b6000610129858286016100ef565b925050602061013a858286016100ef565b9150509250929050565b60805160a051610ab261019a6000396000818161015b015281816101f90152818161029501528181610324015281816103b30152818161044001526104d301526000818161013501526105980152610ab26000f3fe608060405234801561001057600080fd5b50600436106100575760003560e01c80631464845d1461005c57806352028be31461008c57806363cb1534146100aa57806374ad7ac4146100c6578063815092d7146100e4575b600080fd5b610076600480360381019061007191906106f0565b610100565b604051610083919061075e565b60405180910390f35b610094610133565b6040516100a191906107d8565b60405180910390f35b6100c460048036038101906100bf919061081f565b610157565b005b6100ce6104d1565b6040516100db9190610880565b60405180910390f35b6100fe60048036038101906100f9919061089b565b6104f5565b005b60006020528060005260406000206000915054906101000a900473ffffffffffffffffffffffffffffffffffffffff1681565b7f000000000000000000000000000000000000000000000000000000000000000081565b60007f000000000000000000000000000000000000000000000000000000000000000073ffffffffffffffffffffffffffffffffffffffff1663745c84ca846040518263ffffffff1660e01b81526004016101b2919061075e565b602060405180830381865afa1580156101cf573d6000803e3d6000fd5b505050506040513d601f19601f820116820180604052508101906101f39190610903565b905060007f000000000000000000000000000000000000000000000000000000000000000073ffffffffffffffffffffffffffffffffffffffff1663745c84ca846040518263ffffffff1660e01b8152600401610250919061075e565b602060405180830381865afa15801561026d573d6000803e3d6000fd5b505050506040513d601f19601f820116820180604052508101906102919190610903565b90507f000000000000000000000000000000000000000000000000000000000000000073ffffffffffffffffffffffffffffffffffffffff166342842e0e8585856040518463ffffffff1660e01b81526004016102f09392919061093f565b600060405180830381600087803b15801561030a57600080fd5b505af115801561031e573d6000803e3d6000fd5b505050507f000000000000000000000000000000000000000000000000000000000000000073ffffffffffffffffffffffffffffffffffffffff166342842e0e8486846040518463ffffffff1660e01b815260040161037f9392919061093f565b600060405180830381600087803b15801561039957600080fd5b505af11580156103ad573d6000803e3d6000fd5b505050507f000000000000000000000000000000000000000000000000000000000000000073ffffffffffffffffffffffffffffffffffffffff16635290a07685836040518363ffffffff1660e01b815260040161040c929190610976565b600060405180830381600087803b15801561042657600080fd5b505af115801561043a573d6000803e3d6000fd5b505050507f000000000000000000000000000000000000000000000000000000000000000073ffffffffffffffffffffffffffffffffffffffff16635290a07684846040518363ffffffff1660e01b8152600401610499929190610976565b600060405180830381600087803b1580156104b357600080fd5b505af11580156104c7573d6000803e3d6000fd5b5050505050505050565b7f000000000000000000000000000000000000000000000000000000000000000081565b600073ffffffffffffffffffffffffffffffffffffffff1660008085815260200190815260200160002060009054906101000a900473ffffffffffffffffffffffffffffffffffffffff1673ffffffffffffffffffffffffffffffffffffffff1614610596576040517f08c379a000000000000000000000000000000000000000000000000000000000815260040161058d906109fc565b60405180910390fd5b7f000000000000000000000000000000000000000000000000000000000000000073ffffffffffffffffffffffffffffffffffffffff166304ed59178484846040518463ffffffff1660e01b81526004016105f393929190610a1c565b600060405180830381600087803b15801561060d57600080fd5b505af1158015610621573d6000803e3d6000fd5b505050503360008085815260200190815260200160002060006101000a81548173ffffffffffffffffffffffffffffffffffffffff021916908373ffffffffffffffffffffffffffffffffffffffff160217905550827f204930f3db2bb7f6984c024cf2a93710045c72024ec59bff7d4e63b2409c841e83836040516106a8929190610a53565b60405180910390a2505050565b600080fd5b6000819050919050565b6106cd816106ba565b81146106d857600080fd5b50565b6000813590506106ea816106c4565b92915050565b600060208284031215610706576107056106b5565b5b6000610714848285016106db565b91505092915050565b600073ffffffffffffffffffffffffffffffffffffffff82169050919050565b60006107488261071d565b9050919050565b6107588161073d565b82525050565b6000602082019050610773600083018461074f565b92915050565b6000819050919050565b600061079e6107996107948461071d565b610779565b61071d565b9050919050565b60006107b082610783565b9050919050565b60006107c2826107a5565b9050919050565b6107d2816107b7565b82525050565b60006020820190506107ed60008301846107c9565b92915050565b6107fc8161073d565b811461080757600080fd5b50565b600081359050610819816107f3565b92915050565b60008060408385031215610836576108356106b5565b5b60006108448582860161080a565b92505060206108558582860161080a565b9150509250929050565b600061086a826107a5565b9050919050565b61087a8161085f565b82525050565b60006020820190506108956000830184610871565b92915050565b6000806000606084860312156108b4576108b36106b5565b5b60006108c2868287016106db565b93505060206108d3868287016106db565b92505060406108e4868287016106db565b9150509250925092565b6000815190506108fd816106c4565b92915050565b600060208284031215610919576109186106b5565b5b6000610927848285016108ee565b91505092915050565b610939816106ba565b82525050565b6000606082019050610954600083018661074f565b610961602083018561074f565b61096e6040830184610930565b949350505050565b600060408201905061098b600083018561074f565b6109986020830184610930565b9392505050565b600082825260208201905092915050565b7f426f6f6b20616c72656164792075706c6f616465640000000000000000000000600082015250565b60006109e660158361099f565b91506109f1826109b0565b602082019050919050565b60006020820190508181036000830152610a15816109d9565b9050919050565b6000606082019050610a316000830186610930565b610a3e6020830185610930565b610a4b6040830184610930565b949350505050565b6000604082019050610a686000830185610930565b610a756020830184610930565b939250505056fea2646970667358221220183bd0f8bbabe851030a9889e2eef1fd9b72a18ab648551cbe4ba5d17bf68d0c64736f6c63430008110033"}