{"address":"0x83e9788Ba52F75ed8De84b257938655b5b07f6fC","abi":[{"inputs":[],"stateMutability":"nonpayable","type":"constructor"},{"anonymous":false,"inputs":[{"indexed":true,"internalType":"address","name":"caller","type":"address"}],"name":"Added","type":"event"},{"inputs":[{"internalType":"uint256","name":"age","type":"uint256"},{"internalType":"address","name":"user","type":"address"}],"name":"access","outputs":[{"internalType":"uint8","name":"","type":"uint8"}],"stateMutability":"pure","type":"function"},{"inputs":[],"name":"add","outputs":[],"stateMutability":"nonpayable","type":"function"},{"inputs":[],"name":"integer","outputs":[{"internalType":"uint256","name":"","type":"uint256"}],"stateMutability":"view","type":"function"}],"bytecode":"0x608060405234801561001057600080fd5b5060016000819055506103d6806100286000396000f3fe608060405234801561001057600080fd5b50600436106100415760003560e01c806309efb8ff146100465780634f2be91f1461006457806395e9463f1461006e575b600080fd5b61004e61009e565b60405161005b919061019f565b60405180910390f35b61006c6100a4565b005b61008860048036038101906100839190610249565b6100fe565b60405161009591906102a5565b60405180910390f35b60005481565b60016000546100b391906102ef565b6000819055503373ffffffffffffffffffffffffffffffffffffffff167fdcfefddfe354ab15def7a2a6a8758e2ad4100c920318c627db94e29d833e156760405160405180910390a2565b60008073ffffffffffffffffffffffffffffffffffffffff168273ffffffffffffffffffffffffffffffffffffffff161415801561013d575060128310155b61017c576040517f08c379a000000000000000000000000000000000000000000000000000000000815260040161017390610380565b60405180910390fd5b6004905092915050565b6000819050919050565b61019981610186565b82525050565b60006020820190506101b46000830184610190565b92915050565b600080fd5b6101c881610186565b81146101d357600080fd5b50565b6000813590506101e5816101bf565b92915050565b600073ffffffffffffffffffffffffffffffffffffffff82169050919050565b6000610216826101eb565b9050919050565b6102268161020b565b811461023157600080fd5b50565b6000813590506102438161021d565b92915050565b600080604083850312156102605761025f6101ba565b5b600061026e858286016101d6565b925050602061027f85828601610234565b9150509250929050565b600060ff82169050919050565b61029f81610289565b82525050565b60006020820190506102ba6000830184610296565b92915050565b7f4e487b7100000000000000000000000000000000000000000000000000000000600052601160045260246000fd5b60006102fa82610186565b915061030583610186565b925082820190508082111561031d5761031c6102c0565b5b92915050565b600082825260208201905092915050565b7f6164647265737320726571756972656400000000000000000000000000000000600082015250565b600061036a601083610323565b915061037582610334565b602082019050919050565b600060208201905081810360008301526103998161035d565b905091905056fea2646970667358221220516b45583094f6ec5c9104dda63241a2c8397a616837043c996e78062bd0109c64736f6c63430008110033"}