{
    "address": "0x455C50853cE64AFbd50E9bBFC48E7ABb4d49bddf",
    "abi": [
        {
            "inputs": [],
            "stateMutability": "nonpayable",
            "type": "constructor"
        },
        {
            "anonymous": false,
            "inputs": [
                {
                    "indexed": true,
                    "internalType": "address",
                    "name": "caller",
                    "type": "address"
                }
            ],
            "name": "Added",
            "type": "event"
        },
        {
            "inputs": [],
            "name": "add",
            "outputs": [],
            "stateMutability": "nonpayable",
            "type": "function"
        },
        {
            "inputs": [],
            "name": "integer",
            "outputs": [
                {
                    "internalType": "uint256",
                    "name": "",
                    "type": "uint256"
                }
            ],
            "stateMutability": "view",
            "type": "function"
        }
    ],
    "bytecode": "0x608060405234801561001057600080fd5b506001600081905550610190806100286000396000f3fe608060405234801561001057600080fd5b50600436106100365760003560e01c806309efb8ff1461003b5780634f2be91f14610059575b600080fd5b610043610063565b60405161005091906100dc565b60405180910390f35b610061610069565b005b60005481565b60016000546100789190610126565b6000819055503373ffffffffffffffffffffffffffffffffffffffff167fdcfefddfe354ab15def7a2a6a8758e2ad4100c920318c627db94e29d833e156760405160405180910390a2565b6000819050919050565b6100d6816100c3565b82525050565b60006020820190506100f160008301846100cd565b92915050565b7f4e487b7100000000000000000000000000000000000000000000000000000000600052601160045260246000fd5b6000610131826100c3565b915061013c836100c3565b9250828201905080821115610154576101536100f7565b5b9291505056fea2646970667358221220e7c68777d485cc3637ac6c21e7b8d7a8ca32716a3018d7c36cf508067fa4f54e64736f6c63430008110033"
}